S00A00006970722E7333379F
S315080000000020002045260008475F0308475F0308CD
S31508000010A17F0308475F0308475F0308475F030894
S31508000020475F0308475F0308475F0308475F0308FE
S31508000030475F0308475F0308475F0308475F0308EE
S31508000040475F0308475F0308475F0308475F0308DE
S3150800005049370008475F0308475F0308475F0308F7
S31508000060475F0308475F0308475F0308475F0308BE
S31508000070475F0308475F0308475F0308475F0308AE
S31508000080475F0308A9190008475F0308475F030885
S31508000090475F0308CD200008475F0308475F03084A
S315080000A0475F0308F52B0008D12B0008475F0308B4
S315080000B0475F030881C3020865CD02087FDB040891
S315080000C07BDB04084DC502088BDB040883DB0408C8
S315080000D03DCD020887DB0408C5CD0208A5CD020878
S315080000E0475F0308475F0308475F0308475F03083E
S315080000F09D7F0308475F0308475F0308475F0308B8
S31508000100475F030861190008475F0308475F03084C
S31508000110475F0308475F0308475F0308475F03080D
S31508000120475F0308475F0308475F0308475F0308FD
S31508000130475F0308475F0308475F0308475F0308ED
S31508000140475F0308475F0308475F0308A98003085A
S3150800015089AC0208475F030817D904081DD90408A3
S31508000160475F0308475F0308475F0308475F0308BD
S31508000170013800D0FCE770472DE9F04F2DED088BCC
S31508000180064691B0DFF838C30AAD0C461746BCE8F8
S315080001900F000FC59CE8030085E80300BC4D00224C
S315080001A02946304605F01EF96379984238BF184645
S315080001B05FFA80FB304605F0E1F8207950B92A202D
S315080001C003F0D2FDA842014628BFB0FBFBF130463A
S315080001D005F0E2F8E3784FEA0B721B0102F0E04201
S315080001E003F0300313430004227800F4FE000343AF
S315080001F00AB143F0020362780AB143F00403A27815
S315080002000AB143F008034FF0000A9FED9F9BB360C5
S31508000210E38822893361638943EA024333629D4B4B
S315080002209E4202D1BAF1020F08D1012306F5805683
S31508000230736011B0BDEC088BBDE8F08F00223C78E6
S3150800024095489649BD68944208BF014623463046FC
S31508000250CDF800B005F0E0F8ADB285422B4638BFC0
S31508000260034606EB0A12956C05938D4B04F00301C1
S315080002702B4019437B7838799B0003F01C0541EA2B
S315080002800503B9784FEA0A184901CDB243EA0501D0
S31508000290FB781B0303F4E0430B43010401F4E0215C
S315080002A00B43397C490501F460010B437979090749
S315080002B001F040510B439364936C7A4AC3F30233BB
S315080002C0013B042B1ED8DFE803F01D1D03161A0098
S315080002D0D2F880512D0C012C17D9022C00F01F8161
S315080002E0059B4FEA0A12C3F309006F4B0AF1010A8C
S315080002F09850143793E7D2F88451ADB2EBE7D2F8A9
S315080003008451E7E7D2F88051F7E706EB08039A6CC1
S31508000310C2F30232531E012B624B70D8DFED637AAB
S31508000320D3F88051ADB22B044FF0010308F1B2485F
S3150800033008F58048D8F8482025F4C049C2F3820257
S3150800034002F1010103FA01F307EE103A4FEA89496F
S31508000350B8EEC7AAF6EE008A524948BF49F00049E6
S31508000360002A79D1002C74D1D1F88C311BB208EE51
S31508000370103AB8EEC88A37EE888A002840F0B88066
S3150800038009A805F07FF9DFED4A7ADFED4A6A86EEBD
S315080003908A7ADFED496A67EE887A27EE267AF1EEE1
S315080003A0006AB9F1004F07EEA67A0BD0DFED436A73
S315080003B007EE905A37EE266AFAEEE87AB0EE667AD3
S315080003C017EE867AB5EEC07AF1EE10FACABFB1EE2C
S315080003D0477A38EEC77A37EE687AFDEEC77A17EEAF
S315080003E0903AB3F5003FC0F290806FEA59436FEA3E
S315080003F0434328490AF1050212018B5070E7032A84
S315080004000ED1D3F880512D0C3CB9D3F88C311B147E
S3150800041007EE903AF8EEE77A85E7D3F89431F6E7EF
S31508000420042AD3F8845109D1ADB224B9D3F88C3152
S315080004301B145B00ECE7D3F89431F9E72D0C2CB9C3
S31508000440D3F88C311B1403EB4303E1E7D3F894315B
S31508000450F8E7D1F8943189E7002C3DD1D1F89031ED
S315080004601BB207EE103AB8EEC77A77EE677A2AEE2D
S31508000470287A0C4B87EE878AD3F888311BB207EEA9
S31508000480903AF8EEE77A76E70000000000000040B0
S31508000490005A62020040005980969800404B4C0072
S315080004A0008F18CF0080E00F54400059000000006C
S315080004B03D3B843F00008043000020440000004983
S315080004C0DCE3040800007A440000B8420000003863
S315080004D0E71B753F00000047D1F898311BB207EEBD
S315080004E0103AB8EEC77A37EE677A77EE877ABEE7BC
S315080004F0D7ED037A5FED0D6AF8EE677A87EEA67A8E
S31508000500F7EE046AC6EE877A3FE713F5003FAABFFF
S31508000510C3F3110349F4003343EA090369E704F016
S31508000520A1FF07EE900A1FED197AF8EE677A08F12F
S31508000530B24303F58043986C10ABC0F3421003EB4B
S31508000540800313ED068A87EE87BA5FED217AB4EE4B
S31508000550678AF7EE00AAF1EE10FA1CBF78EE2A7A3F
S3150800056088EE277A07EE905A1FED28AAF8EE677AE2
S3150800057008BF1FED297A67EE8A7A67EE877A1FED3C
S315080005802B7A67EE877AF5EEC07AF6EE008AF1EEF8
S3150800059010FA4CBF77EEE87A77EEA87A08F1B244FB
S315080005A004F58044236DFDEEE77A0023236517EEF4
S315080005B0903A17EE901A13F4004F236D18BF43F0C4
S315080005C0004323653E4B226D03EA814313432365AB
S315080005D03C4BD3F88821D3F8888133F063FAB0EE20
S315080005E0490AF0EE690A41EC110B00F0A9F90FFA75
S315080005F088F007EE900AF8EEE77A17EE900A8DED86
S31508000600060B33F071FADDE9062380468946002099
S31508000610002133F0EBFB02460B464046494633F0D1
S3150800062005F933F0CBFCDFED287AF7EE046A87EE9E
S31508000630887A38EE2A8AC7EE087A86EE8B7A06EE2C
S31508000640900A27EE267AF1EE006A47EE267A9FEDA3
S315080006501F7A77EE877A17EE900A33F045FA07EE97
S31508000660905AB8EEE77A67EE0A7A804617EE900A4D
S31508000670894633F039FA01F1004302900393DDE924
S3150800068002234046494633F087FA0022104B33F0DE
S31508000690CDF833F093FC07EE900AF5EEC07AF1EE4A
S315080006A010FA4CBF77EEE87A77EEA87AFDEEE77A8D
S315080006B017EE903A226DC3F31103134323650FE631
S315080006C00000FC7F0080E00F000080480000004921
S315080006D00000204100000000734B73B5198811F023
S315080006E0010140F0DA8041F60B22704D704BA9608B
S315080006F0C5E900316F4B19609A806F4B1B6ADB079F
S3150800070006D440F29D316D4B6D4A6E4833F036FE85
S31508000710284625F01DFA044620B940F2A1316A4B55
S31508000720674AF2E726F088F920B140F2A531674B0F
S31508000730634AEAE74FF0011120464CF0C5FD20B1A7
S3150800074040F2A931614B5E4ADFE7022120464CF0B0
S31508000750A7FC20B14FF46B715C4B594AD5E720468C
S315080007605B4925F085FF20B140F2AF31574B544A1B
S31508000770CBE7012120464CF0D2FE20B14FF46D7133
S31508000780524B4F4AC1E7012120464CF0D8FE064697
S3150800079020B140F2B7314D4B494AB6E701463C22F3
S315080007A04C484DF03FFA80233246204605F11001A9
S315080007B04CF0D6FD802804D040F2BE31464B404A64
S315080007C0A3E7464D012025F017FA35A3D3E9002300
S315080007D02C602046CDE900234FF0FF324FF0FF335F
S315080007E04CF090FC20B140F2FB21384B3C4A8CE798
S315080007F030480BF055F8012108460BF0BFF80121E7
S3150800080028684CF0F5FB044620B140F252412F4BC4
S31508000810344A7AE7344B354A98801A60344B354A5D
S3150800082098801A60344B354A98801A60344A6FF0BB
S3150800083063005A6116F0A0FF0B200AF0EBFF314B5C
S31508000840186020B940F263412F4B264A5DE705F050
S31508000850C1F9214628684CF092FC20B140F2FD31DE
S315080008601A4B2A4A51E70822286811464CF04CFCD4
S31508000870044620B140F26741254B1A4A45E70CF079
S31508000880D3F8244B24481C70244B1C70244B1C7032
S3150800089002B0BDE870403EF048BA02B070BD00BF75
S315080008A00B6020FF22020000FA88002068800020E2
S315080008B041BC0008608000200080E00F8EEB040831
S315080008C050ED0408C5E60408A7EB040829E6040861
S315080008D02CEE040804810020B6EB04085C80002096
S315080008E043ED0408B2ED0408F8250020E48B002047
S315080008F0D0250020648B002020260020668C00204E
S315080009004826002000810020EEEB040809ED0408C3
S3150800091009EC0408598B00208DEC0408658C00202E
S31508000920648C002000000000B0EE401AF0EE601A59
S315080009309FED010B00F004B8000000000000004025
S31508000940F8B52DED028B57EC106B55EC114B00F0FA
S31508000950CBF8634BB0EE408AF0EE608A93F900302C
S3150800096001332AD022462B462046294635F00AFA74
S3150800097018BB32463B463046394635F003FA00285E
S3150800098044D1002200233046394635F0C9F9D8B19A
S31508000990002200232046294635F0C2F900283DD119
S315080009A045EC104B34F0A8FF38B120462946002202
S315080009B0002335F0BFF900285CD1B0EE480AF0EE06
S315080009C0680ABDEC028BF8BDB0EE480AF0EE680A7C
S315080009D034F092FF58B30022002351EC180B35F07F
S315080009E09FF90028E9D047EC106B34F085FF002802
S315080009F0E3D045EC104B34F07FFF0028DDD034F00F
S31508000A0053F922239FED2E8B0360D6E7204629460D
S31508000A100022002335F084F90028CED09FED2A8BDA
S31508000A20B0EE480AF0EE680ABDEC028BF8BD47EC5A
S31508000A30106B34F061FF0028CDD045EC104B34F034
S31508000A405BFF0028C7D018EE100A53EC182B19467E
S31508000A5035F098F920BB34F027F9222203463946A7
S31508000A6030461A600022002335F064F948B99FED34
S31508000A70188BA2E734F018F921239FED178B036032
S31508000A809BE745EC104B34F045FF22462B4651ECCC
S31508000A90100B35F045F90028E9D19FED0F8B8CE74F
S31508000AA034F002F90022002321210160104619467C
S31508000AB033F09CF941EC180B7FE700BFAFF30080D9
S31508000AC00000000000000000000000000000F03FE9
S31508000AD0000000000000F07F000000000000F0FFAA
S31508000AE0AE230020000000002DE9F04F55EC114B15
S31508000AF025F0004A5AEA04022DED0C8B87B01FD068
S31508000B005D4910EE102A57EC106B27F00048B946DD
S31508000B10884511DCAB4611EE103A08D13EB157486C
S31508000B2007B0BDEC0C8BBDE8F04F00F071BD524923
S31508000B308A4501DC0BD153B1514B43441343EED1E3
S31508000B409FED490B07B0BDEC0C8BBDE8F08FB9F1F2
S31508000B50000F45DB0021009183B9474B9A455BD0CE
S31508000B60484B9A456AD0BBF1804F00F0B084464B9B
S31508000B709B4503D1B9F1000F80F20D85029247EC2F
S31508000B80106B34F0AFFE029A4AB929F040433D4A49
S31508000B90934200F0A883B8F1000F00F0A4834FEA4F
S31508000BA0D973009A013B049313434ED0374B9A45A9
S31508000BB072DD03F104739A45354B40F32B8498454F
S31508000BC040F3A983BBF1000F40F3A98328A3D3E917
S31508000BD000231046194632F0DFFF41EC100BB1E74F
S31508000BE02C498A4527DCA1F154718A45B2DD4FEAC2
S31508000BF02A51A1F2FF31142940F37D84C1F1340151
S31508000C0023FA01F000FA01F19942A3D100F001009C
S31508000C10C0F1020100919FE7194B434413438FD05B
S31508000C201B4B984540F3AB83BBF1000FC0F27783AB
S31508000C3045EC104B86E7022100918DE7BBF1000FCA
S31508000C40C0F24F8447EC106B7CE732463B461046B1
S31508000C50194632F0E9FD02460B4633F0C7F841EC77
S31508000C60100B6FE7AFF30080000000000000F03FB4
S31508000C709C7500883CE4377E0000F07F30600508EC
S31508000C80000010C00000F03F0000E03F0000E04117
S31508000C90FFFFEF3FFFFF3F43E34B002209EA030351
S31508000CA053B9E24B51EC100B32F076FF6FF0340279
S31508000CB041EC100B10EE908A4FEA2853C8F313083C
S31508000CC0DB4EA3F2FF3348EA06069A18D94B984535
S31508000CD0059207DDD84B984540F333840132A6F5D3
S31508000CE08016059200279FEDB87B9FEDB96BB0EE95
S31508000CF047DAF0EE67DAB0EE47CAF0EE67CA51ECAB
S31508000D00160B53EC102B3346761043EC192B41EC9B
S31508000D101A0B02460B4646F0005651EC190B32F0F8
S31508000D2083FD8046894653EC1A2B51EC190B32F099
S31508000D307DFD02460B460020BD4933F057F841ECCD
S31508000D401B0B53EC1B2B4046494632F025FF0A463F
S31508000D5006F5002341EC180B01460020CDE90212E6
S31508000D600021064602460291D919DDE902AB0F4673
S31508000D700B465046594632F00FFF02460B46404690
S31508000D80494632F051FD804689463046394653EC8D
S31508000D901A2B32F049FD02460B4651EC190B32F07C
S31508000DA043FD52465B4632F0F7FE02460B46404686
S31508000DB0494632F039FD53EC1B2B32F0EDFE53EC6D
S31508000DC0182B41EC1A0B51EC180B32F0E5FE0646CF
S31508000DD00F4681A3D3E9002332F0DEFE80A3D3E9D0
S31508000DE0002332F023FD32463B4632F0D5FE7EA381
S31508000DF0D3E9002332F01AFD32463B4632F0CCFEE8
S31508000E007BA3D3E9002332F011FD32463B4632F08C
S31508000E10C3FE79A3D3E9002332F008FD32463B46E8
S31508000E2032F0BAFE76A3D3E9002332F0FFFC8046FF
S31508000E30894632463B463046394632F0ADFE0246D2
S31508000E400B46404649464FF0000832F0A5FE52468A
S31508000E5006460F465B4651EC180B32F0E7FC53EC9E
S31508000E601A2B32F099FE32463B4632F0DFFC5246E8
S31508000E705B4641EC190B5046594632F08DFE00226E
S31508000E806E4B06460F4632F0D1FC53EC192B32F066
S31508000E90CDFC8946424650464B46594632F07CFEC2
S31508000EA0002282468B46654B4046494632F0BCFCDA
S31508000EB032463B4632F0B8FC02460B4651EC190B5B
S31508000EC032F0B2FC53EC182B32F066FE06460F469B
S31508000ED042464B4651EC1A0B32F05EFE02460B4672
S31508000EE03046394632F0A2FC80468946504642468C
S31508000EF059464B4632F09AFC00200F46064642A356
S31508000F00D3E9002332F048FE52465B4641EC190B02
S31508000F103046394632F088FC02460B46404649467A
S31508000F2032F082FC3AA3D3E9002332F035FE80463C
S31508000F3089463046394638A3D3E9002332F02CFED9
S31508000F4002460B464046494632F070FC53EC1C2BD1
S31508000F5032F06CFC06460F46059832F0B3FD324671
S31508000F60804689463B4651EC190B32F05FFC53EC40
S31508000F701D2B32F05BFC42464B4632F057FC0020F4
S31508000F8042464B4682468B4632F04EFC53EC1D2BAE
S31508000F9032F04AFC53EC192B32F046FC02460B465B
S31508000FA03046394632F040FC009B049A013B134315
S31508000FB041EC180B40F0DC819FED197BB0EE479AA7
S31508000FC0F0EE679A3CE000BF000000000000000059
S31508000FD0000000000000F03FEF4E454A287ECA3F59
S31508000FE065DBC9934A86CD3F01411DA96074D13F8F
S31508000FF04D268F515555D53FFFAB6FDBB66DDB3FA1
S31508001000033333333333E33F000000E009C7EE3FD1
S31508001010FD033ADC09C7EE3FF5015B14E02F3EBE3F
S31508001020000000000000F0BF0000F07F0000404311
S315080010300000F03F8E98030079B60B0000000840C8
S31508001040002320462946CDE900450093DDE90089BD
S3150800105042464B4632F0E8FB5B46524632F09CFD70
S3150800106006460F4622462B4651EC180B32F094FDE5
S3150800107002460B463046394632F0D8FB424604460D
S315080010800D464B4659465046A04632F085FD064663
S315080010900F462046294632463B46A94632F0C6FB4D
S315080010A0D54B04460D4699428B4640F33B81D34BBC
S315080010B00B44034340F0358240464946B6A3D3E97C
S315080010C0002332F0B3FB32463B4641EC180B204670
S315080010D0294632F0A9FB02460B4651EC180B34F0B0
S315080010E047FE002840F01D82CBF30A534FF48012C6
S315080010F0A3F2FE33C24CBBF1000F42FA03F34FF0E2
S3150800110000005B44C3F30A52C3F3130AA2F2FF3288
S315080011104AF4801A44FA02F4C2F1140223EA0401DA
S315080011204AFA02FA024630460B46B8BFCAF1000A26
S31508001130394632F079FB02460B4606460F464046CC
S3150800114049464FEA0A5B32F071FB0D4600242946F0
S3150800115093A3D3E90023204632F01EFD32463B46D0
S3150800116006460F462046294632F05EFB02460B46E7
S315080011704046494632F058FB8BA3D3E9002332F0A8
S315080011800BFD804689462046294689A3D3E90023D4
S3150800119032F002FD02460B464046494632F046FB0F
S315080011A0804689463046424639464B4632F03EFB33
S315080011B0324604460D463B4632F036FB02460B469F
S315080011C04046494632F030FB2246804689462B4641
S315080011D02046294632F0E0FC06460F4676A3D3E9B8
S315080011E0002332F0D9FC76A3D3E9002332F01CFBA6
S315080011F032463B4632F0D0FC73A3D3E9002332F0E3
S3150800120015FB32463B4632F0C7FC71A3D3E90023EF
S3150800121032F00AFB32463B4632F0BEFC6EA3D3E9F7
S31508001220002332F003FB32463B4632F0B5FC024659
S315080012300B462046294632F0F7FA06460F46204660
S31508001240324629463B4632F0A7FC00224FF080433F
S3150800125041EC180B3046394632F0E6FA02460B46A0
S3150800126051EC180B32F0C2FD424606460F464B4675
S315080012702046294632F090FC42464B4632F0D6FAD2
S3150800128002460B463046394632F0CEFA22462B46FF
S3150800129032F0CAFA02460B4600205A4932F0C4FA1E
S315080012A08B4402460B46BBF5801FC0F26C8159463B
S315080012B053EC192B32F070FC41EC100B42E447EC6E
S315080012C0106B009234F00EFB009A002A7FF4BDAC36
S315080012D029F040434B4A934203D0B8F1000F7FF4FC
S315080012E0B4AC00230093BBF1000F07DA0020454990
S315080012F053EC102B32F07AFD41EC100BB9F1000FCC
S31508001300BFF620AC404B009A4344134340F02D816E
S3150800131053EC102B9BE4BBF1000FFFF657AC9FED87
S31508001320300B0FE421F00043DFF8E4C0634540F3D7
S31508001330F080364B0B4403430AD132463B4632F023
S3150800134073FA42464B4634F009FD00283FF4CCAE0A
S3150800135025A3D3E9002351EC190B32F01DFC22A377
S31508001360D3E9002332F018FC41EC100BFFF7EABB77
S315080013709FED1F7BB0EE479AF0EE679A60E6BBF1E9
S31508001380000FCCDA05F1004300EE104A00EE903A61
S31508001390FFF7D8BBAFF30080FE822B654715973C55
S315080013A000000000432EE63FEF39FAFE422EE63FE4
S315080013B0396CA80C615C20BED0A4BE726937663E43
S315080013C0F16BD2C541BDBB3E2CDE25AF6A56113F37
S315080013D093BDBE166CC1663F3E5555555555C53F1E
S315080013E0000000000000000059F3F8C21F6EA501B6
S315080013F0000000000000F03FFFFF8F40000070BFB4
S31508001400FFFF0F000000F03F000010C000346F3FE0
S31508001410FFCB90409845FFF67EAF794B98453FF74E
S31508001420D1AB0022764B51EC100B32F0FDF9064693
S315080014300F4663A3D3E9002332F0AEFB82468B4600
S315080014403046394660A3D3E9002332F0A5FB0022D3
S315080014506C4B41EC180B3046394632F09DFB024680
S315080014600B465BA1D1E9000132F0DEF932463B4674
S3150800147032F092FB02460B460020634932F0D4F95B
S315080014808046894632463B463046394632F084FB2A
S3150800149002460B464046494632F07EFB4EA3D3E948
S315080014A0002332F079FB02460B4651EC180B32F05A
S315080014B0BBF906460F465046594632463B4632F079
S315080014C0B5F9002052465B4682468B4664E53246AD
S315080014D03B463046394632F05FFB41EC100BFFF7CE
S315080014E031BB0020464932463B4632F07FFC41EC90
S315080014F0100BFFF727BB002B7FF4E1AEC1F11401F7
S315080015004AFA01F000FA01F151454DD00093FFF770
S3150800151027BB3D4A93424EDCDDE9002393469246BB
S3150800152014E62FA3D3E9002351EC190B32F034FB50
S315080015302BA3D3E9002332F02FFB41EC100BFFF766
S3150800154001BB9FED297B4FF48027B0EE47DAF0EE1A
S3150800155067DA9FED277BB0EE47CAF0EE67CA9FEDC4
S31508001560267B51EC170BFFF7CCBB009B012B7FF4B6
S31508001570E9AA10EE901A10EE102A01F1004343EC86
S31508001580102BFFF7DFBA504643EC102B00F048F853
S3150800159051EC100B8CE647EC106B07B0BDEC0C8BCE
S315080015A0BDE8F04F33F08ABF00F00100C0F1020336
S315080015B00093FFF7D5BA1B1598E500BFAFF3008077
S315080015C0000000604715F73F44DF5DF80BAE543E58
S315080015D0555555555555D53FFE822B654715F73F49
S315080015E09C7500883CE4377E0000004003B8E23F63
S315080015F006D0CF43EBFD4C3E000000000000F83F4C
S315080016000000F03F0000D03F0000E03F000000006F
S315080016109FED010B704700BF000000000000F87F37
S3150800162038B553EC102BC3F30A519C46044689BBC4
S3150800163023F0004C10EE101A5CEA010129D03E4D49
S31508001640194600223D4B10EE100A32F0A5FAAC42BC
S3150800165002460B4616DB8C46C1F30A51363921443D
S3150800166040F2FE70814221DC002947DC11F1350F7A
S3150800167034DA4CF250318C4218DC002B26A1D1E921
S31508001680000143DB24A3D3E9002332F085FA41ECB9
S31508001690100B38BD40F2FF7E7145E0D110EE100AFE
S315080016A0194632F0C3F841EC100B38BD002B1CA1CB
S315080016B0D1E9000107DB1AA3D3E9002332F06CFA5B
S315080016C041EC100B38BD18A1D1E9000114A3D3E9E8
S315080016D0002332F061FA41EC100BF3E71848363173
S315080016E01446184B0CEA0000002240EA0155204631
S315080016F0294632F051FA41EC100B38BD10480CEA75
S31508001700000040EA015343EC102B38BD08A1D1E98B
S315080017100001B7E7AFF3008059F3F8C21F6EA501C1
S315080017209C7500883CE4377E9C7500883CE437FE4F
S3150800173059F3F8C21F6EA581B03CFFFF0000504365
S31508001740FFFF0F800000903C10B5054C237833B995
S31508001750044B13B1044800E000BF0123237010BDF9
S31508001760A0730020000000001891050808B5034B77
S315080017701BB10349034800E000BF08BD0000000094
S31508001780A473002018910508A3F5803A704700BF96
S31508001790174B002B08BF134B9D46FFF7F5FF00219B
S315080017A08B460F461348144A121A4CF03BFA0E4B56
S315080017B0002B00D098470D4B002B00D098470020EF
S315080017C0002104000D000D48002802D00C4800E056
S315080017D000BF32F01FFE2000290000F08FFB32F018
S315080017E0F3FD00BF00000800000000000000000034
S315080017F000200020642500204C8D002000000000F9
S315080018000000000010B5274C02F0D6FC02F054FE8A
S31508001810236F23F0070343F00303236734F00FFD18
S31508001820214B00209B6ADB015EBF4FF480321F4BC1
S315080018309A62D4F8203123F0070343F00203C4F870
S315080018402031D4F8283123F0070343F00203C4F803
S315080018502831D4F8403123F0030343F00203C4F8D7
S315080018604031D4F8603123F0030343F00203C4F88F
S315080018706031D4F8403223F0030343F00203C4F87E
S315080018804032D4F8003223F0070343F00203C4F8C9
S315080018900032D4F8083223F0070343F00203C4F8F1
S315080018A0083210BD008000500040005A0060005AFF
S315080018B007B501A803F0E6FE9DF80530012B14D103
S315080018C09DF804308BB94FF48012124B1249586EAA
S315080018D003F580535A664B6B23F0E05343F040639D
S315080018E04B63C3025CBF0D4B5A6608F08DFA36F09F
S315080018F04EFB36F051FB08F039FA08F06DFAFFF79F
S3150800190081FF08F021FA01F087F903B05DF804EBCE
S3150800191008F0B2BC008000500040005A00A00050F9
S3150800192018B1034B1860002070472520704700BF88
S315080019301C74002010B5054C0549206801F0F6FD19
S315080019402068BDE81040FFF7EBBF00BF2420002049
S31508001950002000200122014B1A707047F0890020F0
S3150800196073B56E460D4C3046214634F076FD96E842
S3150800197003004FF496620A4D04F5005485E8030007
S315080019802B6853434FF47A72B3FBF2F3054A13609C
S315080019904FF40073636202B070BD00BF0040005987
S315080019A0707400207874002002224C4B10B55A61DE
S315080019B04B4B4C4C1B78002B4FD0237A0A2B1AD151
S315080019C0D4ED057AB6EE007A67EE877AC4ED057A25
S315080019D00222454B9A61A3F580535A6903F50053D1
S315080019E05A614FF40032414B1A60012001F0FCFEA7
S315080019F00123637410BD237A092B2ED8237A072B6B
S31508001A000AD9D4ED057AF5EEC07AF1EE10FAC1BF1F
S31508001A100123374A13702374237A0233DBB2237205
S31508001A2001F010FF6168237A94ED057AB1FBF3F1B2
S31508001A3007EE901AF8EE677A77EE877AB6EE007AAE
S31508001A4067EE877AB1F5FA7F38BF4FF4FA7100204E
S31508001A50C4ED057A01F0EAFEBAE7237A012B2FD9FD
S31508001A60237A022B0CD1D4ED057AF5EEC07AF1EE85
S31508001A7010FA05D51F4B1B7813B101221E4B1A709D
S31508001A80237A013BDBB2237201F0DCFE6168237A1C
S31508001A90D4ED057AB1FBF3F107EE101AB8EE477AE2
S31508001AA077EEC77AB6EE007A67EE877AB1F5FA7FEF
S31508001AB038BF4FF4FA710020C4ED057A01F0B6FE7E
S31508001AC0237A012B84D1D4ED057AB6EE007A002369
S31508001AD067EE877AC4ED057A237479E700600650C5
S31508001AE060740020487400200050065000E100E0B1
S31508001AF0F2890020F1890020F38900201FB50C2106
S31508001B004FF4F06002F0FAFC01213D2002F010F9D2
S31508001B1001213C2002F00CF9114A01AB07CA83E8FF
S31508001B20070040F201121846ADF80C2001F028FE15
S31508001B3001F088FE0B4B002059681B7AB1FBF3F1C4
S31508001B4001F074FE0222084B9A614FF40032074BEB
S31508001B501A60012001F048FE05B05DF804FB00BFDD
S31508001B6054E10408487400200050065000E100E0E3
S31508001B7013B500F0C3FA2BF0C9FF2BF06DFA0190EC
S31508001B8008B92CF001F8019CB7EE000A20462BF0A4
S31508001B90E1FB2046B0EE000A2BF0C6FB20469FED7F
S31508001BA0190A2BF095FB9FED180A20462BF0A6FB89
S31508001BB0204600212BF0FAFB204600212BF0E0FB03
S31508001BC0204604212BF008FC204620212BF01AFC85
S31508001BD001982BF0BDFA0D4C206020B901A82BF016
S31508001BE093FA2BF0D1FF01A82BF08EFA20682BF080
S31508001BF015FB20B905482BF0EBFA2BF0C5FF02B010
S31508001C0010BD00BFCDCC4C3E3333B33F44740020E7
S31508001C10F0B5354E93B008AD0FCE0FC50FCE0FC534
S31508001C2096E8030001260024032785E803003146C9
S31508001C303B20CDE90344CDE9054407948DF80E70A1
S31508001C408DF808608DF809408DF80A408DF80B402C
S31508001C5002F06EF820464FF42C524FF4285134F017
S31508001C6011FC90222146204634F011FC31462A20E8
S31508001C7002F05EF84FF496631C4D0B939DF81930ED
S31508001C80224600932846234619498DF824408DF8A4
S31508001C90214003F0C1FB10230A9008AA284605A98B
S31508001CA08DF809308DF810708DF80E708DF8136068
S31508001CB08DF80860FEF760FA02AA03A9284634F0F0
S31508001CC08BFB0C4A05F500535A6270214FF400321B
S31508001CD0AB6A43F40073AB62074BC3F8842183F8FD
S31508001CE019135A6013B0F0BD60E1040800400059AA
S31508001CF040420F008F330F8000E100E0F0B52DED74
S31508001D00028B674D674C6B7C8DB0002B6BD04FF404
S31508001D108076654B6549C3F8A060654B18682BF05B
S31508001D2099FA644BC3F8A06000236B742378002BE0
S31508001D3051D0614E614D3378002B58D12B7803F082
S31508001D40FF04002B57D15E4B1A78002A47D01C7027
S31508001D5034F0E6F800F03CFCFE2221465948B0EE85
S31508001D60408A4BF05FFF00F027FB0DF12F013DF095
S31508001D701BF8554BDFED556AD3E900014B4B544A26
S31508001D80D3ED017A93ED027A67EEA67A27EE267AE4
S31508001D90504B9DF92F601D681368FCEEE77A0133F6
S31508001DA01360BCEEC77ACDE90763BCEEC88A4FF06C
S31508001DB0FF330091CDE90103FE218DED058A8DEDF6
S31508001DC0047ACDED037A2346434A3E48069532F017
S31508001DD069FE21465BE08022404BC3F8A0200DB087
S31508001DE0BDEC028BF0BD2378002BA2D1F7E73C4B64
S31508001DF01B78002BA2D134F093F800F0E9FBFE2201
S31508001E0000213048B0EE408A4BF00CFF00F0D4FABF
S31508001E100DF12F013CF0C8FF2B4BDFED2C6AD3E9FF
S31508001E200040224BBCEEC88AD3ED017A93ED027AC4
S31508001E3067EEA67A27EE267AFCEEE77ABCEEC77A34
S31508001E402349244B2A781F680B689DF92FC0013354
S31508001E5082F001020B60CDE907C3CDE901420023F8
S31508001E601D4A00908DED058A8DED047ACDED037A35
S31508001E70FE211448069732F015FE2B78184A03F00F
S31508001E80FF0043B100230121137033702B700D48F6
S31508001E9000F01AFAA3E7012111703070F7E700BFC6
S31508001EA048740020F48A002000D003506074002093
S31508001EB04474002000E00350F2890020F3890020D2
S31508001EC0F0890020F48900206825002000007A4463
S31508001ED0407400207874002030E1040800F00350B4
S31508001EE0F189002007B5044B586B019001A803F04F
S31508001EF0D7FA03B05DF804FB54E1040807B536F0D9
S31508001F00F0F833F0B6FFFFF7EDFF33F0F3FF0A23DF
S31508001F10194C0025237040F6B833636001232372F9
S31508001F2036F098F84FF07E53E06025746574636167
S31508001F30FFF7E4FD00F0D8FAFFF71AFE0F4B996C8D
S31508001F40DA6C0F4BC3E9001280220E4BC3F8A020AF
S31508001F50FFF75EFE2B464EF66021CDE900550A4A8C
S31508001F600A4808F01DFF36F0C9F800F0E5FAFFF751
S31508001F70C5FE08F067FAF6E7487400200080E00F0F
S31508001F806825002000D00350551900082074002049
S31508001F901022024B1A6408221A67704700E00350A1
S31508001FA09FED010A704700BF405DC64B2DE9F84317
S31508001FB000240F460821254E254B013ADFF8B88044
S31508001FC0196795B221461022304688F800404BF032
S31508001FD029FE204BC5F30A024FEA021943EA021208
S31508001FE01D4B1E4DB3601E4B21462B601D4BC6E98B
S31508001FF0002718461022C5E90144EC604BF012FE92
S3150800200049F044720260184A1849C0E901274FF49A
S315080020108012C1E901440A60CC600246204603F0FA
S3150800202071FA32462946012003F06CFA104A98F8EC
S31508002030003023B108220F4B1A67BDE8F8831369ED
S3150800204023F00403136130BFF1E700BFAC7400202E
S3150800205000E003500000103044000A509C74002031
S31508002060010010008C7400203C000A507C7400208B
S3150800207000ED00E000D00350F38A002070B50D464D
S3150800208035F0E8FF06460B4C636C9B0604D435F026
S31508002090E1FF831BAB4203D3606CC0F3401070BDF5
S315080020A072B6636C9A0600D430BF62B6BFF36F8F00
S315080020B0EAE700BF00C003501022034B05201A644C
S315080020C008221A6733F00ABF00D00350084B1B6D6D
S315080020D0990742BF0221074A1165DA0704D501228A
S315080020E004490A6504490A70002B00DA00BE7047E5
S315080020F00000045000200450F38A0020004870476E
S315080021008CE104082DE9F3411646802207460D4660
S31508002110374B06F11004C3F8A020364A06F1200C06
S31508002120234603CB6345106051601C4602F1080242
S31508002130F6D128463CF0B8FD0021804638463CF0EA
S3150800214085FD044690B34423022229463CF08DFDC2
S3150800215028463CF0BAFD019028463CF0AFFD0199AF
S31508002160024620463CF098FD20463CF09BFD28465A
S315080021703CF0E3FD1F2301461F4A28463CF0E1FDDB
S31508002180B8F1010F1CD11D4B1968084601914BF097
S3150800219003FE019982B220463CF0D1FD034610BBEE
S315080021A032462146384615F0EDFBE0B90122144BBC
S315080021B01A708022134BC3F8A02002B0BDE8F08144
S315080021C0114B1968084601914BF0E6FD019982B258
S315080021D020463CF0B4FD0546852120463CF069FDC5
S315080021E00DB92B46DCE720463CF0A5FDDEE700BF2F
S315080021F000D00350F58A0020058B002028210020F6
S31508002200F48A002000E003502C210020F8B580262F
S31508002210104C114D04F58053C3F8A0600F4F00F021
S31508002220CBF841F233613CF055FD2F6000F0C4F85D
S315080022300B4B0C220B49A86038466B6004F500541A
S315080022404BF0B2FD00F0B8F829463CF049FDC4F859
S31508002250A060F8BD00C00350C0740020D9E104088E
S3150800226005210008C8E10408144B10B51B781BB3F8
S3150800227000F0A2F83CF093FD0228114C02D1236825
S315080022800A2B19D900F098F83CF084FD00F01CF9E7
S3150800229000F0AEF800F090F801213CF032FD00F0B5
S315080022A08BF801213CF08AFDFFF7B0FF8022054B31
S315080022B0C3F8A0200023236010BD00BFF48A0020C5
S315080022C0BC74002000F00350F0B593B005460E46E6
S315080022D0FFF7CAFF8022334BC3F8A02003AA17468C
S315080022E0314B03F1100C144618685968083303C4B7
S315080022F063452246F7D100F05FF800213CF0A6FCC2
S315080023000446032286F001013CF0ADFC022120467A
S315080023103CF0C4FC204625493CF0C2FC80B1244D63
S31508002320002C39D12B6801332B601E4B4FF40072F9
S31508002330C3F8A02080221F4BC3F8A02013B0F0BD1D
S3150800234028464BF029FD86B25EB120463CF0AAFC31
S315080023500028E4D13246294620463CF0F0FC002805
S31508002360DDD12C22002107A80BAD4BF05BFC97E8CA
S315080023700F0085E80F0041F23363ADF83E3000F0F8
S315080023801BF800232146CDE9003307AA15F0DAFA2F
S315080023900028C4D1074BC9E7002320462B603CF030
S315080023A0CAFCBFE700D00350F58A0020058B002041
S315080023B0BC74002000E00350014B1868704700BF4A
S315080023C0D074002008B53CF095FC054B186028B978
S315080023D03521044B044A054831F0D0FF08BD00BF3B
S315080023E0D0740020E5E10408C2E20408EFE104081D
S315080023F0F0B52D4DA5B0052128680AF083F9782295
S31508002400002106A84BF00EFC284B294A1C93BDF860
S315080024108C30106843F4C07343F00103ADF88C3078
S315080024206B465168082203C369460DF159004BF003
S31508002430D2FB02AA16469DF88C3043F010038DF89D
S315080024408C301C4B03F1100714461868596808337A
S3150800245003C4BB422246F7D1102231460EA84BF0E0
S31508002460BAFB9DF88C30144843F004038DF88C3081
S315080024704BF092FC1028024605D964210F4B104AEE
S31508002480104831F07BFF0C4912A84BF0A4FB9DF8CD
S315080024908C30286843F0080306A98DF88C303CF088
S315080024A024FC25B0F0BD00BFD0740020ADDE0F00BF
S315080024B020E2040829E2040894230020FDE1040828
S315080024C0AAE20408EFE1040810B5064C4FF4FA61D5
S315080024D020683CF022FC20684FF00001BDE810405F
S315080024E03CF047BCD074002010B50E4CFFF7ECFF4B
S315080024F0FFF77EFF012120683CF003FC28B18D21FF
S31508002500094B0A4A0A4831F039FF012120683CF094
S3150800251055FC18B18E21074B044AF3E7BDE8104075
S31508002520FFF774BED07400203AE20408A1E204085A
S31508002530EFE104086CE2040810B5044C20683CF08E
S3150800254002FC2068BDE810400AF0E8BAD074002002
S3150800255010B588B002AC02228DF80700002120468B
S315080025604BF060FB0B4B03A903930DF10703049390
S315080025700123ADF8143002234FF0B6400694ADF8A7
S315080025801C3000F0E1F9BDF8080040BA80B208B086
S3150800259010BD00BF880004007FB50C4B8DF8000005
S315080025A001930323ADF80C3000238DF801104FF08A
S315080025B0B64001A98DF80220CDF808D00493ADF8ED
S315080025C0143000F0C1F907B05DF804FB880001007B
S315080025D0F8B50446000B31F065FA41EC100BFEF72E
S315080025E0A3F9C4F30B0057EC106B31F06BFA002219
S315080025F004460D4630463946064B31F0CDFA0246BA
S315080026000B462046294631F0C7FA31F0D7FC00EED2
S31508002610100AF8BD0000244008B53A20012101F04F
S3150800262087FBBDE80840014800F018B930210020B2
S31508002630024B0349186800F0C5BB00BF642100209F
S315080026404421002008B500F02DF8124B12498B42A0
S3150800265012D30020114B12498B4218D3FFF798F872
S31508002660186850F82240586840F8224001329868A5
S315080026708242F5D30C33EAE70022F8E71C6844F8EF
S31508002680220001325C68A242F8D30833E4E700224C
S31508002690F8E700BF209105082C9105082C9105083C
S315080026A02C9105084FF480414FF0FF30114B124A28
S315080026B010B59A60D3F8882042F47002C3F88820CF
S315080026C00E4A91660E4901F5005210660D4850668D
S315080026D00220C3F8D000BFF34F8FBFF36F8F0124DA
S315080026E04FF440330848C0F88041D36004600B615A
S315080026F010BD00BF00ED00E000000008009000508B
S3150800270000800044F7FF370000E100E0014B18683D
S31508002710704700BF6C210020084B1B6F03F00703AE
S31508002720022B04D0032B05D0012B05D0FEE7044B62
S3150800273018687047034BFBE7034870470080005052
S315080027406C21002070210020002D310108B5FFF70B
S31508002750E3FF054B1B6FC3F303330133B0FBF3F001
S31508002760024B186008BD00BF008000506821002099
S315080027700048704700B4C404014B1868704700BF8E
S3150800278070210020054B1860054B1B6F03F00703EB
S31508002790032B01D1FFF7DABF704700BF7021002075
S315080027A00080005000487047002D31014FF0B443B7
S315080027B09868C0F304400C2822D8DFE800F0092105
S315080027C021212121071719211B1D1F000F487047BA
S315080027D09B6803F04073B3F1807F13D0B3F1007F99
S315080027E012D00B4A002B08BF10467047094870479D
S315080027F009487047094870470948704709487047AB
S31508002800002070470848704708487047405DC60072
S3150800281000093D000024F400C0EA210180BA8C01B9
S315080028200048E801005A620280841E0040420F00F8
S31508002830014B1868704700BF7421002005490A68D3
S315080028401318054883428CBF4FF0FF320B601046C1
S31508002850704700BF78210020000004202DE9FF41C1
S3150800286003680446B3F1B64F04D0354A934251D1B2
S315080028702F2000E02E20012101F05AFA01230A2216
S315080028806179207902F08EFB01230A22E179A07989
S3150800289002F088FB092701262A4D4FF030082279D5
S315080028A0637908FB025206FA03F302F50152136034
S315080028B0642008F04FFC2379627908FB035306FA73
S315080028C002F203F5825364201A6008F043FC013FC4
S315080028D0E3D12068B0F1B64F1FD10323C5F8E83419
S315080028E06279237943EA0243C5F8EC34E279A3799D
S315080028F043EA0243C5F8F03440F20113ADF800305C
S31508002900E36869460293A3680193237C8DF80C302B
S3150800291002F0C4FB04B0BDE8F081094B9842EBD144
S315080029200323C5F8F8346279237943EA0243C5F8E4
S31508002930FC34E279A37943EA0243C5F80035DBE7BC
S315080029400080065000C0035038B5054602F0D4FC96
S31508002950044C012801D1013C00D138BD284602F0BB
S31508002960BFFBF6E7E193040038B5124B05461B7822
S31508002970DBB1E0B133F087FC0F4A00231146147B24
S3150800298054B92B6001251A0101EB03131D738C50F2
S3150800299033F07FFC204638BD0133082B02F11002C4
S315080029A0EDD133F076FC0548F5E70548F3E7054829
S315080029B0F1E700BF258B002058750020048000F041
S315080029C0028000F0018000F0154B13B5186800234B
S315080029D001908DF8043033F056FC124B1C7824B164
S315080029E033F057FC104802B010BD01221A7033F0BC
S315080029F050FC0E4B01A81C731C7783F82C4083F8F7
S31508002A003C4083F84C4083F85C4083F86C4083F87C
S31508002A107C4008238DF8073002F042FD2046E2E7A5
S31508002A20D8E20408258B0020038000F058750020A2
S31508002A300A4A08B512785AB107280BD8084A02EB91
S31508002A4000131B7B43B1002102F01CFD002008BDCA
S31508002A500448FCE70448FAE70448F8E7258B002011
S31508002A6058750020028000F0018000F0078000F011
S31508002A700A4A08B512785AB107280BD8084A02EB51
S31508002A8000131B7B43B1012102F0FCFC002008BDAA
S31508002A900448FCE70448FAE70448F8E7258B0020D1
S31508002AA058750020028000F0018000F0078000F0D1
S31508002AB00D4B1B7893B1072812D889B10B4B03EB42
S31508002AC000131B7B73B10A4BDA6A012303FA00F081
S31508002AD010401ABF00200B700870704705487047F1
S31508002AE00548704705487047258B00205875002013
S31508002AF000000450028000F0018000F0078000F01A
S31508002B000B4A10B512780C4662B107280CD859B191
S31508002B10084A02EB00131B7B43B102F041FD20601B
S31508002B20002010BD0448FCE70448FAE70448F8E723
S31508002B30258B002058750020028000F0018000F0E7
S31508002B40078000F070B5044601250B4E04B970BD28
S31508002B5094FAA4F0B0FA80F005FA00F306EB001236
S31508002B6024EA03045368002BF0D0117B11B1916855
S31508002B709847EBE79847E9E7D875002008B5192084
S31508002B8001F01CFF28B14FF00072074BC3F88021F3
S31508002B901A601A2001F012FF28B14FF08062024B2A
S31508002BA0C3F880211A6008BD00E100E038B5054683
S31508002BB00C4633F068FB0022044B03EB05135C60FC
S31508002BC01A73BDE8384033F064BB00BFD8750020DF
S31508002BD0074BD3F82404D3F8202403F500531040F8
S31508002BE000F0553020F05020C3F82004FFF7AABFA4
S31508002BF000C00350074BD3F82404D3F8202403F568
S31508002C000053104000F0AA3020F0A020C3F820049A
S31508002C10FFF798BF00C00350024B1968024B1868AB
S31508002C2022F0A4BB802100207C21002037B5920029
S31508002C3004460D4601924BF06BFA431C0BD060B963
S31508002C4029462046019A4AF0B6FF0028044808BFDC
S31508002C50002003B030BD0348FBE70348F9E700BF8F
S31508002C6010E000F021E000F024E000F013B504467F
S31508002C7001A802F007FD9DF80630012223804FF4D3
S31508002C80807300206380054B9B680A3303F01F039B
S31508002C9002FA03F3636002B010BD00BF0080E00FC4
S31508002CA010B504464BF03CFA431C15D0B0B90C4B92
S31508002CB020469B680A3303F01F020123934023F042
S31508002CC003032344984201D1002010BD50F8042B79
S31508002CD00132F7D00348F8E70348F6E70348F4E774
S31508002CE00080E00F0EE000F021E000F024E000F0A4
S31508002CF008B533F0B9FA014B186008BD187E0020F4
S31508002D00014B186833F0B4BA187E002001292DE962
S31508002D10F84327D8254B264E1C68264FDFF8A08097
S31508002D20803C14F1800F01D1BDE8F883D4F80090F7
S31508002D300521484633F0F6FA1F4B994510D01F4B2C
S31508002D4099450CBF3D46454633F08EFA2B6843F04D
S31508002D5018032B6033F08CFAD4F88040803CE0E707
S31508002D603546F1E702390129DED8104B104E1C68AA
S31508002D70104FDFF84C80803C14F1800FD4D02368C4
S31508002D800D4A934210D00D4A93420CBF3D46454624
S31508002D9033F06AFA2B6823F018032B6033F068FACD
S31508002DA0D4F88040803CE7E73546F1E7CC7E002042
S31508002DB094C40350B4C403500000015B00000A50D9
S31508002DC074C403502DE9F0410B68844A8EB09342CF
S31508002DD005460C460DF1180803D0814A934240F087
S31508002DE0E58047467F4ECDF814800FCE0FC796E88C
S31508002DF00F00103687E80F000FCE01AF0FC7002D62
S31508002E0000F0D28000278422002128464AF00AFFD3
S31508002E102268724BAF659A4240F08E8056232B6526
S31508002E204FF47023DFF8EC81C5E90B830123A44630
S31508002E3085F85C302E1D2A60BCE80F000FC69CE89A
S31508002E400F0086E80F00637E012B08BF8DF81D3042
S31508002E50A37E002B40F08E80227E8DF81230012A48
S31508002E60E36840F092806049059A8B428CBF042340
S31508002E700523537700238DF811305C4B01213A2046
S31508002E80039300F055FF0121286D00F051FF2369D7
S31508002E90DA1F092A53D8063B8DF81030237E2BB942
S31508002EA0E37EB3FA83F35B098DF81C3001212846CB
S31508002EB033F08FF80646002842D1227A237943EA6E
S31508002EC002437A0102F1A04202F57032C2F8AC342C
S31508002ED0637A617941EA0341C2F8A414A07AA17918
S31508002EE041EA0041C2F8A814E37E002B40F03F8176
S31508002EF0E17AE37943EA0143C2F898341D23C2F81C
S31508002F009434206801A901F03DFF33F0BCF9384B31
S31508002F101A78002A3DD101221A7033F0BAF907F05F
S31508002F201DFEFFF751FD002105F12400FFF71CFDEA
S31508002F30014688B32F4E03E0294B9A4210D02E4EF5
S31508002F402E4B1B681BB92E492E4807F059FA2B48F9
S31508002F5005F1800133F003F830460EB0BDE8F08184
S31508002F6057232B654FF48013DFF8ACC00127C5E95A
S31508002F700BC35BE7012B01D104236DE7022B3FF45A
S31508002F806BAF032BDBD1062366E700228DF83420CE
S31508002F9074E733F07EF9C4E705F12800FFF7E4FC8F
S31508002FA006460028CCD0C5E7174EC9E74646174F50
S31508002FB00FCF0FC697E8070086E80700002D00F038
S31508002FC0D4808422002128464AF02CFE0023226859
S31508002FD00F49AB658A4221D0074EBDE70000015B69
S31508002FE000000A5000E304083F4B4C0040420F0023
S31508002FF0268B0020092000F0022000F0CC7E00205D
S31508003000A0210020D07E0020012000F034E304082F
S3150800301000C0055001000F00010010002921296594
S315080030204FF480212746534E85F85C30C5E90B617D
S315080030302E1D2A600FCF0FC697E80F0086E80F00EF
S31508003040637E012B08BF8DF82630A37E002B66D140
S31508003050ADF82830237E0121012B03BF00238DF80C
S3150800306025304FF47A73E3683A20089300F060FE3F
S315080030700121286D00F05CFE23691A1F0C2AABD8C3
S31508003080033B414620688DF8243002F0D3FBA36940
S3150800309023F47F0323F47F4323B92A68936843F410
S315080030A080339360237A2079617940EA0340637A12
S315080030B0A27941EA0341E67EA37A42EA03422E4B0D
S315080030C0002E3CD11D26C3F82067C3F83807C3F87D
S315080030D03017C3F83427E17AE27942EA0142C3F8A5
S315080030E024270121284632F074FF064600287FF47B
S315080030F033AF33F0C8F8214B1A7852BB01221A7045
S3150800310033F0C7F807F02AFDFFF75EFC002105F14A
S315080031102400FFF729FC0146F0B1194E1CE7012BE4
S3150800312002D14FF4007393E7022B02D14FF4807358
S315080031308EE7032B7FF450AF4FF4407388E71C24C7
S31508003140C3F82047C3F83807C3F83017C3F834273D
S31508003150C7E733F09EF8D7E705F12800FFF704FC28
S31508003160064600283FF4F8AED7E7064EF4E61C23D9
S31508003170C5E600BF0200040000C00350268B0020ED
S31508003180092000F0012000F038B141B1013AB2F54A
S31508003190006F044838BF002070470348704701484D
S315080031A0704700BF037000F0027000F038B504469F
S315080031B00D4633F068F8A3889BB223B92B6033F029
S315080031C068F8064838BD142263889BB202FB03449C
S315080031D008342C6033F05DF80020F3E70B7000F03C
S315080031E090F83530022B0DD114223023417F90F808
S315080031F0210013FB0123044A9B5823FA00F000F030
S31508003200010070470020704730C00350002313B5F3
S315080032101D4A52F8044B94F8211081420ED001330E
S31508003220042BF6D102B010BD0028FBD19DF807305B
S31508003230002BF7D0A068FFF7FBFBF3E794F83530CF
S31508003240022BEFD12046FFF7CBFF637E2076022BB9
S31508003250E8D194F8323003F0FF02002BE2D1A068DF
S315080032600DF107018DF80720FFF722FC237E1BB11D
S3150800327094F83330002BD7D00023A06884F8333075
S31508003280FFF7F6FBCEE700BFD87E0020104930B521
S315080032900B78104A2BB9C2E90033C2E9023301237D
S315080032A00B700C4C0023214651F8045B854208D06C
S315080032B00133042BF8D1002154F8043B1BB942F81A
S315080032C02100002003E001310429F5D1024830BD70
S315080032D0278B0020D87E0020027000F010B5044627
S315080032E0FFF772FB002104F10800FFF73DFB0146DA
S315080032F020B904F10C00FFF737FB00B1004810BDF8
S315080033000E7000F010B590F83630044663B9042202
S3150800331003685A619A699207FCD523790C4AB9332E
S315080033205B011021995010BD022BFCD10068836CFB
S31508003330DB074CBF0521062132F0F4FF237941F261
S3150800334094425B0103F1A04303F57033E9E700BF3C
S3150800335000C00350F8B507460D461646FFF714FF9A
S3150800336000286BD1152001F037FB0446FA6A9388CA
S315080033709BB213B197F83230E3B197F83630F3B908
S315080033803B689C6904F002041CB93846FFF7BAFF8B
S315080033900024012387F8343097F83630CBB92E4409
S315080033A0B542386810D183699A06FCD51CB3002447
S315080033B02046F8BD002CDAD0FEF788FED6E7022BA9
S315080033C0E3D13B689C6CDDE715F8011B33F0CBF8BD
S315080033D0E6E7022BEAD12E44B542386806D142F216
S315080033E02003826C33EA0202FBD1DFE715F8011BE2
S315080033F032F09DFFF0E797F8363053B910213B7944
S315080034000F4A03F239135B01D15008223B685A610F
S31508003410CEE7022BCCD13868836CDB074CBF092179
S31508003420214632F07FFF42F2944210213B795B013C
S3150800343003F1A04303F570339950B9E70446B7E79B
S3150800344000C0035010B5044680B190F832302BB94D
S31508003450FFF7C6FE10B9A068FFF7EAFA002094F84D
S3150800346032300133DBB284F8323010BD0048FCE755
S31508003470027000F010B50446A0B190F832309BB146
S3150800348090F83230012B05D1FFF7AAFE10B9A068D3
S31508003490FFF7EEFA002094F83230013BDBB284F8ED
S315080034A0323010BD0148FCE70148FAE7027000F027
S315080034B0057000F037B590F835500446022D1DD139
S315080034C0012290F82230457E817F9A403020164BA3
S315080034D025B900FB013303F5015305E0012D07D19A
S315080034E000FB013303F582531A60002003B030BD98
S315080034F0247E00FB0133002CF4D1ECE7012DF4D136
S31508003500037E73B911238DF80730FFF79BFF2A4610
S3150800351020460DF10701FFF71DFF2046FFF7AAFF1A
S31508003520E3E71323EFE700BF00C003502DE9F0439C
S315080035300446704F89B001AE0D460FCF0FC697E807
S31508003540070086E80700002C00F0D28025B96A4EED
S31508003550304609B0BDE8F0836022002120464AF0D3
S3150800356061FB00232046A363FFF790FE064600286A
S31508003570EED14FF001092B7D84F835302B6884F89D
S31508003580360023602A7BC4F85C9022715B4A93421A
S31508003590DDD1292363624FF4802359498046C4E963
S315080035A00413D5E90723A26210805080908084F81E
S315080035B03000E3621880588098806B6884F8310080
S315080035C00393EB8984F83300ADF814302B8A494607
S315080035D0ADF81230AB7C3A208DF81030EB7C494FB1
S315080035E08DF8163005238DF8113000F0A1FB4946F9
S315080035F0606A00F09DFB286801A98DF8046002F056
S31508003600B9F814212B7B03F139025201B9502E7AED
S31508003610A87A07EB431346EA0042C3F83827697AC3
S31508003620EA7A41EA024CC3F830C7E676E0772177B2
S3150800363084F820206B7D49466377AB7D204684F865
S315080036402130EB7DA3772B7E84F8223032F02CFDD7
S31508003650064600287FF47CAF32F015FE2B7D8146A6
S31508003660032B33D102212A7B02F1B9035B01F950FE
S31508003670042107EB421741F22C722B6803F580539D
S31508003680D965297EEB7D43EA0143BB50AA7D6B7D54
S3150800369043EA024341F22872BB504FF0FF322868D2
S315080036A000F500539A642B7D032B0CBF05210421DA
S315080036B032F04AFF4FF440622B6820465A61FFF702
S315080036C00DFE0646484632F0E4FD41E7022BE4D1FA
S315080036D094F821000C49FFF769FAFFF74FFA4FF4FF
S315080036E000732046238384F81A80FFF7E3FED4E7A5
S315080036F0064E2DE750E30408037000F000C005509D
S315080037000200040000C003500D320008027000F0E9
S315080037100B4B30B51B7883B10120002305460949B8
S3150800372051F8042B2AB192F85C40022C04BF2046BB
S31508003730D5650133042BF3D130BD0120FCE700BF6A
S31508003740278B0020D87E0020054B5B69DB0605D554
S315080037501022044B5A610122034B1A70704700BFAE
S315080037600080045000A00450288B0020034B5A68A0
S3150800377012B19A6A002AFAD1704700BF0040065073
S31508003780426810B5B2FA82F2144CC2F11F0163689E
S315080037900BB1FFF7EBFF0122114B5A60636813F078
S315080037A00203FBD1027A002A14BF022400244278BD
S315080037B042EA0112094922438A60427A0124002A10
S315080037C018BF0223827A13434B62064B5C60037868
S315080037D013B1FFF7CBFFCC6010BD00BF0040065009
S315080037E0006006500050065008B50D4B5A6802B9DD
S315080037F038B15B680BB1FFF7B9FF18B10122094B65
S315080038005A6008BDFFF7B2FF02230549CB60FFF7F0
S31508003810ADFF0122044B5A604B689B07FCD4F0E7C6
S31508003820004006500050065000600650044B9A6A45
S31508003830D006FCD419639A6AD206FCD4704700BF36
S315080038400040065008B5FFF791FF02230449CB60F4
S3150800385000230B62FFF78AFF0123CB6008BD00BF78
S3150800386000400650044BD3F88420D206FBD4D3F884
S315080038708400C0F3811070470040005038B5104BE3
S315080038800546D3F880300C4603F00303022B0BD011
S31508003890032B0DD0012B0FD1FEF73EFF0E2305B1EA
S315080038A0286004B1236038BDFEF780FF0723F6E7DA
S315080038B0FEF72CFF0623F2E700231846EFE700BFC2
S315080038C00080005038B5174B0546D3F820310C4612
S315080038D003F00703013B052B20D8DFE803F0030BB1
S315080038E0130F171BFEF712FF052305B1286004B155
S315080038F0236038BDFEF740FF0323F6E7FEF756FFC1
S315080039000723F2E7FEF74EFF0223EEE7FEF7FEFE79
S315080039100623EAE7FEF730FF0423E6E70023184606
S31508003920E3E700BF0080005038B5174B0546D3F8CB
S3150800393028310C4603F00703013B052B20D8DFE8A6
S3150800394003F003131B0F0B17FEF7E0FE052305B163
S31508003950286004B1236038BDFEF7D8FE0623F6E7D3
S31508003960FEF724FF0723F2E7FEF706FF0323EEE739
S31508003970FEF702FF0423EAE7FEF714FF0223E6E751
S3150800398000231846E3E700BF0080005073B50D46D4
S315080039900021114B0191D3F88041064604F0030437
S315080039A0022C13D0032C0CD0012C13D101A8FFF73D
S315080039B089FF10240EB1019B336005B12C6002B05B
S315080039C070BDFEF7F3FE07240190F3E7FEF7EAFE63
S315080039D00190EFE70C46EDE700800050002337B56D
S315080039E00193154B0546D3F820320C4603F007031E
S315080039F0013B032B1ED8DFE803F0020E1318002143
S31508003A0001A8FFF791FF12230DB1019A2A6004B1AC
S31508003A10236003B030BDFEF7C9FE07230190F3E724
S31508003A2032F094FA0A230190EEE7FEF701FF092324
S31508003A300190E9E70023E7E70080005038B5104B0E
S31508003A400546D3F840310C4603F00303022B0BD08E
S31508003A50032B0DD0012B0FD132F078FA0A2305B1CA
S31508003A60286004B1236038BDFEF7E2FE0923F6E7B5
S31508003A7032F06FFA0C23F2E700231846EFE700BF8F
S31508003A8000800050002337B50193164B0546D3F83E
S31508003A9060320C4603F00703013B032B1FD8DFE80F
S31508003AA003F0020E1914002101A8FFF70BFF1023DB
S31508003AB00DB1019A2A6004B1236003B030BD00211C
S31508003AC001A8FFF7BBFF1123F2E7FEF76FFE0723F6
S31508003AD00190EDE7FEF766FE02230190E8E7002372
S31508003AE0E6E700BF00800050002337B50193164B68
S31508003AF00546D3F894320C4603F00703013B032B23
S31508003B001FD8DFE803F0020E1914002101A8FFF7F9
S31508003B10D9FE10230DB1019A2A6004B1236003B0BF
S31508003B2030BD002101A8FFF789FF1123F2E7FEF750
S31508003B303DFE07230190EDE7FEF734FE02230190D0
S31508003B40E8E70023E6E700BF0080005038B5134BCE
S31508003B500546D3F800320C4603F00703013B032B56
S31508003B6018D8DFE803F0020A0E1232F0EFF90A233A
S31508003B7005B1286004B1236038BDFEF759FE092354
S31508003B80F6E732F0E6F90C23F2E7FEF7DFFD0F233E
S31508003B90800AEDE700231846EAE700BF00800050D8
S31508003BA038B5134B0546D3F808320C4603F007031D
S31508003BB0013B032B18D8DFE803F0020A0E1232F095
S31508003BC0C5F90A2305B1286004B1236038BDFEF79C
S31508003BD02FFE0923F6E732F0BCF90C23F2E7FEF7CD
S31508003BE0B5FD0F23800AEDE700231846EAE700BF74
S31508003BF00080005038B5104B0546D3F840320C46C5
S31508003C0003F00303022B0BD0032B0DD0012B0FD18E
S31508003C1032F09CF90A2305B1286004B1236038BD47
S31508003C20FEF706FE0923F6E732F093F90C23F2E7CE
S31508003C3000231846EFE700BF0080005038B5104B48
S31508003C400546D3F860310C4603F00303022B0BD06C
S31508003C50032B0DD0012B0FD132F078F90A2305B1C9
S31508003C60286004B1236038BDFEF7E2FD0923F6E7B4
S31508003C7032F06FF90C23F2E700231846EFE700BF8E
S31508003C8000800050B0F5207F1FD009D8B0F5007F1E
S31508003C9015D003D868B1B0F5C07F0AD000200CE073
S31508003CA0B0F5607FFAD10B4BD3F88000C0F3011052
S31508003CB003E0084B186FC0F3033001307047054B1B
S31508003CC0D3F89000C0F30460F7E7024B186FC0F30F
S31508003CD08020F2E70080005002464FF48030104BF7
S31508003CE010B598660020FFF7CDFF504341F67132B4
S31508003CF00C4BDC69DA635A6804F4803422F4401207
S31508003D0059B9094988428CBF4FF4801000201043E6
S31508003D1058600CB10022DA6310BD0449F2E700BF0F
S31508003D200090005000000350005A6202002D310135
S31508003D30430905D0012B0DD0022B094B18BF0023D0
S31508003D4000F01F0041B103F58053012202FA00F08A
S31508003D5018607047034BF3E703F50053F5E700BF18
S31508003D6068800050648000501FB5002180280446F2
S31508003D70CDE9001100F0A58035D85E2846D85E2822
S31508003D8044D8DFE800F0A243434343434343434355
S31508003D9043434343434343434343434343434343E5
S31508003DA0434343434343A2AAA2AAB9B9B9B9B9AA94
S31508003DB0C34DD9714DAAAAAA434343434343434338
S31508003DC0AAAAAA79E3AA4343434343434343434343
S31508003DD0434343B9A2A2A2DE4D4DE8885EBE4343E3
S31508003DE043434399A200B0F5B06F00F08F802DD8F9
S31508003DF0B0F5207F71D00CD8B0F5C07F65D0B0F58E
S31508003E00007F65D0B0F5807F00F08580009804B00B
S31508003E1010BDB0F5607F6AD00DD8B0F5407FF5D1FA
S31508003E20FEF794FC02464FF42070FFF72BFFB2FB17
S31508003E30F0F0400847E0B0F5806F5DD0B0F5A06FB0
S31508003E40E4D100216846FFF7C9FDDFE7B0F5106F3A
S31508003E5077D016D8B0F5E06F78D00AD8B0F5C06F2D
S31508003E606AD0B0F5D06FD1D100216846FFF76EFE53
S31508003E70CCE7B0F5F06FC9D100216846FFF7DEFE42
S31508003E80C4E7B0F5406F3CD013D8B0F5206F62D0C8
S31508003E90B0F5286FBAD10021314B0391D3F87032AF
S31508003EA003F00303012B02D103A8FFF7C7FD039B09
S31508003EB03BE0B0F5486FA9D100216846FFF714FE2C
S31508003EC0A4E7FEF729FC0090A0E7FEF73FFCFAE717
S31508003ED0FEF722FC0246204604E0FEF737FC0246BF
S31508003EE04FF42070FFF7CEFEB2FBF0F0EBE701A827
S31508003EF0FFF7C4FC019AEEE700216846FFF7E2FCEB
S31508003F0084E700216846FFF70FFD7FE70021684632
S31508003F10FFF73CFD7AE74FF0E02302911B695B0748
S31508003F2005D5FEF713FC0290029B00936EE703A9E2
S31508003F3002A8FFF783FDF7E700216846FFF77EFD35
S31508003F4064E700216846FFF72BFE5FE70021684615
S31508003F50FFF750FE5AE700216846FFF793FD55E73D
S31508003F600080005008B58020FFF7FEFE034B9842FC
S31508003F709EBF4FF48032024B1A6708BD005A620290
S31508003F8000A000501FB50023B0F5807F019300F014
S31508003F90C38064D85D2855D84C2807D82D2847D81B
S31508003FA023282BD8019805B05DF804FB4D38102856
S31508003FB0F8D801A353F820F00F410008A53F0008E0
S31508003FC0A53F0008A53F0008C1400008A53F000816
S31508003FD0A53F000895410008DF4000088540000815
S31508003FE08B410008A53F0008A53F0008A53F00082B
S31508003FF0A53F0008A53F00089F4100082438092866
S31508004000D0D801A353F820F00F4100080F4100084B
S315080040100F4100080F4100080F410008A53F00089E
S3150800402005410008A53F0008A140000845410008D1
S315080040303D2800F082803E28B4D1002001A9FFF770
S31508004040D9FDAFE78028ADD15A4B1B6F03F00703A4
S31508004050013B032BA6D8DFE803F05350878FB0F552
S31508004060F06F6AD021D8B0F5B06F4BD00FD8B0F545
S31508004070607F00F0858095D3B0F5806F47D0B0F5A6
S31508004080A06F8FD1002001A9FFF7A8FC8AE7B0F539
S31508004090D06F57D0B0F5E06FCFD0B0F5C06F81D1F3
S315080040A0002001A9FFF7CAFC7CE7B0F5206F71D0A4
S315080040B00BD8B0F5086F4AD0B0F5106F7FF472AF21
S315080040C0002001A9FFF76CFD6CE7B0F5406F5CD0E6
S315080040D0B0F5486F63D0B0F5286F7FF463AF002161
S315080040E0344B0391D3F8703203F00303012B5BD0F2
S315080040F0022B14BF0B46152300E00523019351E755
S315080041000223FBE7002001A9FFF740FC4AE700204D
S3150800411001A9FFF7D7FB45E702934FF0E0231B6998
S315080041205B0705D5FEF712FB0D230393039BE5E713
S3150800413003A902A8FFF782FCF8E7002001A9FFF708
S315080041407DFD2FE7002001A9FFF700FD2AE7194B9F
S31508004150D3F8003103F00303022B07D0032B09D051
S31508004160012B0BD1FEF708FB0323C7E7FEF760FB1D
S315080041700923C3E731F0E8FE0823BFE70123BDE7BB
S31508004180184601A9FFF77AFB0CE7002001A9FFF7FB
S31508004190CBFB07E7002001A9FFF774FC02E7002024
S315080041A001A9FFF7A1FCFDE603A8FFF747FC1123C9
S315080041B0A4E700BF008000504FF48012034B5A66F4
S315080041C04FF48032024B9A62704700BF009000504D
S315080041D00050005A38B504468020FFF7D3FE03285E
S315080041E000F083804FF48012504B4FF0A0615A665E
S315080041F045F60E034E4AC2F880304E4B99624FF48C
S31508004200803103F580539962916D11F48031FBD1A9
S31508004210D4E900031B0543EA0063E07B0343207BE4
S3150800422043EA0043607B43EA0033A07B43EA8013FA
S3150800423013619069D4E904531B0643EA856300F0C9
S3150800424000400343A07EE57E0343207E43EA004305
S31508004250607E43EA00239361E069136A00280CBF75
S315080042600022082223F00F0343EA000343EA8503EA
S3150800427043EA02032E4A304D136237D194F82430AC
S31508004280916A94F82000DB000D4043EA401394F845
S3150800429021102B4343EA011343F480339362274BDF
S315080042A0916D33EA0101FBD14FF08071214881629B
S315080042B01369A56823F4700343EA055313614FF0A5
S315080042C00043836194F822300BB91D4B996294F828
S315080042D023301BB94FF48032194B9A6294F8253073
S315080042E01BB1134B174AC3F8802038BD022808D1E2
S315080042F01161154891614FF408524FF47F4131F02E
S315080043007AFF0B4994F822308A6A94F820001B0633
S31508004310154043EA401394F824202B4343EAC2038A
S3150800432094F8232043EA02438B62D7E700900050B3
S315080043300040005A0050005AC7FFFEFE0300010065
S315080043400060005AF1A7FFFF3440005A014B93F969
S3150800435000007047A3230020F0B5D0E901434FF4CD
S3150800436000061A4A4178057856664FF4D156022750
S3150800437002F5B8325662164E4F2977604FF001079C
S3150800438028BF4F2106F5805677601669F603FCD4D8
S3150800439041EA052151611B01417B43EA04230B4392
S315080043A0017B43EA41039360C37B817B1B0143EA9C
S315080043B04113417C0B43017C43EA41035360837CF0
S315080043C013B16FF4D1535362F0BD00BF0090005093
S315080043D000100250014B1880704700BF8823002048
S315080043E0B0F5207F10B50C4657D008D8B0F5007F39
S315080043F048D003D830B3B0F5C07F23D010BDB0F590
S31508004400607FFBD129492A48D1F8FC2012F0807236
S315080044101EBFD1F8FC3023F08073C1F8FC30D0F809
S315080044208030611E23F0300444EA0114C0F880404D
S31508004430002AE3D01D4AD2F8FC3043F08073C2F854
S31508004440FC30DBE731F0E8FE31F0F4FE4FF4803162
S31508004450184B174A1967136F611E23F4704444EA10
S3150800446001341467FEF772F90446FFF7FBF9C0F149
S315080044700201204631F0D8FE00F02EF8BDE81040C3
S31508004480FFF770BD0A4A0139D2F8903023F0F85484
S3150800449044EA0164C2F89040B0E7054B013C196F45
S315080044A021F4806141EA84241C67A7E700ED00E057
S315080044B0008000500090005008B50121022000F04D
S315080044C0FFFA31F0A9FE31F0B5FE4FF48032014B08
S315080044D01A6708BD0090005008B54FF4C070FFF782
S315080044E043FCBDE80840044988428CBF02210121EB
S315080044F04FF42070FFF774BF80F0FA02B0F5807FA2
S31508004500F8B50C4600F04E816BD85D285DD84C286E
S3150800451004D82D2844D8232828D8F8BD4D38102883
S31508004520FBD801A353F820F0854700081B4500086F
S315080045301B4500081B4500087F4600081B45000868
S315080045401B45000839490008B74600080F46000809
S31508004550194900081B4500081B4500081B450008AB
S315080045601B4500081B450008594900082438092836
S31508004570D3D801A353F820F08547000885470008DB
S315080045808547000885470008854700081B45000839
S31508004590654700081B4500084546000853480008BB
S315080045A03D2800F046813E28B7D1093C032C8CBF34
S315080045B00021B04BB04A98BF195DD2F8403223F0BB
S315080045C003030B43C2F84032A7E78028A5D18B1E08
S315080045D0062B00F2C480DFE803F0BFADC27EC2C27C
S315080045E0BC00B0F5F06F00F024813BD8B0F5B06F91
S315080045F000F0B8801BD8B0F5607F00F067818CD3D7
S31508004600B0F5806F00F0BE80B0F5A06F85D1073C8D
S315080046100B2C8CBF0021994B974A98BF195DD2F88D
S31508004620203223F007030B43C2F8203275E7B0F5B2
S31508004630D06F00F00E81B0F5E06FB6D0B0F5C06F60
S315080046407FF46BAF093C032C8CBF00218C4B8A4A44
S3150800465098BF195DD2F8403123F003030B43C2F823
S3150800466040315AE7B0F5206F00F0668117D8B0F5EB
S31508004670086F00F01B81B0F5106F7FF44EAF093C50
S31508004680062C8CBF00217F4B7B4A98BF195DD2F858
S31508004690083223F007030B43C2F808323DE7B0F5AA
S315080046A0406F00F03981B0F5486F00F05581B0F5DC
S315080046B0286F7FF432AF112C00F05E81152C14BFE1
S315080046C0002102216C4AD2F8703223F003030B430F
S315080046D0C2F8703221E7002502264FF480370121FF
S315080046E0022000F0EDF931F097FD31F0A3FD664B9D
S315080046F0614A1F67136F23F0070333431367FEF7F7
S3150800470025F80646FFF7AEF8C0F10201304631F04B
S315080047108BFD0121002000F013FAFFF7DDFEFFF7FD
S3150800472021FC002D7FF4F9AE032C7FF4F6AE574B2F
S315080047309F62F2E64FF48012534B0E465A664FF4C8
S315080047408032534B9D6A03F58053C5F300659A6220
S31508004750C3E700250426C0E700250126BDE7002596
S315080047602E46BAE7023C0E2C8CBF0021494B424A22
S3150800477098BF195DD2F8803123F003030B43C2F8C2
S315080047808031CAE6023C052C8CBF0021424B3A4ACE
S3150800479098BF195DD2F8203123F007030B43C2F8FE
S315080047A02031BAE6A1F10904082C3FF6B6AE01A3FA
S315080047B053F824F0D9470008D94700081B450008D4
S315080047C0D9470008074800081B4500081B4500088C
S315080047D01B450008D94700084FF48032264B2F495D
S315080047E0586E03F580535A664B6A43F001034B62D1
S315080047F0C1035CBF2A4B5A664FF0E022136923F0C7
S315080048000403136189E64FF480321B4B2349586E23
S3150800481003F580535A664B6A23F001034B62C303C0
S315080048205CBF1F4B5A664FF0E022136943F004033E
S31508004830E7E7093C032C8CBF00211A4B0E4A98BFA8
S31508004840195DD2F8603123F003030B43C2F86031D7
S3150800485063E6093C062C8CBF0021134B064A98BF19
S31508004860195DD2F8003223F007030B43C2F8003271
S3150800487053E600BFCDE30408008000509CE304081B
S31508004880CDE30408D1E30408009000500060005A04
S315080048900040005AB8E30408C7E3040800C00750FC
S315080048A000A00050CDE30408D1E30408CC1E062C72
S315080048B08CBF0021314B324A98BF195DD2F80031BE
S315080048C023F003030B43C2F8003126E62D49063CC4
S315080048D0D1F8FC2012F080721EBFD1F8FC3023F00C
S315080048E08073C1F8FC30082C8CBF0020264B244965
S315080048F098BF185DD1F8803023F003030343C1F84D
S315080049008030002A3FF409AE1E4AD2F8FC3043F044
S315080049108073C2F8FC3000E6023C052C8CBF0021EF
S315080049201A4B174A98BF195DD2F8283123F00703A6
S315080049300B43C2F82831F0E5023C0F2C8CBF00214E
S31508004940134B0F4A98BF195DD2F8603223F007035C
S315080049500B43C2F86032E0E5023C0F2C8CBF002105
S315080049600C4B074A98BF195DD2F8943223F0070317
S315080049700B43C2F89432D0E50121A3E68CE3040880
S315080049800080005000ED00E093E30408C7E3040844
S31508004990A8E30408A8E304080028ABBF00F16040B8
S315080049A0054B00F5614000F00F00ACBF90F800031E
S315080049B0185C0009704700BF14ED00E0054B42097A
S315080049C053F8223000F01F0023FA00F0C04300F02D
S315080049D00100704700E100E0014608B5EFF31083D7
S315080049E0DB0702D50122104608BDFFF7E7FF02469E
S315080049F00028F7D10846FFF7CFFF0146EFF31183EA
S31508004A0013B1B0EB131FEDD2074B5B68C3F3080372
S31508004A10002BE8D0103B58B2FFF7BEFF88428CBF88
S31508004A2000220122DFE700BF00ED00E0024A536BD7
S31508004A300342FCD1704700BF00400950044A417840
S31508004A40536F23F4407343EA01235367704700BF4B
S31508004A50004000500A4A10B51369044643F004039F
S31508004A60136105F0FBFE31F017FC30BF31F015FC81
S31508004A7005F008FF1CB9BDE81040FDF767BE10BD7C
S31508004A8000ED00E0084A10B51369044643F0040334
S31508004A90136105F0E3FE30BF05F0F4FE1CB9BDE86E
S31508004AA01040FDF753BE10BD00ED00E0034A017942
S31508004AB0D36E23F030030B43D36670470040005093
S31508004AC0F8B504461C4BD3F88420D106FBD4D3F89A
S31508004AD08430C3F381139C422CD0FDF71DFE012CB4
S31508004AE0064602D1214631F09FFB31F0BDFB4FF05F
S31508004AF00072124B07465A66204631F0D1FB4FF436
S31508004B0080630D4D621E93402B676B6E9A0103D42A
S31508004B10D5F884309B060AD5384631F0A9FB022C15
S31508004B2008D13046BDE8F840002131F07DBBD5F804
S31508004B308430EAE7F8BD00BF00400050006000502E
S31508004B4007B518B90191FDF7E7FD0199064B1B78E2
S31508004B5043B1064B984205D8012003B05DF804EB33
S31508004B60FFF7AEBF0220F8E7298B0020005A620241
S31508004B700278034B012100201A70FFF7E1BF00BF3E
S31508004B80298B00204FF00042154B10B55A664AF69D
S31508004B90CD3314494C6C0B6404F0010488B9012028
S31508004BA0FFF744FF4B68DB0704D50F4B58600B6BC8
S31508004BB0D807FCD514B10B4B0C4A1A6448F0C6FA50
S31508004BC010BD0B6B1A07FCD42022074B9A620122F0
S31508004BD0A3F580535A60034A936A9B06FCD5E9E716
S31508004BE00090005000400950006009503254FFFF01
S31508004BF04FF00042104B70B55D6E03F580535A6650
S31508004C004AF6CD3304460D4980204E6C0B64FFF7F7
S31508004C100DFF0B6A23F4F85343EA04230B62F307E8
S31508004C2044BF074B0B64002DA2BF4FF00042054B53
S31508004C305A6648F08BFA70BD008000500040095053
S31508004C403254FFFF00A0005010B531F034FB0423A6
S31508004C5000F5805100F500520B6113610B61136179
S31508004C600B6113610B611361202341F20201036199
S31508004C700023C360836041614FF4A021836183658B
S31508004C8041620549C36103628362C3624363036584
S31508004C90D164036310BD00BFFF3F0D03F8B5054699
S31508004CA01446084641B9344B9D422FD0334B9D429A
S31508004CB008BF5720FFF758F8AB68DE072ED5B0FBBC
S31508004CC0F4F46E68013C16F0010625D02821284622
S31508004CD031F0EDFAAB6C99071AD1AB6CDA0719D437
S31508004CE0AB6C13F0020F0CBF00270627284631F0DD
S31508004CF0E2FA286920F07F4040EA04642C61DEB1BC
S31508004D0039462846BDE8F84031F00CBB5620D1E7B5
S31508004D100527EBE70927E9E73746EAE76B68AB6D4E
S31508004D20AF68DB0707F0E00748BF6400402F1BD0D9
S31508004D3003D8DFB1202F1BD0F8BD602F1AD0802FE3
S31508004D40FAD1012604FB06F34101B1FBF3F30C4A41
S31508004D50203B02EAC3022846012131F0A8FA2A6359
S31508004D60BDE8F84031F0A3BA0626EBE71026E9E7D6
S31508004D700826E7E70426E5E70000015B00000A507D
S31508004D80F8FF7F00436870B504460D460E691BB1EF
S31508004D9040F6FF7131F08BFA2046FFF755FF22697E
S31508004DA06B7BA97B22F087020B43134343F08003F6
S31508004DB0236116B32A692369117823F0F8030B4394
S31508004DC0117F43EAC113117943EA4113517A43EA41
S31508004DD00113D17B43EA81132361E168D2E90530E7
S31508004DE021F0F04121F4702103430B43117B527BE0
S31508004DF043EA812343EAC233E360A368EA7B23F0EC
S31508004E000303134343F00103A3602EB32A69A16881
S31508004E10538803F4C0430B43A3605179A36843EA5C
S31508004E208123A3609379D079616A1B01000203F09C
S31508004E30700300F4E06021F4772121F4EE61034366
S31508004E400B43117A527F090301F4E04112040B4324
S31508004E5002F470221343636263692A7B23F00F030B
S31508004E6013436361B6B12B695A89A2615A7B3AB179
S31508004E701D4A944224D19A7B1C4902F00F024A67C4
S31508004E80DA7B3AB1184A944224D11B7C174A03F0BC
S31508004E900F031367D5E901122046FFF7FFFE052128
S31508004EA0204631F022FA282131F001FA2B78A36343
S31508004EB031F0FDF9A36CDB4313F4405FFAD170BD02
S31508004EC00B4A944201BF9A7B084902F00F02C1F8C7
S31508004ED08020D5E7064A944201BF1B7CA2F5CE2264
S31508004EE003F00F03D367D5E70000015B009003507A
S31508004EF000000A50072AF7B501F0030614461F46B4
S31508004F004FF003012CD89500A94000FA05F21C4879
S31508004F10019131F011FA01991A4806FA05F231F0B1
S31508004F200BFA194B19499DF82000002F08BF19469E
S31508004F30012303FA04F40C60154B1649002808BF30
S31508004F400B461C60144B9DF82400C3F8204410310E
S31508004F50A3F6DC33002808BF0B461C6003B0F0BD7F
S31508004F60A2F10805AD00A94000FA05F20B48019127
S31508004F7031F0E2F901990A4806FA05F2CFE700BFCF
S31508004F8000C4035008C4035010E4035010D403505F
S31508004F9014D4035014E4035000E0035004C403502F
S31508004FA00CC403502DE9F04105460F461E469046AF
S31508004FB04AB101233022194C8B4002FB00443EB310
S31508004FC004F5825423600F21072F05EB450388BF9C
S31508004FD0A7F108044FEA0313114895BFBC00A400C3
S31508004FE004330C3308FA04F2A140184431F0A4F94A
S31508004FF0B8F1000F0AD101213020084A01FA07F753
S3150800500000FB05223EB102F582521760BDE8F08129
S3150800501004F50154D6E702F50152F6E700C003503D
S3150800502030C00350F8B505460E4614465AB3826892
S3150800503003F0030722F44072826031F015F9AA687A
S3150800504082EA072303F440735340AB6031F010F94A
S3150800505036B9B5F1B64F17D12E20FEF785FE0646AE
S31508005060AB680C4BD85D60430DD06FEAC4040444AA
S31508005070A319B3FBF0F3AA68013B920702D5002BEC
S3150800508008BF0123AB61F8BD034B9D42E8D12F2031
S31508005090E3E700BFD8E304080080065038B50023CC
S315080050A00E4A036400F50053DA634A7804460D464F
S315080050B000F108037AB903F5805302221A602046E4
S315080050C0D5E901122B7BFFF7ADFF20462978BDE80D
S315080050D0384031F042B903F50053EEE7FFFF1F00F1
S315080050E0B0F1B64F2DE9F04322D0804B984240F0FC
S315080050F0FA807F4B402505264FF000084FF0030C39
S31508005100996800F50054C26B12F4C06F16D0970563
S3150800511010D5FD225A7009221A700022026493F9EA
S315080051200110012900D15A7093F90100BDE8F083F6
S31508005130704BDFE75605EED5FE22EBE71F78082F02
S3150800514000F2CD80DFE817F009001F0041004C008F
S315080051506900740096009E00C2004C880A88E5061D
S315080051600AD5120A02F0060242F0F002012119706D
S315080051704263C1600120D9E702F0FE02A10748BFD9
S3150800518042F00102F2E7170607D5802100F5005222
S31508005190D1634FF608721A8062E05206EAD54A8849
S315080051A0E563D70604D502221A700B784363E1E754
S315080051B0920765D507221A701B7901EBC3010B8983
S315080051C0012BD7D10823C360D4E71706DDD45206CE
S315080051D0D0D54A88E563970752D583F800C092E789
S315080051E04C880A88E50643BF120A02F0060242F016
S315080051F0F00202F0FE02640709D51C7942F00102AA
S3150800520001EBC4010989012904BF0821C1600421F1
S3150800521019700123C3604263ACE71706B5D4570675
S31508005220A8D54A88E56352072AD507221A70A1E746
S315080052301A795F8801EBC20EBEF80890B94511D8F5
S315080052400132D2B21A714F88A3F8028017F0040F00
S31508005250C3D1FF0702D4012A7FF655AF08221A7078
S315080052600223B0E7DEF80420791C5980D25D426338
S315080052700622DBE7170688D457067FF57BAFE5637A
S315080052801E7040E794067FF575AF20261A7900F55B
S31508005290005401EBC2010A89456AE6635C88A242AA
S315080052A081BF4968661C5E800D5559888A42D5D9E2
S315080052B00424012AC46004D9013A914201D1082282
S315080052C0C2601A78092A3FF428AF53E7D2057FF55A
S315080052D051AF4FF4807100F50052D1631BE74FF6CA
S315080052E009321A8019E76FF003001FE7008006509D
S315080052F0F47E0020E87E0020B0F1B64F10B407D047
S315080053001A4B98422ED06FF003005DF8044B704795
S31508005310174B0269D20744BF2022C2604A88940705
S3150800532002D50C89002CEED0520702D50A8A002A2B
S31508005330E9D04FF480721A60002299601A71C0236E
S31508005340C3604369DB050FD4202200F50053DA63F6
S31508005350084A5DF8044BDA63036C43F4FC630364A0
S31508005360FFF7BEBE044BD4E7436AEAE7008006505F
S31508005370E87E0020FFFF1F00F47E00204369DA0163
S31508005380FCD4012300F50050024A436053689B078A
S31508005390FCD4704700400059084608B569B92A2068
S315080053A0FEF7E2FCB0B10C4B984206D90B4B9B6852
S315080053B0C3F302730133B0FBF3F0094900F5742017
S315080053C000F23F20B0FBF1F001387F2828BF7F208C
S315080053D0C0B208BD0120F0E7005A62020040005939
S315080053E040420F0010B50B4C8C4228BF0C461AB928
S315080053F02A20FEF7B9FC0246601E0244B2FBF4F00E
S31508005400A24228BF00F1FF30032828BF0320C0B2FC
S3150800541010BD00BF005A620210B51048104C002B90
S3150800542018BF2046884228BF084604461AB92A20CB
S31508005430FEF79AFC02469DF808000130B2FBF0F22E
S31508005440601E0244B2FBF4F340F2FF30A24228BFCA
S3150800545003F1FF33984228BF184610BD809698007E
S31508005460404B4C0013B5044601A800F00BF9042C78
S315080054708EBF0020024B33F8140002B010BD00BFE7
S31508005480F4E30408044A054B002918BF1346012211
S3150800549002FA00F01860704740200450401004508B
S315080054A010B5012104462020FEF742FC01212120E7
S315080054B0FEF73EFC0122114B5A60227812069A60CA
S315080054C06178A27842EA01429A61FF229A62002232
S315080054D09A631A644FF000425A654FF0FF324FF450
S315080054E0001103F500531A65054AC2F88011E378DE
S315080054F01B01DBB282F81533116010BD00000450A1
S3150800550000E100E02DE9F0410125C3B2D1F80080A1
