S0160000736C656570792D64656D6F2D6D74642E73333708
S31508000000001200206D070008690700086907000844
S31508000010B14200086907000869070008690700086F
S3150800002069070008690700086907000869070008E2
S3150800003069070008690700086907000869070008D2
S3150800004069070008690700086907000869070008C2
S3150800005069070008690700086907000869070008B2
S3150800006069070008690700086907000869070008A2
S315080000706907000869070008690700086907000892
S315080000806907000869070008690700086907000882
S3150800009069070008210F00086907000869070008B2
S315080000A0690700089D10000879100008690700080C
S315080000B069070008A9BE0408A1C8040859C80408A5
S315080000C055C8040875C004089DC804085DC8040816
S315080000D075C8040861C8040801C90408E1C8040809
S315080000E06907000869070008690700086907000822
S315080000F02941000869070008690700086907000818
S315080001006907000869070008690700086907000801
S3150800011069070008690700086907000869070008F1
S3150800012069070008690700086907000869070008E1
S3150800013069070008690700086907000869070008D1
S31508000140690700086907000869070008BF52000820
S315080001501DA7040869070008198A04081F8A0408E5
S3150800016069070008690700086907000869070008A1
S3150800017010B5054C237833B9044B13B1044800E095
S3150800018000BF0123237010BD3816002000000000B0
S31508000190246D050808B5034B1BB10349034800E065
S315080001A000BF08BD000000003C160020246D0508AD
S315080001B0A3F5803A704700BF174B002B08BF134BB7
S315080001C09D46FFF7F5FF00218B460F461348144A54
S315080001D0121A4CF004FF0E4B002B00D098470D4B1B
S315080001E0002B00D098470020002104000D000D4880
S315080001F0002802D00C4800E000BF4CF069FE200041
S31508000200290000F079F84CF03DFE00BF0000080018
S315080002100000000000000000001200203816002030
S31508000220788500200000000000000000014B1868D7
S31508000230704700BF541600200CB407B504AB53F83A
S31508000240042B01931FF00EFF03B05DF804EB02B018
S315080002507047000008B523F0F3FF054B186028B96E
S315080002605521044B044A05484CF0E6FD08BD00BF7D
S315080002705416002088E404080BE5040892E40408F0
S31508000280014B18681DF00AB95416002010B50E4C1B
S3150800029000F05EF800F086F800F0DEF8012120682C
S315080002A023F0DEFF28B16621084B094A09484CF0BD
S315080002B0C3FD0121206824F0A6FD18B16721064B6D
S315080002C0034AF3E710BD00BF541600209BE4040858
S315080002D002E5040892E40408CDE4040810B5054CC8
S315080002E0206824F0F8FB206806F0D6FFBDE8104029
S315080002F000F00CB95416002008B504F0FDFFFFF70E
S31508000300C5FF05F006F8FFF7E9FF04F05FF9F8E71F
S3150800031010B5084690B00C4624F0E8F93F2301468C
S315080003206A46204624F0E6F910AB1844002306492D
S3150800033000F8403C68464DF050FA18B9694603483B
S315080003401FF07DFE10B010BD21E504082CE5040859
S3150800035010B50F481FF073FEFFF768FF4FF4FA61F8
S3150800036024F06FF8044638B9FFF760FF4FF0010133
S3150800037024F0FFFB044648B1204623F05FFF2146E0
S31508000380BDE81040024603481FF059BE10BD00BF25
S3150800039043E504085DE50408014B1878704700BF7B
S315080003A05816002070B5A4B07022002108A84CF099
S315080003B016FE01220023CDE90623224B224A1C936E
S315080003C06B461068516802AC03C36B46224603CBE2
S315080003D01E4BCDF85900CDF85D1003F110062546E1
S315080003E018685968083303C5B3422C46F7D10FCAB3
S315080003F00EAC84E80F00BDF88C30154843F4CA7378
S3150800040043F00103ADF88C304DF0F9F91049024676
S3150800041012A84CF0BDFD9DF88C3043F008038DF80A
S315080004208C30FFF703FF06A923F06FFE044630B1B0
S3150800043023F004FF2146024606481FF000FE24B0BA
S3150800044070BD00BF22220F00ABE50408B4E504081E
S315080004500012002082E5040810B586B0102200219B
S3150800046001A84CF0BCFDEA23ADF81430FFF7DEFE18
S315080004700023134A134924F017FD044640B123F01C
S31508000480DDFE2146024610481FF0D9FD06B010BD14
S31508000490FFF7CCFE01230B4901AA24F01FFD0446F1
S315080004A00028F3D023F0CAFE2146024607481FF06B
S315080004B0C6FDFFF7BBFE034924F00BFDE6E700BFC8
S315080004C0110300085C160020C5E50408F2E50408D7
S315080004D010B5044600F07DFA01280DD1074B9C4261
S315080004E005D1074B1870BDE8104006F0E7BE054B6E
S315080004F09C42F8D1044BF5E710BD00BF34E604086A
S31508000500901600204CE604085916002030B5214BF9
S315080005108DB01A785ABB204B1A78002A37D0002596
S315080005201D70FFF783FE294624F0B0FC044670B31D
S3150800053029462C2201A84CF052FD184805A923F09B
S31508000540E5FE80B97B230A2220461549ADF82630F8
S3150800055024F0CEF838B9FFF769FE2246114901ABF7
S3150800056024F0C6FC98B1204624F0BCF80FE000221F
S315080005701A700D4B197881F0010201F007041A7000
S31508000580FFF754FE214624F0F4FA0028C3D00DB034
S3150800059030BD00BF90160020591600201FE604083B
S315080005A027E604085C1600205816002008B5032123
S315080005B0802002F015FB03214FF4806002F010FB47
S315080005C00A214FF4C06002F00BFB0A214FF4F060D9
S315080005D002F006FB0A213E2002F002FB0A212D202A
S315080005E002F0FEFA0A21512002F0FAFA002008BDAC
S315080005F007B501A803F098F99DF80530012B14D129
S315080006009DF804308BB94FF48012114B1149586E7E
S3150800061003F580535A664B6B23F0E05343F040636F
S315080006204B63C3025CBF0C4B5A6603F09DFC03F098
S315080006303DFC03F0B7FC03F061FCFFF7B7FF03F0DE
S315080006404BFC00F03DFD03B05DF804EB03F0CCBEB7
S31508000650008000500040005A00A0005008B500F085
S31508000660B5FC00F059F8BDE8084000F06DB808B5CB
S3150800067004F042FB03F098FC19F093FE03F06AFDC0
S315080006800EF0DCFFBDE8084019F08DBE08B503F092
S31508000690EFFB03F0F3FB03F003FCBDE8084006F0AC
S315080006A0EFBD00F004B8704770477047704708B54B
S315080006B0FFF7D0FD06F080FDBDE80840FFF7E0BD76
S315080006C0012070470120704710B506F08BFD0446DF
S315080006D0FFF7F6FF002814BF2046002010BD38B5E6
S315080006E004F076F8044601F045FC042810D00228E8
S315080006F04FF0000508BF0124FFF7E4FF042809D0DE
S31508000700022808BF0124002D18BF0024204638BD42
S315080007100125F1E70024F9E708B5044800F054F983
S31508000720BDE80840024800F04FB900BF34E60408A7
S315080007304CE6040818B1034B1860002070472520C2
S31508000740704700BFF016002010B5054C0549206813
S3150800075001F038FA2068BDE81040FFF7EBBF00BF8C
S31508000760401200201C120020FEE7000008B500F029
S315080007702DF8124B12498B4212D30020114B124905
S315080007808B4218D3FFF718FD186850F822405868AE
S3150800079040F82240013298688242F5D30C33EAE7E2
S315080007A00022F8E71C6844F8220001325C68A2427D
S315080007B0F8D30833E4E70022F8E700BF2C6D0508F4
S315080007C0386D0508386D0508386D05084FF4804101
S315080007D04FF0FF30114B124A10B59A60D3F88820B3
S315080007E042F47002C3F888200E4A91660E4901F554
S315080007F0005210660D4850660220C3F8D000BFF3B9
S315080008004F8FBFF36F8F01244FF440330848C0F869
S315080008108041D36004600B6110BD00BF00ED00E0AD
S31508000820000000080090005000800044F7FF3700E1
S3150800083000E100E0014B1868704700BF481300202C
S31508000840084B1B6F03F00703022B04D0032B05D0BC
S31508000850012B05D0FEE7044B18687047034BFBE7EE
S315080008600348704700800050481300204C130020AE
S31508000870002D310108B5FFF7E3FF054B1B6FC3F3E6
S3150800088003330133B0FBF3F0024B186008BD00BF19
S3150800089000800050441300200048704700B4C40488
S315080008A0014B1868704700BF4C130020054B1860B1
S315080008B0054B1B6F03F00703032B01D1FFF7DABFC4
S315080008C0704700BF4C13002000800050002070477E
S315080008D000487047002D31014FF0B4439868C0F3C3
S315080008E004400C2822D8DFE800F009212121212123
S315080008F0071719211B1D1F000F4870479B6803F037
S315080009004073B3F1807F13D0B3F1007F12D00B4A46
S31508000910002B08BF104670470948704709487047BA
S3150800092009487047094870470948704700207047CA
S315080009300848704708487047405DC60000093D00F2
S315080009400024F400C0EA210180BA8C010048E801BD
S31508000950005A620280841E0040420F004FF4004095
S3150800096070474FF47A707047014B1868704700BF9C
S315080009705013002000230360704703680B60016072
S3150800098070470346006818B102681A6000230360BE
S315080009907047036803B970478B4202D10B6803603E
S315080009A070471846F5E7000005490A681318054810
S315080009B083428CBF4FF0FF320B601046704700BF72
S315080009C05413002000000420436803B1184722206E
S315080009D07047436903B11847FF20704710B40A6887
S315080009E01378022B11D014203023147913FB040337
S315080009F007481B585079C340DB4303F001031370C3
S31508000A0008465DF8044BFFF763BD5DF8044B704775
S31508000A1030C0035037B50468012105463A2001F075
S31508000A2021FD002301226179207902F015FE1422A6
S31508000A303023217913FB01230E4A9B586279D34050
S31508000A40DB4303F001032370A379022B0ED100F0D8
S31508000A50BDFA2A460849607900F0E2FA01230246FF
S31508000A6061792079CDE9003302F09EFD002003B0BC
S31508000A7030BD00BF30C00350DD0900080368187890
S31508000A807047000002681378022B24D01421302303
S31508000A90107913FB001310495B585179CB409179B3
S31508000AA003F00103012912D1508843EA40034FF6A7
S31508000AB0E07063F03F039BB2834202D1117053800A
S31508000AC070474FF6DF718B42F9D10021F6E711B96D
S31508000AD083F001031370704730C0035003681A7817
S31508000AE0022A03D100225A80FFF794BF704713B534
S31508000AF004682378022B10D0A379022B0BD100218E
S31508000B00607900F07BFA0023627920791146CDE9F5
S31508000B10003302F049FD0223237002B010BD000025
S31508000B202DE9F04F9A46564B85B01B7806460F4678
S31508000B301546DDF83C909DF844B0DDF85080002B52
S31508000B4000F08D80072A00F28C800E9B002B00F0A7
S31508000B508880B9F1000F00F08480129BB3F5006F0E
S31508000B607FDC012802D1109B002B7AD0454B03EB82
S31508000B7005131B7B002B76D0434C102200216846B8
S31508000B804CF02DFA04EB45141022002F59D13946A2
S31508000B9020464CF024FA43F210036380BBF1000FA1
S31508000BA003D1E37843F00303E370374A0E9B02EB65
S31508000BB0451CCCE90193129B6901013BC3F30A006A
S31508000BC09DF84C30012E03F003034FEA836343EA92
S31508000BD0001E53582D48CDF800A000EA03004EEA3F
S31508000BE00003535041D113230CF1100ECCF80C30EE
S31508000BF09CE80F008EE80F006FF00301DCF81C205C
S31508000C00109B61F39F02012FCCF81C20CCF81430FE
S31508000C1003D1CCF81890CCF804300027194A2901DA
S31508000C2002EB051342F80180159A28465A60694670
S31508000C3022469F605E7302F08FFD384605B0BDE818
S31508000C40F08F002120464CF0CAF94FF444736380B4
S31508000C50BBF1000FA9D1E37843F03003A4E70C48B1
S31508000C60ECE70C48EAE70C48E8E7B8F1000FD4D1FE
S31508000C709CF8023068F304138CF80230CDE700BF05
S31508000C8074180020F4160020741700200F80FFF354
S31508000C90028000F0018000F0078000F038B5124BA2
S31508000CA005461B78DBB1E0B102F009FA0F4A0023CA
S31508000CB01146147B54B92B6001251A0101EB031365
S31508000CC01D738C5002F001FA204638BD0133082BFB
S31508000CD002F11002EDD102F0F8F90548F5E70548EA
S31508000CE0F3E70548F1E700BF74180020F416002062
S31508000CF0048000F0028000F0018000F0154B13B567
S31508000D001868002301908DF8043002F0D8F9124BC8
S31508000D101C7824B102F0D9F9104802B010BD01229E
S31508000D201A7002F0D2F90E4B01A81C731C7783F8CF
S31508000D302C4083F83C4083F84C4083F85C4083F8A9
S31508000D406C4083F87C4008238DF8073002F0D2FC0B
S31508000D502046E2E764E6040874180020038000F0E1
S31508000D60F416002010B588B00E9C009207940D9CCE
S31508000D70024606949DF8304005940B9C04949DF811
S31508000D80284003940024CDE9013420460B46214629
S31508000D90FFF7C6FE08B010BD10B588B00E9C0092CD
S31508000DA007940D9C024606949DF8304005940B9CCA
S31508000DB004949DF8284003940024CDE90134204684
S31508000DC00B460121FFF7ACFE08B010BD0A4A08B56C
S31508000DD012785AB107280BD8084A02EB00131B7B76
S31508000DE043B1002102F078FC002008BD0448FCE766
S31508000DF00448FAE70448F8E774180020F4160020B7
S31508000E00028000F0018000F0078000F00A4A08B569
S31508000E1012785AB107280BD8084A02EB00131B7B35
S31508000E2043B1012102F058FC002008BD0448FCE744
S31508000E300448FAE70448F8E774180020F416002076
S31508000E40028000F0018000F0078000F00A4A08B529
S31508000E50127852B107280AD8084A02EB00131B7BFE
S31508000E603BB102F0C7FC002008BD0548FCE7054871
S31508000E70FAE70548F8E700BF74180020F4160020C2
S31508000E80028000F0018000F0078000F00D4B1B780F
S31508000E9093B1072812D889B10B4B03EB00131B7BC0
S31508000EA073B10A4BDA6A012303FA00F010401ABF3D
S31508000EB000200B7008707047054870470548704752
S31508000EC00548704774180020F416002000000450E6
S31508000ED0028000F0018000F0078000F00B4A10B590
S31508000EE012780C4662B107280CD859B1084A02EBA9
S31508000EF000131B7B43B102F08FFC2060002010BD5D
S31508000F000448FCE70448FAE70448F8E774180020A0
S31508000F10F4160020028000F0018000F0078000F03F
S31508000F202DE9F843174B1F6D5B6D1F4000D5FEE793
S31508000F3001260025144CDFF85480DFF85490374218
S31508000F4017D02368C8F850609BB1A16828460131BC
S31508000F506268A1609847637B012B0AD148B909EBFF
S31508000F6045131A7B60F341021A731A7F60F3410234
S31508000F701A770135082D4FEA460604F11004DED12A
S31508000F80BDE8F88300000450F41600200020045041
S31508000F907417002070B5044601250B4E04B970BDC0
S31508000FA094FAA4F0B0FA80F005FA00F306EB001202
S31508000FB024EA03045368002BF0D0117B11B1916821
S31508000FC09847EBE79847E9E77818002008B519200D
S31508000FD002F07EF828B14FF00072074BC3F8802163
S31508000FE01A601A2002F074F828B14FF08062024B9A
S31508000FF0C3F880211A6008BD00E100E038B505464F
S315080010000C4602F05CF80022044B03EB05135C6007
S315080010101A73BDE8384002F058B800BF78180020A7
S31508001020F8B505460F46164602F049F8104B05F086
S31508001030FC02D3F824140023EC1804F00304144328
S3150800104021FA04FC1CF0010F07D00133042BF3D15D
S31508001050FF2402F03AF82046F8BDFF2CF9D0012209
S31508001060044B03EB0413C3E901761A73F1E700BFD7
S3150800107000C0035078180020074BD3F82404D3F88F
S31508001080202403F50053104000F0553020F050207E
S31508001090C3F82004FFF77EBF00C00350074BD3F800
S315080010A02404D3F8202403F50053104000F0AA3096
S315080010B020F0A020C3F82004FFF76CBF00C003503F
S315080010C0024B1968024B186843F070B85C1300208D
S315080010D0581300207047000037B5920004460D46A5
S315080010E001924DF0C1F9431C0BD060B92946204640
S315080010F0019A4BF03DFF0028044808BF002003B0C2
S3150800110030BD0348FBE70348F9E700BF10E000F0ED
S3150800111021E000F024E000F013B5044601A802F02F
S3150800112003FC9DF80630012223804FF480730020CB
S315080011306380054B9B680A3303F01F0302FA03F327
S31508001140636002B010BD00BF0080E00F02F092BBE2
S3150800115008B502F07FFB002008BD10B5044644EA36
S31508001160010313F00303084609D1934201D1002075
S3150800117010BD54F8231040F823100133F5E7214633
S3150800118092004BF005FFF2E710B504464DF074F9EE
S31508001190431C15D0B0B90C4B20469B680A3303F0A4
S315080011A01F020123934023F003032344984201D1ED
S315080011B0002010BD50F8042B0132F7D00348F8E799
S315080011C00348F6E70348F4E70080E00F0EE000F076
S315080011D021E000F024E000F008B501F061FF014BC2
S315080011E0186008BD08210020014B186801F05CBF93
S315080011F0082100200A460139014403F007B8000017
S3150800120038B141B1013AB2F5006F044838BF002041
S315080012107047034870470148704700BF037000F0E5
S31508001220027000F038B504460D4601F048FFA38861
S315080012309BB223B92B6001F048FF064838BD14223B
S3150800124063889BB202FB034408342C6001F03DFF1F
S315080012500020F3E70B7000F01FB504460B46C07E6E
S31508001260E17F002B39D00123042202F0F5F901238E
S31508001270022294F82010207F02F0EEF994F8353017
S31508001280022B19D10023012294F82110607F02F065
S31508001290E3F90023042294F82210A07F02F0DCF977
S315080012A0012394F8212001931146607F009302F0F0
S315080012B07BF9002004B010BD032BFAD100230122CC
S315080012C094F82110607F02F0C7F90023042294F8ED
S315080012D02210A07F02F0C0F9EBE71A46039302F04A
S315080012E0BBF9039B94F820101A46207F02F0B4F944
S315080012F094F83520039B022A12D11A4694F8211035
S31508001300607F02F0A9F9039B94F822101A46A07F81
S3150800131002F0A2F9039B94F8212001930123C3E765
S31508001320032AC6D11A4694F82110607F039302F067
S3150800133093F9039B1A46CAE7F8B5044616460F46BC
S3150800134001F0BDFEA388E2889BB29A42054605D8FD
S315080013500023336001F0B9FE1748F8BD142223882C
S3150800136007F1100C9BB202FB03433A4608331746B3
S3150800137003CF6745186059603A4603F10803F6D16A
S31508001380142238681860238828469BB202FB034358
S31508001390083333602388E2889BB20133B3FBF2F14A
S315080013A002FB11339BB22380A38801339BB2A3802F
S315080013B001F08BFE0020D0E70A7000F0034610B556
S315080013C093F836300068022B0CD102F07BF80446FD
S315080013D030B103F0ABFD24235843B0FBF4F40134D9
S315080013E0204610BD02F026FBF1E7000090F83530E4
S315080013F0022B0DD114223023417F90F8210013FBD4
S315080014000123044A9B5823FA00F000F001007047B4
S315080014100020704730C00350002313B51D4A52F808
S31508001420044B94F8211081420ED00133042BF6D1D7
S3150800143002B010BD0028FBD19DF80730002BF7D06D
S31508001440A068FFF7C3FCF3E794F83530022BEFD119
S315080014502046FFF7CBFF637E2076022BE8D194F86F
S31508001460323003F0FF02002BE2D1A0680DF107012C
S315080014708DF80720FFF70AFD237E1BB194F8333059
S31508001480002BD7D00023A06884F83330FFF7BEFCC2
S31508001490CEE700BFBC210020104930B50B78104AB2
S315080014A02BB9C2E90033C2E9023301230B700C4C95
S315080014B00023214651F8045B854208D00133042BEA
S315080014C0F8D1002154F8043B1BB942F8210000204A
S315080014D003E001310429F5D1024830BDCC210020B2
S315080014E0BC210020027000F010B50446FFF706FC88
S315080014F0002104F10800FFF7D1FB014620B904F1E9
S315080015000C00FFF7CBFB00B1004810BD0E7000F0D1
S3150800151090F8363053B9042103790A4A03F239138D
S315080015205B01D150022203685A617047022B07D12A
S315080015300068816C11F0020118BF062101F0B7BFDF
S31508001540704700BF00C0035090F8363063B90122D7
S3150800155003685A619A69D207FCD504210379084AB7
S31508001560B9335B01D1507047022B07D10068836CF1
S315080015709B074CBF0521092101F099BF704700BFA1
S3150800158000C0035010B590F83630044663B90422FB
S3150800159003685A619A699207FCD523790C4AB933CC
S315080015A05B011021995010BD022BFCD10068836C99
S315080015B0DB074CBF0521062101F079FF237941F2AB
S315080015C094425B0103F1A04303F57033E9E700BFDA
S315080015D000C0035037B50446836B01F070FDA36B5A
S315080015E00546013BA363A16B79B9019101F058FD4A
S315080015F004460199012002F029FF0120064A0199B3
S3150800160003F026F9204601F04FFD284603B0BDE851
S31508001610304001F05ABD00BF8CE6040813B591F8B6
S3150800162036200B68022A0CBF9B6C9B690C469B06EE
S31508001630084605D5FFF7CEFF0223A36502B010BD05
S31508001640FFF7BCFE00230146CDE90033034A2346D3
S3150800165004F13C0003F0E8FBF0E700BF1D160008A4
S3150800166070B5044601F02BFDA36B054673B901F06E
S3150800167017FD01210646084602F0E8FE0121074A41
S31508001680084603F0E5F8304601F00EFDA36B284640
S315080016900133A363BDE8704001F017BD8CE604086A
S315080016A07FB5012380F8303090F8363083B9036867
S315080016B024330D4A04900392002202924A6801924A
S315080016C0012200920A684169C068FFF765FB07E0D6
S315080016D0022B02D103683C33EBE7002380F8303055
S315080016E007B05DF804FB00BFFD1D000801232DE9C6
S315080016F0F04180F8313090F8363004460E4688B00E
S3150800170063BB05683C3501F0DAFC04F13C08074682
S315080017100DF11F01404603F06BFB40B99DF81F30E1
S315080017202BB1404603F022FB2046FFF753FF38460D
S31508001730012701F0CAFC2046A765FFF791FF0D4B6C
S315080017402A4603930023029373682169CDE900733F
S31508001750A06833680494FFF705FB07E0022B02D163
S3150800176005684435CFE7002380F8313008B0BDE876
S31508001770F08100BFC117000838B504460D4601F0D0
S315080017809EFCA3889BB223B92B60BDE8384001F0C4
S315080017909CBC142263889BB202FB034308332B606C
S315080017A06388E2889BB20133B3FBF2F102FB113383
S315080017B09BB26380A388013B9BB2A380E5E7000048
S315080017C0F0B585B0D06A03A91446FFF72BFD064687
S315080017D02046FFF7F3FD002501462346CDE90055CF
S315080017E0164A04F13C0003F01FFB154B9E421FD01E
S315080017F0039B1D619D6001F062FC039A0646D7684B
S3150800180027B1D2E9002329462046B847E06A03A94A
S31508001810FFF7B2FFE06A83889BB263B103A9FFF7BB
S3150800182001FD20460399FFF761FF304601F04DFCA4
S31508001830012005B0F0BD84F83130F6E71D16000822
S315080018400B7000F090F8363013B903689869704742
S31508001850022B06BF0368986C002070472DE9F341F8
S315080018600D46044600287FD001F029FC012D0646C6
S3150800187041D1E36A9B889BB2002B43D0A068FFF74F
S31508001880E5FA0023E06A84F8313083889BB273B1A5
S3150800189001A9FFF7C7FC0199A0680831FFF71EFBED
S315080018A0374F019B1F61E06A83889BB283BB204642
S315080018B0FFF7C8FF8304FAD5023D012D10D8E0686A
S315080018C0FFF7C4FA0023A06A84F8303083889BB2F5
S315080018D06BBB94F83530032B02D02046FFF718FE71
S315080018E0A36B002B02DD2046FFF774FE304601F09D
S315080018F0ECFB002009E0022D38D1A36A9B889BB235
S31508001900002BDCD101F0E1FB1E4802B0BDE8F081F6
S3150800191001A9FFF731FF019BD3F80C80B8F1000F3E
S31508001920C1D00022394620469B68C047BBE76946B6
S31508001930FFF778FC0099E0680831FFF7CFFA104DF9
S31508001940009B1D61A06A83889BB2002BC1D06946A3
S31508001950FFF712FF009BDF68002FF3D0002229460D
S3150800196020469B68B847EDE70748CEE7032DA3D185
S31508001970E36A9B889BB2002B80D1A36A7AE700BFF3
S31508001980097000F0087000F0027000F02DE9F341CC
S31508001990984600230546806A0E4684881746A4B2F0
S315080019A0CDE900333CB16946FFF73CFC01A9044682
S315080019B0E868FFF793FA009B73B16CB95A68019906
S315080019C01B68521A3A60C8F8001028463360FFF7B9
S315080019D039FF02B0BDE8F0810023C8F800303B604B
S315080019E0F3E7C36A9888C0B270470000F8B507469F
S315080019F00D461646FFF704FC00286BD1152001F0AA
S31508001A0075FB0446FA6A93889BB213B197F832308D
S31508001A10E3B197F83630F3B93B689C6904F00204E1
S31508001A201CB93846FFF7AEFD0024012387F8343089
S31508001A3097F83630CBB92E44B542386810D1836949
S31508001A409A06FCD51CB300242046F8BD002CDAD033
S31508001A50FFF766FAD6E7022BE3D13B689C6CDDE715
S31508001A6015F8011B02F088F8E6E7022BEAD12E44A6
S31508001A70B542386806D142F22003826C33EA020284
S31508001A80FBD1DFE715F8011B01F016FDF0E797F823
S31508001A90363053B910213B790F4A03F239135B01EB
S31508001AA0D15008223B685A61CEE7022BCCD1386860
S31508001AB0836CDB074CBF0921214601F0F8FC42F292
S31508001AC0944210213B795B0103F1A04303F570337F
S31508001AD09950B9E70446B7E700C0035010B5044665
S31508001AE080B190F832302BB9FFF780FC10B9A068A6
S31508001AF0FFF76CF9002094F832300133DBB284F832
S31508001B00323010BD0048FCE7027000F010B50446FC
S31508001B10A0B190F832309BB190F83230012B05D144
S31508001B20FFF764FC10B9A068FFF770F9002094F875
S31508001B303230013BDBB284F8323010BD0148FCE795
S31508001B400148FAE7027000F0057000F037B590F822
S31508001B5035500446022D1DD1012290F82230457ECB
S31508001B60817F9A403020164B25B900FB013303F5D7
S31508001B70015305E0012D07D100FB013303F582531C
S31508001B801A60002003B030BD247E00FB0133002C10
S31508001B90F4D1ECE7012DF4D1037E73B911238DF846
S31508001BA00730FFF79BFF2A4620460DF10701FFF78E
S31508001BB01DFF2046FFF7AAFFE3E71323EFE700BF61
S31508001BC000C003502DE9F04304466F4F89B001AEBB
S31508001BD00D460FCF0FC697E8070086E80700002CCA
S31508001BE000F0D08025B9694E304609B0BDE8F083CB
S31508001BF05C22002120464BF0F2F92046FFF74CFC08
S31508001C0006460028F0D14FF001092B7D84F83530BF
S31508001C102B6884F8360023602A7BC4F85890227112
S31508001C205B4A9342DFD1292363624FF480235949E3
S31508001C308046C4E90413D5E90723A26210805080C0
S31508001C40908084F83000E3621880588098806B682A
S31508001C5084F831000393EB8984F83300ADF8143027
S31508001C602B8A4946ADF81230AB7C3A208DF81030F5
S31508001C70EB7C494F8DF8163005238DF8113000F0AE
S31508001C80F1FB4946606A00F0EDFB286801A98DF86A
S31508001C90046001F011FF14212B7B03F13902520174
S31508001CA0B9502E7AA87A07EB431346EA0042C3F8DE
S31508001CB03827697AEA7A41EA024CC3F830C7E676E9
S31508001CC0E077217784F820206B7D49466377AB7DE2
S31508001CD0204684F82130EB7DA3772B7E84F82230CA
S31508001CE0FFF7BAFA064600287FF47EAF01F0E7F957
S31508001CF02B7D8146032B33D102212A7B02F1B903BE
S31508001D005B01F950042107EB421741F22C722B684C
S31508001D1003F58053D965297EEB7D43EA0143BB5021
S31508001D20AA7D6B7D43EA024341F22872BB504FF00D
S31508001D30FF32286800F500539A642B7D032B0CBFED
S31508001D400521042101F087FE4FF440622B682046E6
S31508001D505A61FFF7C9FB0646484601F0B6F943E75C
S31508001D60022BE4D194F821000C49FFF747F9FFF755
S31508001D702DF94FF400732046238384F81A80FFF761
S31508001D80E5FED4E7064E2FE794E60408037000F054
S31508001D9000C005500200040000C0035019140008D2
S31508001DA0027000F0F0B587B005461646FFF728FA28
S31508001DB00446F0B90493104BCDE901166A46A86AA1
S31508001DC001A903960593FFF7B7FA044688B995F86B
S31508001DD0303073B92846FFF7B7FB28460099FFF756
S31508001DE05FFC95F83530032B03D028462C76FFF791
S31508001DF0ADFE204607B0F0BD017000F073B5906ADD
S31508001E0001A91446FFF70EFA384B984231D094F8D8
S31508001E103600019B00283AD12268916C11F40071B2
S31508001E202AD03349986019614FF4007302F50052BD
S31508001E30936401F044F901990646CD6835B14A68BC
S31508001E408B682046D31A0A680969A847A06A01A9B7
S31508001E50FFF792FCA06A8588ADB2002D37D001A99C
S31508001E60FFF7E0F920460199FFF71AFC304601F022
S31508001E702CF9012002B070BD906CC50523D51D480C
S31508001E809960186102F500524FF48073D0E7022872
S31508001E9019D12268D16C11F4007109D0144902F5E0
S31508001EA000521961002199604FF40073D364C0E7AA
S31508001EB0D06CC00507D50F489960186102F5005225
S31508001EC04FF48073F2E700221A619A60B1E70123A2
S31508001ED020462376FFF73AFE94F8353084F83050DA
S31508001EE0032BC3D02046FFF713FBBFE70B7000F0A8
S31508001EF00D7000F00C7000F0F0B587B00446164679
S31508001F00FFF77EF9054658BB0493194BCDE9011630
S31508001F10059394F8363003962BBB23689B6903F028
S31508001F20020313B92046FFF72DFB6A46E06A01A9AA
S31508001F30FFF702FA054698B994F8313083B901F0EB
S31508001F40BEF8E36A06469B889BB233B120460099E1
S31508001F50FFF7CCFB012384F83430304601F0B5F89E
S31508001F60284607B0F0BD022BDCD123689B6CD6E768
S31508001F70017000F00B4B30B51B7883B101200023AC
S31508001F800546094951F8042B2AB192F85840022C03
S31508001F9004BF204695650133042BF3D130BD0120DB
S31508001FA0FCE700BFCC210020BC210020044BD3F85D
S31508001FB08420D206FBD4D3F88400C0F3811070477E
S31508001FC00040005038B5174B0546D3F820310C466B
S31508001FD003F00703013B052B20D8DFE803F0030BCA
S31508001FE0130F171BFEF726FC052305B1286004B15D
S31508001FF0236038BDFEF754FC0323F6E7FEF76CFCB6
S315080020000723F2E7FEF764FC0223EEE7FEF712FC6D
S315080020100623EAE7FEF744FC0423E6E7002318460E
S31508002020E3E700BF0080005038B5174B0546D3F8E4
S3150800203028310C4603F00703013B052B20D8DFE8BF
S3150800204003F003131B0F0B17FEF7F4FB052305B16B
S31508002050286004B1236038BDFEF7ECFB0623F6E7DB
S31508002060FEF73AFC0723F2E7FEF71AFC0323EEE72E
S31508002070FEF716FC0423EAE7FEF72AFC0223E6E746
S3150800208000231846E3E700BF0080005073B50D46ED
S315080020900021114B0191D3F88041064604F0030450
S315080020A0022C13D0032C0CD0012C13D101A8FFF756
S315080020B089FF10240EB1019B336005B12C6002B074
S315080020C070BDFEF709FC07240190F3E7FEF700FC54
S315080020D00190EFE70C46EDE700800050002337B586
S315080020E00193154B0546D3F820320C4603F0070337
S315080020F0013B032B1ED8DFE803F0020E131800215C
S3150800210001A8FFF791FF12230DB1019A2A6004B1C5
S31508002110236003B030BDFEF7DFFB07230190F3E72A
S31508002120FEF71CFC0A230190EEE7FEF71DFC0923C7
S315080021300190E9E70023E7E70080005038B5104B27
S315080021400546D3F840310C4603F00303022B0BD0A7
S31508002150032B0DD0012B0FD1FEF700FC0A2305B186
S31508002160286004B1236038BDFEF7FEFB0923F6E7B5
S31508002170FEF7F7FB0C23F2E700231846EFE700BF4C
S3150800218000800050002337B50193164B0546D3F857
S3150800219060320C4603F00703013B032B1FD8DFE828
S315080021A003F0020E1914002101A8FFF70BFF1023F4
S315080021B00DB1019A2A6004B1236003B030BD002135
S315080021C001A8FFF7BBFF1123F2E7FEF785FB0723FC
S315080021D00190EDE7FEF77CFB02230190E8E7002378
S315080021E0E6E700BF00800050002337B50193164B81
S315080021F00546D3F894320C4603F00703013B032B3C
S315080022001FD8DFE803F0020E1914002101A8FFF712
S31508002210D9FE10230DB1019A2A6004B1236003B0D8
S3150800222030BD002101A8FFF789FF1123F2E7FEF769
S3150800223053FB07230190EDE7FEF74AFB02230190C3
S31508002240E8E70023E6E700BF0080005038B5134BE7
S315080022500546D3F800320C4603F00703013B032B6F
S3150800226018D8DFE803F0020A0E12FEF777FB0A23F6
S3150800227005B1286004B1236038BDFEF775FB092354
S31508002280F6E7FEF76EFB0C23F2E7FEF7F3FA0F23E9
S31508002290800AEDE700231846EAE700BF00800050F1
S315080022A038B5134B0546D3F808320C4603F0070336
S315080022B0013B032B18D8DFE803F0020A0E12FEF7DB
S315080022C04DFB0A2305B1286004B1236038BDFEF72B
S315080022D04BFB0923F6E7FEF744FB0C23F2E7FEF770
S315080022E0C9FA0F23800AEDE700231846EAE700BF7C
S315080022F00080005038B5104B0546D3F840320C46DE
S3150800230003F00303022B0BD0032B0DD0012B0FD1A7
S31508002310FEF724FB0A2305B1286004B1236038BD03
S31508002320FEF722FB0923F6E7FEF71BFB0C23F2E771
S3150800233000231846EFE700BF0080005038B5104B61
S315080023400546D3F860310C4603F00303022B0BD085
S31508002350032B0DD0012B0FD1FEF700FB0A2305B185
S31508002360286004B1236038BDFEF7FEFA0923F6E7B4
S31508002370FEF7F7FA0C23F2E700231846EFE700BF4B
S315080023800080005070B5054614460E4600F088FEDB
S31508002390296881EA040202EA06044C402C60BDE87A
S315080023A0704000F081BE0000B0F5207F1FD009D82C
S315080023B0B0F5007F15D003D868B1B0F5C07F0AD054
S315080023C000200CE0B0F5607FFAD10B4BD3F8800003
S315080023D0C0F3011003E0084B186FC0F30330013057
S315080023E07047054BD3F89000C0F30460F7E7024B3B
S315080023F0186FC0F38020F2E70080005002464FF4C1
S315080024008030104B10B598660020FFF7CDFF50437B
S3150800241041F671320C4BDC69DA635A6804F480348D
S3150800242022F4401259B9094988428CBF4FF48010EA
S315080024300020104358600CB10022DA6310BD04492D
S31508002440F2E700BF0090005000000350005A6202F5
S31508002450002D310108B5FEF71FFABDE80840002136
S31508002460FFF7CCBF430905D0012B0DD0022B094B32
S3150800247018BF002300F01F0041B103F58053012265
S3150800248002FA00F018607047034BF3E703F50053B0
S31508002490F5E700BF68800050648000501FB5002231
S315080024A080280446019200F0BA8048D8002800F037
S315080024B0BA80A0F120043D2C54D83D2C52D8DFE830
S315080024C014F0B200BE00B200BE00D700D700D70095
S315080024D0D700D700BE00E1005B00F70081005B0073
S315080024E0BE00BE00BE00510051005100510051000F
S315080024F0510051005100BE00BE00BE008900010116
S31508002500BE005100510051005100510051005100C8
S31508002510510051005100510051005100D700B2003E
S31508002520B200B200FC005B005B00060198006C007C
S31508002530DC0051005100510051005100A900B0F5CE
S31508002540B06F00F09F802DD8B0F5207F77D00CD8DB
S31508002550B0F5C07F67D0B0F5007F67D0B0F5807F53
S3150800256000F09580019804B010BDB0F5607F6CD07E
S315080025700DD8B0F5407FF5D1FEF77CF902464FF449
S315080025802070FFF711FFB2FBF0F0400849E0B0F504
S31508002590806F6DD0B0F5A06FE4D1002101A8FFF7D8
S315080025A09DFDDFE7B0F5106F00F0878017D8B0F50E
S315080025B0E06F00F087800AD8B0F5C06F78D0B0F524
S315080025C0D06FCFD1002101A8FFF740FECAE7B0F5CA
S315080025D0F06FC7D1002101A8FFF7B0FEC2E7B0F53A
S315080025E0406F4AD013D8B0F5206F70D0B0F5286F79
S315080025F0B8D10021384B0391D3F8703203F00303A6
S31508002600012B02D103A8FFF799FD039B49E0B0F51A
S31508002610486FA7D1002101A8FFF7E6FDA2E7FEF75C
S315080026200FF901909EE7FEF725F9FAE7FEF708F994
S3150800263002462046FFF7B8FEB2FBF0F0F1E7FEF7D8
S3150800264019F902464FF42070F4E7234BD3F880308B
S3150800265003F00303012B04D0022B06D04FF460705D
S31508002660E8E7FEF7EDF80246F8E7FEF735F9FAE788
S31508002670002101A8FFF7A6FC74E7002101A8FFF7CF
S31508002680D3FC6FE7002101A8FFF700FD6AE74FF0CA
S31508002690E02302921B695B0705D5FEF7EBF802906B
S315080026A0029B01935EE703A902A8FFF747FDF7E738
S315080026B0002101A8FFF742FD54E7002101A8FFF712
S315080026C0EFFD4FE7002101A8FFF714FE4AE70021B6
S315080026D001A8FFF757FD45E70080005008B58020A0
S315080026E0FFF7DCFE034B98429EBF4FF48032024B45
S315080026F01A6708BD005A620200A000501FB50023E1
S31508002700B0F5807F019300F0C38064D85D2855D862
S315080027104C2807D82D2847D823282BD8019805B048
S315080027205DF804FB4D381028F8D801A353F820F0BB
S31508002730872800081D2700081D2700081D270008F0
S31508002740392800081D2700081D2700082529000824
S3150800275057280008FD2700081B2900081D27000820
S315080027601D2700081D2700081D2700081D2700082B
S315080027702F29000824380928D0D801A353F820F0B7
S31508002780872800088728000887280008872800085F
S31508002790872800081D2700087D2800081D2700082F
S315080027A019280008BD2800083D2800F082803E2828
S315080027B0B4D1002001A9FFF79DFDAFE78028ADD170
S315080027C0604B1B6F03F00703013B032BA6D8DFE81A
S315080027D003F05350878FB0F5F06F6AD021D8B0F563
S315080027E0B06F4BD00FD8B0F5607F00F0858095D3D9
S315080027F0B0F5806F47D0B0F5A06F8FD1002001A942
S31508002800FFF76CFC8AE7B0F5D06F57D0B0F5E06FEC
S31508002810CFD0B0F5C06F81D1002001A9FFF78EFC9B
S315080028207CE7B0F5206F7DD00BD8B0F5086F4AD09D
S31508002830B0F5106F7FF472AF002001A9FFF730FDE5
S315080028406CE7B0F5406F68D0B0F5486F6FD0B0F55B
S31508002850286F7FF463AF00213A4B0391D3F87032A7
S3150800286003F00303012B67D0022B14BF0B46152375
S3150800287000E00523019351E70223FBE7002001A9A5
S31508002880FFF704FC4AE7002001A9FFF79BFB45E791
S3150800289002934FF0E0231B695B0705D5FDF7EAFFB6
S315080028A00D230393039BE5E703A902A8FFF746FC5C
S315080028B0F8E7002001A9FFF741FD2FE7002001A94D
S315080028C0FFF7C4FC2AE71F4BD3F8003103F00303D4
S315080028D0022B07D0032B09D0012B0BD1FDF7E0FF04
S315080028E00323C7E7FEF740F80923C3E7FDF7EEFF22
S315080028F00823BFE70123BDE7124AD2F8802002F079
S315080029000302012A05D0022AB4D1FDF7E5FF072301
S31508002910B0E7FDF795FF0E23ACE7002001A9FFF706
S3150800292083FBFBE6002001A9FFF72CFCF6E6002056
S3150800293001A9FFF759FCF1E603A8FFF7FFFB1123EE
S3150800294098E700BF0080005038B504468020FFF79E
S31508002950D5FE032800F083804FF48012504B4FF0C9
S31508002960A0615A6645F60E034E4AC2F880304E4BB1
S3150800297099624FF4803103F580539962916D11F491
S315080029808031FBD1D4E900031B0543EA0063E07BF1
S315080029900343207B43EA0043607B43EA0033A07B82
S315080029A043EA801313619069D4E904531B0643EA8A
S315080029B0856300F000400343A07EE57E0343207E46
S315080029C043EA0043607E43EA00239361E069136AA1
S315080029D000280CBF0022082223F00F0343EA000355
S315080029E043EA850343EA02032E4A304D136237D180
S315080029F094F82430916A94F82000DB000D4043EAED
S31508002A00401394F821102B4343EA011343F480330F
S31508002A109362274B916D33EA0101FBD14FF0807128
S31508002A20214881621369A56823F4700343EA0553B4
S31508002A3013614FF00043836194F822300BB91D4BA4
S31508002A40996294F823301BB94FF48032194B9A6275
S31508002A5094F825301BB1134B174AC3F8802038BDAC
S31508002A60022808D11161154891614FF408524FF4B4
S31508002A707F41FFF787FC0B4994F822308A6A94F85D
S31508002A8020001B06154043EA401394F824202B43E4
S31508002A9043EAC20394F8232043EA02438B62D7E74A
S31508002AA0009000500040005A0050005AC7FFFEFE32
S31508002AB0030001000060005AF1A7FFFF3440005AE6
S31508002AC0014B93F9000070477C1300200029CCBF06
S31508002AD001210021FFF792BCB0F5207F10B50C4606
S31508002AE057D008D8B0F5007F48D003D830B3B0F532
S31508002AF0C07F23D010BDB0F5607FFBD129492A4895
S31508002B00D1F8FC2012F080721EBFD1F8FC3023F0F9
S31508002B108073C1F8FC30D0F88030611E23F0300491
S31508002B2044EA0114C0F88040002AE3D01D4AD2F8CE
S31508002B30FC3043F08073C2F8FC30DBE7FFF78AFC11
S31508002B4000F036F84FF48031184B174A1967136F9F
S31508002B50611E23F4704444EA01341467FDF78AFEC3
S31508002B600446FFF723FAC0F102012046FFF7AEFF3D
S31508002B7000F024F8BDE81040FFF7B0BD0A4A013955
S31508002B80D2F8903023F0F85444EA0164C2F8904031
S31508002B90B0E7054B013C196F21F4806141EA8424B2
S31508002BA01C67A7E700ED00E0008000500090005089
S31508002BB002214FF42070FFF78FBF000008B54FF4CD
S31508002BC0C070FFF76BFCBDE80840044988428CBF1B
S31508002BD0022101214FF42070FFF77EBF80F0FA0230
S31508002BE0B0F5807FF8B50C4600F04E816BD85D28AD
S31508002BF05DD84C2804D82D2844D8232828D8F8BDD1
S31508002C004D381028FBD801A353F820F0692E000888
S31508002C10FF2B0008FF2B0008FF2B0008632D000878
S31508002C20FF2B0008FF2B00081D3000089B2D00080D
S31508002C30F32C0008FD2F0008FF2B0008FF2B0008C7
S31508002C40FF2B0008FF2B0008FF2B00083D3000086B
S31508002C5024380928D3D801A353F820F0692E000890
S31508002C60692E0008692E0008692E0008692E0008DA
S31508002C70FF2B0008492E0008FF2B0008292D000805
S31508002C80372F00083D2800F046813E28B7D1093C79
S31508002C90032C8CBF0021B04BB04A98BF195DD2F8FF
S31508002CA0403223F003030B43C2F84032A7E78028DB
S31508002CB0A5D18B1E062B00F2C480DFE803F0BFAD5A
S31508002CC0C27EC2C2BC00B0F5F06F00F024813BD8CA
S31508002CD0B0F5B06F00F0B8801BD8B0F5607F00F093
S31508002CE067818CD3B0F5806F00F0BE80B0F5A06F19
S31508002CF085D1073C0B2C8CBF0021994B974A98BF6E
S31508002D00195DD2F8203223F007030B43C2F82032AC
S31508002D1075E7B0F5D06F00F00E81B0F5E06FB6D06C
S31508002D20B0F5C06F7FF46BAF093C032C8CBF002154
S31508002D308C4B8A4A98BF195DD2F8403123F00303B9
S31508002D400B43C2F840315AE7B0F5206F00F06681B0
S31508002D5017D8B0F5086F00F01B81B0F5106F7FF437
S31508002D604EAF093C062C8CBF00217F4B7B4A98BF8F
S31508002D70195DD2F8083223F007030B43C2F808326C
S31508002D803DE7B0F5406F00F03981B0F5486F00F0C7
S31508002D905581B0F5286F7FF432AF112C00F05E81B3
S31508002DA0152C14BF002102216C4AD2F8703223F088
S31508002DB003030B43C2F8703221E7002502264FF4BD
S31508002DC080370121022000F00BFAFFF743FBFFF7DB
S31508002DD0EFFE664B614A1F67136F23F00703334301
S31508002DE01367FDF747FD0646FFF7E0F8C0F1020155
S31508002DF03046FFF76BFE0121002000F031FAFFF79D
S31508002E00DDFEFFF76BFC002D7FF4F9AE032C7FF493
S31508002E10F6AE574B9F62F2E64FF48012534B0E46BE
S31508002E205A664FF48032534B9D6A03F58053C5F3B7
S31508002E3000659A62C3E700250426C0E70025012637
S31508002E40BDE700252E46BAE7023C0E2C8CBF0021B2
S31508002E50494B424A98BF195DD2F8803123F00303E3
S31508002E600B43C2F88031CAE6023C052C8CBF002110
S31508002E70424B3A4A98BF195DD2F8203123F007032E
S31508002E800B43C2F82031BAE6A1F10904082C3FF633
S31508002E90B6AE01A353F824F0BD2E0008BD2E0008D7
S31508002EA0FF2B0008BD2E0008EB2E0008FF2B00089C
S31508002EB0FF2B0008FF2B0008BD2E00084FF48032B8
S31508002EC0264B2F49586E03F580535A664B6A43F0D2
S31508002ED001034B62C1035CBF2A4B5A664FF0E022DE
S31508002EE0136923F00403136189E64FF480321B4B00
S31508002EF02349586E03F580535A664B6A23F001033B
S31508002F004B62C3035CBF1F4B5A664FF0E02213693E
S31508002F1043F00403E7E7093C032C8CBF00211A4B56
S31508002F200E4A98BF195DD2F8603123F003030B43AC
S31508002F30C2F8603163E6093C062C8CBF0021134BAE
S31508002F40064A98BF195DD2F8003223F007030B43EF
S31508002F50C2F8003253E600BFE5E6040800800050D8
S31508002F6000E70408E5E60408E9E6040800900050CE
S31508002F700060005A0040005AD0E60408DFE604085C
S31508002F8000C0075000A00050E5E60408E9E604087A
S31508002F90CC1E062C8CBF0021314B324A98BF195DD6
S31508002FA0D2F8003123F003030B43C2F8003126E6BA
S31508002FB02D49063CD1F8FC2012F080721EBFD1F8CC
S31508002FC0FC3023F08073C1F8FC30082C8CBF00203D
S31508002FD0264B244998BF185DD1F8803023F00303A7
S31508002FE00343C1F88030002A3FF409AE1E4AD2F8DE
S31508002FF0FC3043F08073C2F8FC3000E6023C052C36
S315080030008CBF00211A4B174A98BF195DD2F8283190
S3150800301023F007030B43C2F82831F0E5023C0F2CD6
S315080030208CBF0021134B0F4A98BF195DD2F8603246
S3150800303023F007030B43C2F86032E0E5023C0F2C8D
S315080030408CBF00210C4B074A98BF195DD2F8943201
S3150800305023F007030B43C2F89432D0E50121A3E617
S31508003060F0E604080080005000ED00E0F7E60408EA
S31508003070DFE604080CE704080CE704080028ABBFE1
S3150800308000F16040054B00F5614000F00F00ACBF51
S3150800309090F80003185C0009704700BF14ED00E0C3
S315080030A0EFF3108072B6704700B962B670473023E6
S315080030B083F311887047002383F311887047EFF371
S315080030C01180302383F31188704780F31188704785
S315080030D0054B420953F8223000F01F0023FA00F08E
S315080030E0C04300F00100704700E100E0014608B562
S315080030F0EFF31083DB0702D50122104608BDFFF760
S31508003100E7FF02460028F7D10846FFF7B7FF014652
S31508003110EFF3118313B1B0EB131FEDD2074B5B68C6
S31508003120C3F30803002BE8D0103B58B2FFF7A6FFFD
S3150800313088428CBF00220122DFE700BF00ED00E0D5
S31508003140024A536B0342FCD1704700BF0040095046
S31508003150044A4178536F23F4407343EA01235367C3
S31508003160704700BF00400050704770470A4A10B5C4
S315080031701369044643F00403136101F037FCFFF7B3
S31508003180F3FF30BFFFF7F1FF01F044FC1CB9BDE8BF
S315080031901040FDF76FBB10BD00ED00E0084A10B502
S315080031A01369044643F00403136101F01FFC30BFA2
S315080031B001F030FC1CB9BDE81040FDF75BBB10BD43
S315080031C000ED00E070477047034A0179D36E23F09B
S315080031D030030B43D3667047004000507047000029
S315080031E0F8B504461C4BD3F88420D106FBD4D3F893
S315080031F08430C3F381139C422CD0FDF721FB012CAC
S31508003200064602D12146FFF761FCFFF749FF4FF05A
S315080032100072124B07465A662046FFF7DFFF4FF447
S3150800322080630D4D621E93402B676B6E9A0103D423
S31508003230D5F884309B060AD53846FFF735FF022CA9
S3150800324008D13046BDE8F8400021FFF73FBCD5F865
S315080032508430EAE7F8BD00BF004000500060005027
S3150800326007B518B90191FDF7EBFA0199064B1B78DA
S3150800327043B1064B984205D8012003B05DF804EB2C
S31508003280FFF7AEBF0220F8E7CD210020005A620200
S315080032900278034B012100201A70FFF7E1BF00BF37
S315080032A0CD2100204FF00042154B10B55A664AF65C
S315080032B0CD3314494C6C0B6404F0010488B9012021
S315080032C0FFF73EFF4B68DB0704D50F4B58600B6BC7
S315080032D0D807FCD514B10B4B0C4A1A6442F0E8F82F
S315080032E010BD0B6B1A07FCD42022074B9A620122E9
S315080032F0A3F580535A60034A936A9B06FCD5E9E70F
S315080033000090005000400950006009503254FFFFF9
S315080033104FF0004238B5164B01465A664AF6CD3389
S31508003320144C154A656C236443780B205B0043F004
S315080033300103D363FFF704FF63688A7823F4F873FD
S3150800334043EA02136360CA784B7943EA0223A3600F
S315080033500A798B7943EA022323610878FFF7A2FFEB
S31508003360EB0744BF054B236442F0A2F8012038BDA1
S315080033700090005000400950004000503254FFFFB2
S315080033804FF00042124B70B55D6E03F580535A66D6
S315080033904AF6CD3304460F4980204E6C0B64FFF77E
S315080033A0CFFE0B6A23F00F030F2C94BF234343F081
S315080033B00F030B62F30744BF074B0B64002DA2BF34
S315080033C04FF00042054B5A6642F072F870BD00BFD6
S315080033D000800050004009503254FFFF00A0005002
S315080033E04FF00042104B70B55D6E03F580535A6678
S315080033F04AF6CD3304460D4980204E6C0B64FFF720
S315080034009FFE0B6A23F4F85343EA04230B62F3077F
S3150800341044BF074B0B64002DA2BF4FF00042054B7B
S315080034205A6642F045F870BD0080005000400950C9
S315080034303254FFFF00A00050436D0B42FCD1704789
S3150800344008B54368DA0714D58368DB0702D503692C
S31508003450D90707D50A2350218363FFF7EDFF836C4D
S315080034609A07FCD1012200F500535A6043689B076E
S31508003470FCD408BD38B50C460121024600F5805338
S31508003480596004F00F0540F6FF71FFF7D5FF782164
S315080034908563FFF7D1FF04F00103610748BF43F0D6
S315080034A00203916C01F003019942FAD138BD09B9BA
S315080034B0FFF7C6BFFFF7DEBF836C5B06FCD541642A
S315080034C0704700002C4B2DE9F0419842064612D071
S315080034D02A4886420CBF57200020FEF7DFFFB16856
S315080034E011F0010109D03169090E0131B0FBF1F182
S315080034F00846BDE8F0815620EFE7326BB468204BEA
S3150800350004F0E004402C03EA020310D007D854B3B1
S31508003510202C2CD0B36DDB0748BF4908E8E7602CA0
S3150800352027D0802CF6D14FF480750C461CE08025F8
S315080035300C464FF0030803F5807308FB03F80023D5
S315080035404246194649F0E8FA02FB04F100FB05F782
S3150800355005FB0311A2FB050500234246294449F051
S31508003560DBFA3918D6E710254FF00108E3E72546B8
S31508003570DBE74025D9E700BF0000015B00000A50E1
S31508003580F8FF7F0070B5054614460E46FFF788FD1E
S31508003590296881EA040202EA06044C402C60BDE868
S315080035A07040FFF781BD0000072AF7B501F0030652
S315080035B014461F464FF003012CD89500A94000FA7F
S315080035C005F21C480191FFF7DDFF01991A4806FA32
S315080035D005F2FFF7D7FF194B19499DF82000002F70
S315080035E008BF1946012303FA04F40C60154B164963
S315080035F0002808BF0B461C60144B9DF82400C3F82E
S3150800360020441031A3F6DC33002808BF0B461C60A3
S3150800361003B0F0BDA2F10805AD00A94000FA05F215
S315080036200B480191FFF7AEFF01990A4806FA05F221
S31508003630CFE700BF00C4035008C4035010E403508A
S3150800364010D4035014D4035014E4035000E003507C
S3150800365004C403500CC403502DE9F04105460F4637
S315080036601E4690464AB101233022194C8B4002FB74
S3150800367000443EB304F5825423600F21072F05EB5F
S31508003680450388BFA7F108044FEA0313114895BFFD
S31508003690BC00A40004330C3308FA04F2A140184411
S315080036A0FFF770FFB8F1000F0AD101213020084A50
S315080036B001FA07F700FB05223EB102F582521760B0
S315080036C0BDE8F08104F50154D6E702F50152F6E7A4
S315080036D000C0035030C00350044A054B002918BFE8
S315080036E01346012202FA00F0186070474020045081
S315080036F04010045010B5012104462020FEF7B2FE02
S3150800370001212120FEF7AEFE0122114B5A602278D4
S3150800371012069A606178A27842EA01429A61FF220B
S315080037209A6200229A631A644FF000425A654FF073
S31508003730FF324FF4001103F500531A65054AC2F823
S315080037408011E3781B01DBB282F81533116010BDD6
S315080037500000045000E100E02DE9F0410125C3B264
S31508003760D1F8008091F80AC00F7B91F80DE09D40D2
S315080037700C46CB7A1C491D4E0D65810001F1A0410E
S3150800378001F58821C1F80480302101FB00601B0582
S3150800379043EA0C4343EA475322F00302C0F860E0C9
S315080037A0C3650267FFF78BFC736D2B437365237A3A
S315080037B013B1336C2B433364637A13B1B36B2B4366
S315080037C0B3632279A37943EA0243074A936161798D
S315080037D0E37943EA014306498B61044B55639D64CB
S315080037E0BDE8F041FFF771BC00200450000004500A
S315080037F00010045010B50124C0B28440FFF75FFCE6
S31508003800044B5A6D22EA04025A659C62BDE81040D0
S31508003810FFF75BBC00000450F8B50125C3B20446A7
S315080038209D40FFF74CFC3022094B1E6D5F6B02FB77
S3150800383004335C6EFFF749FC3D4206D1C4F30A1017
S3150800384008B9354200D10130F8BD0020FCE700BFB9
S31508003850000004504FF48032054B9A6641F67132E7
S3150800386003F51C33DA63012203F50053DA60704767
S315080038700090005041F671320121064BDA6303F5D8
S315080038800052D1600022DA634FF48032A3F5183370
S315080038909A667047000003504FF050234FF40032E9
S315080038A01A677047014BD3F89400704700400050E0
S315080038B0436813B9416070475B685A68012AFBD1AF
S315080038C059607047836813B9816070475B685A68A6
S315080038D0012AFBD159607047C369032B9FBF00EBD0
S315080038E083020133D160C3617047C369042B15D8BD
S315080038F04FF09842116CC902FCD504339B0013653E
S315080039000168103B116041680C30116050F8041CC6
S31508003910034411604FF09842984200D1704750F81E
S31508003920041B1160F8E700004FF48032064B5A6614
S3150800393003F5E6239B69C3F38512827003F03F0201
S315080039401B0B4270037070470090005040F6B73268
S31508003950064B5B689BB293429FBF4FF47A72B3FBE8
S31508003960F2F3034AD05C88BF002070470080E00F5E
S315080039701CE7040870B5054616461C4621B94FF4DF
S315080039802070FEF78BFD0146402C1BD003D8DCB116
S31508003990202C1BD070BD602CFCD1042303FB06F23F
S315080039A0560806EB4113B3FBF2F3094A203B02EA39
S315080039B0C303AA6822F06002AA60AA681443AC602E
S315080039C0EB61E7E70623E9E71023E7E70823E5E7DE
S315080039D0F8FF7F002DE9B841154F15460F40FAB993
S315080039E0202B20D0402B20D0002B14BF402410249D
S315080039F0012307F580775F4300233A46194649F0C5
S31508003A008BF8554300FB04F804FB0351A2FB04049E
S31508003A1000233A46214449F07FF84044BDE8B8817E
S31508003A2080240025E4E71C46E2E780240323E0E738
S31508003A30F8FF7F0070B5044685684FF42070FEF7DE
S31508003A402DFDA36805F00102E16903F06003BDE8F6
S31508003A507040FFF7BFBF012200F580535A60CB4381
S31508003A60934003F00A034361416111B900F5005020
S31508003A7042607047012100F5805310B5596040F641
S31508003A80AA6341F2050243610023094C8360C365BA
S31508003A90C26000F500520361C361C3649464054CB7
S31508003AA08365A04204BF03654365516010BD00BF2E
S31508003AB0FFFF010000C0055070B50D46FFF7DAFF9D
S31508003AC0012300F580567360AB7C04461BB18368FE
S31508003AD043F080438360EB7C5BB1244B9C4202BF7E
S31508003AE02A7DA3F51033C3F8C821E36D43F080039C
S31508003AF0E3652A8A6B7B20461343EA891343E3600E
S31508003B002B7BD5E90112FFF735FF6B7D1BB1A36847
S31508003B1043F48033A360AB7D1BB1A36843F4004331
S31508003B20A360EB7D2A7E1B07120502F4E00203F070
S31508003B30E0431343A3656B7E9A1E012A4FF00202E7
S31508003B4009D80B49032BC1F8202709D10423F365AB
S31508003B502B78636170BD0749012BC1F82027F4E76C
S31508003B60042204F50053DA65F2E700BF00C00550E9
S31508003B7000D0035000E0035083695B06FCD5C1639F
S31508003B8070470000054B9A689107FCD45A6892075B
S31508003B90F9D4DA69002AF6D1704700BF00800A50C6
S31508003BA008B5FFF7EFFF0122024B03F580514A6083
S31508003BB01A6108BD00800A50074B5A68012A0AD1C3
S31508003BC05A68D20702D5DA69002AF9D102221A619F
S31508003BD00122024B5A60704700800A5000A00A5022
S31508003BE010B5064CFFF7CEFF6368012B03D1FFF72C
S31508003BF0E3FFFFF7C7FF0378E36010BD00800A50B4
S31508003C00E8B94A680B7812B1127843EAC2034A78CF
S31508003C10002A14BF0222002213438A6812B11278BE
S31508003C2043EA82138A78002A14BF04220022134327
S31508003C30CA6812B1127843EA4223014A936470476C
S31508003C4000800A5008B9014B5964704700900A5021
S31508003C5008B9014B5964704700A00A5008B9014BCE
S31508003C601964704700A00A5010B9024B186C7047C7
S31508003C700020704700800A5048B911B1012903D0C5
S31508003C807047044BD86C7047024B186D704700207C
S31508003C90704700BF00800A5040B911B1012903D00E
S31508003CA07047034BDA647047014B1A65704700BFCB
S31508003CB000800A5038B50446054D41F00CFC0FCC7F
S31508003CC00FC594E8030085E80300002038BD00BF4F
S31508003CD0D021002047F6FF739A42F0B563D0022937
S31508003CE063D8334BCF0003EBC10013F83110847847
S31508003CF0012913D10025C3781B1B9D4202D3E01866
S31508003D00C0B2F0BD591B4668A3EB510136F91160E4
S31508003D109642D4BF0D4601F1FF33EEE7406800280E
S31508003D20EFD0B0F90010914204DBB0F902109142CD
S31508003D30B8BF114682883B44FF2A19BFC8222826E5
S31508003D40B0F90620B0F90860A2EB01020CBF012504
S31508003D50002592FBF6F25F782A447B1E934228BF21
S31508003D6013464FF47A7E00EBC305AE68EA88AC4684
S31508003D7011FB02621E4622EAE272013302F5FA726A
S31508003D809F42B2FBFEF204D9BCF80CC00835944534
S31508003D90EBD200EBC6008088904228BF1046A042AE
S31508003DA038BF2046ACE7FF20ABE70020A9E700BFF5
S31508003DB0D02100200229F0B553D82B4800EBC104C6
S31508003DC010F83110636801290FD1E078A478904281
S31508003DD094BFC4EB0001C4EB0201001BCAB28242C5
S31508003DE0C8BF002233F91200F0BD002B39D0A178E4
S31508003DF0914202D3B3F90200F6E7E178B3F900007D
S31508003E009142F1D999886478A1F1FF06013C714283
S31508003E1003F10405E4B2714103F10C071FFA82FCB1
S31508003E20CEB2B44216D805EBC1014FF47A756A438F
S31508003E30B1F902404968521A04EBD47102EB6102E7
S31508003E4092FBF4F29042CFDBB3F902009042CBDC4E
S31508003E5010B2C9E737F831E04E1CE645E3D33146E0
S31508003E60DEE70248C0E700BFD02100200080FFFF40
S31508003E700148FFF71FBF00BF20E704087FB51422DB
S31508003E80002101A849F0ABF8044B01A94FF0FF3017
S31508003E90029341F03BFC07B05DF804FB006A18008A
S31508003EA000214FF0FF3041F036BC000007B5094B42
S31508003EB018689A889B7900906846ADF804208DF8B2
S31508003EC00630FFF725FA0920FFF75AFA002003B053
S31508003ED05DF804FB9CE7040813B50024064A684607
S31508003EE0536F43F00103536700948DF80440FFF7BE
S31508003EF06BF9204602B010BD0040005030B58BB0BB
S31508003F006C46154D0FCD0FC40FCD0FC495E80300B1
S31508003F1084E80300114BD3F84C21120314D4D3F8C8
S31508003F205041E4B28DF81940FEF7CAFD204480F3EB
S31508003F3008008DF818000A48FCF7B8FC6846FEF732
S31508003F4003FD00200BB030BD064B1C884FF6FF73EF
S31508003F509C4208BF8C24E5E7A4E704080080E00F2C
S31508003F60C01753020001E00F6FF00402502110B58C
S31508003F700A480B4C12F0800FD3B21BBF03F00F0395
S31508003F80043BA3181B1802F101020CBF83F80013A7
S31508003F9019764C2AEED1002010BD00BF00ED00E0D6
S31508003FA000E100E000F078B838B500F0A5FE044658
S31508003FB0E0B900F0BBFF4FF4167343430C4803F512
S31508003FC0742303F23F23B3FBF0F30A4A0A4913604A
S31508003FD00A220D680948013A12F0FF0240F8043B2C
S31508003FE0F9D103EBC3022B4413440B60204638BDBA
S31508003FF040420F0024220020F0210020F421002056
S31508004000012208B5034B1A7000F06AFF024B1860CC
S3150800401008BD00BFEC21002020220020F8B5144C72
S31508004020237823B300F05CFF124B134D1B68134E25
S31508004030C01A012838BF0120114B124F18602B787F
S3150800404056F8232046F82300111A3A680E48521AE1
S315080040500A213A600932B2FBF1F20133DBB202609F
S31508004060B3FBF1F201FB12332B7000232370F8BD6A
S31508004070EC210020202200201C220020F421002010
S31508004080E8210020F021002024220020014B186896
S31508004090704700BF2422002020234FF480120949CC
S315080040A081F82C33084B5A66084B094A03F5005029
S315080040B0426702674FF48050C1F8840148600344A0
S315080040C05A67704700E100E0009000500040005A2F
S315080040D0010000A0044B9A6DD20702D40028FAD139
S315080040E070470120704700BF0040005A0C4B10B5BE
S315080040F01C6FE20707D5012203F500531A67FFF77D
S315080041008DFF00F075FB14F000521CBF054B1A67B3
S31508004110002CBEBF4FF00042024B1A6710BD00BF0D
S315080041200040005A0060005AFFF7E0BFBFF35F8FF8
S31508004130074B5A6A22F480325A62D3F8942022F046
S315080041400102C3F89420BFF34F8FBFF36F8F7047F8
S3150800415000ED00E070B52648264CFFF7E7FF8442DD
S3150800416008BF4FF08043244A18BF20F01F03D2F837
S31508004170C01018BF203B21F0FF0141F0A001B3F1A8
S31508004180005FC2F8C0100CD31C4D1D4E296843F0C1
S315080041900103C2F898100131C2F89C60C2F8A03039
S315080041A02960844210D01548164B0268124923F03C
S315080041B01F0343F00303C1F89820C1F89C30124B43
S315080041C00132C1F8A0300260BFF35F8F05220A4BA7
S315080041D0C3F894205A6A42F480325A62BFF34F8F6A
S315080041E0BFF36F8FBFF34F8FBFF36F8F70BD00BFE5
S315080041F0841400203016002000ED00E0282200205C
S31508004200030000204F160020E1FFFF3F10B51446BB
S31508004210FFF78CFF1F2C21D91A4A1B4CD2F8C03045
S3150800422021F01F0123F47F4343F48073C2F8C030A2
S31508004230C30618BF20F01F002368124A18BF203093
S3150800424020F01F00C2F8983040F0030041F0030147
S315080042500133C2F89C00C2F8A0102360BFF35F8F39
S315080042600522084BC3F894205A6A42F480325A62EF
S31508004270BFF34F8FBFF36F8FBFF34F8FBFF36F8FB0
S31508004280002010BD00ED00E028220020BFF34F8F6C
S315080042900549064BCA6802F4E0621343CB60BFF3D4
S315080042A04F8F00BFFDE700BF00ED00E00400FA05F0
S315080042B008B5FFF7EBFF08BD034B1B78002B14BFAF
S315080042C001200220704700BF5C2200200329F8B5B0
S315080042D098BF124B05460E468CBF00245C5C03282B
S315080042E005D8DFE800F002080B0E44F002040C4B78
S315080042F01F684FB9F8BD44F00804F8E744F02004F5
S31508004300F5E744F08004F2E77B681A68144203D0A4
S31508004310314628465B6898473F68EAE7E8E70408B5
S315080043205822002038B5104D2B78ABB10F4C2378A6
S315080043301BB100F09BFB00232370002000F0BAFBA2
S315080043400B4C50B100F0C0FB0023012120782B70E4
S31508004350FFF7BCFF0123237038BD0122054B1A70F5
S315080043602278054B1A70F7E75622002051220020C2
S3150800437048220020552200206822002010B5FEF7AA
S315080043808FFE064B04461B781BB1BDE81040FEF7AE
S315080043908BBEFFF7C7FF2046F7E700BF5022002075
S315080043A010B5044601460C4A012000F051FA002CCB
S315080043B014BF0121FF21094A13780B4413700AD050
S315080043C0074B1B78012B06D9064B1B781BB9BDE892
S315080043D01040FFF7A7BF10BDCCE704085C220020F9
S315080043E0482200205522002070B5FEF759FE124ECD
S315080043F0054633789BB900F07FFC044620B1284671
S31508004400FEF752FE204670BD00F010FA0B48FCF786
S31508004410B1FA0B4B1C6000F089FD0A4B186000F0DE
S315080044206FFA00F085FB084B002418600123284624
S315080044303370FEF739FEE5E75222002058220020A5
S315080044406C220020642200204C22002000292DE93D
S31508004450F34114BF0121FF21254A00F1FF30135C07
S315080044600B4413543AD0234E3278012A36D9FFF733
S3150800447023FF0128044634D81F4FFEF711FE3B7868
S315080044801BB31E4D2B781BB901222A701C4A1370C8
S31508004490DFF8708098F8003033B1019000F0E6FA42
S315080044A00023019888F80030FEF7FEFD012000F091
S315080044B001FBFEF7F5FD2B782BB1019000F004FB0C
S315080044C0002301982B7000233B70FEF7EDFD307832
S315080044D0A04203D02146FFF7F9FE347002B0BDE8CA
S315080044E0F081032AF3D10228F1D100F03BFBEEE775
S315080044F05C2200204822002056220020502200205C
S31508004500552200205122002010B50446FEF7C8FDAA
S31508004510002C14BF0121FF21064A13780B44DBB295
S315080045201370B3FA83F3BDE81040034A5B091370AE
S31508004530FEF7BABD5F2200205E22002068B5FEF7AE
S31508004540AFFD094B06461B78012B04D8FEF7ACFDD8
S315080045500025284668BD054B1D6800F0EDFA0544A0
S315080045603046FEF7A1FDF4E7482200206C22002021
S3150800457007B5FEF795FD0190FFF7D4FE019803B045
S315080045805DF804EBFEF790BD38B541600446FEF7CA
S3150800459087FD054621460448FCF7EFF92846BDE89D
S315080045A03840FEF781BD00BF58220020054B1B6826
S315080045B05843054B00F5742000F23F20B0FBF3F09A
S315080045C0704700BF6422002040420F002DE9FF47D4
S315080045D0FEF766FD044600E000BFFCF775F8002804
S315080045E000F09C806D4E6E4F337823B10020FFF7A4
S315080045F0D7FE00233370FFF75FFE0546002800F05C
S315080046009580851EEDB2012D40F29880FFF754FE85
S315080046100128804604D9634B1B780BB900F0E4F9EE
S31508004620614DDFF8A4912878DFF8A0A140450AD0AB
S31508004630002389F800309AF8003013B94146FFF78D
S3150800464045FE85F8008099F800303BB12B78022B9F
S3150800465004D1002389F8003041F026FDB8F1010F96
S315080046600FD9DFF8408198F8003053B94F4B1B78C3
S3150800467023B900F0F5F901224D4B1A70012388F889
S315080046800030287800F03EFA9AF8003013B1494B0A
S315080046901B782B7000E000BF2046FEF705FDFEF7ED
S315080046A0FFFC454B04461A7852B100221A70414B5A
S315080046B028781B78984203D101212970FFF706FE56
S315080046C0384600F053FBFCF70AF8804600288BD1E1
S315080046D0344F89F800003B789BB1DFF8D4908AF80C
S315080046E0000099F800301BB100F0C0F989F8008085
S315080046F0002000F0DFF9002846D000F0E5F9002395
S315080047003B70337823B10020FFF74AFE002333704D
S3150800471000212878FFF7DAFD00232B7000E000BFA0
S31508004720204604B0BDE8F047FEF7BEBC3378002B40
S315080047303FF46CAFFFF734FE357067E7002003A936
S3150800474000F096FB054600287FF460AF1B4B039AE2
S315080047501B689A4205D80120FFF722FE0123337011
S3150800476054E7174BD3F8008000F0E6F90399404464
S315080047708842F0D20223091ACDE9005338462B465F
S31508004780104A00F01BFB41E7012000F0BBF9204668
S31508004790FEF78AFCFEF784FC0446A9E7602200209F
S315080047A02C22002056220020482200205F220020CA
S315080047B05122002068220020542200204C2200208A
S315080047C06C2200207D4300085E220020552200202E
S315080047D010B5FEF765FC0022044B1C781A70FEF72C
S315080047E063FC00F0A7FC2043C0B210BD5322002092
S315080047F010B5094B1B786BB1084C237853B100F000
S3150800480063F90023064A237013700123054A1370BF
S31508004810054A137010BD00BF48220020552200200B
S3150800482056220020532200205422002070B500246E
S31508004830054D064E294630460134FCF79EF80A2CEB
S3150800484005F10805F6D170BD70220020C0220020AF
S3150800485070B5154660B1134B013803EB800671B18C
S315080048601148FCF78EF8014618B901220F4B1A7049
S3150800487070BD45603046BDE87040FCF77EB853F819
S315080048802040002CF4D02946606848F0A6FF08B1FD
S315080048902468F6E721463046FCF77BF821460248AD
S315080048A0E9E700BFC8220020C0220020C422002059
S315080048B073B5114E04463378834212D000238DF81F
S315080048C0043080B102238DF8053001A8FEF740FCBC
S315080048D00A4D402054B1FFF769FE2B68181A286064
S315080048E0347002B070BD8DF80500EEE7FFF75EFE86
S315080048F02B681844F3E700BF7D130020D822002058
S3150800490073B5002401A88DF80440FEF7C1FC2046C3
S31508004910FFF7CEFF4FF480102C4B2D491A6F02F08B
S3150800492007020A602B49D3F8203148664FF4003055
S31508004930486601F598318969032A01F002013DD0DC
S3150800494003F00703981E434243412348234D03704F
S3150800495061B31E4A3BB9D2F8003103F00303591E6E
S315080049604B424B410370D2F8003103F00303022B8C
S3150800497026D0032B27D0012B18D1FBF791FFA8B11E
S31508004980174B411EDC680023024608461946C4F345
S315080049900B04144E013404EB8404E4FB060148F0CE
S315080049A0BBF8FFF703FE2B68184428606420FFF75E
S315080049B0FDFD2B681844286002B070BD0123C4E7CA
S315080049C0FBF7D2FFDBE7FBF781FFD8E70080005053
S315080049D0D022002000900050D6220020D8220020A5
S315080049E000C0015040420F00FEF7ECBB074B1A7897
S315080049F052B100221A70064A136F23F0070343F0D8
S31508004A0001031367FBF736BF704700BFD4220020A7
S31508004A100080005008B50E4B1B788BB1022000F0C1
S31508004A203DFC68B100F056FA50B10A4B9A6DD203B4
S31508004A3007D5DB6D9B0704D54FF48032064B9A6287
S31508004A4008BD0122054B1A70FFF7DAFAF4E700BF32
S31508004A50D62200200040005A0050005AD5220020D5
S31508004A600122014B1A707047D422002038B50D4B2D
S31508004A701B7873B10C4C23788BB90C4B0C4D9A6D83
S31508004A8012F4803F06D0DB6D9B0703D54FF48033C5
S31508004A90AB6238BDFFF7B4FA4FF48033AB6200233C
S31508004AA02370F6E7D6220020D52200200040005ABF
S31508004AB00050005A034B1B780BB1FFF70BBB0120C4
S31508004AC0704700BFD622002008B5FEF77CFB094ACE
S31508004AD00949136F096823F007030B431367074B4C
S31508004AE01B781BB14FF48032054B9A62BDE808402B
S31508004AF0FBF7C0BE00800050D0220020D62200203E
S31508004B000060005A02280AD003280BD001280CD1CD
S31508004B10064A136923F00403136130BF7047002067
S31508004B20FEF724BB0020FEF739BB704700ED00E016
S31508004B304FF4C870FFF73ABD08B5054B187818B199
S31508004B40FFF7A4FA00EBD000024B1B68184408BD17
S31508004B50D6220020D82200200122014B1A70704765
S31508004B60D62200207047000010B500F02BFB0A4C37
S31508004B700A4B19682368C31A01B10BB9206010BD26
S31508004B804A699A423ABF9B1A0022D21A4A6128BF3A
S31508004B9000238968F0E700BFE0220020F422002005
S31508004BA0C38870B504460D463BB9FFF7C7FC854276
S31508004BB0064602D2FFF7DCFC35460F4965610B68ED
S31508004BC0ABB90C60A36011E0AD1A9A681846656126
S31508004BD02AB113465A69AA42F6D950B11A4613465B
S31508004BE08460A36013B15969491B596170BD0020DF
S31508004BF0F0E70C60F5E700BFF422002038B5134D46
S31508004C002B685B6993B1124A022014681C4400F0B1
S31508004C10E5FA204600F0ECFA00230E492A680B70E4
S31508004C20D088800709D501230B7038BD022000F013
S31508004C30D5FA022000F02AFBEEE79268002AF4D0A3
S31508004C4050690344012BEBD9EFE700BFF42200209B
S31508004C50E0220020E822002070B516469DF81420B0
S31508004C60C0E903360271049ABDF8183002600022C2
S31508004C70C380826004460D4600F0A4FA3044A06161
S31508004C803DB9E368656113B120462168984796B136
S31508004C903546FEF705FA0646FFF766FF294620461B
S31508004CA0FFF77EFF054B1B68A34201D1FFF7A6FF5E
S31508004CB03046FEF7F9F9002070BD00BFF422002047
S31508004CC000220C490B687BB183420AD183687AB10A
S31508004CD0936083681BB15A6941690A445A61002086
S31508004CE070471A469B68EEE70028EFD00220704707
S31508004CF00B60EEE7F422002070B5FEF7E0F9144EDB
S31508004D0005463478FCB9134B1C60134B1C60134BD7
S31508004D101C8000F025FA012000F060FA00F0E9FA9C
S31508004D200F4B0246186020B92846FEF7CEF9232015
S31508004D3070BD234640F2E7310A4847F0EDFE0A4BBC
S31508004D401860012333702846FEF7BFF90020EFE705
S31508004D50DC220020F4220020E0220020EA220020A3
S31508004D60F022002018FCFFFFE42200202DE9F04184
S31508004D700546F8B1FEF794F90F4F0646FFF7F4FE1D
S31508004D802846D7F80080FFF79BFF044628B130462F
S31508004D90FEF78AF92046BDE8F081A8453B6803D1AD
S31508004DA023B1FFF72BFFF2E7002BF0D1022000F02A
S31508004DB057FAECE72224EDE7F422002070B586B016
S31508004DC015461E460446059180B1FFF7CFFFBDF88C
S31508004DD02C30002202939DF828302046CDE9006346
S31508004DE005992B46FFF738FF06B070BD2220FBE772
S31508004DF038B50C46054698B191B100230B70FEF7FD
S31508004E005EF90121074B1B680BB122781AB1FEF730
S31508004E105CF9002038BDAB4214BF9B682170F3E7EC
S31508004E202220F7E7F4220020F0B51F46002387B0BA
S31508004E300D46164604468DF81730A0B10DF1170138
S31508004E40FFF7D6FF9DF817207AB9BDF83430294602
S31508004E5002939DF830302046CDE900733346FFF7BC
S31508004E60FBFE07B0F0BD2220FBE70320F9E70000B0
S31508004E702DE9F04107468846FEF721F90026054642
S31508004E80124B1C6824B92846FEF71FF91B2016E0AA
S31508004E9063691E44E388BB4215D100F093F90C4CB4
S31508004EA02368C01AB0420CD200F08CF9226832444A
S31508004EB0121A2846C8F80020FEF707F90020BDE8B0
S31508004EC0F0810022F5E7A468DCE700BFF4220020A1
S31508004ED0E0220020014B1878704700BFE822002026
S31508004EE038B5FEF7ECF8054600F06CF90446284696
S31508004EF0FEF7EBF8204638BD70B5FEF7E0F8064633
S31508004F0000F060F9084B04461D880120ADB200F098
S31508004F10C5F918B100F056F9044601353046FEF7D2
S31508004F20D4F82046294670BDEA220020014B1868AD
S31508004F30704700BFF02200200C4B70B51B680D4669
S31508004F40834211D340F2E73100248C462146084BB0
S31508004F504FF47A721E680023E0FB06C1604647F0EC
S31508004F60DBFD2860204670BD2120FCE7E4220020F6
S31508004F70F02200200F4B10B51A689AB14FF47A71D7
S31508004F80531E1342A0FB01010ED1B2FA82F2C2F1FE
S31508004F901F04531CD243E04001FA03F3184321FAD5
S31508004FA002F20243104610BD002347F0B5FD024643
S31508004FB0F8E700BFF0220020164B70B58342164B67
S31508004FC015468B4124D3154B1A680AB34FF47A76E3
S31508004FD0A0FB0603541E144006FB013111D1B2FA98
S31508004FE082F3C3F11F025E1CDB4301FA06F6D040CA
S31508004FF021FA03F330431843D140C5E9000120469E
S3150800500070BD002347F088FD0024C5E90001F6E7D6
S315080050102124F4E7EFA7C64B37894100F022002088
S31508005020C2072DE9F34704460BD53F4A13880133D7
S315080050309BB21380FFF798FD3C4B1B680BB1FFF73B
S31508005040DDFDA3076DD5FEF73AF800260546374677
S31508005050FFF78AFDB146DFF8D480D8F800400CB1D6
S3150800506063698BB10022324B012F1A7002D1022ECE
S3150800507008BF1F70002C44D0FFF7C0FD284602B0B9
S31508005080BDE8F047FEF721B823461A7921799142FF
S3150800509088BF1C469B6813B15A69002AF5D0284672
S315080050A0FEF713F8256985B300F08CF8A269861A0D
S315080050B0F317B54279EB030328DA23691344A3618E
S315080050C00123226982B17BB9A91B0191FDF7F7FF7C
S315080050D0824601992046FFF763FDA3692269504677
S315080050E01344A361FDF7F1FFE368E688013713B1BE
S315080050F0204621689847FDF7E2FF0546FFF734FD8D
S31508005100ABE7022000F0ACF8B8E72E46FDF7D7FF6C
S3150800511082462046FFF7D4FD5046FDF7D6FF00230A
S31508005120CFE702B0BDE8F087EA220020F42200208B
S31508005130EC22002010B5FDF7C2FF034B1C78FDF7E3
S31508005140C4FF204610BD00BFEC220020034B5A685E
S31508005150D20702D5DA69002AF9D1704700800A50C9
S3150800516010B50121002486B03E20ADF80810CDE91F
S3150800517003448DF804408DF80A400594FDF772F94A
S3150800518001A8FEF72DFD204602A98DF80840FEF776
S3150800519037FD20460F21FEF75BFD0F212046FEF75F
S315080051A05DFDFEF7FDFCFFF7D1FF0822034B9C616E
S315080051B0034BC3F888219A6006B010BD00800A50D8
S315080051C000E100E008B5FFF7C1FF014B986908BD8B
S315080051D000800A5000210846FEF74EBD00F0010186
S315080051E0830748BF41F002010020FEF72BBD0000EF
S315080051F0F8B50446FDF754FFFFF7A8FF164B074618
S315080052009D69FFF7E7FF06460020FEF72DFD830799
S3150800521004D4731B032B01D8AE420FD10021631BA4
S31508005220022B98BFEC1C0846B4F1FF3F2CBF224660
S31508005230621EFEF731FD0220FFF7D0FF3846FDF764
S3150800524033FF064A137833B103498B6C43F00103E5
S315080052508B6400231370F8BD00800A507E1300206B
S31508005260830700F0010109D50122064B41F002012E
S315080052701A70054A936C23F0010393640020FEF725
S31508005280E7BC00BF7E13002000800A50830742BF98
S315080052900222014B1A64704700900A5010B5044662
S315080052A00020FEF7E1FC012C04D0022C05D1C0F346
S315080052B0400010BD00F00100FBE70020F9E738B513
S315080052C0FDF7FDFE04460020FEF7CEFC830700F03E
S315080052D0010548BF45F0020500F003010020FEF76E
S315080052E0BDFC2846FFF79CFE2046BDE83840FDF782
S315080052F0ECBE3E20FDF7D2B808B5FBF779F9FBF707
S31508005300ADF9FBF7B4F9FBF7C1F9BDE80840FBF7BF
S31508005310C8B908B5FBF7C7F9FBF7C6F9FBF7C5F92E
S31508005320BDE80840FBF7C2B901F0C8BF01F0C6BF27
S3150800533008B51C220021044847F051FEBDE8084084
S3150800534001203FF029BD00BF0823002007B5FFF75D
S31508005350D3FD6A46FFF730FE28B16121044B054AA2
S31508005360054847F069FD009803B05DF804FB00BFE7
S31508005370ECE70408BEE8040803E8040808B5FBF7E8
S315080053800BF800280CBF2820402008BD30B50D4674
S31508005390144685B01548FFF7E9FC154B2C441C60EC
S315080053A0FFF7D4FF201A0124124B00281C7004DCD6
S315080053B005B0BDE8304001F081BF03A9FFF7BCFD89
S315080053C0034628B187210C4B0C4A0D4847F034FD9B
S315080053D0CDE900040B4A03990448FFF725FD18B1E7
S315080053E08B21054B054AF0E705B030BD08230020A0
S315080053F000230020FC220020ECE70408A6E80408A5
S3150800540003E804082953000808B5FFF79FFF054B72
S315080054101B782BB1044B1B68834201D9181A08BDA7
S315080054200020FCE7FC2200200023002008B51EF01F
S3150800543009FF08B1014B187808BD00BFFC220020FF
S3150800544008B50348FFF792FC0022024B1A7008BD04
S3150800545008230020FC22002040F06DB937B5FDF77F
S315080054601FFE054640F067F9044609490B680860BF
S315080054708342084B284682BF1A6801321A601968A7
S315080054800191FDF711FE2046019903B030BD00BF1A
S31508005490F82200202423002070B50D461446104E2D
S315080054A02C4430683FF0AAFC0E4B1C6040F043F9D0
S315080054B001220D4B211A00291A7003DCBDE8704041
S315080054C001F0FCBE094B30683FF08AFC30B14FF45E
S315080054D08771074B074A084847F0AEFC70BD00BF06
S315080054E03423002004230020FD2200202D53000829
S315080054F06FE804088EE8040803E8040808B5044BB6
