:020000040800F2
:1000000000120020050B0008010B0008010B00087E
:100010000D4E0008010B0008010B0008010B000841
:10002000010B0008010B0008010B0008010B000880
:10003000010B0008010B0008010B0008010B000870
:10004000010B0008010B0008010B0008010B000860
:10005000010B0008010B0008010B0008010B000850
:10006000010B0008010B0008010B0008010B000840
:10007000010B0008010B0008010B0008010B000830
:10008000010B0008010B0008010B0008010B000820
:10009000010B0008E1100008010B0008010B00082B
:1000A000010B000809120008E5110008010B000807
:1000B000010B000809300408F1390408A9390408C3
:1000C000A5390408D1310408ED390408AD39040814
:1000D000C5390408B1390408513A0408313A040812
:1000E000010B0008010B0008010B0008010B0008C0
:1000F000914C0008010B0008010B0008010B0008DF
:10010000010B0008010B0008010B0008010B00089F
:10011000010B0008010B0008010B0008010B00088F
:10012000010B0008010B0008010B0008010B00087F
:10013000010B0008010B0008010B0008010B00086F
:10014000010B0008010B0008010B0008635E0008AA
:10015000C5180408010B0008E5FB0308EBFB0308C6
:10016000010B0008010B0008010B0008010B00083F
:1001700010B5054C237833B9044B13B1044800E0A3
:1001800000BF0123237010BDA82000200000000044
:10019000F859050808B5034B1BB10349034800E0B3
:1001A00000BF08BD00000000AC200020F859050881
:1001B000A3F5803A704700BF174B002B08BF134BC5
:1001C0009D46FFF7F5FF00218B460F461348144A62
:1001D000121A43F0A0FF0E4B002B00D098470D4B96
:1001E000002B00D098470020002104000D000D488E
:1001F000002802D00C4800E000BF43F011FF2000AF
:10020000290000F0CBF943F0E5FE00BF0000080034
:100210000000000000000000001200207417002001
:10022000546A0020000000000000000008B503210F
:10023000802003F007F803214FF4806003F002F8F8
:100240000A214FF4C06002F0FDFF0A214FF4F06074
:1002500002F0F8FF0A213E2002F0F4FF0A212D20CF
:1002600002F0F0FF0A21512002F0ECFF002008BD4F
:1002700007B501A803F08EFF9DF80530012B14D1BE
:100280009DF804308BB94FF48012114B1149586E10
:1002900003F580535A664B6B23F0E05343F0406301
:1002A0004B63C3025CBF0C4B5A6604F0EDFA04F0DA
:1002B00098FA04F007FB04F0ABFAFFF7B7FF04F07D
:1002C00095FA00F0B3FF03B05DF804EB04F03ABE1A
:1002D000008000400040004A00A0004008B500F047
:1002E00057FF00F003FCBDE8084000F05BB808B51C
:1002F00005F0B2FA04F0E8FA10F05CF8BDE8084046
:1003000004F0DABC08B504F04FFA04F053FA04F034
:1003100063FABDE8084007F03DBD00F004B870473F
:1003200070477047704708B500F056F807F0CEFCEC
:10033000BDE8084000F066B8012070470120704712
:1003400010B507F0D9FC0446FFF7F6FF002814BFEC
:100350002046002010BD38B504F0E8FF044602F046
:1003600061F9042810D002284FF0000508BF0124CD
:10037000FFF7E4FF042809D0022808BF0124002D5C
:1003800018BF0024204638BD0125F1E70024F9E715
:1003900018B1034B1860002070472520704700BF3C
:1003A0002021002010B5054C0549206801F060FFB0
:1003B0002068BDE81040FFF7EBBF00BF241200200B
:1003C000001200200CB402B070470000014B186806
:1003D000704700BF2421002008B516F01AFF054B16
:1003E000186028B95521044B044A054843F0CCFD58
:1003F00008BD00BF2421002030590408B359040867
:100400003A590408014B186812F0ECBA2421002074
:1004100010B50E4C00F0E2F900F00AFA00F078FA9C
:100420000121206816F004FF28B16621084B094A13
:10043000094843F0A9FD0121206817F072FB18B1AB
:100440006721064B034AF3E710BD00BF24210020BB
:1004500043590408AA5904083A590408755904086C
:1004600010B5054C206817F0D0F9206807F0A0FC03
:10047000BDE8104000F088BA2421002014232DE9A3
:10048000F041AAB00DF1060202A9ADF806302EF037
:1004900025FD0446E0B9114844F0EAF914E0ABB296
:1004A0002AAA02EBC30313F89C2C4046002A14BF6F
:1004B00032463A4653F8A01C44F0DAF90135BDF84B
:1004C0000620ABB29A42EAD820462AB0BDE8F081B5
:1004D0000025034E034FDFF81080F0E7E9590408C8
:1004E000C9590408CE590408D3590408F0B5264E5A
:1004F00091B035460121572002F0FEFA08AC0121E7
:100500003A2002F0F9FA0FCD0FC495E80F0001254B
:1005100084E80F0003AF06F120040FCC0FC71B4B7C
:100520001B4A059308AB07931A4B8DF82550C3F867
:10053000CC244FF00112C3F8C4241C22C3F8C854C1
:1005400003A9C3F8B424144803F03CFB002302229F
:100550001846052103F0B8FC002005222B46114661
:100560000090019503F058FC00200222034604216C
:1005700003F0AAFC002004222B46114601950090AE
:1005800003F04AFC11B0F0BD345C040840420F0097
:100590000100020000C0034000000A402DE9F047BE
:1005A0002DED028B90B005F079FCFFF731FFFFF7DE
:1005B0009DFF2FF0BBFE0146664814F089FB00F05A
:1005C0008BFA04462EF092FB002854D02EF0FEFB4E
:1005D000012100902EF012FC00982EF06FFC009884
:1005E0002EF018FC0098FFF749FF40B95A4814F064
:1005F0006FFB68462EF0F8FB2EF0B6FB3BE0574849
:1006000014F066FB00982EF011FC00982EF01AFCF6
:100610000098FFF733FF08B95148E8E7514814F054
:1006200057FB00982EF01AFC00982EF023FC00983F
:100630002EF02CFC0098FFF721FF08B94A48D6E7B6
:100640004A4814F045FB00982EF02CFC484814F062
:100650003FFB68462EF0C8FB2EF086FB2FF066FEAF
:1006600001463C4844F004F920462EF03FFB20B9F7
:10067000404814F02DFB01203FE02DF0B3FF019026
:1006800018B93D4814F024FBB6E72EF027F8029085
:1006900030B93A4814F01CFB01A82DF0FBFFABE782
:1006A00001A82DF0F7FF02982EF074F830B9344805
:1006B00014F00EFB02A82EF05DF89DE705269FEDD5
:1006C000318ADFF8CC900522029803AB06A92EF000
:1006D000E1F80546B0B92C4814F0FAFA02982EF069
:1006E00065F8044602A82EF045F82EF03DFB54B301
:1006F0004DB3264814F0ECFA002010B0BDEC028B8C
:10070000BDE8F087BDF810804846414614F0E0FA95
:100710000027DFF880A006ACBBB2434504F1080413
:1007200002D3013ECFD1D9E754ED017A67EE887A42
:10073000FCEEE77A504617EE902A34F8081C14F0C5
:10074000C7FA0137E8E705F0B6FBFFF789FE04F0CA
:10075000EBFCF8E70C5A04082A5A04084B5A040820
:100760006D5A0408945A0408BC5A0408E25A040852
:10077000095B04082A5B0408455B04087A5B0408EB
:10078000A15B040800007A44CA5B04081B5C0408EF
:10079000F35B0408045C040810B5084690B00C46EE
:1007A00016F0E1FE3F2301466A46204616F0DFFEC2
:1007B00010AB184400230B2200F8403C0549684662
:1007C00044F0D9F818B96946034814F081FA10B01A
:1007D00010BD00BF685C0408735C040810B50F48C6
:1007E00014F076FAFFF7F2FD4FF4FA6116F0E6FD29
:1007F000044638B9FFF7EAFD4FF0010117F05EF843
:10080000044648B1204616F002FD2146BDE81040DE
:100810000246034814F05CBA10BD00BF8A5C0408AD
:10082000A45C0408014B1878704700BF2821002001
:1008300070B5A0B06822002106A843F06CFC2C4BD8
:100840002C4A1893BDF87C30106843F4C07343F011
:100850000103ADF87C306B465168082203C369463A
:100860000DF1490043F030FC02AA15469DF87C309A
:1008700043F010038DF87C301F4B03F11006144633
:1008800018685968083303C4B3422246F7D11022CE
:1008900029460AA843F018FC9DF87C30174843F01D
:1008A00004038DF87C3044F05EF81028024605D928
:1008B0007F21134B134A144843F066FB0F490EA8DF
:1008C00043F002FC9DF87C3043F008038DF87C3047
:1008D000FFF77CFD06A916F012FC044630B116F0B5
:1008E00096FC21460246094814F0F2F920B070BD8A
:1008F000ADDE0B00255D04082E5D040828130020E2
:10090000C95C0408AC5D0408EC5C0408FC5C0408E9
:1009100010B586B01222002101A843F0FCFBEA23A7
:10092000ADF81430FFF752FD0023134A134917F0B6
:1009300042F9044640B116F06AFC214602461048CE
:1009400014F0C6F906B010BDFFF740FD01230B49B6
:1009500001AA17F04AF904460028F3D016F057FC14
:1009600021460246074814F0B3F9FFF72FFD03496B
:1009700017F036F9E6E700BF990700082C210020A0
:100980003F5D04086C5D040830B5224B8DB01A78C9
:1009900072BB214B1A78002A3AD000251D70FFF750
:1009A00015FD294617F0F9F8044688B329462C228C
:1009B00001A843F0B0FB194805A916F08EFC98B9C0
:1009C0007B231748ADF8263043F0CDFF144982B29F
:1009D000204616F0CAFD38B9FFF7F8FC2246114947
:1009E00001AB17F00CF998B1204616F0B8FD0FE0F6
:1009F00000221A700C4B197881F0010201F00704F3
:100A00001A70FFF7E3FC214616F058FF0028C0D00B
:100A10000DB030BD6021002029210020995D04081F
:100A2000A15D04082C210020282100209FED010A4F
:100A3000704700BF405DC64B082070B50C46084BA0
:100A4000084E18678D18AC4203D10822064B1A676E
:100A500070BD2178304603F035F804F8010BF2E759
:100A600000E0034000000A4000D0034070B50D468E
:100A700004F0E6FF05F056F806460C4C636C9B0646
:100A800006D404F0DDFF05F04DF8831BAB4203D321
:100A9000606CC0F3401070BD72B6636C9A0600D4EF
:100AA00020BF62B6BFF36F8FE8E700BF00C003400E
:100AB0001022034B02201A6408221A6700F010B8B3
:100AC00000E003401022034B02201A6408221A6738
:100AD00000F006B800D0034000487047C45D040829
:100AE00080B204F0E5BF04F0ABBF0000024B034945
:100AF000186800F0FFBC00BF581300203813002016
:100B0000FEE7000008B500F013F8064B064A074957
:100B10008B4201D3FFF750FB52F8040B43F8040B50
:100B2000F6E700BF00120020005A050874170020E5
:100B3000044B054A9A60D3F8882042F47002C3F847
:100B40008820704700ED00E000000008014B1868A5
:100B5000704700BF60130020084B1B6F03F00703B2
:100B6000022B04D0032B05D0012B05D0FEE7044B4C
:100B700018687047034BFBE703487047008000404C
:100B80006013002064130020002D310108B5FFF729
:100B9000E3FF054B1B6FC3F303330133B0FBF3F0EB
:100BA000024B186008BD00BF008000405C130020AD
:100BB0000048704700B4C404014B1868704700BF78
:100BC00064130020054B1860054B1B6F03F00703EF
:100BD000032B01D1FFF7DABF704700BF6413002079
:100BE000008000400020704700487047002D310110
:100BF0004FF094439868C0F304400C2822D8DFE8F3
:100C000000F0092121212121071719211B1D1F0097
:100C10000F4870479B6803F04073B3F1807F13D097
:100C2000B3F1007F12D00B4A002B08BF104670476B
:100C30000948704709487047094870470948704794
:100C400009487047002070470848704708487047B7
:100C5000405DC60000093D000024F400C0EA210107
:100C600080BA8C010048E801005A620280841E00AC
:100C700040420F004FF4004070474FF47A707047C5
:100C8000014B1868704700BF681300200023036001
:100C9000704703680B60016070470346006818B135
:100CA00002681A60002303607047036803B9704745
:100CB0008B4202D10B68036070471846F5E70000CD
:100CC00005490A681318054883428CBF4FF0FF326C
:100CD0000B601046704700BF6C130020000004201A
:100CE0002DE9F04F9A46564B85B01B7806460F46C5
:100CF0001546DDF83C909DF844B0DDF85080002B9F
:100D000000F08D80072A00F28C800E9B002B00F0F3
:100D10008880B9F1000F00F08480129BB3F5006F5A
:100D20007FDC012802D1109B002B7AD0454B03EBCE
:100D300005131B7B002B76D0434C10220021684604
:100D400043F0E9F904EB45141022002F59D139463C
:100D5000204643F0E0F943F210036380BBF1000F3B
:100D600003D1E37843F00303E370374A0E9B02EBB1
:100D7000451CCCE90193129B6901013BC3F30A00B6
:100D80009DF84C30012E03F003034FEA836343EADE
:100D9000001E53582D48CDF800A000EA03004EEA8B
:100DA0000003535041D113230CF1100ECCF80C303A
:100DB0009CE80F008EE80F006FF00301DCF81C20A8
:100DC000109B61F39F02012FCCF81C20CCF814304B
:100DD00003D1CCF81890CCF804300027194A290127
:100DE00002EB051342F80180159A28465A606946BD
:100DF00022469F605E7303F0E5F8384605B0BDE813
:100E0000F08F0021204643F086F94FF4447363804D
:100E1000BBF1000FA9D1E37843F03003A4E70C48FD
:100E2000ECE70C48EAE70C48E8E7B8F1000FD4D14A
:100E30009CF8023068F304138CF80230CDE700BF51
:100E400060230020E0210020602200200F80FFF3BB
:100E5000028000F0018000F0078000F038B5124BEE
:100E600005461B78DBB1E0B102F069FC0F4A0023B4
:100E70001146147B54B92B6001251A0101EB0313B1
:100E80001D738C5002F061FC204638BD0133082BE5
:100E900002F11002EDD102F058FC0548F5E70548D3
:100EA000F3E70548F1E700BF60230020E0210020C0
:100EB000048000F0028000F0018000F0154B13B5B3
:100EC0001868002301908DF8043002F038FC124BB2
:100ED0001C7824B102F039FC104802B010BD012288
:100EE0001A7002F032FC0E4B01A81C731C7783F8B9
:100EF0002C4083F83C4083F84C4083F85C4083F8F6
:100F00006C4083F87C4008238DF8073003F028F804
:100F10002046E2E7005E040860230020038000F022
:100F2000E021002010B588B00E9C009207940D9C23
:100F3000024606949DF8304005940B9C04949DF85D
:100F4000284003940024CDE9013420460B46214675
:100F5000FFF7C6FE08B010BD10B588B00E9C009219
:100F600007940D9C024606949DF8304005940B9C16
:100F700004949DF8284003940024CDE901342046D0
:100F80000B460121FFF7ACFE08B010BD0A4A08B5B8
:100F900012785AB107280BD8084A02EB00131B7BC2
:100FA00043B1002102F0CEFF002008BD0448FCE759
:100FB0000448FAE70448F8E760230020E021002015
:100FC000028000F0018000F0078000F00A4A08B5B6
:100FD00012785AB107280BD8084A02EB00131B7B82
:100FE00043B1012102F0AEFF002008BD0448FCE738
:100FF0000448FAE70448F8E760230020E0210020D5
:10100000028000F0018000F0078000F00A4A08B575
:10101000127852B107280AD8084A02EB00131B7B4A
:101020003BB103F01DF8002008BD0548FCE705486A
:10103000FAE70548F8E700BF60230020E021002020
:10104000028000F0018000F0078000F00D4B1B785B
:1010500093B1072812D889B10B4B03EB00131B7B0C
:1010600073B10A4BDA6A012303FA00F010401ABF89
:1010700000200B700870704705487047054870479E
:101080000548704760230020E02100200000044054
:10109000028000F0018000F0078000F00B4A10B5DC
:1010A00012780C4662B107280CD859B1084A02EBF5
:1010B00000131B7B43B102F0E5FF2060002010BD50
:1010C0000448FCE70448FAE70448F8E760230020F6
:1010D000E0210020028000F0018000F0078000F095
:1010E0002DE9F843174B1F6D5B6D1F4000D5FEE7E0
:1010F00001260025144CDFF85480DFF85490374265
:1011000017D02368C8F850609BB1A1682846013108
:101110006268A1609847637B012B0AD148B909EB4B
:1011200045131A7B60F341021A731A7F60F3410280
:101130001A770135082D4FEA460604F11004DED176
:10114000BDE8F88300000440E021002000200440B6
:101150006022002070B5044601250C4E04B970BD14
:1011600094FAA4F3B3FA83F305FA03F206EB03113E
:1011700024EA02044A68002AF0D0D8B20B7B13B1EB
:1011800089689047EAE79047E8E700BF64230020BA
:1011900008B5192002F0DCFA28B14FF00072074BB5
:1011A000C3F880211A601A2002F0D2FA28B14FF059
:1011B0008062024BC3F880211A6008BD00E100E0A4
:1011C00038B505460C4602F0BAFA0022044B03EB90
:1011D00005135C601A73BDE8384002F0B6BA00BF70
:1011E00064230020074BD3F82404D3F8202403F50C
:1011F0000053104000F0553020F05020C3F8200478
:10120000FFF7A8BF00C00340074BD3F82404D3F86E
:10121000202403F50053104000F0AA3020F0A02055
:10122000C3F82004FFF796BF00C00340024B1968C3
:10123000024B18683AF008B97413002070130020AC
:101240007047000037B5920004460D46019244F005
:101250005FFB431C0BD060B929462046019A42F03F
:1012600023FF0028044808BF002003B030BD034816
:10127000FBE70348F9E700BF10E000F021E000F0D1
:1012800024E000F013B5044601A802F083FF9DF8A6
:101290000630012223804FF4807300206380054BC9
:1012A0009B680A3303F01F0302FA03F3636002B082
:1012B00010BD00BF0080E00F02F012BF08B502F0C1
:1012C000FFFE002008BD10B5044644EA010313F0F8
:1012D0000303084609D1934201D1002010BD54F800
:1012E000231040F823100133F5E72146920042F025
:1012F000EBFEF2E710B5044644F012FB431C15D098
:10130000B0B90C4B20469B680A3303F01F0201233F
:10131000934023F003032344984201D1002010BDE1
:1013200050F8042B0132F7D00348F8E70348F6E7FA
:101330000348F4E70080E00F0EE000F021E000F049
:1013400024E000F008B502F0EBF9014B186008BD8D
:10135000F82B0020014B186802F0E6B9F82B0020AA
:101360000A460139014403F001BD2DE9F341044669
:101370000B46E27B94F80BC0007A677AA57A217B52
:1013800094F80D80A67B84F844C084F84520002B97
:101390003DD0237F0BBB0422019302F095FD019BFE
:1013A00001224146384602F08FFDA27F3146012AD4
:1013B0008CBF0123019B0422284602F085FDE37FB8
:1013C0003BB90123042294F8451094F8440002F03C
:1013D0007BFD002002B0BDE8F0810023012202F075
:1013E00073FD002304224146384602F06DFDA37FC1
:1013F0000222012B94BF002301233146284602F02C
:1014000063FDE37F002BE4D101230222DBE702220C
:10141000019302F059FD019B02224146384602F039
:1014200053FDA27F3146012A8CBF0123019B02227A
:10143000284602F049FDE37F002BCAD11A46C2E7D5
:1014400001292DE9F84326D8244B254E1C68254F49
:10145000DFF89C80783C14F1780F01D1BDE8F88367
:10146000D4F800900521484602F022FB1E4B994516
:101470000FD01E4B99450CBF3D46454602F050F932
:101480002B6843F018032B6002F04EF9A46F783CF0
:10149000E1E73546F2E702390129DFD80F4B104E5C
:1014A0001C68104FDFF84880783C14F1780FD5D0D5
:1014B00023680D4A93420FD00C4A93420CBF3D461D
:1014C000454602F02DF92B6823F018032B6002F03B
:1014D0002BF9A46F783CE8E73546F2E7AC2C002006
:1014E00094C40340B4C403400000014B00000A4010
:1014F00074C403402DE9F0410B68874A8EB09342D3
:1015000005460C460DF1180803D0844A934240F07A
:10151000EA804746824ECDF814800FCE0FC796E87A
:101520000F00103687E80F000FCE01AF0FC7002D58
:1015300000F0D78000267C220021284642F0EBFDF7
:101540002268754B6E659A4240F095805623A5F847
:101550004E304FF47023734FC5E90B730123A4463B
:1015600085F858302F1D2A60BCE80F000FC79CE893
:101570000F0087E80F00637E012B08BF8DF81D3038
:10158000A37E002B40F09580227E8DF81230012A38
:10159000E3680AD16449059A8B428CBF0423052372
:1015A000537700238DF81130604B01213A200393CB
:1015B00001F0A2FA0121B5F84E0001F09DFA23696D
:1015C000DA1F092A5AD8063B8DF81030A36923F494
:1015D0007F0323F47F4313B901238DF81C30206867
:1015E00001A902F0EFFA524BE07E72011344002889
:1015F0006AD11D21C3F89414217A237902F1804223
:1016000043EA014302F57032C2F8AC34637A61797F
:1016100041EA0341730103F1804303F57033C3F8DA
:10162000A414A67AA17941EA0641C3F8A81428B9FE
:10163000E17AE37943EA0143C2F89834012128466C
:10164000FFF793FE0446D0B902F079F8394B1A78C7
:10165000002A3BD101221A7002F077F804F0FCF85E
:10166000FFF72CFC002105F12400FFF7F7FB0146F2
:1016700078B3314C03E0294B9A4210D02F4C304BB9
:101680001B681BB92F49304803F02CFD2C4805F18D
:101690007801FFF7FEFA20460EB0BDE8F08157232F
:1016A000A5F84E304FF48013284EC5E90B63012690
:1016B00054E7012B01D1042366E7022B3FF464AF0A
:1016C000032BDBD106235FE71C2193E702F03DF8F3
:1016D000C6E705F12800FFF7C1FB04460028CED07D
:1016E000C7E71B4CCBE746461A4F0FCF0FC697E80C
:1016F000070086E80700002D00F0D9807C22002139
:10170000284642F008FD0023226813496B658A428F
:1017100024D00A4CBFE700BF0000014B00000A4084
:10172000285E040801000F003F4B4C0040420F00B0
:1017300000C00340B82C0020092000F0022000F077
:10174000AC2C002094130020B02C002001001000CD
:10175000012000F05C5E040800C0054029212746F6
:10176000A5F84E104FF48021524885F858302E1DB0
:10177000C5E90B012A600FCF0FC697E80F0086E876
:101780000F00637E012B08BF8DF82630A37E002B4F
:1017900067D1ADF82830237E0121012B03BF002340
:1017A0008DF825304FF47A73E3683A20089301F0FE
:1017B000A3F90121B5F84E0001F09EF923691A1F23
:1017C0000C2AA6D8033B414620688DF8243002F04D
:1017D00019FEA36923F47F0323F47F4323B92A6806
:1017E000936843F480339360237A2079617940EAE7
:1017F0000340637AA27941EA0341E67EA37A42EA92
:1018000003422D4B002E3CD11D26C3F82067C3F8A0
:101810003807C3F83017C3F83427E17AE27942EA8F
:101820000142C3F8242701212846FFF79EFD044604
:1018300000287FF430AF01F082FF204B1A7852BBB2
:1018400001221A7001F081FF04F006F8FFF736FB61
:10185000002105F12400FFF701FB0146F0B1184C0F
:1018600019E7012B02D14FF4007392E7022B02D14A
:101870004FF480738DE7032B7FF44BAF4FF440732D
:1018800087E71C24C3F82047C3F83807C3F830178C
:10189000C3F83427C7E701F058FFD7E705F1280060
:1018A000FFF7DCFA044600283FF4F5AED7E7054C15
:1018B000F1E600BF0200040000C00340B82C002085
:1018C000092000F0012000F038B141B1013AB2F531
:1018D000006F044838BF0020704703487047014834
:1018E000704700BF037000F0027000F038B5044686
:1018F0000D4601F024FFA3889BB223B92B6001F0B1
:1019000024FF064838BD142263889BB202FB0344BF
:1019100008342C6001F019FF0020F3E70B7000F091
:10192000F7B504461646019101F009FFA388E28845
:101930009BB29A420546019906D80023336001F014
:1019400004FF124803B0F0BD142720883A4680B245
:1019500007FB0040083042F0B7FB2388E2889BB2C7
:1019600007FB034308333360238828469BB20133C7
:10197000B3FBF2F102FB11339BB22380A388013346
:101980009BB2A38001F0E1FE0020DBE70A7000F0CB
:10199000034610B593F836300068022B0CD102F0E4
:1019A000C9F9044630B104F071F824235843B0FB60
:1019B000F4F40134204610BD02F072FCF1E790F817
:1019C0003530022B0FD13022437F90F82100534352
:1019D00002F1804202F5703214339B5823FA00F072
:1019E00000F001007047002070470000002313B58D
:1019F0001D4A52F8044B94F8211081420ED0013355
:101A0000042BF6D102B010BD0028FBD19DF80730A1
:101A1000002BF7D0A068FFF7B9FAF3E794F8353058
:101A2000022BEFD12046FFF7CAFF637E2076022B00
:101A3000E8D194F8323003F0FF02002BE2D1A06825
:101A40000DF107018DF80720FFF700FB237E1BB186
:101A500094F83330002BD7D00023A06884F83330BB
:101A6000FFF7B4FACEE700BFBC2C0020104930B518
:101A70000B78104A2BB9C2E90033C2E902330123C3
:101A80000B700C4C0023214651F8045B854208D0B2
:101A90000133042BF8D1002154F8043B1BB942F860
:101AA0002100002003E001310429F5D1024830BDB6
:101AB000CC2C0020BC2C0020027000F010B5044695
:101AC000FFF7FCF9002104F10800FFF7C7F9014610
:101AD00020B904F10C00FFF7C1F900B1004810BDB6
:101AE0000E7000F090F8363053B9042103790A4A99
:101AF00003F239135B01D150022203685A61704727
:101B0000022B07D10068816C11F0020118BF062179
:101B100001F0CEBF704700BF00C0034090F83630E0
:101B200063B9012203685A619A69D207FCD504217E
:101B30000379084AB9335B01D1507047022B07D1B2
:101B40000068836C9B074CBF0521092101F0B0BFE1
:101B5000704700BF00C0034010B590F8363004460F
:101B600063B9042203685A619A699207FCD5237904
:101B70000C4AB9335B011021995010BD022BFCD1E6
:101B80000068836CDB074CBF0521062101F090FF44
:101B9000237941F294425B0103F1804303F57033F2
:101BA000E9E700BF00C0034070B5054601F0C7FD7E
:101BB000AC6B0646013CAC6374B901F0B1FD05465F
:101BC0002146012003F0F0F901202146054A03F0E7
:101BD000EDFB284601F0A8FD3046BDE8704001F05D
:101BE000B4BD00BF785E040813B591F836200B68C9
:101BF000022A0CBF9B6C9B690C469B06084606D5C7
:101C0000FFF7D2FF022384F83C3002B010BDFFF78B
:101C1000BFFE00230146CDE90033034A234604F109
:101C2000400003F0B1FEF0E7E91B000870B5044680
:101C300001F085FDA36B054673B901F071FD01212B
:101C40000646084603F0B0F90121074A084603F0AA
:101C5000ADFB304601F068FDA36B28460133A3635A
:101C6000BDE8704001F071BD785E04087FB50123C6
:101C700080F8303090F8363083B9036824330D4A49
:101C800004900392002202924A680192012200927B
:101C90000A684169C068FFF75FF907E0022B02D1CB
:101CA00003683C33EBE7002380F8303007B05DF881
:101CB00004FB00BFAD24000801232DE9F04180F8AA
:101CC000313090F8363004460E4688B06BBB05685C
:101CD0003C3501F034FD04F1400807460DF11F01C9
:101CE000404603F035FE40B99DF81F302BB1404609
:101CF00003F0ECFD2046FFF757FF3846012701F0BF
:101D000024FD204684F83C70FFF790FF0C4B2A46D8
:101D100003930023029373682169CDE90073A068DF
:101D200033680494FFF7FEF807E0022B02D1056840
:101D30004435CEE7002380F8313008B0BDE8F081AB
:101D40008D1D000838B504460D4601F0F8FCA38847
:101D50009BB223B92B60BDE8384001F0F6BC1422D9
:101D600063889BB202FB034308332B606388E288DD
:101D70009BB20133B3FBF2F102FB11339BB26380E0
:101D8000A388013B9BB2A380E5E70000F0B585B0D6
:101D9000D06A03A91446FFF7A9FD06462046FFF7BF
:101DA000F7FD002501462346CDE90055164A04F10A
:101DB000400003F0E9FD154B9E421FD0039B1D61BF
:101DC0009D6001F0BCFC039A0646D76827B1D2E9B2
:101DD000002329462046B847E06A03A9FFF7B2FF6F
:101DE000E06A83889BB263B103A9FFF77FFD2046B9
:101DF0000399FFF761FF304601F0A7FC012005B011
:101E0000F0BD84F83130F6E7E91B00080B7000F0F4
:101E10001FB504460B46C07EE17F002B39D001235D
:101E2000042202F051F80123022294F82010207FAE
:101E300002F04AF894F83530022B19D10023012220
:101E400094F82110607F02F03FF80023042294F8F8
:101E50002210A07F02F038F8012394F8212001938A
:101E60001146607F009301F0D7FF002004B010BD41
:101E7000032BFAD10023012294F82110607F02F095
:101E800023F80023042294F82210A07F02F01CF80B
:101E9000EBE71A46039302F017F8039B94F820101F
:101EA0001A46207F02F010F894F83520039B022A8E
:101EB00012D11A4694F82110607F02F005F8039BB6
:101EC00094F822101A46A07F01F0FEFF039B94F8BD
:101ED000212001930123C3E7032AC6D11A4694F8AF
:101EE0002110607F039301F0EFFF039B1A46CAE7BE
:101EF00090F8363013B9036898697047022B06BF13
:101F00000368986C002070472DE9F3410D460446A4
:101F100000287FD001F013FC012D064641D1E36A71
:101F20009B889BB2002B43D0A068FFF76FF800237B
:101F3000E06A84F8313083889BB273B101A9FFF75E
:101F4000D5FC0199A0680831FFF7A8F8374F019B2D
:101F50001F61E06A83889BB283BB2046FFF7C8FFFE
:101F60008304FAD5023D012D10D8E068FFF74EF842
:101F70000023A06A84F8303083889BB26BBB94F84E
:101F80003530032B02D02046FFF7ACFDA36B002BAE
:101F900002DD2046FFF708FE304601F0D6FB0020A8
:101FA00009E0022D38D1A36A9B889BB2002BDCD1BB
:101FB00001F0CBFB1E4802B0BDE8F08101A9FFF79C
:101FC000C1FE019BD3F80C80B8F1000FC1D00022F4
:101FD000394620469B68C047BBE76946FFF786FC49
:101FE0000099E0680831FFF759F8104D009B1D611A
:101FF000A06A83889BB2002BC1D06946FFF7A2FE7E
:10200000009BDF68002FF3D00022294620469B6802
:10201000B847EDE70748CEE7032DA3D1E36A9B88D5
:102020009BB2002B80D1A36A7AE700BF097000F051
:10203000087000F0027000F02DE9F341984600238B
:102040000546806A0E4684881746A4B2CDE900335F
:102050003CB16946FFF74AFC01A90446E868FFF76E
:102060001DF8009B73B16CB95A6801991B68521A2C
:102070003A60C8F8001028463360FFF739FF02B015
:10208000BDE8F0810023C8F800303B60F3E7C36A85
:102090009888C0B270470000F8B507460D4616464E
:1020A000FFF712FC00286BD1152001F05FFB0446FE
:1020B000FA6A93889BB213B197F83230E3B197F87C
:1020C0003630F3B93B689C6904F002041CB9384609
:1020D000FFF742FD0024012387F8343097F83630AB
:1020E000CBB92E44B542386810D183699A06FCD525
:1020F0001CB300242046F8BD002CDAD0FEF7F0FF18
:10210000D6E7022BE3D13B689C6CDDE715F8011B99
:1021100002F0CEF9E6E7022BEAD12E44B542386848
:1021200006D142F22003826C33EA0202FBD1DFE7E0
:1021300015F8011B01F0C1FCF0E797F8363053B9F0
:1021400010213B790F4A03F239135B01D150082269
:102150003B685A61CEE7022BCCD13868836CDB0731
:102160004CBF0921214601F0A3FC42F29442102108
:102170003B795B0103F1804303F570339950B9E774
:102180000446B7E700C0034010B5044680B190F89C
:1021900032302BB9FFF713FC10B9A068FEF7F6FE3A
:1021A000002094F832300133DBB284F8323010BDB5
:1021B0000048FCE7027000F010B50446A0B190F8AA
:1021C00032309BB190F83230012B05D1FFF7F7FB8D
:1021D00010B9A068FEF7FAFE002094F83230013BF7
:1021E000DBB284F8323010BD0148FCE70148FAE761
:1021F000027000F0057000F037B590F835500446D5
:10220000022D1DD1012290F82230457E817F9A4017
:102210003020164B25B900FB013303F5015305E0CF
:10222000012D07D100FB013303F582531A60002012
:1022300003B030BD247E00FB0133002CF4D1ECE769
:10224000012DF4D1037E73B911238DF80730FFF708
:102250009BFF2A4620460DF10701FFF71DFF204690
:10226000FFF7AAFFE3E71323EFE700BF00C0034037
:102270002DE9F0430446704F89B001AE0D460FCFF3
:102280000FC697E8070086E80700002C00F0D28010
:1022900025B96A4E304609B0BDE8F0835C220021C2
:1022A000204641F038FF00232046A363FFF7DEFB02
:1022B00006460028EED14FF001092B7D84F8353019
:1022C0002B6884F8360023602A7B84F83C902271C6
:1022D0005B4A9342DDD12923A3844FF48023594ADA
:1022E0004946C4E90423D5E90723A262108050803F
:1022F000908084F83000E3621880588098806B6882
:1023000084F831000393EB8984F83300ADF814307E
:102310002B8A8046ADF81230AB7C3A208DF8103015
:10232000EB7C494F8DF8163005238DF8113000F005
:10233000E3FB4946A08C00F0DFFB286801A98DF87B
:10234000046001F0FFFF14212B7B03F139025201DD
:10235000B9502E7AA87A07EB431346EA0042C3F835
:102360003827697AEA7A41EA024CC3F830C7E67640
:10237000E077217784F820206B7D49466377AB7D39
:10238000204684F82130EB7DA3772B7E84F8223021
:10239000FFF73EFD064600287FF47CAF01F0CFF941
:1023A0002B7D8146032B33D102212A7B02F1B90315
:1023B0005B01F950042107EB421741F22C722B68A4
:1023C00003F58053D965297EEB7D43EA0143BB5079
:1023D000AA7D6B7D43EA024341F22872BB504FF065
:1023E000FF32286800F500539A642B7D032B0CBF45
:1023F0000521042101F075FF4FF440622B6820464F
:102400005A61FFF75BFB0646484601F09EF941E73B
:10241000022BE4D194F821000C49FEF7D1FEFEF71F
:10242000B7FE4FF400732046238384F81A80FFF729
:10243000E3FED4E7064E2DE7805E0408037000F04B
:1024400000C005400200040000C00340ED19000870
:10245000027000F0F0B587B005461646FFF734FA73
:102460000446F0B90493104BCDE901166A46A86AF8
:1024700001A903960593FFF753FA044688B995F826
:10248000303073B92846FFF749FB28460099FFF71B
:10249000EDFB95F83530032B03D028462C76FFF75B
:1024A000ABFE204607B0F0BD017000F073B5906A36
:1024B00001A91446FFF71AFA384B984231D094F824
:1024C0003600019B00283AD12268916C11F400710A
:1024D0002AD03349986019614FF4007302F5005215
:1024E000936401F02CF901990646CD6835B14A682C
:1024F0008B682046D31A0A680969A847A06A01A90F
:10250000FFF720FCA06A8588ADB2002D37D001A965
:10251000FFF7ECF920460199FFF7A8FB304601F0E0
:1025200014F9012002B070BD906CC50523D51D487B
:102530009960186102F500524FF48073D0E70228C9
:1025400019D12268D16C11F4007109D0144902F537
:1025500000521961002199604FF40073D364C0E701
:10256000D06CC00507D50F489960186102F500527C
:102570004FF48073F2E700221A619A60B1E70123F9
:1025800020462376FFF738FE94F8353084F8305033
:10259000032BC3D02046FFF7A5FABFE70B7000F06E
:1025A0000D7000F00C7000F0F0B587B004461646D0
:1025B000FFF78AF9054658BB0493194BCDE901167C
:1025C000059394F8363003962BBB23689B6903F080
:1025D000020313B92046FFF7BFFA6A46E06A01A971
:1025E000FFF79EF9054698B994F8313083B901F0A8
:1025F000A6F8E36A06469B889BB233B12046009951
:10260000FFF75AFB012384F83430304601F09DF87F
:10261000284607B0F0BD022BDCD123689B6CD6E7BF
:10262000017000F00B4B30B51B788BB101200023FB
:102630000546094951F8042B32B192F83C40022C6E
:1026400004BF204682F83C500133042BF2D130BD48
:102650000120FCE7CC2C0020BC2C00204FF04023B4
:10266000D3F88420D206FBD4D3F88400C0F38110C1
:102670007047000038B5174B0546D3F820310C469B
:1026800003F00703013B052B20D8DFE803F0030B21
:10269000130F171BFEF75AFA052305B1286004B182
:1026A000237038BDFEF788FA0323F6E7FEF7A0FA99
:1026B0000723F2E7FEF798FA0223EEE7FEF746FA61
:1026C0000623EAE7FEF778FA0423E6E70023184634
:1026D000E3E700BF0080004038B5124B0546D3F851
:1026E00028310C4603F00703013B032B17D8DFE822
:1026F00003F0020E120AFEF729FA052305B128603D
:1027000004B1237038BDFEF773FA0723F6E7FEF72E
:1027100053FA0323F2E7FEF767FA0223EEE70023FA
:102720001846EBE70080004073B50D460021124AC1
:102730000191D2F88041064604F00304022C13D024
:10274000032C0CD0012C14D101A8FFF793FF102308
:102750000EB1019A326005B12B7002B070BDFEF768
:1027600047FA07230190F3E7FEF73EFA234601906C
:10277000EEE70B46ECE700BF00800040002337B5D2
:102780000193154B0546D3F820320C4603F007039E
:10279000013B032B1ED8DFE803F0020E13180021C3
:1027A00001A8FFF799FF12230DB1019A2A6004B125
:1027B000237003B030BDFEF71BFA07230190F3E747
:1027C000FEF758FA0A230190EEE7FEF759FA0923BB
:1027D0000190E9E70023E7E70080004038B5104B9F
:1027E0000546D3F840310C4603F00303022B0BD00F
:1027F000032B0DD0012B0FD1FEF73CFA0A2305B1B4
:10280000286004B1237038BDFEF73AFA0923F6E7D1
:10281000FEF733FA0C23F2E700231846EFE700BF78
:1028200000800040002337B50193164B0546D3F8CE
:1028300060320C4603F00703013B032B1FD8DFE88F
:1028400003F0020E1914002101A8FFF713FF102353
:102850000DB1019A2A6004B1237003B030BD00218C
:1028600001A8FFF7BBFF1123F2E7FEF7C1F9072329
:102870000190EDE7FEF7B8F902230190E8E70023A5
:10288000E6E700BF00800040002337B50193164BF8
:102890000546D3F894320C4603F00703013B032BA3
:1028A0001FD8DFE803F0020E1914002101A8FFF77A
:1028B000E1FE10230DB1019A2A6004B1237003B028
:1028C00030BD002101A8FFF789FF1123F2E7FEF7D1
:1028D0008FF907230190EDE7FEF786F902230190B7
:1028E000E8E70023E6E700BF0080004038B5134B5F
:1028F0000546D3F800320C4603F00703013B032BD7
:1029000018D8DFE803F0020A0E12FEF7B3F90A2323
:1029100005B1286004B1237038BDFEF7B1F9092371
:10292000F6E7FEF7AAF90C23F2E7FEF72FF90F23DB
:10293000800AEDE700231846EAE700BF0080004068
:1029400038B5134B0546D3F808320C4603F007039D
:10295000013B032B18D8DFE803F0020A0E12FEF742
:1029600089F90A2305B1286004B1237038BDFEF748
:1029700087F90923F6E7FEF780F90C23F2E7FEF763
:1029800005F90F23800AEDE700231846EAE700BFA8
:102990000080004038B5104B0546D3F840320C4655
:1029A00003F00303022B0BD0032B0DD0012B0FD10F
:1029B000FEF760F90A2305B1286004B1237038BD21
:1029C000FEF75EF90923F6E7FEF757F90C23F2E765
:1029D00000231846EFE700BF0080004038B5104BD9
:1029E0000546D3F860310C4603F00303022B0BD0ED
:1029F000032B0DD0012B0FD1FEF73CF90A2305B1B3
:102A0000286004B1237038BDFEF73AF90923F6E7D0
:102A1000FEF733F90C23F2E700231846EFE700BF77
:102A20000080004070B5054614460E4600F078FE62
:102A3000296881EA040202EA06044C402C60BDE8E1
:102A4000704000F071BE0000B0F5207F1FD009D8A3
:102A5000B0F5007F15D003D868B1B0F5C07F0AD0BB
:102A600000200CE0B0F5607FFAD10B4BD3F880006A
:102A7000C0F3011003E0084B186FC0F303300130BE
:102A80007047054BD3F89000C0F30460F7E7024BA2
:102A9000186FC0F38020F2E7008000404FF48032CE
:102AA00038B50E4B05469A660020FFF7CDFF0C4B5C
:102AB0006843DC690B4D144041F67132DA635A68A1
:102AC000A84222F4401203D9012918BF42F480120F
:102AD0005A600CB10022DA6338BD00BF009000409C
:102AE00000000340005A620208B5FEF761F8BDE835
:102AF00008400021FFF7D2BF430905D0012B0DD0BC
:102B0000022B094B18BF002300F01F0041B103F551
:102B10008053012202FA00F018607047034BF3E77C
:102B200003F50053F5E700BF688000406480004073
:102B30001FB5002280280446029200F098802AD80F
:102B4000002800F09880A0F12004A3B23D2B35D8D6
:102B50003D2C33D8DFE804F08F9B8F9BB4B4B4B422
:102B6000B49BBE3CD5623C9B9B9B323232323232AC
:102B700032329B9B9B6ADF9B3232323232323232AC
:102B80003232323232B48F8F8FDA3C3CE4794DB935
:102B9000323232323286B0F5B06F00F09B802DD8E1
:102BA000B0F5207F73D00CD8B0F5C07F63D0B0F5FE
:102BB000007F63D0B0F5807F00F09180029804B070
:102BC00010BDB0F5607F68D00DD8B0F5407FF5D16D
:102BD000FDF7DCFF02464FF42070FFF735FFB2FB34
:102BE000F0F0400845E0B0F5806F69D0B0F5A06F17
:102BF000E4D1002102A8FFF7C1FDDFE7B0F5106FB7
:102C000000F0848017D8B0F5E06F00F084800AD817
:102C1000B0F5C06F75D0B0F5D06FCFD1002102A84C
:102C2000FFF764FECAE7B0F5F06FC7D1002102A834
:102C3000FFF7D4FEC2E7B0F5406F46D00FD8B0F52D
:102C4000206F6DD0B0F5286FB8D10021374B0391BC
:102C5000D3F8703203F00303012B49D14DE0B0F5F6
:102C6000486FABD1002102A8FFF70EFEA6E7FDF7E3
:102C700073FF0290A2E7FDF789FFFAE7FDF76CFF0B
:102C800002462046FFF7E0FEB2FBF0F0F1E7FDF769
:102C90007DFF02464FF42070F4E7244BD3F88030D8
:102CA00003F00303012B04D0022B06D04FF4607015
:102CB000E8E7FDF751FF0246F8E7FDF799FFFAE76D
:102CC000002102A8FFF7D6FC78E7002102A8FFF751
:102CD00003FD73E7002102A8FFF726FD6EE74FF022
:102CE000E02303921B695B0705D5FDF74FFF0390B7
:102CF000039B029362E70DF1070103A8FFF76EFD46
:102D0000F6E7002102A8FFF769FD57E7002102A8B6
:102D1000FFF716FE52E7002102A8FFF73BFE4DE742
:102D2000002102A8FFF77EFD48E700BF00800040B9
:102D300008B58020FFF7FCFE034B98429EBF4FF47E
:102D40008032024B1A6708BD005A620200A00040A0
:102D5000002307B5B0F5807F8DF8023000F0CD80FC
:102D600066D85D2857D84C2808D82D2848D823285D
:102D70002CD89DF8020003B05DF804FB4D381028F4
:102D8000F7D801A353F820F0EF2E0008732D0008A8
:102D9000732D0008732D00089B2E0008732D00086A
:102DA000732D00089B2F0008BB2E0008572E00082B
:102DB0008F2F0008732D0008732D0008732D000855
:102DC000732D0008732D0008A72F00082438092848
:102DD000CFD801A353F820F0EF2E0008EF2E000803
:102DE000EF2E0008EF2E0008EF2E0008732D0008CC
:102DF000E32E0008732D0008772E00082F2F0008FF
:102E00003D2800F08E803E28B3D100200DF1020154
:102E1000FFF7C0FDADE78028ABD1684B1B6F03F017
:102E20000703013B032BA4D8DFE803F05955949C1A
:102E3000B0F5F06F75D024D8B0F5B06F51D010D880
:102E4000B0F5607F00F0928093D3B0F5806F4ED0E4
:102E5000B0F5A06F8DD100200DF10201FFF78EFCBF
:102E600087E7B0F5D06F62D0B0F5E06FCDD0B0F5A8
:102E7000C06F7FF47EAF00200DF10201FFF7AEFCC2
:102E800077E7B0F5206F00F088800CD8B0F5086FB8
:102E900053D0B0F5106F7FF46CAF00200DF102013C
:102EA000FFF74EFD65E7B0F5406F70D0B0F5486FA5
:102EB00079D0B0F5286F7FF45CAF00213F4B0191D2
:102EC000D3F8703203F00303012B72D0022B14BF2E
:102ED0000B46152300E005238DF8023049E7022355
:102EE000FAE700200DF10201FFF71EFC41E7002088
:102EF0000DF10201FFF7BEFB3BE701934FF0E0232A
:102F00001B695B0707D5FDF741FE0D238DF80330E4
:102F10009DF80330E0E70DF1030101A8FFF75EFC27
:102F2000F6E700200DF10201FFF758FD21E7002030
:102F30000DF10201FFF7DAFC1BE7204BD3F800315B
:102F400003F00303022B07D0032B09D0012B0BD175
:102F5000FDF732FE0323BFE7FDF792FE0923BBE72F
:102F6000FDF740FE0823B7E70123B5E7134AD2F87F
:102F7000802002F00302012A05D0022AACD1FDF71D
:102F800037FE0723A8E7FDF7E7FD0E23A4E700209F
:102F90000DF10201FFF7A0FBEBE600200DF10201AD
:102FA000FFF740FCE5E600200DF10201FFF76CFCA5
:102FB000DFE601A8FFF712FC11238DE70080004037
:102FC00038B504468020FFF7C3FE03287BD04FF4BA
:102FD00080124C4B4C495A6645F60E034FF0A062E6
:102FE000C1F88030494B9A624FF4803203F5805328
:102FF0009A628A6D12F48032FBD1637820781B05C7
:1030000043EA0063A079424D0343E07843EA00437A
:10301000207943EA0033607943EA80130B618B69BE
:10302000E07A03F000430343E07943EA8063207AC7
:1030300043EA0063607A43EA0043A07A43EA00234C
:103040008B61607B0B6A002818BF0822217B23F06C
:103050000F0343EA000343EA81032B4942EA0302D8
:103060000A6231D1A37C8A6AA07BDB002A4043EA52
:1030700040131343E27B43EA021343F480338B6231
:10308000244B8A6D33EA0202FBD14FF080721F4855
:1030900082620B69A57823F4700343EA05530B6140
:1030A0004FF000438361237C0BB91B4B9A62637C16
:1030B0001BB94FF48032184B9A62E37C1BB1124B60
:1030C000164AC3F8802038BD022809D100234FF4E6
:1030D00008520B6112488B614FF47F41FFF7A2FC4D
:1030E0000949237C8A6AA07B1B062A4043EA4013D5
:1030F0001343A27C43EAC203627C43EA02438B622D
:10310000DBE700BF009000400040004A0050004A4A
:10311000C7FFFEFE030001000060004AF1A7FFFFA9
:103120003440004A014B93F9000070479C13002083
:103130000029CCBF01210021FFF7B0BCB0F5207FF2
:1031400010B50C4657D008D8B0F5007F48D003D84A
:1031500030B3B0F5C07F23D010BDB0F5607FFBD198
:1031600029492A48D1F8FC2012F080721EBFD1F8FC
:10317000FC3023F08073C1F8FC30D0F88030611E41
:1031800023F0300444EA0114C0F88040002AE3D060
:103190001D4AD2F8FC3043F08073C2F8FC30DBE704
:1031A000FFF7A2FC00F036F84FF48031184B174AB5
:1031B0001967136F611E23F4704444EA01341467E5
:1031C000FDF7E4FC0446FFF749FAC0F1020120468E
:1031D000FFF7AEFF00F024F8BDE81040FFF7A8BDF0
:1031E0000A4A0139D2F8903023F0F85444EA0164D5
:1031F000C2F89040B0E7054B013C196F21F48061A3
:1032000041EA84241C67A7E700ED00E0008000404D
:103210000090004002214FF42070FFF78FBF0000A4
:1032200008B54FF4C070FFF783FCBDE808400449BF
:1032300088428CBF022101214FF42070FFF77EBF2E
:1032400080F0FA02B0F5807FF8B50C4600F05481AA
:103250006CD85D285ED84C2804D82D2844D8232863
:1032600028D8F8BD4D381028FBD801A353F820F01A
:10327000D734000863320008633200086332000864
:10328000CD33000863320008633200089736000827
:103290000734000859330008753600086332000807
:1032A00063320008633200086332000863320008AA
:1032B000B936000824380928D3D801A353F820F0E0
:1032C000D7340008D7340008D7340008D7340008B2
:1032D000D734000863320008B534000863320008B0
:1032E00091330008A93500083D2800F04C813E28A4
:1032F000B7D1093CE4B2032C8CBF0021B34BB44AD4
:1033000098BF195DD2F8403223F003030B43C2F893
:103310004032A6E78028A4D18B1E062B00F2C7807E
:10332000DFE803F0C2B0C581C5C5BF00B0F5F06FDE
:1033300000F029813DD8B0F5B06F00F0BB801CD8FB
:10334000B0F5607F00F06F818BD3B0F5806F00F037
:10335000C280B0F5A06F84D1073CE4B20B2C8CBFC7
:1033600000219C4B9A4A98BF195DD2F8203223F075
:1033700007030B43C2F8203273E7B0F5D06F00F0BB
:103380001381B0F5E06FB4D0B0F5C06F7FF469AFD2
:10339000093CE4B2032C8CBF00218F4B8C4A98BFB0
:1033A000195DD2F8403123F003030B43C2F84031DA
:1033B00057E7B0F5206F00F06E8118D8B0F5086FB0
:1033C00000F02081B0F5106F7FF44BAF093CE4B200
:1033D000062C8CBF0021814B7D4A98BF195DD2F825
:1033E000083223F007030B43C2F8083239E7B0F57F
:1033F000406F00F03F81B0F5486F00F05D81B0F59F
:10340000286F7FF42EAF112C00F06781152C14BFAC
:10341000002102216E4AD2F8703223F003030B43DD
:10342000C2F870321DE7002502264FF480370121D3
:10343000022000F011FAFFF757FBFFF7EBFE684B95
:10344000634A1F67136F23F0070333431367FDF7C6
:103450009DFB0646FFF702F9C0F102013046FFF777
:1034600067FE0121002000F037FAFFF7D9FEFFF7D1
:103470005FFC002D7FF4F5AE032C7FF4F2AE594BC8
:103480009F62EEE64FF48012554B03265A664FF4C6
:103490008032554B9D6A03F58053C5F300659A62EF
:1034A000C3E700250426C0E700250126BDE7002567
:1034B0002E46BAE7023CE4B20E2C8CBF00214B4BE7
:1034C000434A98BF195DD2F8803123F003030B43C0
:1034D000C2F88031C5E6023CE4B2052C8CBF002165
:1034E000434B3B4A98BF195DD2F8203123F00703C4
:1034F0000B43C2F82031B4E6A1F10904082C3FF6D1
:10350000B0AE01A353F824F02D3500082D35000886
:10351000633200082D3500085B350008633200086F
:1035200063320008633200082D3500084FF4803202
:10353000274B3049586E03F580535A664B6A43F067
:1035400001034B62C1035CBF2B4B5A664FF0E02274
:10355000136923F00403136183E64FF480321C4B9C
:103560002449586E03F580535A664B6A23F00103D1
:103570004B62C3035CBF204B5A664FF0E0221369D5
:1035800043F00403E7E7093CE4B2032C8CBF0021BD
:103590001A4B0F4A98BF195DD2F8603123F003032C
:1035A0000B43C2F860315CE6093CE4B2062C8CBFE8
:1035B0000021134B064A98BF195DD2F8003223F060
:1035C00007030B43C2F800324BE600BFD15E04088C
:1035D00000800040EC5E0408D15E0408D55E04085B
:1035E000009000400060004A0040004ABC5E0408B1
:1035F000CB5E040800C0074000A00040D15E040874
:10360000D55E0408CC1EE4B2062C8CBF0021344BDE
:10361000344A98BF195DD2F8003123F003030B43FD
:10362000C2F800311DE63049063CD1F8FC20E4B276
:1036300012F080721EBFD1F8FC3023F08073C1F805
:10364000FC30082C8CBF0020284B264998BF185D01
:10365000D1F8803023F003030343C1F88030002AFF
:103660003FF4FFAD204AD2F8FC3043F08073C2F83B
:10367000FC30F6E5023CE4B2052C8CBF00211C4B6B
:10368000184A98BF195DD2F8283123F007030B437D
:10369000C2F82831E5E5023CE4B20F2C8CBF0021D2
:1036A000144B104A98BF195DD2F8603223F007031B
:1036B0000B43C2F86032D4E5023CE4B20F2C8CBF5D
:1036C00000210D4B074A98BF195DD2F8943223F0C0
:1036D00007030B43C2F89432C3E501219AE600BF09
:1036E000DC5E04080080004000ED00E0E35E0408BA
:1036F000F85E0408FE5E0408FE5E04080028ABBF06
:1037000000F16040054B00F5614000F00F00ACBFD8
:1037100090F80003185C0009704700BF14ED00E04A
:10372000EFF3108072B6704700B962B6704730236D
:1037300083F311887047002383F311887047EFF3F8
:103740001180302383F31188704780F3118870470C
:10375000054B420953F8223000F01F0023FA00F015
:10376000C04300F00100704700E100E0014608B5E9
:10377000EFF31083DB0702D50122104608BDFFF7E7
:10378000E7FF02460028F7D10846FFF7B7FF0146DA
:10379000EFF3118313B1B0EB131FEDD2074B5B684E
:1037A000C3F30803002BE8D0103B58B2FFF7A6FF85
:1037B00088428CBF00220122DFE700BF00ED00E05D
:1037C000024A536B0342FCD1704700BF00400940DE
:1037D0004FF04022536F417823F4407343EA0123B2
:1037E00053677047704770470A4A10B5136904461B
:1037F00043F00403136101F0A7FEFFF7F3FF30BFAE
:10380000FFF7F1FF01F0B4FE1CB9BDE81040FDF771
:10381000BDB910BD00ED00E0084A10B513690446BB
:1038200043F00403136101F08FFE30BF01F0A0FEEE
:103830001CB9BDE81040FDF7A9B910BD00ED00E0CE
:10384000704770474FF04022D36E017923F0300368
:103850000B43D36670477047F8B504464FF04023DA
:10386000D3F88420D106FBD4D3F88430C3F381137A
:103870009C422DD0FDF770F9012C064602D121465D
:10388000FFF756FCFFF74CFF4FF00072114B074655
:103890005A662046FFF7DFFF4FF480634FF0402564
:1038A000621E93402B676B6E9A0103D4D5F8843067
:1038B0009B060AD53846FFF737FF022C08D1304661
:1038C000BDE8F8400021FFF733BCD5F88430EAE7C3
:1038D000F8BD00BF0060004007B518B90191FDF7C1
:1038E0003BF90199064B1B7843B1064B984205D82A
:1038F000012003B05DF804EBFFF7AEBF0220F8E74C
:10390000CD2C0020005A62020278034B01210020D6
:103910001A70FFF7E1BF00BFCD2C00204FF000422E
:10392000144B10B55A664AF6CD3313494C6C0B64F0
:1039300004F0010478B90120FFF742FF4B68DB0770
:1039400004D50E4B58600B6BD807FCD514B10A4B4D
:103950000B4A1A6410BD0B6B1A07FCD42022074BCC
:103960009A620122A3F580535A60034A936A9B0628
:10397000FCD5EBE7009000400040094000600940A2
:103980003254FFFF08B50020FFF7C8FF012008BD33
:103990004FF000420F4B70B55D6E03F580535A66D1
:1039A0004AF6CD3304460C4980204E6C0B64FFF779
:1039B00007FF0B6A23F4F85343EA04230B62F3076F
:1039C00044BF064B0B64002DA2BF4FF00042044BD6
:1039D0005A6670BD00800040004009403254FFFF2D
:1039E00000A00040436D0B42FCD1704708B543680E
:1039F000DA0714D58368DB0702D50369D90707D531
:103A00000A2350218363FFF7EDFF836C9A07FCD1F3
:103A1000012200F500535A6043689B07FCD408BD9F
:103A200038B50C460121024600F58053596004F078
:103A30000F0540F6FF71FFF7D5FF78218563FFF78B
:103A4000D1FF04F00103610748BF43F00203916C0A
:103A500001F003019942FAD138BD000010B5FFF71B
:103A6000C5FF042300F5805100F500520B6113617E
:103A70000B6113610B6113610B611361202341F230
:103A8000020103610023C360836041614FF4A02100
:103A90008361836541620549C36103628362C362D6
:103AA00043630365D164036310BD00BFFF3F0D0393
:103AB00009B9FFF79BBFFFF7B3BF836C5B06FCD56B
:103AC00041647047836C5A06FCD54164836C1B06C5
:103AD000FCD5C06B80B27047F8B50446154651B9A5
:103AE000354B984231D0354884420CBF57200020D6
:103AF000FFF71EF80146A368D8072ED5B1FBF5F1F4
:103B000066684D1E16F0010625D028212046FFF7D5
:103B100069FFA36C99071AD1A36CDA0719D4A36CB7
:103B200013F0020F0CBF002706272046FFF75EFFA9
:103B3000236923F07F4343EA05652561DEB13946F9
:103B40002046BDE8F840FFF7B3BF5620D0E7052771
:103B5000EBE70927E9E73746EAE76368A36DA06862
:103B6000DB0700F0E00048BF6D0040281BD003D801
:103B7000D8B120281BD0F8BD60281AD08028FAD1EF
:103B8000012305FB03F24901B1FBF2F10C4A203994
:103B9000204602EAC1020121FFF724FF2263BDE8AB
:103BA000F840FFF71FBF0623EBE71023E9E70823E0
:103BB000E7E70423E5E700BF0000014B00000A40EF
:103BC000F8FF7F00436870B504460D460E691BB1CF
:103BD00040F6FF71FFF706FF2046FFF73FFF22691F
:103BE0006B7BA97B22F087020B43134343F08003D6
:103BF000236116B32A692369117823F0F8030B4374
:103C0000117F43EAC113117943EA4113517A43EA20
:103C10000113D17B43EA81132361E168D2E90530C6
:103C200021F0F04121F4702103430B43117B527BBF
:103C300043EA812343EAC233E360A368EA7B23F0CB
:103C40000303134343F00103A3602EB32A69A16861
:103C5000538803F4C0430B43A3605179A36843EA3C
:103C60008123A3609379D079616A1B01000203F07C
:103C7000700300F4E06021F4772121F4EE61034346
:103C80000B43117A527F090301F4E04112040B4304
:103C900002F470221343636263692A7B23F00F03EB
:103CA00013436361B6B12B695A89A2615A7B3AB159
:103CB0001D4A944224D19A7B1C4902F00F024A67A4
:103CC000DA7B3AB1184A944224D11B7C174A03F09C
:103CD0000F031367D5E901122046FFF7FDFE05210A
:103CE0002046FFF79DFE0021FFF77CFE2B78A363A3
:103CF000FFF778FEA36CDB4313F4405FFAD170BD8D
:103D00000B4A944201BF9A7B084902F00F02C1F8A6
:103D10008020D5E7064A944201BF1B7CA2F5CE2243
:103D200003F00F03D367D5E70000014B0090034079
:103D300000000A402C4B2DE9F0419842064612D073
:103D40002A4886420CBF57200020FEF7F1FEB168DA
:103D500011F0010109D03169090E0131B0FBF1F117
:103D60000846BDE8F0815620EFE7326BB468204B7F
:103D700004F0E004402C03EA020310D007D854B347
:103D8000202C2CD0B36DDB0748BF4908E8E7602C36
:103D900027D0802CF6D14FF480750C461CE080258E
:103DA0000C464FF0030803F5807308FB03F800236B
:103DB000424619463FF058FF02FB04F100FB05F7AD
:103DC00005FB0311A2FB05050023424629443FF0F1
:103DD0004BFF3918D6E710254FF00108E3E72546D9
:103DE000DBE74025D9E700BF0000014B00000A4097
:103DF000F8FF7F0070B5054614460E46FFF790FCAD
:103E0000296881EA040202EA06044C402C60BDE8FD
:103E10007040FFF789BC0000072AF7B501F00306E0
:103E200014461F464FF003012CD89500A94000FA14
:103E300005F21C480191FFF7DDFF01991A4806FAC7
:103E400005F2FFF7D7FF194B19499DF82000002F05
:103E500008BF1946012303FA04F40C60154B1649F8
:103E6000002808BF0B461C60144B9DF82400C3F8C3
:103E700020441031A3F6DC33002808BF0B461C6039
:103E800003B0F0BDA2F10805AD00A94000FA05F2AB
:103E90000B480191FFF7AEFF01990A4806FA05F2B7
:103EA000CFE700BF00C4034008C4034010E4034050
:103EB00010D4034014D4034014E4034000E0034052
:103EC00004C403400CC403402DE9F04105460F46ED
:103ED0001E4690464AB101233022184C8B4002FB0B
:103EE00000442EB304F58254236030230F216B432A
:103EF000072F88BFA7F10804114895BFBC00A40094
:103F000004330C3308FA04F2A1401844FFF772FF9F
:103F1000B8F1000F0AD101213020084A01FA07F751
:103F200000FB05223EB102F582521760BDE8F08128
:103F300004F50154D8E702F50152F6E700C003404A
:103F400030C00340044A054B002918BF1346012224
:103F500002FA00F01860704740200440401004400E
:103F600010B5012104462020FEF7C6FD01212120C5
:103F7000FEF7C2FD0122114B5A60227812069A60A8
:103F80006178A27842EA01429A61FF229A62002295
:103F90009A631A644FF000425A654FF0FF324FF4B3
:103FA000001103F500531A65054AC2F88011E37841
:103FB0001B01DBB282F81533116010BD0000044014
:103FC00000E100E02DE9F0410125C3B2D1F8008005
:103FD00091F80AC00F7B91F80DE09D400C46CB7A1A
:103FE0001C491D4E0D65810001F1402101F5802124
:103FF000C1F80480302101FB00601B0543EA0C433B
:1040000043EA475322F00302C0F860E0C365026749
:10401000FFF795FB736D2B437365237A13B1336CF4
:104020002B433364637A13B1B36B2B43B3632279AD
:10403000A37943EA0243074A93616179E37943EA4A
:10404000014306498B61044B55639D64BDE8F04113
:10405000FFF77BBB00200440000004400010044038
:1040600010B50124C0B28440FFF769FB044B5A6DC0
:1040700022EA04025A659C62BDE81040FFF765BB66
:1040800000000440F8B50125C3B204469D40FFF787
:1040900056FB3022094B1E6D5F6B02FB04335C6ED6
:1040A000FFF753FB3D4206D1C4F30A1008B935426D
:1040B00000D10130F8BD0020FCE700BF0000044043
:1040C0004FF48032054B9A6641F6713203F51C338A
:1040D000DA63012203F50053DA6070470090004074
:1040E00041F671320121064BDA6303F50052D160CB
:1040F0000022DA634FF48032A3F518339A667047D2
:10410000000003404FF40032014B1A67704700BFB4
:10411000005000404FF04023D3F8940070474368AC
:1041200013B9416070475B685A68012AFBD1596036
:104130007047836813B9816070475B685A68012AC9
:10414000FBD159607047C369032B9FBF00EB83020B
:104150000133D160C3617047C369042B15D84FF098
:104160009842116CC902FCD504339B0013650168A9
:10417000103B116041680C30116050F8041C03447E
:1041800011604FF09842984200D1704750F8041BDC
:104190001160F8E74FF48032064B5A6603F5E623C8
:1041A0009B69C3F38512827003F03F021B0B4270C0
:1041B000037070470090004040F6B732064B5B68D2
:1041C0009BB293429FBF4FF47A72B3FBF2F3034A60
:1041D000D05C88BF002070470080E00F0E5F0408AD
:1041E00070B5054616461C4621B94FF42070FEF7FF
:1041F0009FFC0146402C1BD003D8DCB1202C1BD0E7
:1042000070BD602CFCD1042303FB06F2560806EBBC
:104210004113B3FBF2F3094A203B02EAC303AA6845
:1042200022F06002AA60AA681443AC60EB61E7E781
:104230000623E9E71023E7E70823E5E7F8FF7F0017
:104240002DE9B841154F15460F40FAB9202B20D063
:10425000402B20D0002B14BF40241024012307F54D
:1042600080775F4300233A4619463FF0FDFC5543F3
:1042700000FB04F804FB0351A2FB040400233A46AC
:1042800021443FF0F1FC4044BDE8B8818024002582
:10429000E4E71C46E2E780240323E0E7F8FF7F0021
:1042A00070B5044685684FF42070FEF741FCA368A2
:1042B00005F00102E16903F06003BDE87040FFF71B
:1042C000BFBF38B50546144621B94FF42070FEF73C
:1042D0002FFC014601396400B1FBF4F10902E961E8
:1042E00038BD012200F580535A60CB43934003F060
:1042F0000A034361416111B900F500504260704703
:10430000012100F5805310B5596040F6AA6341F2CF
:10431000050243610023094C8360C365C26000F558
:1043200000520361C361C3649464054C8365A04279
:1043300004BF03654365516010BD00BFFFFF01006E
:1043400000C0054070B50D46FFF7DAFF012300F508
:1043500080567360AB7C04461BB1836843F0804396
:104360008360EB7C5BB1244B9C4202BF2A7DA3F5AA
:104370001033C3F8C821E36D43F08003E3652A8A54
:104380006B7B20461343EA891343E3602B7BD5E91B
:104390000112FFF725FF6B7D1BB1A36843F4803347
:1043A000A360AB7D1BB1A36843F40043A360EB7D26
:1043B0002A7E1B07120502F4E00203F0E0431343D8
:1043C000A3656B7E9A1E012A4FF0020209D80B49A1
:1043D000032BC1F8202709D10423F3652B786361EF
:1043E00070BD0749012BC1F82027F4E7042204F52A
:1043F0000053DA65F2E700BF00C0054000D003407B
:1044000000E0034038B50D46FFF77AFF0122A97B93
:1044100000F580535A602A8A8368002914BF4FF43C
:104420008061002142F0010213432A7D0B43002AE0
:1044300014BF4FF000520022836083680446134388
:104440008360AB7C5BB1194B984202BFEA7CA3F559
:104450001033C3F8C821C36D43F08003C3652B7BC1
:104460002046D5E9011243F48053E360FFF729FFAA
:104470006B7B0BB1102363616B7D1BB1A36843F4AD
:104480008033A360AB7D1BB1A36843F40043A360FA
:10449000EB7D2A7E1B07120503F0E04302F4E002E5
:1044A0001343A3652B78636138BD00BF00C005408E
:1044B00083695B06FCD5C16370470000054B9A68B1
:1044C0009107FCD45A689207F9D4DA69002AF6D128
:1044D000704700BF00800A4008B5FFF7EFFF0122D8
:1044E000024B03F580514A601A6108BD00800A4002
:1044F000074B5A68012A0AD15A68D20702D5DA69ED
:10450000002AF9D102221A610122024B5A60704737
:1045100000800A4000A00A4010B5064CFFF7CEFF0D
:104520006368012B03D1FFF7E3FFFFF7C7FF0378B1
:10453000E36010BD00800A40E8B94A680B7812B108
:10454000127843EAC2034A78002A14BF02220022EA
:1045500013438A6812B1127843EA82138A78002AD8
:1045600014BF042200221343CA6812B1127843EA2E
:104570004223014A9364704700800A4008B9014B06
:104580005964704700900A4008B9014B596470475C
:1045900000A00A4008B9014B1964704700A00A4006
:1045A00010B9024B186C70470020704700800A4019
:1045B00048B911B1012903D07047044BD86C70473A
:1045C000024B186D70470020704700BF00800A4002
:1045D00040B911B1012903D07047034BDA64704729
:1045E000014B1A65704700BF00800A4038B5044689
:1045F000054D38F0B6F80FCC0FC594E8030085E8F8
:104600000300002038BD00BFD02C002047F6FF7308
:104610009A42F0B563D0022963D8334BCF0003EB45
:10462000C10013F831108478012913D10025C37813
:104630001B1B9D4202D3E018C0B2F0BD591B466857
:10464000A3EB510136F911609642D4BF0D4601F13A
:10465000FF33EEE740680028EFD0B0F90010914238
:1046600004DBB0F902109142B8BF114682883B4486
:10467000FF2A19BFC8222826B0F90620B0F9086021
:10468000A2EB01020CBF0125002592FBF6F25F7838
:104690002A447B1E934228BF13464FF47A7E00EBD8
:1046A000C305AE68EA88AC4611FB02621E4622EAE8
:1046B000E272013302F5FA729F42B2FBFEF204D9B4
:1046C000BCF80CC008359445EBD200EBC6008088DE
:1046D000904228BF1046A04238BF2046ACE7FF20DA
:1046E000ABE70020A9E700BFD02C00200229F0B5DD
:1046F00053D82B4800EBC10410F83110636801292E
:104700000FD1E078A478904294BFC4EB0001C4EBD1
:104710000201001BCAB28242C8BF002233F9120054
:10472000F0BD002B39D0A178914202D3B3F9020039
:10473000F6E7E178B3F900009142F1D999886478FD
:10474000A1F1FF06013C714203F10405E4B271419D
:1047500003F10C071FFA82FCCEB2B44216D805EB67
:10476000C1014FF47A756A43B1F902404968521A9F
:1047700004EBD47102EB610292FBF4F29042CFDBC6
:10478000B3F902009042CBDC10B2C9E737F831E050
:104790004E1CE645E3D33146DEE70248C0E700BFE2
:1047A000D02C00200080FFFF0148FFF71FBF00BF93
:1047B000145F04087FB51422002101A83FF0ABFC70
:1047C000044B01A94FF0FF30029338F0E5F807B031
:1047D0005DF804FB006A180000214FF0FF3038F04C
:1047E000E0B808B5FFF7CEF8002008BD4FF0402232
:1047F00013B50024536F684643F0010353670094D8
:104800008DF80440FFF71EF8204602B010BD0000EE
:1048100070B586B001AA1546174B03F11006144671
:1048200018685968083303C4B3422246F7D11868A0
:10483000124B2060D3F84C21120314D4D3F850410A
:10484000E4B28DF80E40FEF76DFC204480F30800C2
:104850008DF80D000A48FCF7B5F92846FEF7B0FBC5
:10486000002006B070BD074B1C884FF6FF739C42BA
:1048700008BF8C24E5E700BF905F04080080E00FCC
:10488000C01753020001E00F6FF00402502110B571
:104890000A480B4C12F0800FD3B21BBF03F00F037A
:1048A000043BA3181B1802F101020CBF83F800138C
:1048B00019764C2AEED1002010BD00BF00ED00E0BB
:1048C00000E100E000F07AB838B500F0C5FF04461A
:1048D000E0B901F0DBF84FF4167343430C4803F5DD
:1048E000742303F23F23B3FBF0F30A4A0A4913602F
:1048F0000A220D680948013A12F0FF0240F8043B11
:10490000F9D103EBC3022B4413440B60204638BD9E
:1049100040420F00242D0020F02C0020F42C002019
:1049200070470000012208B5034B1A7001F088F8A7
:10493000024B186008BD00BFEC2C0020202D002089
:10494000F8B5144C237823B301F07AF8124B134DC9
:104950001B68134EC01A012838BF0120114B124F9B
:1049600018602B7856F8232046F82300111A3A686D
:104970000E48521A0A213A600932B2FBF1F20133B1
:10498000DBB20260B3FBF1F201FB12332B700023A8
:104990002370F8BDEC2C0020202D00201C2D0020C1
:1049A000F42C0020E82C0020F02C0020242D0020E6
:1049B000014B1868704700BF242D002020234FF4BE
:1049C0008012094981F82C33084B5A66084B094A72
:1049D00003F50050426702674FF480500344C1F86A
:1049E000840148605A67704700E100E00090004091
:1049F0000040004A010000A0054B064A1B78916D5B
:104A0000C90700D513B10028F9D1704701207047BC
:104A10003C2D00200040004A2DE9F8438E4B1E6FCC
:104A20009D6A9C6AF00705F0807504F4803451D5C6
:104A30004FF0010989498A4A91F80080894FC2F8EC
:104A40007090B8F1000F00F0F980002008703978FC
:104A5000494500F2ED804FF4803191624FF0807152
:104A6000A2F5805291629A6DD103FCD47E49DA6A34
:104A7000096822F470620A43DA627C487C4A9969C8
:104A80000068126821F47F01024321F47F410A4348
:104A90009A617848784A19691268006821F47F6140
:104AA00021F00F0102430A431A6174499A690968A7
:104AB00022F0FF020A439A614FF08073002D40F00C
:104AC000B380674A93624FF48033002C00F0AE80CD
:104AD0006B4A936216F0005200F082800121604F11
:104AE0005D4B3A675D4ADFF884C111705D49DFF8BC
:104AF0008CE10A7801320A70DA6A5B4902F470606C
:104B0000086098695A4900F47F400860996901F487
:104B10007F01CCF80010D3F818C05FFA8CFCCEF8F7
:104B200000C0D3F810C0DFF850E10CF47C6CCEF874
:104B300000C0D3F810C0DFF83CE10CF03F0CCEF819
:104B400000C04FF4803C4FF0807EC7F828C0DFF8EB
:104B500030C1CCF828E04FF0004ECCF828E0D3F874
:104B600058C01CF4803FFAD14FF0004C22F4706220
:104B700042F40072B0F5C84FC7F828C0DA6202D814
:104B8000B1F5C80F0CD9344A3E499369096823F43A
:104B90007F0323F47F4343EA012343EA0143936104
:104BA0002D4A39491369096823F47F6323F00F0301
:104BB000880843EA910343EA80131361936923F061
:104BC000FF030B4393614FF08073002D3DD102F53D
:104BD000005293624FF48033002C38D0284A9362FD
:104BE000002E1FDA4FF000421D4B1B491A67274A5F
:104BF0001278BAB14FF480329A624FF08072A3F506
:104C000080539A628A6DD203FCD44FF000429A61BD
:104C10004FF0807205B9124B9A624FF48033C4B1E1
:104C2000174A9362BDE8F883154A4BE70C4A50E7F0
:104C3000FFF776FE154B83F800904BE7FFF780FEF9
:104C400000F084FB87F8008044E70D4AC1E7044A7E
:104C5000C5E7034AE5E700BF0040004A3C2D0020BD
:104C60000060004A3D2D0020402D0020382D0020FE
:104C7000342D0020302D00202C2D0020282D002048
:104C80000050004AA4130020A01300203E2D002055
:104C9000FFF7C2BEBFF34F8FBFF36F8F054B5A6A4A
:104CA00022F480325A62D3F8942022F00102C3F831
:104CB0009420704700ED00E070B52548254CFFF7C3
:104CC000E9FF844208BF4FF08043234A18BF20F019
:104CD0001F03D2F8C01018BF203B21F0FF0141F0A4
:104CE000A001B3F1005FC2F8C0100CD31B4D1C4EE5
:104CF000296843F00103C2F898100131C2F89C60A2
:104D0000C2F8A0302960844210D01448154B0268C4
:104D1000114923F01F0343F00303C1F89820C1F8A1
:104D20009C30114B0132C1F8A0300260BFF34F8FAD
:104D3000BFF36F8F0522084BC3F894205A6A42F4E0
:104D400080325A62BFF34F8FBFF36F8F70BD00BFC9
:104D5000C01500206C17002000ED00E0442D00205D
:104D6000030000208B170020E1FFFF3F10B5144621
:104D7000FFF790FF1F2C21D9194A1A4CD2F8C030E6
:104D800021F01F0123F47F4343F48073C2F8C03045
:104D9000C30618BF20F01F002368114A18BF203037
:104DA00020F01F00C2F8983040F0030041F00301EA
:104DB0000133C2F89C00C2F8A0102360BFF34F8FEC
:104DC000BFF36F8F0522064BC3F894205A6A42F452
:104DD00080325A62BFF34F8FBFF36F8F002010BD38
:104DE00000ED00E0442D0020BFF34F8F0549064B36
:104DF000CA6802F4E0621343CB60BFF34F8F00BF79
:104E0000FDE700BF00ED00E00400FA0508B5FFF77C
:104E1000EBFF08BD034B1B78002B14BF01200220C1
:104E2000704700BF782D00200329F8B598BF124BBA
:104E300005460E468CBF00245C5C032805D8DFE8DD
:104E400000F002080B0E44F002040C4B1F684FB92F
:104E5000F8BD44F00804F8E744F02004F5E744F016
:104E60008004F2E77B681A68144203D03146284672
:104E70005B6898473F68EAE7C05F0408742D00202C
:104E800038B5104D2B78ABB10F4C23781BB100F027
:104E90009BFB00232370002000F0BAFB0B4C50B1A9
:104EA00000F0C0FB0023012120782B70FFF7BCFF2E
:104EB0000123237038BD0122054B1A702278054B5F
:104EC0001A70F7E7722D00206D2D0020642D002050
:104ED000712D0020842D002010B5FEF721FC064B1B
:104EE00004461B781BB1BDE81040FEF71DBCFFF760
:104EF000C7FF2046F7E700BF6C2D002010B5044621
:104F000001460C4A012000F051FA002C14BF012187
:104F1000FF21094A13780B4413700AD0074B1B7802
:104F2000012B06D9064B1B781BB9BDE81040FFF7D3
:104F3000A7BF10BDA45F0408782D0020642D0020B9
:104F4000712D002070B5FEF7EBFB124E054633784D
:104F50009BB900F081FC044620B12846FEF7E4FB33
:104F6000204670BD00F092FD0B4B186000F00CFA6B
:104F70000A48FBF78BFE0A4B1C6000F06FFA00F04A
:104F800085FB084B00241860012328463370FEF788
:104F9000CBFBE5E76E2D0020802D0020742D002036
:104FA000882D0020682D002000292DE9F34114BF31
:104FB0000121FF21254A00F1FF30135C0B441354FB
:104FC0003AD0234E3278012A36D9FFF723FF012841
:104FD000044634D81F4FFEF7A3FB3B781BB31E4D8E
:104FE0002B781BB901222A701C4A1370DFF87080DD
:104FF00098F8003033B1019000F0E6FA00230198F0
:1050000088F80030FEF790FB012000F001FBFEF76E
:1050100087FB2B782BB1019000F004FB0023019853
:105020002B7000233B70FEF77FFB3078A04203D04B
:105030002146FFF7F9FE347002B0BDE8F081032A83
:10504000F3D10228F1D100F03BFBEEE7782D0020F0
:10505000642D0020722D00206C2D0020712D002069
:105060006D2D002010B50446FEF75AFB002C14BF2E
:105070000121FF21064A13780B44DBB21370B3FA07
:1050800083F3BDE81040034A5B091370FEF74CBB85
:105090007B2D00207A2D002068B5FEF741FB094BDF
:1050A00006461B78012B04D8FEF73EFB0025284658
:1050B00068BD054B1D6800F0EDFA05443046FEF76B
:1050C00033FBF4E7642D0020882D002007B5FEF7A0
:1050D00027FB0190FFF7D4FE019803B05DF804EBC5
:1050E000FEF722BB38B541600446FEF719FB0546C2
:1050F00021460448FBF7CDFD2846BDE83840FEF7C1
:1051000013BB00BF742D0020054B1B685843054B93
:1051100000F5742000F23F20B0FBF3F0704700BFB1
:10512000802D002040420F002DE9FF47FEF7F8FADE
:10513000044600E000BFFBF703F9002800F09C8064
:105140006D4E6E4F337823B10020FFF7D7FE00235A
:105150003370FFF75FFE0546002800F09580851E3E
:10516000EDB2012D40F29880FFF754FE01288046F1
:1051700004D9634B1B780BB900F0E4F9614DDFF8FB
:10518000A4912878DFF8A0A140450AD0002389F82F
:1051900000309AF8003013B94146FFF745FE85F814
:1051A000008099F800303BB12B78022B04D100230A
:1051B00089F8003038F0B2F8B8F1010F0FD9DFF8F4
:1051C000408198F8003053B94F4B1B7823B900F059
:1051D000F5F901224D4B1A70012388F80030287828
:1051E00000F03EFA9AF8003013B1494B1B782B704F
:1051F00000E000BF2046FEF797FAFEF791FA454B14
:1052000004461A7852B100221A70414B28781B7854
:10521000984203D101212970FFF706FE384600F0BD
:1052200055FBFBF798F8804600288BD1344F89F85E
:1052300000003B789BB1DFF8D4908AF8000099F821
:1052400000301BB100F0C0F989F80080002000F0A8
:10525000DFF9002846D000F0E5F900233B703378F1
:1052600023B10020FFF74AFE002333700021287885
:10527000FFF7DAFD00232B7000E000BF204604B0EA
:10528000BDE8F047FEF750BA3378002B3FF46CAF1F
:10529000FFF734FE357067E7002003A900F098FBA4
:1052A000054600287FF460AF1B4B039A1B689A42A7
:1052B00005D80120FFF722FE0123337054E7174B76
:1052C000D3F8008000F0E6F9039940448842F0D218
:1052D0000223091ACDE9005338462B46104A00F044
:1052E0001DFB41E7012000F0BBF92046FEF71CFA48
:1052F000FEF716FA0446A9E77C2D0020482D002071
:10530000722D0020642D00207B2D00206D2D0020AB
:10531000842D0020702D0020682D0020882D002075
:10532000D94E00087A2D0020712D002010B5FEF70F
:10533000F7F90022044B1C781A70FEF7F5F900F01B
:10534000D1FC2043C0B210BD6F2D002010B5094B19
:105350001B786BB1084C237853B100F063F900233C
:10536000064A237013700123054A1370054A13700F
:1053700010BD00BF642D0020712D0020722D002073
:105380006F2D0020702D002070B50024054D064EB5
:10539000294630460134FBF77CFC0A2C05F1080550
:1053A000F6D170BD8C2D0020DC2D002070B5154687
:1053B00060B1134B013803EB800671B11148FBF764
:1053C0006CFC014618B901220F4B1A7070BD456084
:1053D0003046BDE87040FBF75CBC53F82040002C21
:1053E000F4D0294660683FF0ACFA08B12468F6E7CB
:1053F00021463046FBF759FC21460248E9E700BF49
:10540000E42D0020DC2D0020E02D002073B5114E8E
:1054100004463378834212D000238DF8043080B1E3
:1054200002238DF8053001A8FEF7D2F90A4D40207D
:1054300054B1FFF769FE2B68181A2860347002B067
:1054400070BD8DF80500EEE7FFF75EFE2B6818448F
:10545000F3E700BFA8130020F42D002073B500244B
:1054600001A88DF80440FEF74FFA2046FFF7CEFF63
:105470004FF480102C4B2D491A6F02F007020A607E
:105480002B49D3F8203148664FF40030486601F5C7
:1054900098318969032A01F002013DD003F0070326
:1054A000981E434243412348234D037061B31E4A73
:1054B0003BB9D2F8003103F00303591E4B424B4174
:1054C0000370D2F8003103F00303022B26D0032B24
:1054D00027D0012B18D1FBF76FFBA8B1174B411E4A
:1054E000DC680023024608461946C4F30B04144E38
:1054F000013404EB8404E4FB06013EF0B5FBFFF746
:1055000003FE2B68184428606420FFF7FDFD2B681C
:105510001844286002B070BD0123C4E7FBF7B0FB5C
:10552000DBE7FBF75FFBD8E700800040EC2D0020B5
:1055300000900040F22D0020F42D002000C001401A
:1055400040420F00FEF77CB9074B1A7852B1002297
:105550001A70064A136F23F0070343F00103136721
:10556000FBF714BB704700BFF02D00200080004007
:1055700008B50E4B1B788BB1022000F061FC68B1BE
:1055800000F058FA50B10A4B9A6DD20307D5DB6D83
:105590009B0704D54FF48032064B9A6208BD012266
:1055A000054B1A70FFF7BEF9F4E700BFF22D00209B
:1055B0000040004A0050004AF12D00200122014B1A
:1055C0001A707047F02D002038B50D4B1B7873B161
:1055D0000C4C23788BB90C4B0C4D9A6D12F4803F18
:1055E00006D0DB6D9B0703D54FF48033AB6238BD2B
:1055F000FFF798F94FF48033AB6200232370F6E78E
:10560000F22D0020F12D00200040004A0050004AF9
:10561000034B1B780BB1FFF7EFB90120704700BFB8
:10562000F22D002008B5FEF70CF9094A0949136F5D
:10563000096823F007030B431367074B1B781BB163
:105640004FF48032054B9A62BDE80840FBF79EBAE2
:1056500000800040EC2D0020F22D00200060004A68
:1056600002280AD003280BD001280CD1064A13695E
:1056700023F00403136130BF70470020FEF7B4B875
:105680000020FEF7C9B8704700ED00E04FF4C87085
:10569000FFF73ABD08B5054B187818B1FFF788F940
:1056A00000EBD000024B1B68184408BDF22D00200F
:1056B000F42D00200122014B1A707047F22D0020BA
:1056C000704700230B70704710B500F053FB0A4C75
:1056D0000A4B19682368C31A01B10BB9206010BDC9
:1056E0004A699A423ABF9B1A0022D21A4A6128BFDD
:1056F00000238968F0E700BFFC2D0020102E002059
:10570000C38870B504460D463BB9FFF7C5FC85421A
:10571000064602D2FFF7DAFC35460F4965610B6891
:10572000ABB90C60A36011E0AD1A9A6818466561C8
:105730002AB113465A69AA42F6D950B11A461346FD
:105740008460A36013B15969491B596170BD002081
:10575000F0E70C60F5E700BF102E002038B5134DC0
:105760002B685B6993B1124A022014681C4400F054
:105770000DFB204600F014FB00230E492A680B7035
:10578000D088800709D501230B7038BD022000F0B6
:10579000FDFA022000F04CFBEEE79268002AF4D0FC
:1057A00050690344012BEBD9EFE700BF102E002016
:1057B000FC2D0020042E002070B516469DF8142004
:1057C000C0E903360271049ABDF818300260002265
:1057D000C380826004460D4600F0CCFA3044A061DC
:1057E0003DB9E368656113B120462168984796B1D9
:1057F0003546FDF795FF0646FFF766FF294620462A
:10580000FFF77EFF054B1B68A34201D1FFF7A6FF00
:105810003046FDF789FF002070BD00BF102E00202C
:1058200000220C490B687BB183420AD183687AB1AC
:10583000936083681BB15A6941690A445A61002028
:1058400070471A469B68EEE70028EFD002207047A9
:105850000B60EEE7102E002070B5FDF770FF144EC0
:1058600005463478FCB9134B1C60134B1C60134B7A
:105870001C8000F04DFA012000F088FA00F00BFBCC
:105880000F4B0246186020B92846FDF75EFF232023
:1058900070BD234640F2E7310A483EF0E5F90A4B75
:1058A0001860012333702846FDF74FFF0020EFE713
:1058B000F82D0020102E0020FC2D0020062E0020A8
:1058C0000C2E002018FCFFFF002E00202DE9F041D7
:1058D0000546F8B1FDF724FF0F4F0646FFF7F4FE2B
:1058E0002846D7F80080FFF79BFF044628B13046D2
:1058F000FDF71AFF2046BDE8F081A8453B6803D1BB
:1059000023B1FFF72BFFF2E7002BF0D1022000F0CC
:1059100079FAECE72224EDE7102E002070B586B06E
:1059200015461E460446059180B1FFF7CFFFBDF82E
:105930002C30002202939DF828302046CDE90063E8
:1059400005992B46FFF738FF06B070BD2220FBE714
:1059500038B50C46054698B191B100230B70FDF7A0
:10596000EEFE0121074B1B680BB122781AB1FDF73F
:10597000ECFE002038BDAB4214BF9B682170F3E7FA
:105980002220F7E7102E0020F0B51F46002387B035
:105990000D46164604468DF81730A0B10DF11701DB
:1059A000FFF7D6FF9DF817207AB9BDF834302946A5
:1059B00002939DF830302046CDE900733346FFF75F
:1059C000FBFE07B0F0BD2220FBE70320F9E7000053
:1059D0002DE9F04107468846FDF7B1FE0026054651
:1059E000124B1C6824B92846FDF7AFFE1B2016E0B9
:1059F00063691E44E388BB4215D100F0BBF90C4C2F
:105A00002368C01AB0420CD200F0B4F922683244C4
:105A1000121A2846C8F80020FDF797FE0020BDE8BE
:105A2000F0810022F5E7A468DCE700BF102E00201B
:105A3000FC2D0020014B1878704700BF042E002079
:105A400038B5FDF77CFE054600F094F9044628467B
:105A5000FDF77BFE204638BD70B5FDF770FE0646AB
:105A600000F088F9084B04461D880120ADB200F013
:105A7000E7F918B100F07EF9044601353046FDF72C
:105A800064FE2046294670BD062E0020014B186892
:105A9000704700BF0C2E0020044B1B6858434FF486
:105AA0007A7300F2E730B0FBF3F070470C2E002061
:105AB000012300B58BB08DF80B30FFF7EDFF00230D
:105AC0000146CDE90033074A0DF10B0303A8FFF7A8
:105AD0005BFF18B99DF80B30002BFBD10BB05DF8C4
