S00A00006970722E7333379F
S3150800000000200020211000081D1000081D100008FF
S31508000010C15400081D1000081D1000081D10000816
S315080000201D1000081D1000081D1000081D100008EE
S315080000301D1000081D1000081D1000081D100008DE
S315080000401D1000081D1000081D1000081D100008CE
S31508000050492400081D1000081D1000081D1000087E
S315080000601D1000081D1000081D1000081D100008AE
S315080000701D1000081D1000081D1000081D1000089E
S315080000801D1000082D0400081D1000081D1000088A
S315080000901D100008651500081D1000081D10000831
S315080000A01D10000889160008651600081D100008AE
S315080000B01D100008618A040859940408119404085C
S315080000C00D9404082D8C0408559404081594040806
S315080000D02D94040819940408B994040899940408FA
S315080000E01D1000081D1000081D1000081D1000082E
S315080000F0395300081D1000081D1000081D100008BF
S315080001001D100008E50300081D1000081D10000852
S315080001101D1000081D1000081D1000081D100008FD
S315080001201D1000081D1000081D1000081D100008ED
S315080001301D1000081D1000081D1000081D100008DD
S315080001401D1000081D1000081D1000086B6500082A
S31508000150D57204081D100008CD550408D3550408A7
S315080001601D1000081D1000081D1000081D100008AD
S3150800017010B5054C237833B9044B13B1044800E095
S3150800018000BF0123237010BD742500200000000065
S31508000190587E050808B5034B1BB10349034800E020
S315080001A000BF08BD0000000078250020587E05081D
S315080001B0A3F5803A704700BF174B002B08BF134BB7
S315080001C09D46FFF7F5FF00218B460F461348144A54
S315080001D0121A49F094FE0E4B002B00D098470D4B8F
S315080001E0002B00D098470020002104000D000D4880
S315080001F0002802D00C4800E000BF49F00DFE2000A0
S31508000200290000F0D1FB49F0E1FD00BF000008001D
S3150800021000000000000000000020002074250020D7
S31508000220EC8D0020000000000000000008B5032146
S31508000230802002F0F5FF03214FF4806002F0F0FF02
S3150800024009214FF4C06002F0EBFF09214FF4F0607A
S3150800025002F0E6FF09213E2002F0E2FF09212D20E7
S3150800026002F0DEFF0921512002F0DAFF002008BD66
S3150800027007B501A804F034FC9DF80530012B14D10C
S315080002809DF804308BB94FF48012124B1249586E00
S3150800029003F580535A664B6B23F0E05343F04063F3
S315080002A04B63C3025CBF0D4B5A6604F065FF04F04E
S315080002B0FEFE04F07FFF04F011FF04F045FFFFF790
S315080002C0B5FF04F0F9FE01F0F1F903B05DF804EBAF
S315080002D005F092B9008000500040005A00A0005076
S315080002E008B501F095F900F083FE00F08DFEBDE833
S315080002F0084000F05DB808B505F008FE04F05CFF9C
S315080003001BF025F805F02EF810F056FCBDE808405D
S315080003101BF08AB808B504F0ADFE04F0B1FE04F08F
S31508000320C1FEBDE8084008F003BB00F004B87047FA
S3150800033070477047704708B500F080FDBDE8084073
S3150800034008F092BA012070470120704710B508F0EE
S31508000350A1FA0446FFF7F6FF002814BF204600203E
S3150800036010BD38B505F03CFB044602F051F80428E8
S3150800037010D002284FF0000508BF0124FFF7E4FF5C
S31508000380042809D0022808BF0124002D18BF00241C
S31508000390204638BD0125F1E70024F9E718B1034BDB
S315080003A01860002070472520704700BFEC25002004
S315080003B010B5054C0549206801F038FF2068BDE8EE
S315080003C01040FFF7EBBF00BF2420002000200020CC
S315080003D00CB402B0704700000122014B1A70704736
S315080003E00C26002073B56E460D4C3046214603F0A8
S315080003F0C3FF96E803004FF496620A4D04F50054CD
S3150800040085E803002B6853434FF47A72B3FBF2F383
S31508000410054A13604FF40073636202B070BD00BFF3
S3150800042000400059442600204C2700200222504B49
S3150800043010B55A614F4B504C1B78002B53D0237A7A
S315080004400A2B1ED1D4ED057A9FED4C7A77EE877A82
S31508000450B6EE007A67EE877AC4ED057A0222484B33
S315080004609A61A3F580535A6903F500535A614FF40C
S315080004700032444B1A60012002F036F801236374F7
S3150800048010BD237A092B2ED8237A072B0AD9D4ED47
S31508000490057AF5EEC07AF1EE10FAC1BF01233A4AA1
S315080004A013702374237A0233DBB2237202F04AF8FC
S315080004B06168237A94ED057AB1FBF3F107EE901A99
S315080004C0F8EE677A77EE877AB6EE007A67EE877A7D
S315080004D0B1F5FA7F38BF4FF4FA710020C4ED057AFA
S315080004E002F024F8BAE7237A012B2FD9237A022BB4
S315080004F00CD1D4ED057AF5EEC07AF1EE10FA05D5F1
S31508000500224B1B7813B10122214B1A70237A013B27
S31508000510DBB2237202F016F86168237AD4ED057A05
S31508000520B1FBF3F107EE101AB8EE477A77EEC77A01
S31508000530B6EE007A67EE877AB1F5FA7F38BF4FF4E0
S31508000540FA710020C4ED057A01F0F0FF237A012B39
S3150800055084D1D4ED057A9FED097A77EE877AB6EEDF
S31508000560007A002367EE877AC4ED057A237475E767
S3150800057000600650342600201C26002000000000DB
S315080005800050065000E100E0142600201626002040
S31508000590152600201FB50C214FF4F06002F040FE2E
S315080005A001213D2002F03AFA01213C2002F036FAF8
S315080005B0114A01AB07CA83E8070040F20112184640
S315080005C0ADF80C2001F05CFF01F0BCFF0B4B0020DE
S315080005D059681B7AB1FBF3F101F0A8FF0222084B18
S315080005E09A614FF40032074B1A60012001F07CFF34
S315080005F005B05DF804FB00BFC4CF04081C26002024
S315080006000050065000E100E01FB500F0E5FA39F0A9
S31508000610ADF938F067FC039008B939F0E5F90398A5
S31508000620B7EE000A019038F0DBFDB0EE000A01983B
S3150800063038F0C0FD9FED170A019838F08FFDB0EE2F
S31508000640000A019838F0A0FD0021019838F0F4FD61
S315080006500021019838F0DAFD0521019838F002FEEC
S31508000660039838F0BBFC0C4C206020B903A838F07E
S3150800067091FC39F0B9F903A838F08CFC206838F0F9
S3150800068013FD20B9044838F0E9FC39F0ADF904B097
S3150800069010BD00BFCDCC4C3E1826002013B5012155
S315080006A03A2002F0BBF9012304221846032103F07D
S315080006B091FB002302221846052103F08BFB002438
S315080006C00123052220461146CDE9004303F02AFB03
S315080006D0042220461146012303F07CFB234604220C
S315080006E00721022003F076FB234604220821022074
S315080006F003F070FB234604220921022002B0BDE85C
S31508000700104003F067BB0000F0B5354E93B008AD56
S315080007100FCE0FC50FCE0FC596E80300012600249D
S31508000720032785E8030031463B20CDE90344CDE99C
S31508000730054407948DF80E708DF808608DF8094009
S315080007408DF80A408DF80B4002F068F920464FF400
S315080007502C524FF4285104F069F99022214620467C
S3150800076004F069F931462A2002F058F94FF49663E5
S315080007701C4D0B939DF819302246009328462346B4
S3150800078019498DF824408DF8214003F0CFFD102338
S315080007900A9008AA284605A98DF809308DF8107020
S315080007A08DF80E708DF813608DF8086003F0FCFD67
S315080007B002AA03A9284603F046FD0C4A05F500538C
S315080007C05A6270214FF40032AB6A43F40073AB628D
S315080007D0074BC3F8842183F819135A6013B0F0BD88
S315080007E0D0CF04080040005940420F008F330F80D5
S315080007F000E100E070B52DED028B5B4D5B4C6B7C28
S3150800080086B0002B69D04FF48076594B5949C3F806
S31508000810A060594B186838F063FC584BC3F8A060C1
S3150800082000236B742378002B4FD0554D2B7803F09B
S31508000830FF01002B55D1534E34780C435AD000F0A3
S315080008409FFB00F0B1FBFE2200214F48B0EE408A24
S3150800085049F055FB474ADFED4D6AD2ED017A92ED34
S31508000860027A67EEA67A27EE267A4949494A337804
S3150800087010680A68FCEEE77A01320A60BCEEC77AAD
S315080008800592BCEEC88A6FF03102FE21CDE903025B
S3150800089083F00103404A8DED028A8DED017ACDED94
S315080008A0007A394849F0E8FE33783C4A03F0FF01FC
S315080008B0E3B1002313702B703370334806B0BDECD8
S315080008C0028BBDE8704000F047BA8022344BC3F86B
S315080008D0A02006B0BDEC028B70BD2378002BA4D1F6
S315080008E0F7E72E4B197881F00101A4E7012313706D
S315080008F02970E2E72B4B1A78002AEAD01C7000F020
S315080009003FFB00F051FB2146FE221F48B0EE408A0D
S3150800091049F0F5FA174BDFED1D6AD3ED017A93ED31
S31508000920027A67EEA67A27EE267A194A194BFCEE62
S31508000930E77A19681368BCEEC77A01331360BCEE10
S31508000940C88A05936FF031038DED028ACDE903134A
S315080009508DED017ACDED007A4FF0FF33FE210E4A78
S31508000960094849F089FEA8E71C26002070270020C0
S3150800097000D00350342600201826002000E003503B
S3150800098014260020152600204C26002000007A4454
S31508000990102600204C270020A8CF04081626002081
S315080009A000F003500C2600201FB505F0FBFDFFF7ED
S315080009B075FE00F0CFFA0A23194C237040F6B833B7
S315080009C063600123237205F0B9FB0023E0602374FA
S315080009D063744FF07E536361FFF7DCFD00F044FA61
S315080009E0FFF712FE80220F4BC3F8A020FFF78CFEFC
S315080009F04EF6602003A905F0F5FB034630B9CDE9AC
S31508000A000000094A0399094805F03BFB05F0D7FDA4
S31508000A1000F052FAFFF7EEFE04F0E0FEF6E700BF3C
S31508000A201C26002000D00350D9030008F02500201A
S31508000A3008B500F0FDF94FF4FA611DF0C7FE38B9A4
S31508000A4000F0F6F9BDE808404FF000011DF0E9BED8
S31508000A5008BD01207047000070B5A4B000F0E8F9A1
S31508000A60052107F0EBFA7822002106A849F047FA93
S31508000A70274B284A1C93BDF88C30106843F4C07382
S31508000A8043F00103ADF88C306B465168082203C366
S31508000A9069460DF1590049F00BFA02AA15469DF868
S31508000AA08C3043F010038DF88C301B4B03F1100685
S31508000AB0144618685968083303C4B3422246F7D166
S31508000AC0102229460EA849F0F3F99DF88C301348F0
S31508000AD043F004038DF88C3049F00CFE10280246CA
S31508000AE005D974210E4B0F4A0F4849F049F90B49AD
S31508000AF012A849F0DDF99DF88C3043F008038DF80B
S31508000B008C3000F095F906A91DF046FE24B070BD9C
S31508000B10ADDE0F002BD0040834D0040828210020AD
S31508000B20F8CF040845D004081BD004087047000015
S31508000B309FED010A704700BF405DC64B08200A4B6F
S31508000B4070B5186700BF0C46084E8D18AC4203D125
S31508000B500822074B1A6770BD2178304602F09AFFC3
S31508000B6004F8010BF2E700BF00E003500000015B48
S31508000B7000D0035070B50D4605F0E0FA06460B4C5A
S31508000B80636C9B0604D405F0D9FA831BAB4203D3E6
S31508000B90606CC0F3401070BD72B6636C9A0600D4E0
S31508000BA030BF62B6BFF36F8FEAE700BF00C00350DD
S31508000BB01022034B05201A6408221A6700F010B8A1
S31508000BC000E003501022034B05201A6408221A6716
S31508000BD000F006B800D003500048704760D00408FB
S31508000BE080B205F0E3BA08B505F0A8FABDE80840F2
S31508000BF005F016BB2DE9F3411646802207460D4639
S31508000C00374B06F11004C3F8A020364A06F1200C2B
S31508000C10234603CB6345106051601C4602F1080267
S31508000C20F6D128461DF064FD0021804638461DF0A1
S31508000C3031FD044690B34423022229461DF039FDAE
S31508000C4028461DF066FD019028461DF05BFD0199BA
S31508000C50024620461DF044FD20461DF047FD284665
S31508000C601DF0C3FD1F2301461F4A28461DF0C1FD7E
S31508000C70B8F1010F1CD11D4B19680846019149F0BE
S31508000C8039FD019982B220461DF0B1FD034610BB1D
S31508000C903246214638461DF06DFDE0B90122144B57
S31508000CA01A708022134BC3F8A02002B0BDE8F08169
S31508000CB0114B19680846019149F01CFD019982B249
S31508000CC020461DF094FD0546852120461DF015FD9C
S31508000CD00DB92B46DCE720461DF085FDDEE700BF93
S31508000CE000D003505027002071270020382100200B
S31508000CF07027002000E003503C210020F8B580262C
S31508000D00104C114D04F58053C3F8A0600F4F00F046
S31508000D108FF841F233611DF021FD2F6000F088F84D
S31508000D200B4B0C220B49A86038466B6004F500543F
S31508000D3049F0E8FC00F07CF829461DF015FDC4F8DA
S31508000D40A060F8BD00C0035060270020ADD004089D
S31508000D50F50B00089CD004088022F0B5304B93B000
S31508000D60C3F8A02003AA054617462E4B03F1100622
S31508000D70144618685968083303C4B3422246F7D1A3
S31508000D8000F056F800211DF085FC044603220021D8
S31508000D901DF08DFC022120461DF0A4FC20462249A8
S31508000DA01DF0A2FC60B1002C36D11D4B4FF4007229
S31508000DB0C3F8A02080221D4BC3F8A02013B0F0BDB5
S31508000DC0284649F097FC86B25EB120461DF08EFC97
S31508000DD00028E8D13246294620461DF008FD00289D
S31508000DE0E1D12C22002107A80BAD49F088F897E835
S31508000DF00F0085E80F0041F23363ADF83E3000F08E
S31508000E0017F800232146CDE9003307AA1DF086FC12
S31508000E100028C8D1054BC9E720461DF0E4FCC4E705
S31508000E2000D00350502700207127002000E003500F
S31508000E30014B1868704700BF9427002008B51DF0BD
S31508000E40B2FC054B186028B93321044B044A0548FF
S31508000E5048F096FF08BD00BF94270020B9D00408C3
S31508000E6041D10408C3D0040810B50E4CFFF7E0FDC5
S31508000E70FFF7F2FD012120681DF09CFC28B14421F2
S31508000E80094B0A4A0A4848F07BFF012120681DF0F1
S31508000E90D9FC18B14521074B044AF3E7BDE81040D1
S31508000EA0FFF72CBF94270020D1D0040838D10408B6
S31508000EB0C3D0040803D1040810B5054C20681DF0FA
S31508000EC09AFC206807F040FDBDE81040FFF72EBEEB
S31508000ED09427002010B588B002AC02228DF80700CE
S31508000EE00021204649F00BF80B4B03A903930DF19B
S31508000EF0070304930123ADF8143002234FF0B640DC
S31508000F000694ADF81C3000F02FFABDF8080040BA78
S31508000F1080B208B010BD00BF880004007FB50C4B36
S31508000F208DF8000001930323ADF80C3000238DF8EB
S31508000F3001104FF0B64001A98DF80220CDF808D06F
S31508000F400493ADF8143000F00FFA07B05DF804FB0F
S31508000F508800010008B50022C6210120FFF7DEFF40
S31508000F60BDE808400022C0210220FFF7D7BF08B518
S31508000F700120FFF7AFFF80F08000C0F3C01008BD66
S31508000F8010B50024FFF7F3FF01340128E4B206D1B7
S31508000F90FF2CF7D10120BDE81040FFF79BBFFF2CBF
S31508000FA0F8D00020F7E70000F8B50446000B48F033
S31508000FB08DFC41EC100B4AF0CBF9C4F30B0057EC4F
S31508000FC0106B48F093FC002204460D46304639461D
S31508000FD0064B4BF01DFD02460B46204629464BF0B4
S31508000FE017FD48F0EDFC00EE100AF8BD000024409D
S31508000FF008B53A20012101F011FDBDE80840014875
S3150800100000F03CB940210020024B0349186800F063
S31508001010B1BC00BF7421002054210020FEE7000067
S3150800102008B500F02DF8124B12498B4212D3002056
S31508001030114B12498B4218D3FFF7BEF8186850F8BF
S315080010402240586840F82240013298688242F5D317
S315080010500C33EAE70022F8E71C6844F8220001325C
S315080010605C68A242F8D30833E4E70022F8E700BF39
S31508001070607E05086C7E05086C7E05086C7E050892
S315080010804FF480414FF0FF30114B124A10B59A6069
S31508001090D3F8882042F47002C3F888200E4A916675
S315080010A00E4901F5005210660D4850660220C3F835
S315080010B0D000BFF34F8FBFF36F8F01244FF4403337
S315080010C00848C0F88041D36004600B6110BD00BFBA
S315080010D000ED00E000000008009000500080004489
S315080010E0F7FF370000E100E0014B1868704700BFC2
S315080010F07C210020084B1B6F03F00703022B04D04A
S31508001100032B05D0012B05D0FEE7044B1868704762
S31508001110034BFBE703487047008000507C21002002
S3150800112080210020002D310108B5FFF7E3FF054BAC
S315080011301B6FC3F303330133B0FBF3F0024B1860A4
S3150800114008BD00BF00800050782100200048704785
S3150800115000B4C404014B1868704700BF8021002002
S31508001160054B1860054B1B6F03F00703032B01D1D2
S31508001170FFF7DABF704700BF8021002000800050CB
S315080011800020704700487047002D31014FF0B443E6
S315080011909868C0F304400C2822D8DFE800F009213B
S315080011A021212121071719211B1D1F000F487047F0
S315080011B09B6803F04073B3F1807F13D0B3F1007FCF
S315080011C012D00B4A002B08BF1046704709487047D3
S315080011D009487047094870470948704709487047E1
S315080011E0002070470848704708487047405DC600A9
S315080011F000093D000024F400C0EA210180BA8C01F0
S315080012000048E801005A620280841E0040420F002E
S315080012104FF4004070474FF47A707047014B1868D6
S31508001220704700BF842100200023036070470368CD
S315080012300B60016070470346006818B102681A60BF
S31508001240002303607047036803B970478B4202D1D5
S315080012500B68036070471846F5E7000005490A68F9
S315080012601318054883428CBF4FF0FF320B601046B7
S31508001270704700BF88210020000004202DE9FF41A7
S3150800128003680446B3F1B64F04D0354A934251D1A8
S315080012902F2000E02E20012101F0C0FB01230A22A5
S315080012A06179207902F096FD01230A22E179A07975
S315080012B002F090FD092701262A4D4FF030082279C1
S315080012C0637908FB025206FA03F302F5015213602A
S315080012D0642005F07FF92379627908FB035306FA3F
S315080012E002F203F5825364201A6005F073F9013F90
S315080012F0E3D12068B0F1B64F1FD10323C5F8E8340F
S315080013006279237943EA0243C5F8EC34E279A37992
S3150800131043EA0243C5F8F03440F20113ADF8003051
S31508001320E36869460293A3680193237C8DF80C3021
S3150800133002F0D6FD04B0BDE8F081094B9842EBD126
S315080013400323C5F8F8346279237943EA0243C5F8DA
S31508001350FC34E279A37943EA0243C5F80035DBE7B2
S315080013600080065000C0035038B5054602F0E6FE78
S31508001370044C012801D1013C00D138BD284602F0B1
S31508001380D1FDF6E7E193040038B5124B05461B7804
S31508001390DBB1E0B102F0B3F90F4A00231146147B22
S315080013A054B92B6001251A0101EB03131D738C50E8
S315080013B002F0ABF9204638BD0133082B02F11002C2
S315080013C0EDD102F0A2F90548F5E70548F3E7054827
S315080013D0F1E700BF9829002018280020048000F0B3
S315080013E0028000F0018000F0154B13B51868002341
S315080013F001908DF8043002F082F9124B1C7824B162
S3150800140002F083F9104802B010BD01221A7002F0EA
S315080014107CF90E4B01A81C731C7783F82C4083F8C3
S315080014203C4083F84C4083F85C4083F86C4083F872
S315080014307C4008238DF8073003F04CFA2046E2E793
S3150800144057D1040898290020038000F018280020A6
S315080014500A4A08B512785AB107280BD8084A02EB87
S3150800146000131B7B43B1002103F026FA002008BDB8
S315080014700448FCE70448FAE70448F8E798290020F6
S3150800148018280020028000F0018000F0078000F094
S315080014900A4A08B512785AB107280BD8084A02EB47
S315080014A000131B7B43B1012103F006FA002008BD97
S315080014B00448FCE70448FAE70448F8E798290020B6
S315080014C018280020028000F0018000F0078000F054
S315080014D00D4B1B7893B1072812D889B10B4B03EB38
S315080014E000131B7B73B10A4BDA6A012303FA00F077
S315080014F010401ABF00200B700870704705487047E7
S315080015000548704705487047982900201828002084
S3150800151000000450028000F0018000F0078000F00F
S315080015200B4A10B512780C4662B107280CD859B187
S31508001530084A02EB00131B7B43B103F0FDF9206058
S31508001540002010BD0448FCE70448FAE70448F8E719
S315080015509829002018280020028000F0018000F059
S31508001560078000F02DE9F843174B1F6D5B6D1F4090
S3150800157000D5FEE701260025144CDFF85480DFF875
S315080015805490374217D02368C8F850609BB1A168B9
S31508001590284601316268A1609847637B012B0AD10E
S315080015A048B909EB45131A7B60F341021A731A7F8F
S315080015B060F341021A770135082D4FEA460604F111
S315080015C01004DED1BDE8F883000004501828002076
S315080015D0002004509828002070B5044601250B4EBB
S315080015E004B970BD94FAA4F0B0FA80F005FA00F3D5
S315080015F006EB001224EA03045368002BF0D0117B93
S3150800160011B191689847EBE79847E9E79C290020CC
S3150800161008B5192002F07CF828B14FF00072074B84
S31508001620C3F880211A601A2002F072F828B14FF028
S315080016308062024BC3F880211A6008BD00E100E011
S3150800164038B505460C4602F05AF80022044B03EB5F
S3150800165005135C601A73BDE8384002F056B800BF3F
S315080016609C290020074BD3F82404D3F8202403F53B
S315080016700053104000F0553020F05020C3F82004E5
S31508001680FFF7AABF00C00350074BD3F82404D3F8CA
S31508001690202403F50053104000F0AA3020F0A020C3
S315080016A0C3F82004FFF798BF00C00350024B19681F
S315080016B0024B18683FF018BB902100208C210020AF
S315080016C07047000037B5920004460D4601924BF06C
S315080016D05BFC431C0BD060B929462046019A48F0AA
S315080016E0D7FB0028044808BF002003B030BD0348D4
S315080016F0FBE70348F9E700BF10E000F021E000F03F
S3150800170024E000F013B5044601A803F0E9F99DF8B2
S315080017100630012223804FF4807300206380054B36
S315080017209B680A3303F01F0302FA03F3636002B0EF
S3150800173010BD00BF0080E00F03F02CB908B503F018
S3150800174019F9002008BD10B5044644EA010313F050
S315080017500303084609D1934201D1002010BD54F86D
S31508001760231040F823100133F5E72146920048F08C
S315080017709FFBF2E710B504464BF00EFC431C15D050
S31508001780B0B90C4B20469B680A3303F01F020123AD
S31508001790934023F003032344984201D1002010BD4F
S315080017A050F8042B0132F7D00348F8E70348F6E768
S315080017B00348F4E70080E00F0EE000F021E000F0B7
S315080017C024E000F008B501F08BFF014B186008BD56
S315080017D030320020014B186801F086BF30320020F5
S315080017E00A460139014403F019BE2DE9F3410446BE
S315080017F00B46E27B94F80BC0007A677AA57A217BC0
S3150800180094F80D80A67B84F844C084F84520002B04
S315080018103DD0237F0BBB0422019302F0DBFA019B28
S3150800182001224146384602F0D5FAA27F3146012AFE
S315080018308CBF0123019B0422284602F0CBFAE37FE2
S315080018403BB90123042294F8451094F8440002F0A9
S31508001850C1FA002002B0BDE8F0810023012202F09F
S31508001860B9FA002304224146384602F0B3FAA37FA8
S315080018700222012B94BF002301233146284602F099
S31508001880A9FAE37F002BE4D101230222DBE7022237
S31508001890019302F09FFA019B02224146384602F064
S315080018A099FAA27F3146012A8CBF0123019B0222A5
S315080018B0284602F08FFAE37F002BCAD11A46C2E700
S315080018C001292DE9F84326D8244B254E1C68254FB7
S315080018D0DFF89C807C3C14F17C0F01D1BDE8F883CD
S315080018E0D4F800900521484602F0CAF81E4B9945DF
S315080018F00FD01E4B99450CBF3D46454601F0F0FEFC
S315080019002B6843F018032B6001F0EEFEE46F7C3C75
S31508001910E1E73546F2E702390129DFD80F4B104EC9
S315080019201C68104FDFF848807C3C14F17C0FD5D03A
S3150800193023680D4A93420FD00C4A93420CBF3D468A
S31508001940454601F0CDFE2B6823F018032B6001F005
S31508001950CBFEE46F7C3CE8E73546F2E7E43200204C
S3150800196094C40350B4C403500000015B00000A503D
S3150800197074C403502DE9F0410B68844A8EB0934233
S3150800198005460C460DF1180803D0814A934240F0EB
S31508001990E58047467F4ECDF814800FCE0FC796E8F0
S315080019A00F00103687E80F000FCE01AF0FC7002DC6
S315080019B000F0D280002780220021284648F09FFAAE
S315080019C02268724BAF659A4240F08E8056232B658B
S315080019D04FF47023DFF8EC81C5E90B830123A44695
S315080019E085F85C302E1D2A60BCE80F000FC69CE8FF
S315080019F00F0086E80F00637E012B08BF8DF81D30A7
S31508001A00A37E002B40F08E80227E8DF81230012AAC
S31508001A10E36840F092806049059A8B428CBF0423A4
S31508001A200523537700238DF811305C4B01213A20AA
S31508001A30039300F0F3FF0121286D00F0EFFF2369FF
S31508001A40DA1F092A53D8063B8DF81030237E2BB9A6
S31508001A50E37EB3FA83F35B098DF81C30012128462F
S31508001A60FFF7C3FE0646002842D1227A237943EAC5
S31508001A7002437A0102F1A04202F57032C2F8AC3490
S31508001A80637A617941EA0341C2F8A414A07AA1797C
S31508001A9041EA0041C2F8A814E37E002B40F03F81DA
S31508001AA0E17AE37943EA0143C2F898341D23C2F880
S31508001AB09434206801A902F06BF801F020FE384B37
S31508001AC01A78002A3DD101221A7001F01EFE04F090
S31508001AD01DFAFFF789FC002105F12400FFF754FCE5
S31508001AE0014688B32F4E03E0294B9A4210D02E4E5A
S31508001AF02E4B1B681BB92E492E4803F04DFE2B486A
S31508001B0005F17C01FFF793FB30460EB0BDE8F08186
S31508001B1057232B654FF48013DFF8ACC00127C5E9BE
S31508001B200BC35BE7012B01D104236DE7022B3FF4BE
S31508001B306BAF032BDBD1062366E700228DF8342032
S31508001B4074E701F0E2FDC4E705F12800FFF71CFC85
S31508001B5006460028CCD0C5E7174EC9E74646174FB4
S31508001B600FCF0FC697E8070086E80700002D00F09C
S31508001B70D48080220021284648F0C1F90023226833
S31508001B800F49AB658A4221D0074EBDE70000015BCD
S31508001B9000000A5080D104083F4B4C0040420F0019
S31508001BA0F0320020092000F0022000F0E432002084
S31508001BB0B0210020E8320020012000F0B4D104084A
S31508001BC000C0055001000F000100100029212965F9
S31508001BD04FF480212746534E85F85C30C5E90B61E2
S31508001BE02E1D2A600FCF0FC697E80F0086E80F0054
S31508001BF0637E012B08BF8DF82630A37E002B66D1A5
S31508001C00ADF82830237E0121012B03BF00238DF870
S31508001C1025304FF47A73E3683A20089300F0FEFE05
S31508001C200121286D00F0FAFE23691A1F0C2AABD889
S31508001C30033B414620688DF8243003F049F8A36930
S31508001C4023F47F0323F47F4323B92A68936843F474
S31508001C5080339360237A2079617940EA0340637A76
S31508001C60A27941EA0341E67EA37A42EA03422E4B71
S31508001C70002E3CD11D26C3F82067C3F83807C3F8E1
S31508001C803017C3F83427E17AE27942EA0142C3F809
S31508001C90242701212846FFF7A8FD064600287FF4D9
S31508001CA033AF01F02CFD214B1A7852BB01221A7072
S31508001CB001F02BFD04F02AF9FFF796FB002105F148
S31508001CC02400FFF761FB0146F0B1194E1CE7012B12
S31508001CD002D14FF4007393E7022B02D14FF48073BD
S31508001CE08EE7032B7FF450AF4FF4407388E71C242C
S31508001CF0C3F82047C3F83807C3F83017C3F83427A2
S31508001D00C7E701F002FDD7E705F12800FFF73CFB1E
S31508001D10064600283FF4F8AED7E7064EF4E61C233D
S31508001D20C5E600BF0200040000C00350F0320020E0
S31508001D30092000F0012000F038B141B1013AB2F5AE
S31508001D40006F044838BF00207047034870470148B1
S31508001D50704700BF037000F0027000F038B5044603
S31508001D600D4601F0CCFCA3889BB223B92B6001F089
S31508001D70CCFC064838BD142263889BB202FB034498
S31508001D8008342C6001F0C1FC0020F3E70B7000F06A
S31508001D901FB504460B46C07EE17F002B39D00123D0
S31508001DA0042202F017F80123022294F82010207F5B
S31508001DB002F010F894F83530022B19D100230122CD
S31508001DC094F82110607F02F005F80023042294F8A5
S31508001DD02210A07F01F0FEFF012394F82120019331
S31508001DE01146607F009301F09DFF002004B010BDEE
S31508001DF0032BFAD10023012294F82110607F01F009
S31508001E00E9FF0023042294F82210A07F01F0E2FFE4
S31508001E10EBE71A46039301F0DDFF039B94F82010C5
S31508001E201A46207F01F0D6FF94F83520039B022A34
S31508001E3012D11A4694F82110607F01F0CBFF039B5C
S31508001E4094F822101A46A07F01F0C4FF039B94F869
S31508001E50212001930123C3E7032AC6D11A4694F821
S31508001E602110607F039301F0B5FF039B1A46CAE76A
S31508001E7090F83530022B0DD114223023417F90F88B
S31508001E80210013FB0123044A9B5823FA00F000F0B3
S31508001E90010070470020704730C00350002313B577
S31508001EA01D4A52F8044B94F8211081420ED0013392
S31508001EB0042BF6D102B010BD0028FBD19DF80730DF
S31508001EC0002BF7D0A068FFF7C3FAF3E794F835308C
S31508001ED0022BEFD12046FFF7CBFF637E2076022B3D
S31508001EE0E8D194F8323003F0FF02002BE2D1A06863
S31508001EF00DF107018DF80720FFF7EAFA237E1BB1DB
S31508001F0094F83330002BD7D00023A06884F83330F8
S31508001F10FFF7BEFACEE700BFF4320020104930B50D
S31508001F200B78104A2BB9C2E90033C2E90233012300
S31508001F300B700C4C0023214651F8045B854208D0EF
S31508001F400133042BF8D1002154F8043B1BB942F89D
S31508001F502100002003E001310429F5D1024830BDF3
S31508001F6004330020F4320020027000F010B5044655
S31508001F70FFF73AFA002104F10800FFF705FA0146CF
S31508001F8020B904F10C00FFF7FFF900B1004810BDB5
S31508001F900E7000F010B590F83630044663B9042286
S31508001FA003685A619A699207FCD523790C4AB933B2
S31508001FB05B011021995010BD022BFCD10068836C7F
S31508001FC0DB074CBF0521062101F05AFD237941F2B2
S31508001FD094425B0103F1A04303F57033E9E700BFC0
S31508001FE000C0035090F8363013B9036898697047F3
S31508001FF0022B06BF0368986C002070472DE9F34151
S31508002000984600230546806A0E4684881746A4B279
S31508002010CDE900333CB16946FFF7A0FE01A90446A5
S31508002020E868FFF77DFA009B73B16CB95A680199A5
S315080020301B68521A3A60C8F8001028463360FFF742
S31508002040D1FF02B0BDE8F0810023C8F800303B603C
S31508002050F3E70000F8B507460D461646FFF76CFE8F
S3150800206000286BD1152001F061FB0446FA6A9388B3
S315080020709BB213B197F83230E3B197F83630F3B91B
S315080020803B689C6904F002041CB93846FFF782FFD6
S315080020900024012387F8343097F83630CBB92E441C
S315080020A0B542386810D183699A06FCD51CB300245A
S315080020B02046F8BD002CDAD0FFF754FAD6E7022BF3
S315080020C0E3D13B689C6CDDE715F8011B02F056FE70
S315080020D0E6E7022BEAD12E44B542386806D142F229
S315080020E02003826C33EA0202FBD1DFE715F8011BF5
S315080020F001F0CBFCF0E797F8363053B910213B795D
S315080021000F4A03F239135B01D15008223B685A6122
S31508002110CEE7022BCCD13868836CDB074CBF09218C
S31508002120214601F0ADFC42F2944210213B795B0155
S3150800213003F1A04303F570339950B9E70446B7E7AE
S3150800214000C0035010B5044680B190F832302BB960
S31508002150FFF78EFE10B9A068FFF77AF9002094F809
S3150800216032300133DBB284F8323010BD0048FCE768
S31508002170027000F010B50446A0B190F832309BB159
S3150800218090F83230012B05D1FFF772FE10B9A0681E
S31508002190FFF77EF9002094F83230013BDBB284F871
S315080021A0323010BD0148FCE70148FAE7027000F03A
S315080021B0057000F037B590F835500446022D1DD14C
S315080021C0012290F82230457E817F9A403020164BB6
S315080021D025B900FB013303F5015305E0012D07D1AD
S315080021E000FB013303F582531A60002003B030BDAB
S315080021F0247E00FB0133002CF4D1ECE7012DF4D149
S31508002200037E73B911238DF80730FFF79BFF2A4623
S3150800221020460DF10701FFF71DFF2046FFF7AAFF2D
S31508002220E3E71323EFE700BF00C003502DE9F043AF
S315080022300446704F89B001AE0D460FCF0FC697E81A
S31508002240070086E80700002C00F0D28025B96A4E00
S31508002250304609B0BDE8F0835C220021204647F0ED
S315080022604EFE00232046A363FFF758FE06460028C5
S31508002270EED14FF001092B7D84F835302B6884F8B0
S31508002280360023602A7BC4F8589022715B4A934231
S31508002290DDD1292363624FF4802359498046C4E976
S315080022A00413D5E90723A26210805080908084F831
S315080022B03000E3621880588098806B6884F8310093
S315080022C00393EB8984F83300ADF814302B8A49461A
S315080022D0ADF81230AB7C3A208DF81030EB7C494FC4
S315080022E08DF8163005238DF8113000F097FB494616
S315080022F0606A00F093FB286801A98DF8046002F073
S3150800230087FC14212B7B03F139025201B9502E7A2E
S31508002310A87A07EB431346EA0042C3F83827697AD6
S31508002320EA7A41EA024CC3F830C7E676E0772177C5
S3150800233084F820206B7D49466377AB7D204684F878
S315080023402130EB7DA3772B7E84F82230FFF720FD22
S31508002350064600287FF47CAF01F0D1F92B7D814633
S31508002360032B33D102212A7B02F1B9035B01F95011
S31508002370042107EB421741F22C722B6803F58053B0
S31508002380D965297EEB7D43EA0143BB50AA7D6B7D67
S3150800239043EA024341F22872BB504FF0FF322868E5
S315080023A000F500539A642B7D032B0CBF05210421ED
S315080023B002F0FCFB4FF440622B6820465A61FFF797
S315080023C0D5FD0646484601F0A0F941E7022BE4D1BF
S315080023D094F821000C49FFF733F9FFF719F94FF480
S315080023E000732046238384F81A80FFF7E3FED4E7B8
S315080023F0064E2DE7D0D10408037000F000C0055042
S315080024000200040000C003509D1E0008027000F080
S315080024100B4B30B51B7883B10120002305460949CB
S3150800242051F8042B2AB192F85840022C04BF2046D2
S3150800243095650133042BF3D130BD0120FCE700BFBD
S3150800244004330020F4320020054B5B69DB0605D512
S315080024501022044B5A610122034B1A70704700BFC1
S315080024600080045000A0045005330020034B5A682E
S3150800247012B19A6A002AFAD1704700BF0040065086
S31508002480426810B5B2FA82F2144CC2F11F016368B1
S315080024900BB1FFF7EBFF0122114B5A60636813F08B
S315080024A00203FBD1027A002A14BF022400244278D0
S315080024B042EA0112094922438A60427A0124002A23
S315080024C018BF0223827A13434B62064B5C6003787B
S315080024D013B1FFF7CBFFCC6010BD00BF004006501C
S315080024E0006006500050065008B50D4B5A6802B9F0
S315080024F038B15B680BB1FFF7B9FF18B10122094B78
S315080025005A6008BDFFF7B2FF02230549CB60FFF703
S31508002510ADFF0122044B5A604B689B07FCD4F0E7D9
S31508002520004006500050065000600650044B9A6A58
S31508002530D006FCD419639A6AD206FCD4704700BF49
S315080025400040065008B5FFF791FF02230449CB6007
S3150800255000230B62FFF78AFF0123CB6008BD00BF8B
S3150800256000400650044BD3F88420D206FBD4D3F897
S315080025708400C0F3811070470040005038B5174BEF
S315080025800546D3F820310C4603F00703013B052B1B
S3150800259020D8DFE803F0030B130F171BFEF7A4FD83
S315080025A0052305B1286004B1236038BDFEF7D2FDC6
S315080025B00323F6E7FEF7EAFD0723F2E7FEF7E2FD57
S315080025C00223EEE7FEF790FD0623EAE7FEF7C2FDD3
S315080025D00423E6E700231846E3E700BF008000501F
S315080025E038B5174B0546D3F828310C4603F00703D0
S315080025F0013B052B20D8DFE803F003131B0F0B174D
S31508002600FEF772FD052305B1286004B1236038BDC5
S31508002610FEF76AFD0623F6E7FEF7B8FD0723F2E79D
S31508002620FEF798FD0323EEE7FEF794FD0423EAE799
S31508002630FEF7A8FD0223E6E700231846E3E700BFF6
S315080026400080005073B50D460021114B0191D3F857
S315080026508041064604F00304022C13D0032C0CD048
S31508002660012C13D101A8FFF789FF10240EB1019B95
S31508002670336005B12C6002B070BDFEF787FD0724F4
S315080026800190F3E7FEF77EFD0190EFE70C46EDE7D4
S3150800269000800050002337B50193154B0546D3F843
S315080026A020320C4603F00703013B032B1ED8DFE854
S315080026B003F0020E1318002101A8FFF791FF122359
S315080026C00DB1019A2A6004B1236003B030BDFEF74C
S315080026D05DFD07230190F3E7FEF79AFD0A230190B3
S315080026E0EEE7FEF79BFD09230190E9E70023E7E7FC
S315080026F00080005038B5104B0546D3F840310C46DB
S3150800270003F00303022B0BD0032B0DD0012B0FD1A3
S31508002710FEF77EFD0A2305B1286004B1236038BDA3
S31508002720FEF77CFD0923F6E7FEF775FD0C23F2E7B5
S3150800273000231846EFE700BF00800050002337B596
S315080027400193164B0546D3F860320C4603F007038F
S31508002750013B032B1FD8DFE803F0020E19140021F2
S3150800276001A8FFF70BFF10230DB1019A2A6004B1E7
S31508002770236003B030BD002101A8FFF7BBFF11237A
S31508002780F2E7FEF703FD07230190EDE7FEF7FAFCF3
S3150800279002230190E8E70023E6E700BF0080005027
S315080027A0002337B50193164B0546D3F894320C46E9
S315080027B003F00703013B032B1FD8DFE803F0020EE3
S315080027C01914002101A8FFF7D9FE10230DB1019AAB
S315080027D02A6004B1236003B030BD002101A8FFF7C9
S315080027E089FF1123F2E7FEF7D1FC07230190EDE7F5
S315080027F0FEF7C8FC02230190E8E70023E6E700BFDE
S315080028000080005038B5134B0546D3F800320C4605
S3150800281003F00703013B032B18D8DFE803F0020A8D
S315080028200E12FEF7F5FC0A2305B1286004B12360F1
S3150800283038BDFEF7F3FC0923F6E7FEF7ECFC0C239C
S31508002840F2E7FEF771FC0F23800AEDE7002318462E
S31508002850EAE700BF0080005038B5134B0546D3F8A9
S3150800286008320C4603F00703013B032B18D8DFE8B0
S3150800287003F0020A0E12FEF7CBFC0A2305B1286004
S3150800288004B1236038BDFEF7C9FC0923F6E7FEF755
S31508002890C2FC0C23F2E7FEF747FC0F23800AEDE79C
S315080028A000231846EAE700BF0080005038B5104BF1
S315080028B00546D3F840320C4603F00303022B0BD02F
S315080028C0032B0DD0012B0FD1FEF7A2FC0A2305B16D
S315080028D0286004B1236038BDFEF7A0FC0923F6E79B
S315080028E0FEF799FC0C23F2E700231846EFE700BF32
S315080028F00080005038B5104B0546D3F860310C46B9
S3150800290003F00303022B0BD0032B0DD0012B0FD1A1
S31508002910FEF77EFC0A2305B1286004B1236038BDA2
S31508002920FEF77CFC0923F6E7FEF775FC0C23F2E7B5
S3150800293000231846EFE700BF0080005070B5054633
S3150800294014460E4600F0CCFE296881EA040202EA23
S3150800295006044C402C60BDE8704000F0C5BE00007F
S31508002960B0F5207F1FD009D8B0F5007F15D003D861
S3150800297068B1B0F5C07F0AD000200CE0B0F5607FE2
S31508002980FAD10B4BD3F88000C0F3011003E0084BD3
S31508002990186FC0F3033001307047054BD3F8900029
S315080029A0C0F30460F7E7024B186FC0F38020F2E724
S315080029B00080005002464FF48030104B10B59866E0
S315080029C00020FFF7CDFF504341F671320C4BDC690E
S315080029D0DA635A6804F4803422F4401259B9094972
S315080029E088428CBF4FF480100020104358600CB109
S315080029F00022DA6310BD0449F2E700BF00900050D8
S31508002A0000000350005A6202002D310108B5FEF796
S31508002A109DFBBDE808400021FFF7CCBF430905D060
S31508002A20012B0DD0022B094B18BF002300F01F0005
S31508002A3041B103F58053012202FA00F0186070478D
S31508002A40034BF3E703F50053F5E700BF6880005032
S31508002A50648000501FB5002280280446019200F0C9
S31508002A60BA8048D8002800F0BA80A0F120043D2C8E
S31508002A7054D83D2C52D8DFE814F0B200BE00B2009C
S31508002A80BE00D700D700D700D700D700BE00E100A8
S31508002A905B00F70081005B00BE00BE00BE0051006F
S31508002AA05100510051005100510051005100BE0023
S31508002AB0BE00BE0089000101BE0051005100510050
S31508002AC05100510051005100510051005100510070
S31508002AD051005100D700B200B200B200FC005B0002
S31508002AE05B00060198006C00DC00510051005100A3
S31508002AF051005100A900B0F5B06F00F09F802DD8A5
S31508002B00B0F5207F77D00CD8B0F5C07F67D0B0F588
S31508002B10007F67D0B0F5807F00F09580019804B0FB
S31508002B2010BDB0F5607F6CD00DD8B0F5407FF5D1FB
S31508002B30FEF7FAFA02464FF42070FFF711FFB2FBD0
S31508002B40F0F0400849E0B0F5806F6DD0B0F5A06FA1
S31508002B50E4D1002101A8FFF79DFDDFE7B0F5106F6E
S31508002B6000F0878017D8B0F5E06F00F087800AD8A4
S31508002B70B0F5C06F78D0B0F5D06FCFD1002101A8DD
S31508002B80FFF740FECAE7B0F5F06FC7D1002101A8EC
S31508002B90FFF7B0FEC2E7B0F5406F4AD013D8B0F5DC
S31508002BA0206F70D0B0F5286FB8D10021384B03914B
S31508002BB0D3F8703203F00303012B02D103A8FFF701
S31508002BC099FD039B49E0B0F5486FA7D1002101A8FC
S31508002BD0FFF7E6FDA2E7FEF78DFA01909EE7FEF7FE
S31508002BE0A3FAFAE7FEF786FA02462046FFF7B8FE8A
S31508002BF0B2FBF0F0F1E7FEF797FA02464FF42070C1
S31508002C00F4E7234BD3F8803003F00303012B04D0F9
S31508002C10022B06D04FF46070E8E7FEF76BFA02461F
S31508002C20F8E7FEF7B3FAFAE7002101A8FFF7A6FCD2
S31508002C3074E7002101A8FFF7D3FC6FE7002101A87C
S31508002C40FFF700FD6AE74FF0E02302921B695B0776
S31508002C5005D5FEF769FA0290029B01935EE703A980
S31508002C6002A8FFF747FDF7E7002101A8FFF742FD95
S31508002C7054E7002101A8FFF7EFFD4FE7002101A85F
S31508002C80FFF714FE4AE7002101A8FFF757FD45E7BD
S31508002C900080005008B58020FFF7DCFE034B984201
S31508002CA09EBF4FF48032024B1A6708BD005A620273
S31508002CB000A000501FB50023B0F5807F019300F0F7
S31508002CC0C38064D85D2855D84C2807D82D2847D8FE
S31508002CD023282BD8019805B05DF804FB4D38102839
S31508002CE0F8D801A353F820F03F2E0008D52C000889
S31508002CF0D52C0008D52C0008F12D0008D52C000885
S31508002D00D52C0008DD2E00080F2E0008B52D00086A
S31508002D10D32E0008D52C0008D52C0008D52C000881
S31508002D20D52C0008D52C0008E72E000824380928D9
S31508002D30D0D801A353F820F03F2E00083F2E0008F4
S31508002D403F2E00083F2E00083F2E0008D52C00080D
S31508002D50352E0008D52C0008D12D0008752E000840
S31508002D603D2800F082803E28B4D1002001A9FFF753
S31508002D709DFDAFE78028ADD1604B1B6F03F00703BD
S31508002D80013B032BA6D8DFE803F05350878FB0F535
S31508002D90F06F6AD021D8B0F5B06F4BD00FD8B0F528
S31508002DA0607F00F0858095D3B0F5806F47D0B0F589
S31508002DB0A06F8FD1002001A9FFF76CFC8AE7B0F558
S31508002DC0D06F57D0B0F5E06FCFD0B0F5C06F81D1D6
S31508002DD0002001A9FFF78EFC7CE7B0F5206F7DD0B7
S31508002DE00BD8B0F5086F4AD0B0F5106F7FF472AF04
S31508002DF0002001A9FFF730FD6CE7B0F5406F68D0F9
S31508002E00B0F5486F6FD0B0F5286F7FF463AF002137
S31508002E103A4B0391D3F8703203F00303012B67D0C2
S31508002E20022B14BF0B46152300E00523019351E737
S31508002E300223FBE7002001A9FFF704FC4AE700206C
S31508002E4001A9FFF79BFB45E702934FF0E0231B69B7
S31508002E505B0705D5FEF768F90D230393039BE5E7A2
S31508002E6003A902A8FFF746FCF8E7002001A9FFF727
S31508002E7041FD2FE7002001A9FFF7C4FC2AE71F4BF5
S31508002E80D3F8003103F00303022B07D0032B09D034
S31508002E90012B0BD1FEF75EF90323C7E7FEF7BEF950
S31508002EA00923C3E7FEF76CF90823BFE70123BDE74B
S31508002EB0124AD2F8802002F00302012A05D0022A1B
S31508002EC0B4D1FEF763F90723B0E7FEF713F90E232B
S31508002ED0ACE7002001A9FFF783FBFBE6002001A968
S31508002EE0FFF72CFCF6E6002001A9FFF759FCF1E6EE
S31508002EF003A8FFF7FFFB112398E700BF00800050E7
S31508002F0038B504468020FFF7D5FE032800F08380F5
S31508002F104FF48012504B4FF0A0615A6645F60E03E7
S31508002F204E4AC2F880304E4B99624FF4803103F511
S31508002F3080539962916D11F48031FBD1D4E9000375
S31508002F401B0543EA0063E07B0343207B43EA004317
S31508002F50607B43EA0033A07B43EA801313619069E0
S31508002F60D4E904531B0643EA856300F00040034393
S31508002F70A07EE57E0343207E43EA0043607E43EA63
S31508002F8000239361E069136A00280CBF0022082217
S31508002F9023F00F0343EA000343EA850343EA0203E7
S31508002FA02E4A304D136237D194F82430916A94F83A
S31508002FB02000DB000D4043EA401394F821102B4310
S31508002FC043EA011343F480339362274B916D33EA46
S31508002FD00101FBD14FF08071214881621369A56810
S31508002FE023F4700343EA055313614FF000438361EA
S31508002FF094F822300BB91D4B996294F823301BB90B
S315080030004FF48032194B9A6294F825301BB1134B52
S31508003010174AC3F8802038BD022808D1116115481F
S3150800302091614FF408524FF47F41FFF787FC0B4933
S3150800303094F822308A6A94F820001B06154043EA61
S31508003040401394F824202B4343EAC20394F8232020
S3150800305043EA02438B62D7E7009000500040005ACB
S315080030600050005AC7FFFEFE030001000060005A28
S31508003070F1A7FFFF3440005A014B93F9000070474F
S31508003080B8210020F0B5D0E901434FF400061A4AEA
S315080030904178057856664FF4D156022702F5B832BC
S315080030A05662164E4F2977604FF0010728BF4F2109
S315080030B006F5805677601669F603FCD441EA0521C1
S315080030C051611B01417B43EA04230B43017B43EA1D
S315080030D041039360C37B817B1B0143EA4113417C17
S315080030E00B43017C43EA41035360837C13B16FF4BD
S315080030F0D1535362F0BD00BF00900050001002503B
S31508003100014B1880704700BFBA2100200029CCBFA8
S3150800311001210021FFF74EBCB0F5207F10B50C4603
S3150800312057D008D8B0F5007F48D003D830B3B0F5EB
S31508003130C07F23D010BDB0F5607FFBD129492A484E
S31508003140D1F8FC2012F080721EBFD1F8FC3023F0B3
S315080031508073C1F8FC30D0F88030611E23F030044B
S3150800316044EA0114C0F88040002AE3D01D4AD2F888
S31508003170FC3043F08073C2F8FC30DBE7FFF746FC0F
S3150800318000F036F84FF48031184B174A1967136F59
S31508003190611E23F4704444EA01341467FDF7C4FF42
S315080031A00446FFF7DFF9C0F102012046FFF7AEFF3C
S315080031B000F024F8BDE81040FFF76CBD0A4A013953
S315080031C0D2F8903023F0F85444EA0164C2F89040EB
S315080031D0B0E7054B013C196F21F4806141EA84246C
S315080031E01C67A7E700ED00E0008000500090005043
S315080031F002214FF42070FFF78FBF000008B54FF487
S31508003200C070FFF727FCBDE80840044988428CBF18
S31508003210022101214FF42070FFF77EBF80F0FA02E9
S31508003220B0F5807FF8B50C4600F04E816BD85D2866
S315080032305DD84C2804D82D2844D8232828D8F8BD8A
S315080032404D381028FBD801A353F820F0A9340008FC
S315080032503F3200083F3200083F320008A333000817
S315080032603F3200083F3200085D360008DB330008AD
S31508003270333300083D3600083F3200083F32000865
S315080032803F3200083F3200083F3200087D3600080A
S3150800329024380928D3D801A353F820F0A934000804
S315080032A0A9340008A9340008A9340008A93400087C
S315080032B03F320008893400083F32000869330008A5
S315080032C0773500083D2800F046813E28B7D1093CED
S315080032D0032C8CBF0021B04BB04A98BF195DD2F8B9
S315080032E0403223F003030B43C2F84032A7E7802895
S315080032F0A5D18B1E062B00F2C480DFE803F0BFAD14
S31508003300C27EC2C2BC00B0F5F06F00F024813BD883
S31508003310B0F5B06F00F0B8801BD8B0F5607F00F04C
S3150800332067818CD3B0F5806F00F0BE80B0F5A06FD2
S3150800333085D1073C0B2C8CBF0021994B974A98BF27
S31508003340195DD2F8203223F007030B43C2F8203266
S3150800335075E7B0F5D06F00F00E81B0F5E06FB6D026
S31508003360B0F5C06F7FF46BAF093C032C8CBF00210E
S315080033708C4B8A4A98BF195DD2F8403123F0030373
S315080033800B43C2F840315AE7B0F5206F00F066816A
S3150800339017D8B0F5086F00F01B81B0F5106F7FF4F1
S315080033A04EAF093C062C8CBF00217F4B7B4A98BF49
S315080033B0195DD2F8083223F007030B43C2F8083226
S315080033C03DE7B0F5406F00F03981B0F5486F00F081
S315080033D05581B0F5286F7FF432AF112C00F05E816D
S315080033E0152C14BF002102216C4AD2F8703223F042
S315080033F003030B43C2F8703221E7002502264FF477
S3150800340080370121022000F00BFAFFF7FFFAFFF7D9
S31508003410EFFE664B614A1F67136F23F007033343BA
S315080034201367FDF781FE0646FFF79CF8C0F1020117
S315080034303046FFF76BFE0121002000F031FAFFF756
S31508003440DDFEFFF727FC002D7FF4F9AE032C7FF491
S31508003450F6AE574B9F62F2E64FF48012534B0E4678
S315080034605A664FF48032534B9D6A03F58053C5F371
S3150800347000659A62C3E700250426C0E700250126F1
S31508003480BDE700252E46BAE7023C0E2C8CBF00216C
S31508003490494B424A98BF195DD2F8803123F003039D
S315080034A00B43C2F88031CAE6023C052C8CBF0021CA
S315080034B0424B3A4A98BF195DD2F8203123F00703E8
S315080034C00B43C2F82031BAE6A1F10904082C3FF6ED
S315080034D0B6AE01A353F824F0FD340008FD34000805
S315080034E03F320008FD3400082B3500083F3200083B
S315080034F03F3200083F320008FD3400084FF480329E
S31508003500264B2F49586E03F580535A664B6A43F08B
S3150800351001034B62C1035CBF2A4B5A664FF0E02297
S31508003520136923F00403136189E64FF480321B4BB9
S315080035302349586E03F580535A664B6A23F00103F4
S315080035404B62C3035CBF1F4B5A664FF0E0221369F8
S3150800355043F00403E7E7093C032C8CBF00211A4B10
S315080035600E4A98BF195DD2F8603123F003030B4366
S31508003570C2F8603163E6093C062C8CBF0021134B68
S31508003580064A98BF195DD2F8003223F007030B43A9
S31508003590C2F8003253E600BF21D20408008000506A
S315080035A03CD2040821D2040825D204080090005011
S315080035B00060005A0040005A0CD204081BD20408C6
S315080035C000C0075000A0005021D2040825D20408E4
S315080035D0CC1E062C8CBF0021314B324A98BF195D90
S315080035E0D2F8003123F003030B43C2F8003126E674
S315080035F02D49063CD1F8FC2012F080721EBFD1F886
S31508003600FC3023F08073C1F8FC30082C8CBF0020F6
S31508003610264B244998BF185DD1F8803023F0030360
S315080036200343C1F88030002A3FF409AE1E4AD2F897
S31508003630FC3043F08073C2F8FC3000E6023C052CEF
S315080036408CBF00211A4B174A98BF195DD2F828314A
S3150800365023F007030B43C2F82831F0E5023C0F2C90
S315080036608CBF0021134B0F4A98BF195DD2F8603200
S3150800367023F007030B43C2F86032E0E5023C0F2C47
S315080036808CBF00210C4B074A98BF195DD2F89432BB
S3150800369023F007030B43C2F89432D0E50121A3E6D1
S315080036A02CD204080080005000ED00E033D2040854
S315080036B01BD2040848D2040848D204080028ABBF25
S315080036C000F16040054B00F5614000F00F00ACBF0B
S315080036D090F80003185C0009704700BF14ED00E07D
S315080036E0EFF3108072B6704700B962B670473023A0
S315080036F083F311887047002383F311887047EFF32B
S315080037001180302383F31188704780F3118870473E
S31508003710054B420953F8223000F01F0023FA00F047
S31508003720C04300F00100704700E100E0014608B51B
S31508003730EFF31083DB0702D50122104608BDFFF719
S31508003740E7FF02460028F7D10846FFF7B7FF01460C
S31508003750EFF3118313B1B0EB131FEDD2074B5B6880
S31508003760C3F30803002BE8D0103B58B2FFF7A6FFB7
S3150800377088428CBF00220122DFE700BF00ED00E08F
S31508003780024A536B0342FCD1704700BF0040095000
S31508003790044A4178536F23F4407343EA012353677D
S315080037A0704700BF00400050704770470A4A10B57E
S315080037B01369044643F00403136102F01FFAFFF786
S315080037C0F3FF30BFFFF7F1FF02F02CFA1CB9BDE892
S315080037D01040FDF7A9BC10BD00ED00E0084A10B581
S315080037E01369044643F00403136102F007FA30BF75
S315080037F002F018FA1CB9BDE81040FDF795BC10BDDB
S3150800380000ED00E070477047034A0179D36E23F054
S3150800381030030B43D36670470040005070470000E2
S31508003820F8B504461C4BD3F88420D106FBD4D3F84C
S315080038308430C3F381139C422CD0FDF75BFC012C2A
S31508003840064602D12146FFF761FCFFF749FF4FF014
S315080038500072124B07465A662046FFF7DFFF4FF401
S3150800386080630D4D621E93402B676B6E9A0103D4DD
S31508003870D5F884309B060AD53846FFF735FF022C63
S3150800388008D13046BDE8F8400021FFF73FBCD5F81F
S315080038908430EAE7F8BD00BF0040005000600050E1
S315080038A007B518B90191FDF725FC0199064B1B7858
S315080038B043B1064B984205D8012003B05DF804EBE6
S315080038C0FFF7AEBF0220F8E706330020005A62026F
S315080038D00278034B012100201A70FFF7E1BF00BFF1
S315080038E0063300204FF00042154B10B55A664AF6CB
S315080038F0CD3314494C6C0B6404F0010488B90120DB
S31508003900FFF73EFF4B68DB0704D50F4B58600B6B80
S31508003910D807FCD514B10B4B0C4A1A643EF066FB6B
S3150800392010BD0B6B1A07FCD42022074B9A620122A2
S31508003930A3F580535A60034A936A9B06FCD5E9E7C8
S315080039400090005000400950006009503254FFFFB3
S3150800395008B50020FFF7C6FF012008BD4FF000425A
S31508003960104B70B55D6E03F580535A664AF6CD3333
S3150800397004460D4980204E6C0B64FFF701FF0B6A65
S3150800398023F4F85343EA04230B62F30744BF074BB7
S315080039900B64002DA2BF4FF00042054B5A663EF05D
S315080039A025FB70BD00800050004009503254FFFFCF
S315080039B000A00050436D0B42FCD1704708B5436820
S315080039C0DA0714D58368DB0702D50369D90707D553
S315080039D00A2350218363FFF7EDFF836C9A07FCD116
S315080039E0012200F500535A6043689B07FCD408BDC2
S315080039F038B50C460121024600F58053596004F09B
S31508003A000F0540F6FF71FFF7D5FF78218563FFF7AD
S31508003A10D1FF04F00103610748BF43F00203916C2C
S31508003A2001F003019942FAD138BD000010B5FFF73D
S31508003A30C5FF042300F5805100F500520B611361A0
S31508003A400B6113610B6113610B611361202341F252
S31508003A50020103610023C360836041614FF4A02122
S31508003A608361836541620549C36103628362C362F8
S31508003A7043630365D164036310BD00BFFF3F0D03B5
S31508003A8009B9FFF79BBFFFF7B3BF836C5B06FCD58D
S31508003A9041647047836C5A06FCD54164836C1B06E7
S31508003AA0FCD5C06B80B27047F8B505461446084683
S31508003AB041B9344B9D422FD0334B9D4208BF572006
S31508003AC0FEF7C8FFAB68DE072ED5B0FBF4F46E68C8
S31508003AD0013C16F0010625D028212846FFF76AFF83
S31508003AE0AB6C99071AD1AB6CDA0719D4AB6C13F027
S31508003AF0020F0CBF002706272846FFF75FFF286935
S31508003B0020F07F4040EA04642C61DEB1394628463D
S31508003B10BDE8F840FFF7B4BF5620D1E70527EBE725
S31508003B200927E9E73746EAE76B68AB6DAF68DB0755
S31508003B3007F0E00748BF6400402F1BD003D8DFB169
S31508003B40202F1BD0F8BD602F1AD0802FFAD101265E
S31508003B5004FB06F34101B1FBF3F30C4A203B02EAEE
S31508003B60C30228460121FFF725FF2A63BDE8F8406E
S31508003B70FFF720BF0626EBE71026E9E70826E7E762
S31508003B800426E5E70000015B00000A50F8FF7F0005
S31508003B90436870B504460D460E691BB140F6FF71C1
S31508003BA0FFF708FF2046FFF741FF22696B7BA97BD9
S31508003BB022F087020B43134343F08003236116B3B5
S31508003BC02A692369117823F0F8030B43117F43EA26
S31508003BD0C113117943EA4113517A43EA0113D17BA0
S31508003BE043EA81132361E168D2E9053021F0F04107
S31508003BF021F4702103430B43117B527B43EA812353
S31508003C0043EAC233E360A368EA7B23F00303134362
S31508003C1043F00103A3602EB32A69A168538803F40D
S31508003C20C0430B43A3605179A36843EA8123A36089
S31508003C309379D079616A1B01000203F0700300F4DE
S31508003C40E06021F4772121F4EE6103430B43117AF6
S31508003C50527F090301F4E04112040B4302F4702277
S31508003C601343636263692A7B23F00F03134363617B
S31508003C70B6B12B695A89A2615A7B3AB11D4A944258
S31508003C8024D19A7B1C4902F00F024A67DA7B3AB1C3
S31508003C90184A944224D11B7C174A03F00F03136772
S31508003CA0D5E901122046FFF7FFFE05212046FFF75A
S31508003CB09FFE2821FFF77EFE2B78A363FFF77AFE87
S31508003CC0A36CDB4313F4405FFAD170BD0B4A9442F0
S31508003CD001BF9A7B084902F00F02C1F88020D5E798
S31508003CE0064A944201BF1B7CA2F5CE2203F00F03BD
S31508003CF0D367D5E70000015B0090035000000A5027
S31508003D0070B5054614460E46FFF7EAFC296881EAAF
S31508003D10040202EA06044C402C60BDE87040FFF736
S31508003D20E3BC0000072AF7B501F0030614461F4650
S31508003D304FF003012CD89500A94000FA05F21C485B
S31508003D400191FFF7DDFF01991A4806FA05F2FFF718
S31508003D50D7FF194B19499DF82000002F08BF1946AF
S31508003D60012303FA04F40C60154B1649002808BF12
S31508003D700B461C60144B9DF82400C3F820441031F0
S31508003D80A3F6DC33002808BF0B461C6003B0F0BD61
S31508003D90A2F10805AD00A94000FA05F20B48019109
S31508003DA0FFF7AEFF01990A4806FA05F2CFE700BF0A
S31508003DB000C4035008C4035010E4035010D4035041
S31508003DC014D4035014E4035000E0035004C4035011
S31508003DD00CC403502DE9F04105460F461E46904691
S31508003DE04AB101233022194C8B4002FB00443EB3F2
S31508003DF004F5825423600F21072F05EB450388BF7E
S31508003E00A7F108044FEA0313114895BFBC00A400A4
S31508003E1004330C3308FA04F2A1401844FFF770FF84
S31508003E20B8F1000F0AD101213020084A01FA07F734
S31508003E3000FB05223EB102F582521760BDE8F0810B
S31508003E4004F50154D6E702F50152F6E700C003501F
S31508003E5030C00350F8B505460E4614465AB3826874
S31508003E6003F0030722F440728260FFF739FCAA6860
S31508003E7082EA072303F440735340AB60FFF734FC30
S31508003E8036B9B5F1B64F17D12E20FEF7E3FD064633
S31508003E90AB680C4BD85D60430DD06FEAC40404448C
S31508003EA0A319B3FBF0F3AA68013B920702D5002BCE
S31508003EB008BF0123AB61F8BD034B9D42E8D12F2013
S31508003EC0E3E700BF58D2040800800650043021B149
S31508003ED000F5805001230360704700F50050F9E7AC
S31508003EE038B500230E4A036400F50053DA634A78AE
S31508003EF004460D4600F108037AB903F580530222F9
S31508003F001A602046D5E901122B7BFFF7A3FF20464E
S31508003F102978BDE83840FFF7D9BF03F50053EEE727
S31508003F20FFFF1F00B0F1B64F2DE9F04322D0804BBA
S31508003F30984240F0FA807F4B402505264FF000084E
S31508003F404FF0030C996800F50054C26B12F4C06F69
S31508003F5016D0970510D5FD225A7009221A7000222C
S31508003F60026493F90110012900D15A7093F90100EE
S31508003F70BDE8F083704BDFE75605EED5FE22EBE78A
S31508003F801F78082F00F2CD80DFE817F009001F0020
S31508003F9041004C006900740096009E00C2004C88DF
S31508003FA00A88E5060AD5120A02F0060242F0F0026D
S31508003FB0012119704263C1600120D9E702F0FE02AF
S31508003FC0A10748BF42F00102F2E7170607D580218C
S31508003FD000F50052D1634FF608721A8062E0520665
S31508003FE0EAD54A88E563D70604D502221A700B7803
S31508003FF04363E1E7920765D507221A701B7901EB3F
S31508004000C3010B89012BD7D10823C360D4E7170650
S31508004010DDD45206D0D54A88E563970752D583F88A
S3150800402000C092E74C880A88E50643BF120A02F0E8
S31508004030060242F0F00202F0FE02640709D51C7976
S3150800404042F0010201EBC4010989012904BF0821D4
S31508004050C160042119700123C3604263ACE71706E7
S31508004060B5D45706A8D54A88E56352072AD5072244
S315080040701A70A1E71A795F8801EBC20EBEF808909C
S31508004080B94511D80132D2B21A714F88A3F8028005
S3150800409017F0040FC3D1FF0702D4012A7FF655AFE4
S315080040A008221A700223B0E7DEF80420791C59802A
S315080040B0D25D42630622DBE7170688D457067FF5EA
S315080040C07BAFE5631E7040E794067FF575AF202643
S315080040D01A7900F5005401EBC2010A89456AE663BC
S315080040E05C88A24281BF4968661C5E800D55598866
S315080040F08A42D5D90424012AC46004D9013A9142D6
S3150800410001D10822C2601A78092A3FF428AF53E77A
S31508004110D2057FF551AF4FF4807100F50052D16397
S315080041201BE74FF609321A8019E76FF003001FE7FD
S31508004130008006501433002008330020B0F1B64F33
S3150800414010B407D01A4B98422ED06FF003005DF8D2
S31508004150044B7047174B0269D20744BF2022C2603E
S315080041604A88940702D50C89002CEED0520702D54E
S315080041700A8A002AE9D04FF480721A6000229960F0
S315080041801A71C023C3604369DB050FD4202200F5EA
S315080041900053DA63084A5DF8044BDA63036C43F4A8
S315080041A0FC630364FFF7BEBE044BD4E7436AEAE741
S315080041B00080065008330020FFFF1F00143300203C
S315080041C04369DA01FCD4012300F50050024A436032
S315080041D053689B07FCD4704700400059022A10B563
S315080041E04FF0000405D9033A022A0CD9036004717A
S315080041F010BD11F4000218BF4FF07F4221F07F4333
S3150800420013430C0EF2E721F0FF03CCB2EEE730B40D
S31508004210012500F5805344685D608B780D88C97860
S315080042201B04002914BF4FF40031002103F4803326
S315080042302B430B43C0F89830E30702D430BCFFF792
S31508004240BFBF30BC704738B50C4605461146FFF768
S31508004250B7FF237803F007026378002BA37818BF0B
S3150800426008204FEA031303F0700343EA0203E278D7
S3150800427008BF0020002A14BF4FF4807200220343AF
S3150800428013432B6723796079EA6A1B02000300F45B
S31508004290805003F4E06322F48B32034322F48072E5
S315080042A01343A2792846002A14BF4FF4803200220D
S315080042B01343EB62FFF7ABFF012305F5805253600A
S315080042C0E27902B1EB6038BD084608B529B92A205B
S315080042D0FEF7C0FB012838BF0120064900F5742007
S315080042E000F23F20B0FBF1F001387F2828BF7F207D
S315080042F0C0B208BD40420F0010B50B4C8C4228BF17
S315080043000C461AB92A20FEF7A5FB0246601E02448F
S31508004310B2FBF4F0A24228BF00F1FF30032828BF01
S315080043200320C0B210BD00BF005A620210B5104883
S31508004330104C002B18BF2046884228BF0846044662
S315080043401AB92A20FEF786FB02469DF808000130B6
S31508004350B2FBF0F2601E0244B2FBF4F340F2FF3007
S31508004360A24228BF03F1FF33984228BF184610BD62
S3150800437080969800404B4C0008B50A6F496F02F0CA
S315080043800702FFF72BFF08BD13B5044601A800F086
S31508004390A7FB042C8EBF0020024B33F8140002B092
S315080043A010BD00BF74D204082DE9F04F2DED048B23
S315080043B005468FB0DFF83CC308AF0C461646BCE886
S315080043C00F000FC79CE80300002287E80300BF49D7
S315080043D02846FFF791FF6379984238BF18465FFA77
S315080043E080FB2846FFF7ECFE217919B92846FFF726
S315080043F06BFF0146E3784FEA0B721B0102F0E042BD
S3150800440003F0300313430804227800F4FE00034344
S315080044100AB143F0020362780AB143F00403A278B2
S315080044200AB143F008030027AB60E38822892B61B1
S31508004430638943EA02432B62A54B9D4201D1022FB1
S3150800444008D1012305F580556B600FB0BDEC048BD0
S31508004450BDE8F08F002234789E489F49D6F8088038
S31508004460944218BF014623462846CDF800B0FFF708
S315080044705DFF1FFA88F88045434638BF034605EBBB
S3150800448007120593936C04F0030123F0435323F4B6
S315080044901D1323F4435323F03F03194373783079EC
S315080044A09B0003F01C0C41EA0C03B1784FEA07198C
S315080044B04901C9B21943F3781B0303F4E0430B43DC
S315080044C0010401F4E0210B43317C490501F4600144
S315080044D00B437179090701F040510B439364936CC0
S315080044E07E4AC3F30233013B042B1ED8DFE803F0F0
S315080044F01D1D03151A00D2F880214FEA124A012C15
S3150800450016D9022C00F01B81059B3A01C3F309005A
S31508004510734B0137985014368EE7D2F884211FFA68
S3150800452082FAECE7D2F88421E7E7D2F88021F6E7A9
S3150800453005EB09039A6CC2F30232531E012B674B33
S3150800454070D8DFED727AD3F880311FFA83F801222A
S3150800455009F1B24909F58049D9F8481028F4C04349
S31508004560C1F3820101F1010C02FA0CFC07EE10CA34
S315080045704FEA834A18F4004FB8EEC79AF6EE008A57
S31508004580564A18BF4AF0004A00297BD1002C76D13A
S31508004590D2F88C2113B208EE103AB8EEC88A37EE74
S315080045A0888A002840F0B48007A800F099FADFED61
S315080045B04D7ADFED4D6A86EE897ADFED4C6A67EE55
S315080045C0887A27EE267AF1EE006ABAF1004F07EEEE
S315080045D0A67A0BD0DFED466A07EE908A37EE266A92
S315080045E0FAEEE87AB0EE667A17EE867AB5EEC07A13
S315080045F0F1EE10FACABFB1EE477A38EEC77A37EE4F
S31508004600687AFDEEC77A17EE902AB2F5003FC0F237
S315080046108C806FEA5A436FEA43432D497A1D12018B
S315080046208B5071E7032A0FD1D3F880214FEA12483D
S315080046303CB9D3F88C311B1407EE903AF8EEE77ABA
S3150800464085E7D3F89431F6E7042AD3F884210AD10A
S315080046501FFA82F824B9D3F88C311B145B00EBE7F8
S31508004660D3F89431F9E74FEA12482CB9D3F88C31CC
S315080046701B1403EB4303DFE7D3F89431F8E7D2F8CA
S31508004680942187E7ACB9D2F8902112B207EE102A26
S31508004690B8EEC77A77EE677A29EE287A0F4A87EE58
S315080046A0878AD2F8882113B207EE903AF8EEE77AAD
S315080046B075E7D2F8982113B207EE103AB8EEC77A22
S315080046C037EE677A77EE877AE6E700BF005A620226
S315080046D000400059404B4C00809698000080E00F3F
S315080046E0544000593D3B843F00008043000020446D
S315080046F0000000495CD2040800007A440000B84271
S3150800470000000038E71B753F000000470000000066
S31508004710D6ED037A5FED086AF8EE677A87EEA67A31
S31508004720F7EE046AC6EE877A43E712F5003FAABF9A
S31508004730C2F311024AF4003342EA0A036DE7FFF7AF
S3150800474023FE07EE900A1FED147AF8EE677A09F150
S31508004750B24303F580439B6C0EAAC3F3421302EBE4
S315080047608303C7EE875A53ED066A5FED1C7AF4EEAB
S31508004770676AB7EE006AF1EE10FA1CBF76EE867A23
S3150800478086EEA77A07EE90AA5FED238AF8EE677A97
S3150800479008BF1FED247A67EEA87A67EE877A1FEDC1
S315080047A0267A67EE877AF5EEC07AB6EE008AF1EEDB
S315080047B010FA4CBF77EEC87A77EE887A09F1B244D8
S315080047C004F58044236DFDEEE77A0023236517EE92
S315080047D0903A17EE902A13F4004F236D5FED357A61
S315080047E018BF43F0004323652E4B216D03EA82432D
S315080047F00B4323652C4BD3F88811D3F888311BB2A9
S3150800480007EE103AB8EEC77A37EE277ADFED277A41
S3150800481087EEA65A76EE866AB7EE046AC5EE267A5B
S31508004820C6EE256A26EE877AF1EE006A47EE267A04
S315080048309FED1F7A77EE877A17EE900A45F068F8AB
S3150800484007EE90AAB8EEE77A67EE287A804617EE62
S31508004850900A894645F05CF801F1004302900393FB
S31508004860DDE902234046494648F0D2F80022114BBA
S3150800487044F0F0FE45F0A4F807EE900AF5EEC07A8B
S31508004880F1EE10FA4CBF77EEC87A77EE887AFDEE2D
S31508004890E77A17EE903A226DC3F3110313432365A3
S315080048A032E600BF0000FC7F0080E00F0000804871
S315080048B00000004900002041044A054B002918BFA2
S315080048C01346012202FA00F018607047402004508F
S315080048D04010045010B5012104462020FEF79EF82A
S315080048E001212120FEF79AF80122114B5A602278FD
S315080048F012069A606178A27842EA01429A61FF221A
S315080049009A6200229A631A644FF000425A654FF081
S31508004910FF324FF4001103F500531A65054AC2F831
S315080049208011E3781B01DBB282F81533116010BDE4
S315080049300000045000E100E0F8B50125C3B20446C2
S315080049409D40FEF7DCFE3022094B1E6D5F6B02FBB5
S3150800495004335C6EFEF7D9FE3D4206D1C4F30A1055
S3150800496008B9354200D10130F8BD0020FCE700BF88
S31508004970000004504FF48032054B9A6641F67132B6
S3150800498003F51C33DA63012203F50053DA60704736
S315080049900090005041F671320121064BDA6303F5A7
S315080049A00052D1600022DA634FF48032A3F518333F
S315080049B09A66704700000350013831289ABF024BA7
S315080049C0185C0020704700BF7ED20408122801D068
S315080049D0142804D1022904D0032908BF0121084656
S315080049E070470021FBE7000010B5C2F30623044612
S315080049F002F0070241B942EA03220B4B42F4402275
S31508004A00063443F8242010BD18461146FFF7DEFF8A
S31508004A1001461846FFF7D0FF034B41EA002016343B
S31508004A2043F82400EFE700BF008003500A4392B220
S31508004A300021FFF7D9BF3AB122F0030202F1A042E2
S31508004A4002F5603209B9106070470002FBE74FF0C3
S31508004A5050234FF400321A6770470000014BD3F811
S31508004A609400704700400050436813B9416070478E
S31508004A705B685A68012AFBD159607047836813B985
S31508004A80816070475B685A68012AFBD15960704794
S31508004A90C369032B9FBF00EB83020133D160C36157
S31508004AA07047C369042B15D84FF09842116CC90298
S31508004AB0FCD504339B0013650168103B11604168FF
S31508004AC00C30116050F8041C034411604FF09842F2
S31508004AD0984200D1704750F8041B1160F8E70000AF
S31508004AE04FF48032064B5A6603F5E6239B69C3F3F7
S31508004AF08512827003F03F021B0B427003707047E9
S31508004B000090005040F6B732064B5B689BB2934262
S31508004B109FBF4FF47A72B3FBF2F3034AD05C88BFA7
S31508004B20002070470080E00FB0D2040870B5054633
S31508004B3016461C4621B94FF42070FDF78BFF014637
S31508004B40402C1BD003D8DCB1202C1BD070BD602CA8
S31508004B50FCD1042303FB06F2560806EB4113B3FB0C
S31508004B60F2F3094A203B02EAC303AA6822F060026C
S31508004B70AA60AA681443AC60EB61E7E70623E9E795
S31508004B801023E7E70823E5E7F8FF7F0038B5054671
S31508004B90144621B94FF42070FDF75CFF0146013930
S31508004BA06400B1FBF4F10902E96138BD012200F5A0
S31508004BB080535A60CB43934003F00A034361416133
S31508004BC011B900F50050426070470000012100F558
S31508004BD0805310B5596040F6AA6341F20502436155
S31508004BE00023094C8360C365C26000F50052036167
S31508004BF0C361C3649464054C8365A04204BF03651E
S31508004C004365516010BD00BFFFFF010000C005509D
S31508004C1070B50D46FFF7DAFF012300F5805673607D
S31508004C20AB7C04461BB1836843F080438360EB7C0E
S31508004C305BB1244B9C4202BF2A7DA3F51033C3F80F
S31508004C40C821E36D43F08003E3652A8A6B7B20461F
S31508004C501343EA891343E3602B7BD5E90112FFF777
S31508004C6065FF6B7D1BB1A36843F48033A360AB7DFE
S31508004C701BB1A36843F40043A360EB7D2A7E1B07A0
S31508004C80120502F4E00203F0E0431343A3656B7ECA
S31508004C909A1E012A4FF0020209D80B49032BC1F8C4
S31508004CA0202709D10423F3652B78636170BD074972
S31508004CB0012BC1F82027F4E7042204F50053DA652E
S31508004CC0F2E700BF00C0055000D0035000E00350D3
S31508004CD038B50D46FFF77AFF0122A97B00F5805308
S31508004CE05A602A8A8368002914BF4FF4806100211C
S31508004CF042F0010213432A7D0B43002A14BF4FF0EA
S31508004D000052002283608368044613438360AB7CA9
S31508004D105BB1194B984202BFEA7CA3F51033C3F87E
S31508004D20C821C36D43F08003C3652B7B2046D5E9B4
S31508004D30011243F48053E360FFF728FF6B7B0BB146
S31508004D40102363616B7D1BB1A36843F48033A360B2
S31508004D50AB7D1BB1A36843F40043A360EB7D2A7EB9
S31508004D601B07120503F0E04302F4E0021343A365B0
S31508004D702B78636138BD00BF00C0055083695B06A8
S31508004D80FCD5C16370470000054B9A689107FCD4AF
S31508004D905A689207F9D4DA69002AF6D1704700BF33
S31508004DA000800A5008B5FFF7EFFF0122024B03F512
S31508004DB080514A601A6108BD00800A50074B5A683C
S31508004DC0012A0AD15A68D20702D5DA69002AF9D126
S31508004DD002221A610122024B5A60704700800A506B
S31508004DE000A00A5010B5064CFFF7CEFF6368012BEA
S31508004DF003D1FFF7E3FFFFF7C7FF0378E36010BDB2
S31508004E0000800A50E8B94A680B7812B1127843EA6A
S31508004E10C2034A78002A14BF0222002213438A6872
S31508004E2012B1127843EA82138A78002A14BF042240
S31508004E3000221343CA6812B1127843EA4223014A90
S31508004E409364704700800A5008B9014B596470474B
S31508004E5000900A5008B9014B5964704700A00A50DF
S31508004E6008B9014B1964704700A00A5010B9024BE3
S31508004E70186C70470020704700800A5048B911B175
S31508004E80012903D07047044BD86C7047024B186D44
S31508004E9070470020704700BF00800A5040B911B122
S31508004EA0012903D07047034BDA647047014B1A6532
S31508004EB0704700BF00800A5038B50446054D3DF0DE
S31508004EC0AAF80FCC0FC594E8030085E80300002074
S31508004ED038BD00BF2033002047F6FF739A42F0B56D
S31508004EE063D0022963D8334BCF0003EBC10013F814
S31508004EF031108478012913D10025C3781B1B9D42E4
S31508004F0002D3E018C0B2F0BD591B4668A3EB5101A5
S31508004F1036F911609642D4BF0D4601F1FF33EEE72C
S31508004F2040680028EFD0B0F90010914204DBB0F9D0
S31508004F3002109142B8BF114682883B44FF2A19BF26
S31508004F40C8222826B0F90620B0F90860A2EB0102AB
S31508004F500CBF0125002592FBF6F25F782A447B1EDA
S31508004F60934228BF13464FF47A7E00EBC305AE681A
S31508004F70EA88AC4611FB02621E4622EAE272013357
S31508004F8002F5FA729F42B2FBFEF204D9BCF80CC0D5
S31508004F9008359445EBD200EBC6008088904228BFBE
S31508004FA01046A04238BF2046ACE7FF20ABE70020FA
S31508004FB0A9E700BF203300200229F0B553D82B48B3
S31508004FC000EBC10410F83110636801290FD1E078AD
S31508004FD0A478904294BFC4EB0001C4EB0201001B05
S31508004FE0CAB28242C8BF002233F91200F0BD002BB4
S31508004FF039D0A178914202D3B3F90200F6E7E178F5
S31508005000B3F900009142F1D999886478A1F1FF06B5
S31508005010013C714203F10405E4B2714103F10C0746
S315080050201FFA82FCCEB2B44216D805EBC1014FF482
S315080050307A756A43B1F902404968521A04EBD47189
S3150800504002EB610292FBF4F29042CFDBB3F9020065
S315080050509042CBDC10B2C9E737F831E04E1CE64582
S31508005060E3D33146DEE70248C0E700BF203300201D
S315080050700080FFFF0148FFF71FBF00BFB4D2040836
S315080050807FB51422002101A844F039FF044B01A979
S315080050904FF0FF3002933DF01BF907B05DF804FBB3
S315080050A0006A180000214FF0FF303DF016B908B528
S315080050B0FEF74EFC002008BD13B50024064A6846D4
S315080050C0536F23F00103536700948DF80440FEF7ED
S315080050D09BFB204602B010BD0040005030B58BB097
S315080050E06C46154D0FCD0FC40FCD0FC495E80300C0
S315080050F084E80300114BD3F84C21120314D4D3F8D7
S315080051005041E4B28DF81940FDF7B6FF204480F30C
S3150800511008008DF818000A48FCF722F86846FDF7DB
S31508005120EFFE00200BB030BD064B1C884FF6FF7310
S315080051309C4208BF8C24E5E730D304080080E00FC2
S31508005140C01753020001E00F30B50A4D87B001AC15
S315080051500FCD0FC42B6801A823603F238DF80530B7
S31508005160FDF790FF4FF4FA70FDF7CAFF002007B06D
S3150800517030BD00BF58D304086FF00402502110B5A3
S315080051800A480B4C12F0800FD3B21BBF03F00F0373
S31508005190043BA3181B1802F101020CBF83F8001385
S315080051A019764C2AEED1002010BD00BF00ED00E0B4
S315080051B000E100E000F078B838B500F0A7FE044634
S315080051C0E0B900F0E1FF4FF4167343430C4803F5CA
S315080051D0742303F23F23B3FBF0F30A4A0A49136028
S315080051E00A220D680948013A12F0FF0240F8043B0A
S315080051F0F9D103EBC3022B4413440B60204638BD98
S3150800520040420F007433002040330020443300200E
S31508005210012208B5034B1A7000F090FF024B186084
S3150800522008BD00BF3C33002070330020F8B5144C8D
S31508005230237823B300F082FF124B134D1B68134EDD
S31508005240C01A012838BF0120114B124F18602B785D
S3150800525056F8232046F82300111A3A680E48521ABF
S315080052600A213A600932B2FBF1F20133DBB202607D
S31508005270B3FBF1F201FB12332B7000232370F8BD48
S315080052803C330020703300206C3300204433002068
S31508005290383300204033002074330020014B18684F
S315080052A0704700BF7433002020234FF48012094949
S315080052B081F82C33084B5A66084B094A03F5005007
S315080052C0426702674FF48050C1F88401486003447E
S315080052D05A67704700E100E0009000500040005A0D
S315080052E0010000A0044B9A6DD20702D40028FAD117
S315080052F070470120704700BF0040005A0C4B10B59C
S315080053001C6FE20707D5012203F500531A67FFF75A
S315080053108DFF00F075FB14F000521CBF054B1A6791
S31508005320002CBEBF4FF00042024B1A6710BD00BFEB
S315080053300040005A0060005AFFF7E0BFBFF35F8FD6
S31508005340074B5A6A22F480325A62D3F8942022F024
S315080053500102C3F89420BFF34F8FBFF36F8F7047D6
S3150800536000ED00E070B52648264CFFF7E7FF8442BB
S3150800537008BF4FF08043244A18BF20F01F03D2F815
S31508005380C01018BF203B21F0FF0141F0A001B3F186
S31508005390005FC2F8C0100CD31C4D1D4E296843F09F
S315080053A00103C2F898100131C2F89C60C2F8A03017
S315080053B02960844210D01548164B0268124923F01A
S315080053C01F0343F00303C1F89820C1F89C30124B21
S315080053D00132C1F8A0300260BFF35F8F05220A4B85
S315080053E0C3F894205A6A42F480325A62BFF34F8F48
S315080053F0BFF36F8FBFF34F8FBFF36F8F70BD00BFC3
S31508005400C02300206C25002000ED00E07833002042
S31508005410030000208B250020E1FFFF3F10B514464E
S31508005420FFF78CFF1F2C21D91A4A1B4CD2F8C03023
S3150800543021F01F0123F47F4343F48073C2F8C03080
S31508005440C30618BF20F01F002368124A18BF203071
S3150800545020F01F00C2F8983040F0030041F0030125
S315080054600133C2F89C00C2F8A0102360BFF35F8F17
S315080054700522084BC3F894205A6A42F480325A62CD
S31508005480BFF34F8FBFF36F8FBFF34F8FBFF36F8F8E
S31508005490002010BD00ED00E078330020BFF34F8FE9
S315080054A00549064BCA6802F4E0621343CB60BFF3B2
S315080054B04F8F00BFFDE700BF00ED00E00400FA05CE
S315080054C008B5FFF7EBFF08BD034B1B78002B14BF8D
S315080054D001200220704700BFAC3300200329F8B52D
S315080054E098BF124B05460E468CBF00245C5C032809
S315080054F005D8DFE800F002080B0E44F002040C4B56
S315080055001F684FB9F8BD44F00804F8E744F02004D2
