:020000040800F2
:1000000000120020AD0E0008A90E0008A90E00087D
:10001000E1520008A90E0008A90E0008A90E000868
:10002000A90E0008A90E0008A90E0008A90E0008D4
:10003000A90E0008A90E0008A90E0008A90E0008C4
:10004000A90E0008A90E0008A90E0008A90E0008B4
:10005000792A0008A90E0008A90E0008A90E0008B8
:10006000A90E0008A90E0008A90E0008A90E000894
:10007000A90E0008A90E0008A90E0008A90E000884
:10008000A90E0008F1060008A90E0008A90E000834
:10009000A90E000809150008A90E0008A90E0008FD
:1000A000A90E00082D16000809160008A90E000860
:1000B000A90E0008595B0508516505080965050882
:1000C00005650508255D05084D6505080D650508EC
:1000D0002565050811650508B165050891650508E0
:1000E000A90E0008A90E0008A90E0008A90E000814
:1000F00059510008A90E0008A90E0008A90E000811
:10010000A90E0008A90E0008A90E0008A90E0008F3
:10011000A90E0008A90E0008A90E0008A90E0008E3
:10012000A90E0008A90E0008A90E0008A90E0008D3
:10013000A90E0008A90E0008A90E0008A90E0008C3
:10014000A90E0008A90E0008A90E000843630008C4
:10015000CD430508A90E0008452505084B250508CF
:10016000A90E0008A90E0008A90E0008A90E000893
:1001700010B5054C237833B9044B13B1044800E0A3
:1001800000BF0123237010BD841700200000000071
:100190007C77060808B5034B1BB10349034800E010
:1001A00000BF08BD00000000881700207C7706080B
:1001B000A3F5803A704700BF174B002B08BF134BC5
:1001C0009D46FFF7F5FF00218B460F461348144A62
:1001D000121A56F020FD0E4B002B00D098470D4B05
:1001E000002B00D098470020002104000D000D488E
:1001F000002802D00C4800E000BF56F07DFC200033
:10020000290000F01BFC56F051FC00BF0000080064
:1002100000000000000000000012002084170020F1
:10022000CC880020000000000000000008B5032179
:10023000802003F00DFB03214FF4806003F008FBE6
:1002400009214FF4C06003F003FB09214FF4F06073
:1002500003F0FEFA09213E2003F0FAFA09212D20CD
:1002600003F0F6FA0921512003F0F2FA002008BD4C
:1002700007B501A804F0F0FA9DF80530012B14D160
:100280009DF804308BB94FF48012124B1249586E0E
:1002900003F580535A664B6B23F0E05343F0406301
:1002A0004B63C3025CBF0D4B5A6604F075FE04F04D
:1002B000FBFD04F08FFE04F021FE04F055FEFFF775
:1002C000B5FF04F009FE01F0C3F903B05DF804EBDB
:1002D00005F0A2B8008000500040005A00A0005075
:1002E00008B501F067F900F0D5FDBDE8084000F061
:1002F0005FB808B505F01AFD04F06EFE1BF063FB55
:1003000004F040FF10F0CEFCBDE808401BF0C8BB75
:1003100008B504F0ABFD04F0AFFD04F0BFFDBDE88F
:10032000084008F0C9BA00F004B870477047704739
:10033000704708B500F06EF908F05AFABDE80840B9
:1003400000F07EB9012070470120704710B508F019
:1003500065FA0446FFF7F6FF002814BF2046002088
:1003600010BD38B505F04CFA044602F069FB0428CC
:1003700010D002284FF0000508BF0124FFF7E4FF6A
:10038000042809D0022808BF0124002D18BF00242A
:10039000204638BD0125F1E70024F9E718B1034BE9
:1003A0001860002070472520704700BFFC17002010
:1003B00010B5054C0549206802F068F92068BDE8D1
:1003C0001040FFF7EBBF00BF2412002000120020F6
:1003D0000CB402B07047000010B50446C6B0002847
:1003E00032D04FF48072002106A856F014FC06A803
:1003F00057F041F806A857F03EF8E189638849BAFA
:1004000089B222880591A1895BBA49BA89B204915F
:10041000618952BA49BA89B2039121899BB249BA1A
:1004200089B20291E18892B249BA89B20191A18858
:1004300006AC49BA89B200912044044956F0DCFF69
:100440002146034821F0B0F946B010BD00880508E8
:100450007EAE05082DE9F74302F110040746204659
:1004600090460D46FFF7B8FF2346284A04F11006D0
:100470001C4603CCB44210605160234602F10802CE
:10048000F6D1284625F013F90646284625F008F946
:100490000021384625F0D1F8DFF87890044610B3F3
:1004A00044230222294625F0D7F8284625F00BF9E7
:1004B0000190284625F000F901990246204625F0D2
:1004C000E2F8204625F0EAF8012E0CD199F8003028
:1004D0007BB1002342462146384625F041F910B150
:1004E000204625F0D5FC012389F8003003B0BDE893
:1004F000F083074856F0BFFF054982B2204625F039
:10050000CDFC89F800600028E3D0E9E7001800205E
:100510002813002010180020014B1868704700BFF6
:10052000241800202DE9F0412F4B054618689AB099
:100530009B881A22079000210DF12200ADF820308F
:1005400056F069FB03AA1646284B03F11007144620
:1005500018685968083303C4BB422246F7D1DFF854
:1005600094800021D8F8000025F067F804460322A3
:10057000002125F06FF80221204625F086F807A912
:10058000204625F089F8284656F075FF87B23FB11E
:10059000204625F083F83A462946204625F07EFC81
:1005A0002C22002113AD0FA856F035FB96E80F0062
:1005B00085E80F0041F23363ADF85E300023214639
:1005C000CDE90033D8F800000FAA25F093F80546CE
:1005D00018B114B1204625F05BFC2946044821F0EF
:1005E000E3F81AB0BDE8F081C588050800180020BE
:1005F0002D880508241800200CB407B504AB53F867
:10060000042B019321F0E2F803B05DF804EB02B093
:100610007047000008B525F0CBF9054B186028B9E4
:10062000D221044B044A054856F01AFA08BD00BF0F
:10063000241800203F880508EE8805084988050829
:10064000014B18681EF0AABA2418002038B5184CBF
:1006500000F0B2FA00F0D6FA00F044FB0121206865
:1006600025F0B6F928B1E321124B134A134856F08E
:10067000F7F90121206825F09CFF18B1E421104B07
:100680000D4AF3E741F23361206825F053F80D4D30
:1006900023680D48AB600D4B0D490C2228606B6040
:1006A00056F005FF29462068BDE8384025F04DB8D2
:1006B0002418002052880508E5880508498805089F
:1006C00084880508141800200489050855040008CA
:1006D000B988050810B5054C206825F0D2FD2068C2
:1006E00008F0F6F8BDE8104000F038BB24180020F0
:1006F000022238B55A4B5B4C5A615B4A237A127816
:10070000002A60D0052B27D1D4ED057A9FED577ACA
:1007100077EE877AB6EE007A67EE877AC4ED057ACF
:10072000D4ED057AFDEEE77A514817EE901A21F0E4
:100730003BF802224F4B9A61A3F580535A6903F5A7
:1007400000535A614FF400324B4B1A60012002F003
:10075000E3F90123637438BD042B34D822780133C4
:10076000DBB29A4223720BD1444A137813B90121A8
:10077000434B19700123434923740B7000211170FE
:1007800002F0F8F9237A656894ED057AB5FBF3F584
:1007900007EE905AF8EE677A77EE877AB6EE007A2F
:1007A00067EE877AB5F5FA7F29464FF0000038BF2B
:1007B0004FF4FA71C4ED057A02F0D0F929463248B7
:1007C00020F0F2FFACE7012B36D9022B11D1D4ED8A
:1007D000057AF5EEC07AF1EE10FA0AD5294A1178B9
:1007E00011B9012026490870012024490870002110
:1007F0001170013B237202F0BDF9237A6568002075
:10080000B5FBF3F507EE905AB8EE677AD4ED057AAA
:1008100077EEC77AB6EE007A67EE877AB5F5FA7F9B
:10082000294638BF4FF4FA71C4ED057A02F096F903
:100830002946154820F0B8FF237A012B7FF470AFCA
:10084000D4ED057A9FED097A77EE877AB6EE007AD5
:10085000002367EE877A2374C4ED057A60E700BF52
:1008600000600650501800206818002000000000AA
:100870001D8905080050065000E100E04A180020DC
:100880004918002048180020108905081FB50C21C0
:100890004FF4F06002F0DCFF01213D2002F0D6FBB6
:1008A00001213C2002F0D2FB114A01AB07CA83E8C8
:1008B000070040F201121846ADF80C2002F0F8F8DB
:1008C00002F058F90B4B00201A7A5968B1FBF2F18B
:1008D00002F044F90222084B9A614FF40032074BB0
:1008E0001A60012002F018F905B05DF804FB00BFA2
:1008F000388A0508501800200050065000E100E03A
:100900001FB547F0D7FB0146294820F04DFF00F006
:10091000B3FA45F067FF10B9264820F045FF45F0CF
:100920001DFA039020B9244820F03EFF45F098FFBF
:100930000398B7EE000A019045F08EFBB0EE000A76
:10094000019845F073FB9FED1D0A019845F042FBAD
:100950009FED1B0A019845F053FB0021019845F0DB
:10096000A7FB0021019845F08DFB0521019845F07A
:10097000B5FB039845F06EFA124C206038B9124866
:1009800020F012FF03A845F041FA45F069FF03A8E3
:1009900045F03CFA206845F0C3FA38B90B4820F01E
:1009A00003FF084845F096FA45F05AFF04B010BD21
:1009B00035890508538905086B890508CDCC4C3E5F
:1009C0006666E63F4C1800208B890508A689050855
:1009D00013B501213A2002F039FB01230422184605
:1009E000032103F0D1FD002302221846052103F064
:1009F000CBFD00240123052220461146CDE900430A
:100A000003F06AFD042220461146012303F0BCFDD9
:100A1000234604220821022003F0B6FD23460422C7
:100A20000921022003F0B0FD234604220721022001
:100A300002B0BDE8104003F0A7BD0000F0B52DEDF9
:100A4000048B83B005F09AFCFFF7C2FF0523394CF5
:100A50009FED399A237040F6C4136360012323721B
:100A600005F058FA002323824FF07E531022636171
:100A7000324BE0601A64FFF709FFFFF7E7FDFFF76D
:100A80003FFF2F4F2F4E05F086FCFFF723FE637CC0
:100A900083B33146386845F05FFA10B92A4820F030
:100AA00083FE337896ED018AD6ED028A217A002BF7
:100AB00039D0264820F078FE204B28EE098A68EECF
:100AC000898AFDEEC87A802217EE905AFDEEE87A08
:100AD000C3F8A020294617EE902A1D48CDED017AD3
:100AE00020F062FE019B2A461A491B4856F084FCFE
:100AF00000236374194B1B783BB1194B1A7822B150
:100B0000002215481A70FFF70DFD237C4FF4807109
:100B10004FF4007263B1094BC3F8A010C3F8A020D2
:100B200004F06CFDAFE70F4820F03EFE0E4BC4E72B
:100B30000D4BF1E75018002000007A4400D003501C
:100B40004C18002068180020C3890508EC890508A6
:100B5000088A05082A8A050828180020101800208D
:100B600049180020F889050800E0035010B5084630
:100B700090B00C4625F090F93F2301466A46204686
:100B800025F08EF910AB184400230B2200F8403CEE
:100B90000649684656F077FC30B96946044820F0AB
:100BA00003FE0122034B1A7010B010BD448A0508E1
:100BB0004F8A05083913002010B50F4820F0F4FDC6
:100BC000FFF7AAFC4FF4FA6124F0F3FF044638B9AA
:100BD000FFF7A2FC4FF0000125F0A1FB044648B14D
:100BE000204624F0E3FE2146BDE8104002460348BB
:100BF00020F0DABD10BD00BF668A0508808A0508AE
:100C00000120704770B5A4B07822002106A856F0E4
:100C100002F82C4B2C4A1C93BDF88C30106843F41E
:100C2000C07343F00103ADF88C306B465168082265
:100C300003C369460DF1590055F0C6FF02AA1546D7
:100C40009DF88C3043F010038DF88C301F4B03F16E
:100C50001006144618685968083303C4B342224684
:100C6000F7D1102229460EA855F0AEFF9DF88C3022
:100C7000174843F004038DF88C3056F0FCFB102825
:100C8000024605D98121134B134A144855F0E8FE5A
:100C90000F4912A855F098FF9DF88C3043F00803D7
:100CA0008DF88C30FFF738FC06A924F0DCFD0446F3
:100CB00030B124F07BFE21460246094820F074FD45
:100CC00024B070BDADDE0F00018B05080A8B05084E
:100CD0002A130020A58A0508888B0508C88A0508FC
:100CE000D88A050810B586B01222002101A855F057
:100CF00092FFEA23ADF81430FFF70EFC0023134AED
:100D0000134925F0A7FC044640B124F04FFE2146CC
:100D10000246104820F048FD06B010BDFFF7FCFB6E
:100D200001230B4901AA25F0AFFC04460028F3D0AB
:100D300024F03CFE21460246074820F035FDFFF72F
:100D4000EBFB034925F09BFCE6E700BF6D0B0008B9
:100D5000781800201B8B0508488B050830B5184B08
:100D60008DB01A784AB300251D70FFF7D5FB2946D0
:100D700025F062FC044600B329462C2201A855F058
:100D80004AFF104805A924F079FE98B97B230E4844
:100D9000ADF8263056F06FFB0B4982B2204625F0A5
:100DA0007DF838B9FFF7B8FB2246084901AB25F0BA
:100DB00075FC10B1204625F06BF80DB030BD00BFBA
:100DC00039130020758B05087D8B050878180020E5
:100DD0009FED010A704700BF405DC64B08200A4BDB
:100DE00070B5186700BF0C46084E8D18AC4203D191
:100DF0000822074B1A6770BD2178304603F0C4F90A
:100E000004F8010BF2E700BF00E003500000015BB3
:100E100000D0035070B50D4605F07CF806460B4C2B
:100E2000636C9B0604D405F075F8831BAB4203D3B7
:100E3000606CC0F3401070BD72B6636C9A0600D44B
:100E400030BF62B6BFF36F8FEAE700BF00C0035048
:100E50001022034B05201A6408221A6700F010B80C
:100E600000E003501022034B05201A6408221A6781
:100E700000F006B800D0035000487047A08B05086A
:100E800080B205F07FB808B505F044F8BDE8084029
:100E900005F0B2B8024B0349186800F03DBD00BF31
:100EA0005C1300203C130020FEE7000008B500F0B2
:100EB0002DF8124B12498B4212D30020114B1249CC
:100EC0008B4218D3FFF778F9186850F82240586819
:100ED00040F82240013298688242F5D30C33EAE7A9
:100EE0000022F8E71C6844F8220001325C68A24244
:100EF000F8D30833E4E70022F8E700BF8477060858
:100F00009077060890770608907706084FF480419E
:100F10004FF0FF30114B124A10B59A60D3F8882079
:100F200042F47002C3F888200E4A91660E4901F51A
:100F3000005210660D4850660220C3F8D000BFF37F
:100F40004F8FBFF36F8F01244FF440330848C0F830
:100F50008041D36004600B6110BD00BF00ED00E074
:100F6000000000080090005000800044F7FF3700A8
:100F700000E100E0014B1868704700BF64130020D7
:100F8000084B1B6F03F00703022B04D0032B05D083
:100F9000012B05D0FEE7044B18687047034BFBE7B5
:100FA000034870470080005064130020681300203D
:100FB000002D310108B5FFF7E3FF054B1B6FC3F3AD
:100FC00003330133B0FBF3F0024B186008BD00BFE0
:100FD00000800050601300200048704700B4C40433
:100FE000014B1868704700BF68130020054B18605C
:100FF000054B1B6F03F00703032B01D1FFF7DABF8B
:10100000704700BF68130020008000500020704728
:1010100000487047002D31014FF0B4439868C0F389
:1010200004400C2822D8DFE800F0092121212121E9
:10103000071719211B1D1F000F4870479B6803F0FD
:101040004073B3F1807F13D0B3F1007F12D00B4A0D
:10105000002B08BF10467047094870470948704781
:101060000948704709487047094870470020704791
:101070000848704708487047405DC60000093D00B9
:101080000024F400C0EA210180BA8C010048E80184
:10109000005A620280841E0040420F004FF400405C
:1010A00070474FF47A707047014B1868704700BF63
:1010B0006C13002000230360704703680B6001601D
:1010C00070470346006818B102681A600023036085
:1010D0007047036803B970478B4202D10B68036005
:1010E00070471846F5E7000005490A6813180548D7
:1010F00083428CBF4FF0FF320B601046704700BF39
:1011000070130020000004202DE9F04F9A46564B42
:1011100085B01B7806460F461546DDF83C909DF8D5
:1011200044B0DDF85080002B00F08D80072A00F2DB
:101130008C800E9B002B00F08880B9F1000F00F02E
:101140008480129BB3F5006F7FDC012802D1109BD5
:10115000002B7AD0454B03EB05131B7B002B76D07D
:10116000434C10220021684655F055FD04EB451410
:101170001022002F59D13946204655F04CFD43F23C
:1011800010036380BBF1000F03D1E37843F0030346
:10119000E370374A0E9B02EB451CCCE90193129B8E
:1011A0006901013BC3F30A009DF84C30012E03F0A6
:1011B00003034FEA836343EA001E53582D48CDF8DA
:1011C00000A000EA03004EEA0003535041D113236C
:1011D0000CF1100ECCF80C309CE80F008EE80F00DC
:1011E0006FF00301DCF81C20109B61F39F02012FBC
:1011F000CCF81C20CCF8143003D1CCF81890CCF8E3
:1012000004300027194A290102EB051342F8018036
:10121000159A28465A60694622469F605E7303F01D
:1012200033FA384605B0BDE8F08F0021204655F06E
:10123000F2FC4FF444736380BBF1000FA9D1E37853
:1012400043F03003A4E70C48ECE70C48EAE70C480D
:10125000E8E7B8F1000FD4D19CF8023068F304132A
:101260008CF80230CDE700BFAC1A00202C1900200A
:10127000AC1900200F80FFF3028000F0018000F025
:10128000078000F038B5124B05461B78DBB1E0B1A2
:1012900002F04DFD0F4A00231146147B54B92B6018
:1012A00001251A0101EB03131D738C5002F045FD5B
:1012B000204638BD0133082B02F11002EDD102F0B7
:1012C0003CFD0548F5E70548F3E70548F1E700BFB1
:1012D000AC1A00202C190020048000F0028000F0DD
:1012E000018000F0154B13B51868002301908DF8AC
:1012F000043002F01CFD124B1C7824B102F01DFDDD
:10130000104802B010BD01221A7002F016FD0E4BFB
:1013100001A81C731C7783F82C4083F83C4083F8A9
:101320004C4083F85C4083F86C4083F87C40082391
:101330008DF8073003F076F92046E2E7DC8B0508EC
:10134000AC1A0020038000F02C19002010B588B0E2
:101350000E9C009207940D9C024606949DF8304026
:1013600005940B9C04949DF8284003940024CDE937
:10137000013420460B462146FFF7C6FE08B010BDDB
:1013800010B588B00E9C009207940D9C02460694FE
:101390009DF8304005940B9C04949DF828400394DC
:1013A0000024CDE9013420460B460121FFF7ACFEB5
:1013B00008B010BD0A4A08B512785AB107280BD8F0
:1013C000084A02EB00131B7B43B1002103F01CF918
:1013D000002008BD0448FCE70448FAE70448F8E7A1
:1013E000AC1A00202C190020028000F0018000F0CF
:1013F000078000F00A4A08B512785AB107280BD8BE
:10140000084A02EB00131B7B43B1012103F0FCF8F7
:10141000002008BD0448FCE70448FAE70448F8E760
:10142000AC1A00202C190020028000F0018000F08E
:10143000078000F00A4A08B5127852B107280AD886
:10144000084A02EB00131B7B3BB103F06BF9002051
:1014500008BD0548FCE70548FAE70548F8E700BF7E
:10146000AC1A00202C190020028000F0018000F04E
:10147000078000F00D4B1B7893B1072812D889B173
:101480000B4B03EB00131B7B73B10A4BDA6A01238E
:1014900003FA00F010401ABF00200B70087070476C
:1014A000054870470548704705487047AC1A00204A
:1014B0002C19002000000450028000F0018000F090
:1014C000078000F00B4A10B512780C4662B107286D
:1014D0000CD859B1084A02EB00131B7B43B103F04F
:1014E00033F92060002010BD0448FCE70448FAE707
:1014F0000448F8E7AC1A00202C190020028000F004
:10150000018000F0078000F02DE9F843174B1F6DB4
:101510005B6D1F4000D5FEE701260025144CDFF867
:101520005480DFF85490374217D02368C8F85060D1
:101530009BB1A168284601316268A1609847637B2E
:10154000012B0AD148B909EB45131A7B60F341021C
:101550001A731A7F60F341021A770135082D4FEA9A
:10156000460604F11004DED1BDE8F8830000045003
:101570002C19002000200450AC19002070B504463E
:1015800001250B4E04B970BD94FAA4F0B0FA80F0B6
:1015900005FA00F306EB001224EA03045368002B5B
:1015A000F0D0117B11B191689847EBE79847E9E7D4
:1015B000B01A002008B5192002F0C2FB28B14FF084
:1015C0000072074BC3F880211A601A2002F0B8FBA2
:1015D00028B14FF08062024BC3F880211A6008BD29
:1015E00000E100E038B505460C4602F0A0FB002201
:1015F000044B03EB05135C601A73BDE8384002F03E
:101600009CBB00BFB01A0020074BD3F82404D3F8CA
:10161000202403F50053104000F0553020F05020F6
:10162000C3F82004FFF7AABF00C00350074BD3F84C
:101630002404D3F8202403F50053104000F0AA300E
:1016400020F0A020C3F82004FFF798BF00C003508B
:10165000024B1968024B18684CF086BA78130020C8
:10166000741300207047000037B5920004460D4601
:10167000019257F0BDF8431C0BD060B929462046B3
:10168000019A55F091FA0028044808BF002003B0E1
:1016900030BD0348FBE70348F9E700BF10E000F066
:1016A00021E000F024E000F013B5044601A803F0A7
:1016B000D3F89DF80630012223804FF48073002078
:1016C0006380054B9B680A3303F01F0302FA03F3A0
:1016D000636002B010BD00BF0080E00F03F062B88D
:1016E00008B503F04FF8002008BD10B5044644EAE1
:1016F000010313F00303084609D1934201D10020EE
:1017000010BD54F8231040F823100133F5E72146AB
:10171000920055F059FAF2E710B5044657F060F818
:10172000431C15D0B0B90C4B20469B680A3303F01C
:101730001F020123934023F003032344984201D165
:10174000002010BD50F8042B0132F7D00348F8E711
:101750000348F6E70348F4E70080E00F0EE000F0EE
:1017600021E000F024E000F008B502F0D1FA014BCE
:10177000186008BD40230020014B186802F0CCBA65
:10178000402300200A460139014403F057BD2DE9EA
:10179000F34104460B46E27B94F80BC0007A677A6B
:1017A000A57A217B94F80D80A67B84F844C084F848
:1017B0004520002B3DD0237F0BBB0422019302F078
:1017C000E3FE019B01224146384602F0DDFEA27F86
:1017D0003146012A8CBF0123019B0422284602F0D6
:1017E000D3FEE37F3BB90123042294F8451094F81B
:1017F000440002F0C9FE002002B0BDE8F0810023E1
:10180000012202F0C1FE002304224146384602F0C4
:10181000BBFEA37F0222012B94BF0023012331468C
:10182000284602F0B1FEE37F002BE4D1012302221F
:10183000DBE70222019302F0A7FE019B0222414650
:10184000384602F0A1FEA27F3146012A8CBF012357
:10185000019B0222284602F097FEE37F002BCAD1AB
:101860001A46C2E701292DE9F84326D8244B254E14
:101870001C68254FDFF89C807C3C14F17C0F01D163
:10188000BDE8F883D4F800900521484602F072FCC8
:101890001E4B99450FD01E4B99450CBF3D46454602
:1018A00002F036FA2B6843F018032B6002F034FA8A
:1018B000E46F7C3CE1E73546F2E702390129DFD8E5
:1018C0000F4B104E1C68104FDFF848807C3C14F121
:1018D0007C0FD5D023680D4A93420FD00C4A934217
:1018E0000CBF3D46454602F013FA2B6823F018035F
:1018F0002B6002F011FAE46F7C3CE8E73546F2E732
:10190000F423002094C40350B4C403500000015BCE
:1019100000000A5074C403502DE9F0410B68844A5A
:101920008EB0934205460C460DF1180803D0814A4B
:10193000934240F0E58047467F4ECDF814800FCEAD
:101940000FC796E80F00103687E80F000FCE01AFE3
:101950000FC7002D00F0D2800027802200212846EA
:1019600055F059F92268724BAF659A4240F08E806B
:1019700056232B654FF47023DFF8EC81C5E90B8308
:101980000123A44685F85C302E1D2A60BCE80F00B8
:101990000FC69CE80F0086E80F00637E012B08BF8E
:1019A0008DF81D30A37E002B40F08E80227E8DF8B6
:1019B0001230012AE36840F092806049059A8B4218
:1019C0008CBF04230523537700238DF811305C4B23
:1019D00001213A20039301F039FB0121286D01F028
:1019E00035FB2369DA1F092A53D8063B8DF81030DE
:1019F000237E2BB9E37EB3FA83F35B098DF81C30A9
:101A000001212846FFF7C3FE0646002842D1227A6C
:101A1000237943EA02437A0102F1A04202F57032CF
:101A2000C2F8AC34637A617941EA0341C2F8A41484
:101A3000A07AA17941EA0041C2F8A814E37E002B04
:101A400040F03F81E17AE37943EA0143C2F89834F8
:101A50001D23C2F89434206801A902F013FC02F09F
:101A600066F9384B1A78002A3DD101221A7002F02B
:101A700064F904F05BF9FFF735FC002105F124005F
:101A8000FFF700FC014688B32F4E03E0294B9A4232
:101A900010D02E4E2E4B1B681BB92E492E4803F03A
:101AA0008BFD2B4805F17C01FFF707FB30460EB09C
:101AB000BDE8F08157232B654FF48013DFF8ACC0ED
:101AC0000127C5E90BC35BE7012B01D104236DE7B7
:101AD000022B3FF46BAF032BDBD1062366E700221A
:101AE0008DF8342074E702F028F9C4E705F12800E6
:101AF000FFF7C8FB06460028CCD0C5E7174EC9E75C
:101B00004646174F0FCF0FC697E8070086E8070035
:101B1000002D00F0D48080220021284655F07BF86B
:101B2000002322680F49AB658A4221D0074EBDE7EA
:101B30000000015B00000A50048C05083F4B4C007C
:101B400040420F0000240020092000F0022000F095
:101B5000F423002098130020F8230020012000F037
:101B6000388C050800C0055001000F00010010006E
:101B7000292129654FF480212746534E85F85C3092
:101B8000C5E90B612E1D2A600FCF0FC697E80F0025
:101B900086E80F00637E012B08BF8DF82630A37EF8
:101BA000002B66D1ADF82830237E0121012B03BF25
:101BB00000238DF825304FF47A73E3683A200893B8
:101BC00001F044FA0121286D01F040FA23691A1F3F
:101BD0000C2AABD8033B414620688DF8243002F034
:101BE00073FFA36923F47F0323F47F4323B92A6897
:101BF000936843F480339360237A2079617940EAD3
:101C00000340637AA27941EA0341E67EA37A42EA7D
:101C100003422E4B002E3CD11D26C3F82067C3F88B
:101C20003807C3F83017C3F83427E17AE27942EA7B
:101C30000142C3F8242701212846FFF7A8FD0646E4
:101C400000287FF433AF02F072F8214B1A7852BBB0
:101C500001221A7002F071F804F068F8FFF742FBF5
:101C6000002105F12400FFF70DFB0146F0B1194EEC
:101C70001CE7012B02D14FF4007393E7022B02D132
:101C80004FF480738EE7032B7FF450AF4FF4407313
:101C900088E71C24C3F82047C3F83807C3F8301777
:101CA000C3F83427C7E702F048F8D7E705F1280062
:101CB000FFF7E8FA064600283FF4F8AED7E7064EED
:101CC000F4E61C23C5E600BF0200040000C0035078
:101CD00000240020092000F0012000F038B141B1BB
:101CE000013AB2F5006F044838BF0020704703483E
:101CF00070470148704700BF037000F0027000F0A9
:101D000038B504460D4602F012F8A3889BB223B9F9
:101D10002B6002F012F8064838BD142263889BB28B
:101D200002FB034408342C6002F007F80020F3E7BC
:101D30000B7000F01FB504460B46C07EE17F002B00
:101D400039D00123042202F01FFC0123022294F85F
:101D50002010207F02F018FC94F83530022B19D1A6
:101D60000023012294F82110607F02F00DFC002373
:101D7000042294F82210A07F02F006FC012394F8BC
:101D8000212001931146607F009302F0A5FB002003
:101D900004B010BD032BFAD10023012294F82110C6
:101DA000607F02F0F1FB0023042294F82210A07F50
:101DB00002F0EAFBEBE71A46039302F0E5FB039B14
:101DC00094F820101A46207F02F0DEFB94F83520AC
:101DD000039B022A12D11A4694F82110607F02F068
:101DE000D3FB039B94F822101A46A07F02F0CCFB91
:101DF000039B94F8212001930123C3E7032AC6D152
:101E00001A4694F82110607F039302F0BDFB039BF8
:101E10001A46CAE7F7B504461646019101F087FF56
:101E2000A388E2889BB29A420546019906D800230E
:101E3000336001F082FF124803B0F0BD1427208800
:101E40003A4680B207FB0040083054F0BDFE2388BC
:101E5000E2889BB207FB034308333360238828469C
:101E60009BB20133B3FBF2F102FB11339BB223802F
:101E7000A38801339BB2A38001F05FFF0020DBE762
:101E80000A7000F0034610B593F836300068022B54
:101E90000CD102F0AFFA044630B104F061F824230B
:101EA0005843B0FBF4F40134204610BD02F05AFD53
:101EB000F1E7000090F83530022B0DD114223023C9
:101EC000417F90F8210013FB0123044A9B5823FA19
:101ED00000F000F0010070470020704730C0035050
:101EE000002313B51D4A52F8044B94F82110814287
:101EF0000ED00133042BF6D102B010BD0028FBD167
:101F00009DF80730002BF7D0A068FFF753FAF3E7EE
:101F100094F83530022BEFD12046FFF7CBFF637EDC
:101F20002076022BE8D194F8323003F0FF02002B28
:101F3000E2D1A0680DF107018DF80720FFF79AFAAA
:101F4000237E1BB194F83330002BD7D00023A06838
:101F500084F83330FFF74EFACEE700BF04240020A8
:101F6000104930B50B78104A2BB9C2E90033C2E9E9
:101F7000023301230B700C4C0023214651F8045B03
:101F8000854208D00133042BF8D1002154F8043BDA
:101F90001BB942F82100002003E001310429F5D1EA
:101FA000024830BD1424002004240020027000F0F8
:101FB00010B50446FFF796F9002104F10800FFF779
:101FC00061F9014620B904F10C00FFF75BF900B19B
:101FD000004810BD0E7000F090F8363053B904215F
:101FE00003790A4A03F239135B01D15002220368D4
:101FF0005A617047022B07D10068816C11F0020111
:1020000018BF062102F0B6B8704700BF00C00350E9
:1020100090F8363063B9012203685A619A69D20791
:10202000FCD504210379084AB9335B01D1507047CC
:10203000022B07D10068836C9B074CBF0521092147
:1020400002F098B8704700BF00C0035010B590F878
:102050003630044663B9042203685A619A699207CC
:10206000FCD523790C4AB9335B011021995010BD7E
:10207000022BFCD10068836CDB074CBF05210621D5
:1020800002F078F8237941F294425B0103F1A04316
:1020900003F57033E9E700BF00C0035037B50446CD
:1020A000836B01F044FEA36B0546013BA363A16B68
:1020B00079B9019101F02CFE04460199012003F049
:1020C000DDF90120064A019903F0DAFB204601F010
:1020D00023FE284603B0BDE8304001F02EBE00BF0D
:1020E000548C050813B591F836200B68022A0CBFF2
:1020F0009B6C9B690C469B06084605D5FFF7CEFFF7
:102100000223A36502B010BDFFF7BCFE0023014609
:10211000CDE90033034A234604F13C0003F09EFE60
:10212000F0E700BFE520000870B5044601F0FFFDB0
:10213000A36B054673B901F0EBFD01210646084685
:1021400003F09CF90121074A084603F099FB304649
:1021500001F0E2FDA36B28460133A363BDE87040A4
:1021600001F0EBBD548C05087FB5012380F83030B9
:1021700090F8363083B9036824330D4A04900392F3
:10218000002202924A680192012200920A68416983
:10219000C068FFF7F5F807E0022B02D103683C3373
:1021A000EBE7002380F8303007B05DF804FB00BF98
:1021B000C928000801232DE9F04180F8313090F85A
:1021C000363004460E4688B063BB05683C3501F0E6
:1021D000AEFD04F13C0807460DF11F01404603F037
:1021E00021FE40B99DF81F302BB1404603F0D8FDC9
:1021F0002046FFF753FF3846012701F09EFD204699
:10220000A765FFF791FF0D4B2A4603930023029326
:1022100073682169CDE90073A06833680494FFF7FF
:1022200095F807E0022B02D105684435CFE700237B
:1022300080F8313008B0BDE8F08100BF8922000885
:1022400038B504460D4601F072FDA3889BB223B950
:102250002B60BDE8384001F070BD142263889BB24A
:1022600002FB034308332B606388E2889BB201338F
:10227000B3FBF2F102FB11339BB26380A388013BF5
:102280009BB2A380E5E70000F0B585B0D06A03A952
:102290001446FFF735FD06462046FFF7F3FD0025FF
:1022A00001462346CDE90055164A04F13C0003F0EF
:1022B000D5FD154B9E421FD0039B1D619D6001F013
:1022C00036FD039A0646D76827B1D2E9002329468E
:1022D0002046B847E06A03A9FFF7B2FFE06A8388A7
:1022E0009BB263B103A9FFF70BFD20460399FFF7EB
:1022F00061FF304601F021FD012005B0F0BD84F8FA
:102300003130F6E7E52000080B7000F090F8363029
:1023100013B9036898697047022B06BF0368986C6D
:10232000002070472DE9F3410D46044600287FD078
:1023300001F0FDFC012D064641D1E36A9B889BB26A
:10234000002B43D0A068FFF775F80023E06A84F8FB
:10235000313083889BB273B101A9FFF7D1FC019999
:10236000A0680831FFF7AEF8374F019B1F61E06AA4
:1023700083889BB283BB2046FFF7C8FF8304FAD54E
:10238000023D012D10D8E068FFF754F80023A06A41
:1023900084F8303083889BB26BBB94F83530032BC4
:1023A00002D02046FFF718FEA36B002B02DD20466B
:1023B000FFF774FE304601F0C0FC002009E0022D5A
:1023C00038D1A36A9B889BB2002BDCD101F0B5FC0D
:1023D0001E4802B0BDE8F08101A9FFF731FF019B63
:1023E000D3F80C80B8F1000FC1D000223946204646
:1023F0009B68C047BBE76946FFF782FC0099E0682D
:102400000831FFF75FF8104D009B1D61A06A8388BB
:102410009BB2002BC1D06946FFF712FF009BDF681B
:10242000002FF3D00022294620469B68B847EDE7ED
:102430000748CEE7032DA3D1E36A9B889BB2002B0C
:1024400080D1A36A7AE700BF097000F0087000F03D
:10245000027000F02DE9F341984600230546806A9A
:102460000E4684881746A4B2CDE900333CB16946D4
:10247000FFF746FC01A90446E868FFF723F8009B34
:1024800073B16CB95A6801991B68521A3A60C8F85E
:10249000001028463360FFF739FF02B0BDE8F08135
:1024A0000023C8F800303B60F3E7C36A9888C0B2E5
:1024B00070470000F8B507460D461646FFF70EFCBC
:1024C00000286BD1152001F049FC0446FA6A938874
:1024D0009BB213B197F83230E3B197F83630F3B9C5
:1024E0003B689C6904F002041CB93846FFF7AEFD56
:1024F0000024012387F8343097F83630CBB92E44C6
:10250000B542386810D183699A06FCD51CB3002403
:102510002046F8BD002CDAD0FEF7F6FFD6E7022BF6
:10252000E3D13B689C6CDDE715F8011B02F022FB50
:10253000E6E7022BEAD12E44B542386806D142F2D2
:102540002003826C33EA0202FBD1DFE715F8011B9E
:1025500001F015FEF0E797F8363053B910213B79BA
:102560000F4A03F239135B01D15008223B685A61CC
:10257000CEE7022BCCD13868836CDB074CBF092136
:10258000214601F0F7FD42F2944210213B795B01B4
:1025900003F1A04303F570339950B9E70446B7E758
:1025A00000C0035010B5044680B190F832302BB90A
:1025B000FFF780FC10B9A068FEF7FCFE002094F83D
:1025C00032300133DBB284F8323010BD0048FCE712
:1025D000027000F010B50446A0B190F832309BB103
:1025E00090F83230012B05D1FFF764FC10B9A068D8
:1025F000FEF700FF002094F83230013BDBB284F894
:10260000323010BD0148FCE70148FAE7027000F0E3
:10261000057000F037B590F835500446022D1DD1F5
:10262000012290F82230457E817F9A403020164B5F
:1026300025B900FB013303F5015305E0012D07D156
:1026400000FB013303F582531A60002003B030BD54
:10265000247E00FB0133002CF4D1ECE7012DF4D1F2
:10266000037E73B911238DF80730FFF79BFF2A46CD
:1026700020460DF10701FFF71DFF2046FFF7AAFFD7
:10268000E3E71323EFE700BF00C003502DE9F04359
:102690000446704F89B001AE0D460FCF0FC697E8C4
:1026A000070086E80700002C00F0D28025B96A4EAA
:1026B000304609B0BDE8F0835C220021204654F08A
:1026C000AAFA00232046A363FFF74AFC0646002827
:1026D000EED14FF001092B7D84F835302B6884F85A
:1026E000360023602A7BC4F8589022715B4A9342DB
:1026F000DDD1292363624FF4802359498046C4E920
:102700000413D5E90723A26210805080908084F8DA
:102710003000E3621880588098806B6884F831003C
:102720000393EB8984F83300ADF814302B8A4946C3
:10273000ADF81230AB7C3A208DF81030EB7C494F6D
:102740008DF8163005238DF8113000F07FFC4946D6
:10275000606A00F07BFC286801A98DF8046002F033
:1027600053F914212B7B03F139025201B9502E7A0F
:10277000A87A07EB431346EA0042C3F83827697A80
:10278000EA7A41EA024CC3F830C7E676E07721776F
:1027900084F820206B7D49466377AB7D204684F822
:1027A0002130EB7DA3772B7E84F82230FFF7C2FA2D
:1027B000064600287FF47CAF01F0B9FA2B7D8146F4
:1027C000032B33D102212A7B02F1B9035B01F950BB
:1027D000042107EB421741F22C722B6803F580535A
:1027E000D965297EEB7D43EA0143BB50AA7D6B7D11
:1027F00043EA024341F22872BB504FF0FF3228688F
:1028000000F500539A642B7D032B0CBF0521042196
:1028100002F0C9F84FF440622B6820465A61FFF776
:10282000C7FB0646484601F088FA41E7022BE4D18F
:1028300094F821000C49FEF7D5FEFEF7BBFE4FF4DD
:1028400000732046238384F81A80FFF7E3FED4E761
:10285000064E2DE75C8C0508037000F000C00550A3
:102860000200040000C00350E11E0008027000F0E6
:10287000F0B587B005461646FFF730FA0446F0B9C2
:102880000493104BCDE901166A46A86A01A9039684
:102890000593FFF7BFFA044688B995F8303073B94D
:1028A0002846FFF7B5FB28460099FFF75DFC95F831
:1028B0003530032B03D028462C76FFF7ABFE20469D
:1028C00007B0F0BD017000F073B5906A01A914461D
:1028D000FFF716FA384B984231D094F83600019B36
:1028E00000283AD12268916C11F400712AD0334942
:1028F000986019614FF4007302F50052936401F07F
:1029000016FA01990646CD6835B14A688B682046AB
:10291000D31A0A680969A847A06A01A9FFF790FCC1
:10292000A06A8588ADB2002D37D001A9FFF7E8F97C
:1029300020460199FFF718FC304601F0FEF901200E
:1029400002B070BD906CC50523D51D489960186113
:1029500002F500524FF48073D0E7022819D12268A3
:10296000D16C11F4007109D0144902F500521961BB
:10297000002199604FF40073D364C0E7D06CC005A8
:1029800007D50F489960186102F500524FF4807323
:10299000F2E700221A619A60B1E70123204623760C
:1029A000FFF738FE94F8353084F83050032BC3D04D
:1029B0002046FFF711FBBFE70B7000F00D7000F031
:1029C0000C7000F0F0B587B004461646FFF786F9A4
:1029D000054658BB0493194BCDE90116059394F8AD
:1029E000363003962BBB23689B6903F0020313B9AF
:1029F0002046FFF72BFB6A46E06A01A9FFF70AFAB7
:102A0000054698B994F8313083B901F090F9E36A3A
:102A100006469B889BB233B120460099FFF7CAFB5C
:102A2000012384F83430304601F087F9284607B096
:102A3000F0BD022BDCD123689B6CD6E7017000F05F
:102A40000B4B30B51B7883B10120002305460949A3
:102A500051F8042B2AB192F85840022C04BF2046AA
:102A600095650133042BF3D130BD0120FCE700BF95
:102A70001424002004240020054B5B69DB0605D5E7
:102A80001022044B5A610122034B1A70704700BF99
:102A90000080045000A0045015240020034B5A6805
:102AA00012B19A6A002AFAD1704700BF004006505E
:102AB000426810B5B2FA82F2144CC2F11F01636889
:102AC0000BB1FFF7EBFF0122114B5A60636813F063
:102AD0000203FBD1027A002A14BF022400244278A8
:102AE00042EA0112094922438A60427A0124002AFB
:102AF00018BF0223827A13434B62064B5C60037853
:102B000013B1FFF7CBFFCC6010BD00BF00400650F3
:102B1000006006500050065008B50D4B5A6802B9C7
:102B200038B15B680BB1FFF7B9FF18B10122094B4F
:102B30005A6008BDFFF7B2FF02230549CB60FFF7DB
:102B4000ADFF0122044B5A604B689B07FCD4F0E7B1
:102B5000004006500050065000600650044B9A6A30
:102B6000D006FCD419639A6AD206FCD4704700BF21
:102B70000040065008B5FFF791FF02230449CB60DF
:102B800000230B62FFF78AFF0123CB6008BD00BF63
:102B900000400650044BD3F88420D206FBD4D3F86F
:102BA0008400C0F3811070470040005038B5174BC7
:102BB0000546D3F820310C4603F00703013B052BF3
:102BC00020D8DFE803F0030B130F171BFEF7D2F931
:102BD000052305B1286004B1236038BDFEF700FA73
:102BE0000323F6E7FEF718FA0723F2E7FEF710FAD9
:102BF0000223EEE7FEF7BEF90623EAE7FEF7F0F957
:102C00000423E6E700231846E3E700BF00800050F6
:102C100038B5174B0546D3F828310C4603F00703A7
:102C2000013B052B20D8DFE803F003131B0F0B1724
:102C3000FEF7A0F9052305B1286004B1236038BD73
:102C4000FEF798F90623F6E7FEF7E6F90723F2E721
:102C5000FEF7C6F90323EEE7FEF7C2F90423EAE71D
:102C6000FEF7D6F90223E6E700231846E3E700BFA4
:102C70000080005073B50D460021114B0191D3F82F
:102C80008041064604F00304022C13D0032C0CD020
:102C9000012C13D101A8FFF789FF10240EB1019B6D
:102CA000336005B12C6002B070BDFEF7B5F90724A2
:102CB0000190F3E7FEF7ACF90190EFE70C46EDE782
:102CC00000800050002337B50193154B0546D3F81B
:102CD00020320C4603F00703013B032B1ED8DFE82C
:102CE00003F0020E1318002101A8FFF791FF122331
:102CF0000DB1019A2A6004B1236003B030BDFEF724
:102D00008BF907230190F3E7FEF7C8F90A23019036
:102D1000EEE7FEF7C9F909230190E9E70023E7E7A9
:102D20000080005038B5104B0546D3F840310C46B2
:102D300003F00303022B0BD0032B0DD0012B0FD17B
:102D4000FEF7ACF90A2305B1286004B1236038BD51
:102D5000FEF7AAF90923F6E7FEF7A3F90C23F2E739
:102D600000231846EFE700BF00800050002337B56E
:102D70000193164B0546D3F860320C4603F0070367
:102D8000013B032B1FD8DFE803F0020E19140021CA
:102D900001A8FFF70BFF10230DB1019A2A6004B1BF
:102DA000236003B030BD002101A8FFF7BBFF112352
:102DB000F2E7FEF731F907230190EDE7FEF728F976
:102DC00002230190E8E70023E6E700BF00800050FF
:102DD000002337B50193164B0546D3F894320C46C1
:102DE00003F00703013B032B1FD8DFE803F0020EBB
:102DF0001914002101A8FFF7D9FE10230DB1019A83
:102E00002A6004B1236003B030BD002101A8FFF7A0
:102E100089FF1123F2E7FEF7FFF807230190EDE7A2
:102E2000FEF7F6F802230190E8E70023E6E700BF8B
:102E30000080005038B5134B0546D3F800320C46DD
:102E400003F00703013B032B18D8DFE803F0020A65
:102E50000E12FEF723F90A2305B1286004B123609E
:102E600038BDFEF721F90923F6E7FEF71AF90C231E
:102E7000F2E7FEF79FF80F23800AEDE700231846DC
:102E8000EAE700BF0080005038B5134B0546D3F881
:102E900008320C4603F00703013B032B18D8DFE888
:102EA00003F0020A0E12FEF7F9F80A2305B12860B2
:102EB00004B1236038BDFEF7F7F80923F6E7FEF703
:102EC000F0F80C23F2E7FEF775F80F23800AEDE720
:102ED00000231846EAE700BF0080005038B5104BC9
:102EE0000546D3F840320C4603F00303022B0BD007
:102EF000032B0DD0012B0FD1FEF7D0F80A2305B11B
:102F0000286004B1236038BDFEF7CEF80923F6E748
:102F1000FEF7C7F80C23F2E700231846EFE700BFDF
:102F20000080005038B5104B0546D3F860310C4690
:102F300003F00303022B0BD0032B0DD0012B0FD179
:102F4000FEF7ACF80A2305B1286004B1236038BD50
:102F5000FEF7AAF80923F6E7FEF7A3F80C23F2E739
:102F600000231846EFE700BF0080005070B505460B
:102F700014460E4600F0CCFE296881EA040202EAFB
:102F800006044C402C60BDE8704000F0C5BE000057
:102F9000B0F5207F1FD009D8B0F5007F15D003D839
:102FA00068B1B0F5C07F0AD000200CE0B0F5607FBA
:102FB000FAD10B4BD3F88000C0F3011003E0084BAB
:102FC000186FC0F3033001307047054BD3F8900001
:102FD000C0F30460F7E7024B186FC0F38020F2E7FC
:102FE0000080005002464FF48030104B10B59866B8
:102FF0000020FFF7CDFF504341F671320C4BDC69E6
:10300000DA635A6804F4803422F4401259B9094949
:1030100088428CBF4FF480100020104358600CB1E0
:103020000022DA6310BD0449F2E700BF00900050AF
:1030300000000350005A6202002D310108B5FDF76F
:10304000CBFFBDE808400021FFF7CCBF430905D006
:10305000012B0DD0022B094B18BF002300F01F00DD
:1030600041B103F58053012202FA00F01860704765
:10307000034BF3E703F50053F5E700BF688000500A
:10308000648000501FB5002280280446019200F0A1
:10309000BA8048D8002800F0BA80A0F120043D2C66
:1030A00054D83D2C52D8DFE814F0B200BE00B20074
:1030B000BE00D700D700D700D700D700BE00E10080
:1030C0005B00F70081005B00BE00BE00BE00510047
:1030D0005100510051005100510051005100BE00FB
:1030E000BE00BE0089000101BE0051005100510028
:1030F0005100510051005100510051005100510048
:1031000051005100D700B200B200B200FC005B00D9
:103110005B00060198006C00DC005100510051007A
:1031200051005100A900B0F5B06F00F09F802DD87C
:10313000B0F5207F77D00CD8B0F5C07F67D0B0F560
:10314000007F67D0B0F5807F00F09580019804B0D3
:1031500010BDB0F5607F6CD00DD8B0F5407FF5D1D3
:10316000FDF728FF02464FF42070FFF711FFB2FB76
:10317000F0F0400849E0B0F5806F6DD0B0F5A06F79
:10318000E4D1002101A8FFF79DFDDFE7B0F5106F46
:1031900000F0878017D8B0F5E06F00F087800AD87C
:1031A000B0F5C06F78D0B0F5D06FCFD1002101A8B5
:1031B000FFF740FECAE7B0F5F06FC7D1002101A8C4
:1031C000FFF7B0FEC2E7B0F5406F4AD013D8B0F5B4
:1031D000206F70D0B0F5286FB8D10021384B039123
:1031E000D3F8703203F00303012B02D103A8FFF7D9
:1031F00099FD039B49E0B0F5486FA7D1002101A8D4
:10320000FFF7E6FDA2E7FDF7BBFE01909EE7FDF7A5
:10321000D1FEFAE7FDF7B4FE02462046FFF7B8FEFE
:10322000B2FBF0F0F1E7FDF7C5FE02464FF4207067
:10323000F4E7234BD3F8803003F00303012B04D0D1
:10324000022B06D04FF46070E8E7FDF799FE0246C6
:10325000F8E7FDF7E1FEFAE7002101A8FFF7A6FC79
:1032600074E7002101A8FFF7D3FC6FE7002101A854
:10327000FFF700FD6AE74FF0E02302921B695B074E
:1032800005D5FDF797FE0290029B01935EE703A927
:1032900002A8FFF747FDF7E7002101A8FFF742FD6D
:1032A00054E7002101A8FFF7EFFD4FE7002101A837
:1032B000FFF714FE4AE7002101A8FFF757FD45E795
:1032C0000080005008B58020FFF7DCFE034B9842D9
:1032D0009EBF4FF48032024B1A6708BD005A62024B
:1032E00000A000501FB50023B0F5807F019300F0CF
:1032F000C38064D85D2855D84C2807D82D2847D8D6
:1033000023282BD8019805B05DF804FB4D38102810
:10331000F8D801A353F820F06F34000805330008F3
:103320000533000805330008213400080533000880
:10333000053300080D3500083F340008E533000868
:10334000033500080533000805330008053300087D
:10335000053300080533000817350008243809280C
:10336000D0D801A353F820F06F3400086F34000860
:103370006F3400086F3400086F340008053300080C
:10338000653400080533000801340008A53400083E
:103390003D2800F082803E28B4D1002001A9FFF72B
:1033A0009DFDAFE78028ADD1604B1B6F03F0070395
:1033B000013B032BA6D8DFE803F05350878FB0F50D
:1033C000F06F6AD021D8B0F5B06F4BD00FD8B0F500
:1033D000607F00F0858095D3B0F5806F47D0B0F561
:1033E000A06F8FD1002001A9FFF76CFC8AE7B0F530
:1033F000D06F57D0B0F5E06FCFD0B0F5C06F81D1AE
:10340000002001A9FFF78EFC7CE7B0F5206F7DD08E
:103410000BD8B0F5086F4AD0B0F5106F7FF472AFDB
:10342000002001A9FFF730FD6CE7B0F5406F68D0D0
:10343000B0F5486F6FD0B0F5286F7FF463AF00210F
:103440003A4B0391D3F8703203F00303012B67D09A
:10345000022B14BF0B46152300E00523019351E70F
:103460000223FBE7002001A9FFF704FC4AE7002044
:1034700001A9FFF79BFB45E702934FF0E0231B698F
:103480005B0705D5FDF796FD0D230393039BE5E749
:1034900003A902A8FFF746FCF8E7002001A9FFF7FF
:1034A00041FD2FE7002001A9FFF7C4FC2AE71F4BCD
:1034B000D3F8003103F00303022B07D0032B09D00C
:1034C000012B0BD1FDF78CFD0323C7E7FDF7ECFDC6
:1034D0000923C3E7FDF79AFD0823BFE70123BDE7F2
:1034E000124AD2F8802002F00302012A05D0022AF3
:1034F000B4D1FDF791FD0723B0E7FDF741FD0E23A1
:10350000ACE7002001A9FFF783FBFBE6002001A93F
:10351000FFF72CFCF6E6002001A9FFF759FCF1E6C5
:1035200003A8FFF7FFFB112398E700BF00800050BE
:1035300038B504468020FFF7D5FE032800F08380CD
:103540004FF48012504B4FF0A0615A6645F60E03BF
:103550004E4AC2F880304E4B99624FF4803103F5E9
:1035600080539962916D11F48031FBD1D4E900034D
:103570001B0543EA0063E07B0343207B43EA0043EF
:10358000607B43EA0033A07B43EA801313619069B8
:10359000D4E904531B0643EA856300F0004003436B
:1035A000A07EE57E0343207E43EA0043607E43EA3B
:1035B00000239361E069136A00280CBF00220822EF
:1035C00023F00F0343EA000343EA850343EA0203BF
:1035D0002E4A304D136237D194F82430916A94F812
:1035E0002000DB000D4043EA401394F821102B43E8
:1035F00043EA011343F480339362274B916D33EA1E
:103600000101FBD14FF08071214881621369A568E7
:1036100023F4700343EA055313614FF000438361C1
:1036200094F822300BB91D4B996294F823301BB9E2
:103630004FF48032194B9A6294F825301BB1134B2A
:10364000174AC3F8802038BD022808D111611548F7
:1036500091614FF408524FF47F41FFF787FC0B490B
:1036600094F822308A6A94F820001B06154043EA39
:10367000401394F824202B4343EAC20394F82320F8
:1036800043EA02438B62D7E7009000500040005AA3
:103690000050005AC7FFFEFE030001000060005A00
:1036A000F1A7FFFF3440005A014B93F90000704727
:1036B000A0130020F0B5D0E901434FF400061A4AE8
:1036C0004178057856664FF4D156022702F5B83294
:1036D0005662164E4F2977604FF0010728BF4F21E1
:1036E00006F5805677601669F603FCD441EA052199
:1036F00051611B01417B43EA04230B43017B43EAF5
:1037000041039360C37B817B1B0143EA4113417CEE
:103710000B43017C43EA41035360837C13B16FF494
:10372000D1535362F0BD00BF009000500010025012
:10373000014B1880704700BFA21300200029CCBFA6
:1037400001210021FFF74EBCB0F5207F10B50C46DB
:1037500057D008D8B0F5007F48D003D830B3B0F5C3
:10376000C07F23D010BDB0F5607FFBD129492A4826
:10377000D1F8FC2012F080721EBFD1F8FC3023F08B
:103780008073C1F8FC30D0F88030611E23F0300423
:1037900044EA0114C0F88040002AE3D01D4AD2F860
:1037A000FC3043F08073C2F8FC30DBE7FFF746FCE7
:1037B00000F036F84FF48031184B174A1967136F31
:1037C000611E23F4704444EA01341467FDF7F2FBF0
:1037D0000446FFF7DFF9C0F102012046FFF7AEFF14
:1037E00000F024F8BDE81040FFF76CBD0A4A01392B
:1037F000D2F8903023F0F85444EA0164C2F89040C3
:10380000B0E7054B013C196F21F4806141EA842443
:103810001C67A7E700ED00E000800050009000501A
:1038200002214FF42070FFF78FBF000008B54FF45E
:10383000C070FFF727FCBDE80840044988428CBFF0
:10384000022101214FF42070FFF77EBF80F0FA02C1
:10385000B0F5807FF8B50C4600F04E816BD85D283E
:103860005DD84C2804D82D2844D8232828D8F8BD62
:103870004D381028FBD801A353F820F0D93A00089E
:103880006F3800086F3800086F380008D339000817
:103890006F3800086F3800088D3C00080B3A0008AC
:1038A000633900086D3C00086F3800086F38000865
:1038B0006F3800086F3800086F380008AD3C00080A
:1038C00024380928D3D801A353F820F0D93A0008A6
:1038D000D93A0008D93A0008D93A0008D93A00087C
:1038E0006F380008B93A00086F38000899390008A5
:1038F000A73B00083D2800F046813E28B7D1093C8F
:10390000032C8CBF0021B04BB04A98BF195DD2F890
:10391000403223F003030B43C2F84032A7E780286C
:10392000A5D18B1E062B00F2C480DFE803F0BFADEB
:10393000C27EC2C2BC00B0F5F06F00F024813BD85B
:10394000B0F5B06F00F0B8801BD8B0F5607F00F024
:1039500067818CD3B0F5806F00F0BE80B0F5A06FAA
:1039600085D1073C0B2C8CBF0021994B974A98BFFF
:10397000195DD2F8203223F007030B43C2F820323E
:1039800075E7B0F5D06F00F00E81B0F5E06FB6D0FE
:10399000B0F5C06F7FF46BAF093C032C8CBF0021E6
:1039A0008C4B8A4A98BF195DD2F8403123F003034B
:1039B0000B43C2F840315AE7B0F5206F00F0668142
:1039C00017D8B0F5086F00F01B81B0F5106F7FF4C9
:1039D0004EAF093C062C8CBF00217F4B7B4A98BF21
:1039E000195DD2F8083223F007030B43C2F80832FE
:1039F0003DE7B0F5406F00F03981B0F5486F00F059
:103A00005581B0F5286F7FF432AF112C00F05E8144
:103A1000152C14BF002102216C4AD2F8703223F019
:103A200003030B43C2F8703221E7002502264FF44E
:103A300080370121022000F00BFAFFF7FFFAFFF7B1
:103A4000EFFE664B614A1F67136F23F00703334392
:103A50001367FDF7AFFA0646FFF79CF8C0F10201C5
:103A60003046FFF76BFE0121002000F031FAFFF72E
:103A7000DDFEFFF727FC002D7FF4F9AE032C7FF469
:103A8000F6AE574B9F62F2E64FF48012534B0E4650
:103A90005A664FF48032534B9D6A03F58053C5F349
:103AA00000659A62C3E700250426C0E700250126C9
:103AB000BDE700252E46BAE7023C0E2C8CBF002144
:103AC000494B424A98BF195DD2F8803123F0030375
:103AD0000B43C2F88031CAE6023C052C8CBF0021A2
:103AE000424B3A4A98BF195DD2F8203123F00703C0
:103AF0000B43C2F82031BAE6A1F10904082C3FF6C5
:103B0000B6AE01A353F824F02D3B00082D3B00086E
:103B10006F3800082D3B00085B3B00086F38000839
:103B20006F3800086F3800082D3B00084FF48032D2
:103B3000264B2F49586E03F580535A664B6A43F063
:103B400001034B62C1035CBF2A4B5A664FF0E0226F
:103B5000136923F00403136189E64FF480321B4B91
:103B60002349586E03F580535A664B6A23F00103CC
:103B70004B62C3035CBF1F4B5A664FF0E0221369D0
:103B800043F00403E7E7093C032C8CBF00211A4BE8
:103B90000E4A98BF195DD2F8603123F003030B433E
:103BA000C2F8603163E6093C062C8CBF0021134B40
:103BB000064A98BF195DD2F8003223F007030B4381
:103BC000C2F8003253E600BFAD8C050800800050FB
:103BD000C88C0508AD8C0508B18C05080090005014
:103BE0000060005A0040005A988C0508A78C050810
:103BF00000C0075000A00050AD8C0508B18C05082E
:103C0000CC1E062C8CBF0021314B324A98BF195D67
:103C1000D2F8003123F003030B43C2F8003126E64B
:103C20002D49063CD1F8FC2012F080721EBFD1F85D
:103C3000FC3023F08073C1F8FC30082C8CBF0020CE
:103C4000264B244998BF185DD1F8803023F0030338
:103C50000343C1F88030002A3FF409AE1E4AD2F86F
:103C6000FC3043F08073C2F8FC3000E6023C052CC7
:103C70008CBF00211A4B174A98BF195DD2F8283122
:103C800023F007030B43C2F82831F0E5023C0F2C68
:103C90008CBF0021134B0F4A98BF195DD2F86032D8
:103CA00023F007030B43C2F86032E0E5023C0F2C1F
:103CB0008CBF00210C4B074A98BF195DD2F8943293
:103CC00023F007030B43C2F89432D0E50121A3E6A9
:103CD000B88C05080080005000ED00E0BF8C05089E
:103CE000A78C0508D48C0508D48C05080028ABBF28
:103CF00000F16040054B00F5614000F00F00ACBFE3
:103D000090F80003185C0009704700BF14ED00E054
:103D1000EFF3108072B6704700B962B67047302377
:103D200083F311887047002383F311887047EFF302
:103D30001180302383F31188704780F31188704716
:103D4000054B420953F8223000F01F0023FA00F01F
:103D5000C04300F00100704700E100E0014608B5F3
:103D6000EFF31083DB0702D50122104608BDFFF7F1
:103D7000E7FF02460028F7D10846FFF7B7FF0146E4
:103D8000EFF3118313B1B0EB131FEDD2074B5B6858
:103D9000C3F30803002BE8D0103B58B2FFF7A6FF8F
:103DA00088428CBF00220122DFE700BF00ED00E067
:103DB000024A536B0342FCD1704700BF00400950D8
:103DC000044A4178536F23F4407343EA0123536755
:103DD000704700BF00400050704770470A4A10B556
:103DE0001369044643F00403136101F017FEFFF763
:103DF000F3FF30BFFFF7F1FF01F024FE1CB9BDE86F
:103E00001040FDF7D7B810BD00ED00E0084A10B52E
:103E10001369044643F00403136101F0FFFD30BF52
:103E200001F010FE1CB9BDE81040FDF7C3B810BD8D
:103E300000ED00E070477047034A0179D36E23F02C
:103E400030030B43D36670470040005070470000BA
:103E5000F8B504461C4BD3F88420D106FBD4D3F824
:103E60008430C3F381139C422CD0FDF789F8012CD8
:103E7000064602D12146FFF761FCFFF749FF4FF0EC
:103E80000072124B07465A662046FFF7DFFF4FF4D9
:103E900080630D4D621E93402B676B6E9A0103D4B5
:103EA000D5F884309B060AD53846FFF735FF022C3B
:103EB00008D13046BDE8F8400021FFF73FBCD5F8F7
:103EC0008430EAE7F8BD00BF0040005000600050B9
:103ED00007B518B90191FDF753F80199064B1B7806
:103EE00043B1064B984205D8012003B05DF804EBBE
:103EF000FFF7AEBF0220F8E716240020005A620246
:103F00000278034B012100201A70FFF7E1BF00BFC8
:103F1000162400204FF00042154B10B55A664AF6A1
:103F2000CD3314494C6C0B6404F0010488B90120B2
:103F3000FFF73EFF4B68DB0704D50F4B58600B6B58
:103F4000D807FCD514B10B4B0C4A1A644AF0AEFFEB
:103F500010BD0B6B1A07FCD42022074B9A6201227A
:103F6000A3F580535A60034A936A9B06FCD5E9E7A0
:103F70000090005000400950006009503254FFFF8B
:103F80004FF0004238B5164B01465A664AF6CD331B
:103F9000144C154A656C236443780B205B0043F096
:103FA0000103D363FFF704FF63688A7823F4F8738F
:103FB00043EA02136360CA784B7943EA0223A360A1
:103FC0000A798B7943EA022323610878FFF7A2FF7D
:103FD000EB0744BF054B23644AF068FF012038BD5E
:103FE0000090005000400950004000503254FFFF44
:103FF0004FF00042124B70B55D6E03F580535A6668
:104000004AF6CD3304460F4980204E6C0B64FFF70F
:10401000CFFE0B6A23F00F030F2C94BF234343F012
:104020000F030B62F30744BF074B0B64002DA2BFC5
:104030004FF00042054B5A664AF038FF70BD00BF92
:1040400000800050004009503254FFFF00A0005093
:104050004FF00042104B70B55D6E03F580535A6609
:104060004AF6CD3304460D4980204E6C0B64FFF7B1
:104070009FFE0B6A23F4F85343EA04230B62F30711
:1040800044BF074B0B64002DA2BF4FF00042054B0D
:104090005A664AF00BFF70BD008000500040095086
:1040A0003254FFFF00A00050436D0B42FCD170471B
:1040B00008B54368DA0714D58368DB0702D50369BE
:1040C000D90707D50A2350218363FFF7EDFF836CDF
:1040D0009A07FCD1012200F500535A6043689B0700
:1040E000FCD408BD38B50C460121024600F58053CA
:1040F000596004F00F0540F6FF71FFF7D5FF7821F6
:104100008563FFF7D1FF04F00103610748BF43F067
:104110000203916C01F003019942FAD138BD00000D
:1041200010B5FFF7C5FF042300F5805100F50052DC
:104130000B6113610B6113610B6113610B611361FF
:10414000202341F2020103610023C36083604161C7
:104150004FF4A0218361836541620549C361036215
:104160008362C36243630365D164036310BD00BF10
:10417000FF3F0D0309B9FFF79BBFFFF7B3BF836C88
:104180005B06FCD541647047836C5A06FCD54164DC
:10419000836C1B06FCD5C06B80B27047F8B5054632
:1041A0001446084641B9344B9D422FD0334B9D42B3
:1041B00008BF5720FEF766FFAB68DE072ED5B0FBC1
:1041C000F4F46E68013C16F0010625D0282128463B
:1041D000FFF76AFFAB6C99071AD1AB6CDA0719D4F9
:1041E000AB6C13F0020F0CBF002706272846FFF721
:1041F0005FFF286920F07F4040EA04642C61DEB153
:1042000039462846BDE8F840FFF7B4BF5620D1E74D
:104210000527EBE70927E9E73746EAE76B68AB6D67
:10422000AF68DB0707F0E00748BF6400402F1BD0F2
:1042300003D8DFB1202F1BD0F8BD602F1AD0802FFC
:10424000FAD1012604FB06F34101B1FBF3F30C4A5A
:10425000203B02EAC30228460121FFF725FF2A631B
:10426000BDE8F840FFF720BF0626EBE71026E9E798
:104270000826E7E70426E5E70000015B00000A5096
:10428000F8FF7F00436870B504460D460E691BB108
:1042900040F6FF71FFF708FF2046FFF741FF226954
:1042A0006B7BA97B22F087020B43134343F080030F
:1042B000236116B32A692369117823F0F8030B43AD
:1042C000117F43EAC113117943EA4113517A43EA5A
:1042D0000113D17B43EA81132361E168D2E9053000
:1042E00021F0F04121F4702103430B43117B527BF9
:1042F00043EA812343EAC233E360A368EA7B23F005
:104300000303134343F00103A3602EB32A69A1689A
:10431000538803F4C0430B43A3605179A36843EA75
:104320008123A3609379D079616A1B01000203F0B5
:10433000700300F4E06021F4772121F4EE6103437F
:104340000B43117A527F090301F4E04112040B433D
:1043500002F470221343636263692A7B23F00F0324
:1043600013436361B6B12B695A89A2615A7B3AB192
:104370001D4A944224D19A7B1C4902F00F024A67DD
:10438000DA7B3AB1184A944224D11B7C174A03F0D5
:104390000F031367D5E901122046FFF7FFFE052141
:1043A0002046FFF79FFE2821FFF77EFE2B78A363B0
:1043B000FFF77AFEA36CDB4313F4405FFAD170BDC4
:1043C0000B4A944201BF9A7B084902F00F02C1F8E0
:1043D0008020D5E7064A944201BF1B7CA2F5CE227D
:1043E00003F00F03D367D5E70000015B0090035093
:1043F00000000A502C4B2DE9F0419842064612D09D
:104400002A4886420CBF57200020FEF73BFEB168C9
:1044100011F0010109D03169090E0131B0FBF1F150
:104420000846BDE8F0815620EFE7326BB468204BB8
:1044300004F0E004402C03EA020310D007D854B380
:10444000202C2CD0B36DDB0748BF4908E8E7602C6F
:1044500027D0802CF6D14FF480750C461CE08025C7
:104460000C464FF0030803F5807308FB03F80023A4
:104470004246194652F064F902FB04F100FB05F7CD
:1044800005FB0311A2FB050500234246294452F017
:1044900057F93918D6E710254FF00108E3E725460C
:1044A000DBE74025D9E700BF0000015B00000A50B0
:1044B000F8FF7F0070B5054614460E46FFF728FC4E
:1044C000296881EA040202EA06044C402C60BDE837
:1044D0007040FFF721BC0000072AF7B501F0030682
:1044E00014461F464FF003012CD89500A94000FA4E
:1044F00005F21C480191FFF7DDFF01991A4806FA01
:1045000005F2FFF7D7FF194B19499DF82000002F3E
:1045100008BF1946012303FA04F40C60154B164931
:10452000002808BF0B461C60144B9DF82400C3F8FC
:1045300020441031A3F6DC33002808BF0B461C6072
:1045400003B0F0BDA2F10805AD00A94000FA05F2E4
:104550000B480191FFF7AEFF01990A4806FA05F2F0
:10456000CFE700BF00C4035008C4035010E4035059
:1045700010D4035014D4035014E4035000E003504B
:1045800004C403500CC403502DE9F04105460F4606
:104590001E4690464AB101233022194C8B4002FB43
:1045A00000443EB304F5825423600F21072F05EB2E
:1045B000450388BFA7F108044FEA0313114895BFCC
:1045C000BC00A40004330C3308FA04F2A1401844E0
:1045D000FFF770FFB8F1000F0AD101213020084A1F
:1045E00001FA07F700FB05223EB102F5825217607F
:1045F000BDE8F08104F50154D6E702F50152F6E773
:1046000000C0035030C00350044A054B002918BFB6
:104610001346012202FA00F018607047402004504F
:104620004010045010B5012104462020FEF70EFD75
:1046300001212120FEF70AFD0122114B5A60227848
:1046400012069A606178A27842EA01429A61FF22DA
:104650009A6200229A631A644FF000425A654FF042
:10466000FF324FF4001103F500531A65054AC2F8F2
:104670008011E3781B01DBB282F81533116010BDA5
:104680000000045000E100E02DE9F0410125C3B233
:10469000D1F8008091F80AC00F7B91F80DE09D40A1
:1046A0000C46CB7A1C491D4E0D65810001F1A041DD
:1046B00001F58821C1F80480302101FB00601B0551
:1046C00043EA0C4343EA475322F00302C0F860E098
:1046D000C3650267FFF72BFB736D2B437365237A6A
:1046E00013B1336C2B433364637A13B1B36B2B4335
:1046F000B3632279A37943EA0243074A936161795C
:10470000E37943EA014306498B61044B55639D6499
:10471000BDE8F041FFF711BB002004500000045039
:104720000010045010B50124C0B28440FFF7FFFA16
:10473000044B5A6D22EA04025A659C62BDE810409F
:10474000FFF7FBBA00000450F8B50125C3B20446D8
:104750009D40FFF7ECFA3022094B1E6D5F6B02FBA8
:1047600004335C6EFFF7E9FA3D4206D1C4F30A1048
:1047700008B9354200D10130F8BD0020FCE700BF88
:10478000000004504FF48032054B9A6641F67132B6
:1047900003F51C33DA63012203F50053DA60704736
:1047A0000090005041F671320121064BDA6303F5A7
:1047B0000052D1600022DA634FF48032A3F518333F
:1047C0009A667047000003504FF050234FF40032B8
:1047D0001A677047014BD3F89400704700400050AF
:1047E000436813B9416070475B685A68012AFBD17E
:1047F00059607047836813B9816070475B685A6875
:10480000012AFBD159607047C369032B9FBF00EB9E
:1048100083020133D160C3617047C369042B15D88B
:104820004FF09842116CC902FCD504339B0013650C
:104830000168103B116041680C30116050F8041C95
:10484000034411604FF09842984200D1704750F8ED
:10485000041B1160F8E700004FF48032064B5A66E3
:1048600003F5E6239B69C3F38512827003F03F02D0
:104870001B0B4270037070470090005040F6B73237
:10488000064B5B689BB293429FBF4FF47A72B3FBB7
:10489000F2F3034AD05C88BF002070470080E00F2D
:1048A000E48C050870B5054616461C4621B94FF440
:1048B0002070FEF7E7FB0146402C1BD003D8DCB18B
:1048C000202C1BD070BD602CFCD1042303FB06F20E
:1048D000560806EB4113B3FBF2F3094A203B02EA08
:1048E000C303AA6822F06002AA60AA681443AC60FD
:1048F000EB61E7E70623E9E71023E7E70823E5E7AD
:10490000F8FF7F002DE9B841154F15460F40FAB961
:10491000202B20D0402B20D0002B14BF402410246B
:10492000012307F580775F4300233A46194651F08B
:1049300007FF554300FB04F804FB0351A2FB0404EA
:1049400000233A46214451F0FBFE4044BDE8B881C3
:1049500080240025E4E71C46E2E780240323E0E707
:10496000F8FF7F0070B5044685684FF42070FEF7AD
:1049700089FBA36805F00102E16903F06003BDE86B
:104980007040FFF7BFBF38B50546144621B94FF454
:104990002070FEF777FB014601396400B1FBF4F1AA
:1049A0000902E96138BD012200F580535A60CB430A
:1049B000934003F00A034361416111B900F50050CF
:1049C00042607047012100F5805310B5596040F6F0
:1049D000AA6341F2050243610023094C8360C36569
:1049E000C26000F500520361C361C3649464054C66
:1049F0008365A04204BF03654365516010BD00BFDD
:104A0000FFFF010000C0055070B50D46FFF7DAFF4B
:104A1000012300F580567360AB7C04461BB18368AC
:104A200043F080438360EB7C5BB1244B9C4202BF2C
:104A30002A7DA3F51033C3F8C821E36D43F080034A
:104A4000E3652A8A6B7B20461343EA891343E360BC
:104A50002B7BD5E90112FFF725FF6B7D1BB1A36806
:104A600043F48033A360AB7D1BB1A36843F40043E0
:104A7000A360EB7D2A7E1B07120502F4E00203F01F
:104A8000E0431343A3656B7E9A1E012A4FF0020296
:104A900009D80B49032BC1F8202709D10423F3655A
:104AA0002B78636170BD0749012BC1F82027F4E71B
:104AB000042204F50053DA65F2E700BF00C0055098
:104AC00000D0035000E0035038B50D46FFF77AFFE1
:104AD0000122A97B00F580535A602A8A8368002945
:104AE00014BF4FF48061002142F0010213432A7D7C
:104AF0000B43002A14BF4FF00052002283608368EA
:104B0000044613438360AB7C5BB1194B984202BFF0
:104B1000EA7CA3F51033C3F8C821C36D43F08003CA
:104B2000C3652B7B2046D5E9011243F48053E36033
:104B3000FFF729FF6B7B0BB1102363616B7D1BB10A
:104B4000A36843F48033A360AB7D1BB1A36843F437
:104B50000043A360EB7D2A7E1B07120503F0E043B0
:104B600002F4E0021343A3652B78636138BD00BFF4
:104B700000C0055083695B06FCD5C1637047000027
:104B8000054B9A689107FCD45A689207F9D4DA6900
:104B9000002AF6D1704700BF00800A5008B5FFF721
:104BA000EFFF0122024B03F580514A601A6108BDF4
:104BB00000800A50074B5A68012A0AD15A68D20766
:104BC00002D5DA69002AF9D102221A610122024BC8
:104BD0005A60704700800A5000A00A5010B5064C79
:104BE000FFF7CEFF6368012B03D1FFF7E3FFFFF769
:104BF000C7FF0378E36010BD00800A50E8B94A6837
:104C00000B7812B1127843EAC2034A78002A14BF23
:104C10000222002213438A6812B1127843EA8213F7
:104C20008A78002A14BF042200221343CA6812B1F2
:104C3000127843EA4223014A9364704700800A5085
:104C400008B9014B5964704700900A5008B9014BEC
:104C50005964704700A00A5008B9014B19647047A5
:104C600000A00A5010B9024B186C70470020704722
:104C700000800A5048B911B1012903D07047044B94
:104C8000D86C7047024B186D70470020704700BF0A
:104C900000800A5040B911B1012903D07047034B7D
:104CA000DA647047014B1A65704700BF00800A50F4
:104CB00038B50446054D4AF02DF90FCC0FC594E8E0
:104CC000030085E80300002038BD00BF1824002041
:104CD00047F6FF739A42F0B563D0022963D8334B8D
:104CE000CF0003EBC10013F831108478012913D1F0
:104CF0000025C3781B1B9D4202D3E018C0B2F0BD53
:104D0000591B4668A3EB510136F911609642D4BF96
:104D10000D4601F1FF33EEE740680028EFD0B0F90F
:104D20000010914204DBB0F902109142B8BF114665
:104D300082883B44FF2A19BFC8222826B0F90620E2
:104D4000B0F90860A2EB01020CBF0125002592FB1F
:104D5000F6F25F782A447B1E934228BF13464FF435
:104D60007A7E00EBC305AE68EA88AC4611FB0262AE
:104D70001E4622EAE272013302F5FA729F42B2FB4A
:104D8000FEF204D9BCF80CC008359445EBD200EB18
:104D9000C6008088904228BF1046A04238BF2046F7
:104DA000ACE7FF20ABE70020A9E700BF18240020F4
:104DB0000229F0B553D82B4800EBC10410F831108C
:104DC000636801290FD1E078A478904294BFC4EBC6
:104DD0000001C4EB0201001BCAB28242C8BF00221C
:104DE00033F91200F0BD002B39D0A178914202D3E3
:104DF000B3F90200F6E7E178B3F900009142F1D986
:104E000099886478A1F1FF06013C714203F1040521
:104E1000E4B2714103F10C071FFA82FCCEB2B44236
:104E200016D805EBC1014FF47A756A43B1F9024017
:104E30004968521A04EBD47102EB610292FBF4F25E
:104E40009042CFDBB3F902009042CBDC10B2C9E74D
:104E500037F831E04E1CE645E3D33146DEE7024841
:104E6000C0E700BF182400200080FFFF0148FFF7C3
:104E70001FBF00BFE88C05087FB51422002101A8E0
:104E800051F0C9FE044B01A94FF0FF3002934AF0E4
:104E90009FF907B05DF804FB006A180000214FF08D
:104EA000FF304AF09AB9000013B50024094B186886
:104EB0009A889B7900906846ADF804208DF80630FA
:104EC0008DF80040FFF75CF80920FFF791F82046C5
:104ED00002B010BD648D050813B50024064A68466B
:104EE000536F43F00103536700948DF80440FEF7BD
:104EF000A3FF204602B010BD0040005030B58BB07B
:104F00006C46154D0FCD0FC40FCD0FC495E80300AF
:104F100084E80300114BD3F84C21120314D4D3F8C6
:104F20005041E4B28DF81940FEF7BEFB204480F3F7
:104F300008008DF818000A48FCF758F86846FEF794
:104F4000F7FA00200BB030BD064B1C884FF6FF73FC
:104F50009C4208BF8C24E5E76C8D05080080E00FBB
:104F6000C01753020001E00F30B50A4D87B001AC05
:104F70000FCD0FC42B6801A823603F238DF80530A7
:104F8000FEF798FB4FF4FA70FEF7D2FB002007B053
:104F900030BD00BF948D05086FF00402502110B59C
:104FA0000A480B4C12F0800FD3B21BBF03F00F0363
:104FB000043BA3181B1802F101020CBF83F8001375
:104FC00019764C2AEED1002010BD00BF00ED00E0A4
:104FD00000E100E000F078B838B500F0A7FE044624
:104FE000E0B900F0BDFF4FF4167343430C4803F5DE
:104FF000742303F23F23B3FBF0F30A4A0A49136018
:105000000A220D680948013A12F0FF0240F8043BF9
:10501000F9D103EBC3022B4413440B60204638BD87
:1050200040420F006C240020382400203C24002043
:10503000012208B5034B1A7000F06CFF024B186098
:1050400008BD00BF3424002068240020F8B5144CAB
:10505000237823B300F05EFF124B134D1B68134EF1
:10506000C01A012838BF0120114B124F18602B784D
:1050700056F8232046F82300111A3A680E48521AAF
:105080000A213A600932B2FBF1F20133DBB202606D
:10509000B3FBF1F201FB12332B7000232370F8BD38
:1050A0003424002068240020642400203C240020B4
:1050B00030240020382400206C240020014B186884
:1050C000704700BF6C24002020234FF48012094950
:1050D00081F82C33084B5A66084B094A03F50050F7
:1050E000426702674FF48050C1F88401486003446E
:1050F0005A67704700E100E0009000500040005AFD
:10510000010000A0044B9A6DD20702D40028FAD106
:1051100070470120704700BF0040005A0C4B10B58B
:105120001C6FE20707D5012203F500531A67FFF74A
:105130008DFF00F075FB14F000521CBF054B1A6781
:10514000002CBEBF4FF00042024B1A6710BD00BFDB
:105150000040005A0060005AFFF7E0BFBFF35F8FC6
:10516000074B5A6A22F480325A62D3F8942022F014
:105170000102C3F89420BFF34F8FBFF36F8F7047C6
:1051800000ED00E070B52648264CFFF7E7FF8442AB
:1051900008BF4FF08043244A18BF20F01F03D2F805
:1051A000C01018BF203B21F0FF0141F0A001B3F176
:1051B000005FC2F8C0100CD31C4D1D4E296843F08F
:1051C0000103C2F898100131C2F89C60C2F8A03007
:1051D0002960844210D01548164B0268124923F00A
:1051E0001F0343F00303C1F89820C1F89C30124B11
:1051F0000132C1F8A0300260BFF35F8F05220A4B75
:10520000C3F894205A6A42F480325A62BFF34F8F37
:10521000BFF36F8FBFF34F8FBFF36F8F70BD00BFB2
:10522000D01500207C17002000ED00E07024002045
:10523000030000209B170020E1FFFF3F10B514463C
:10524000FFF78CFF1F2C21D91A4A1B4CD2F8C03013
:1052500021F01F0123F47F4343F48073C2F8C03070
:10526000C30618BF20F01F002368124A18BF203061
:1052700020F01F00C2F8983040F0030041F0030115
:105280000133C2F89C00C2F8A0102360BFF35F8F07
:105290000522084BC3F894205A6A42F480325A62BD
:1052A000BFF34F8FBFF36F8FBFF34F8FBFF36F8F7E
:1052B000002010BD00ED00E070240020BFF34F8FF0
:1052C0000549064BCA6802F4E0621343CB60BFF3A2
:1052D0004F8F00BFFDE700BF00ED00E00400FA05BE
:1052E00008B5FFF7EBFF08BD034B1B78002B14BF7D
:1052F00001200220704700BFA42400200329F8B534
:1053000098BF124B05460E468CBF00245C5C0328F8
:1053100005D8DFE800F002080B0E44F002040C4B45
:105320001F684FB9F8BD44F00804F8E744F02004C2
:10533000F5E744F08004F2E77B681A68144203D072
:10534000314628465B6898473F68EAE7C48D050800
:10535000A024002038B5104D2B78ABB10F4C23782A
:105360001BB100F09BFB00232370002000F0BAFB70
:105370000B4C50B100F0C0FB0023012120782B70B2
:10538000FFF7BCFF0123237038BD0122054B1A70C3
:105390002278054B1A70F7E79E24002099240020FC
:1053A000902400209D240020B024002010B5FEF79A
:1053B000AFFC064B04461B781BB1BDE81040FEF75E
:1053C000ABBCFFF7C7FF2046F7E700BF98240020DB
:1053D00010B5044601460C4A012000F051FA002C99
:1053E00014BF0121FF21094A13780B4413700AD01E
:1053F000074B1B78012B06D9064B1B781BB9BDE860
:105400001040FFF7A7BF10BDA88D0508A4240020F9
:10541000902400209D24002070B5FEF779FC124EE8
:10542000054633789BB900F081FC044620B128463C
:10543000FEF772FC204670BD00F010FA0B48FBF737
:1054400039FE0B4B1C6000F08BFD0A4B186000F01E
:105450006FFA00F085FB084B0024186001232846F2
:105460003370FEF759FCE5E79A240020A0240020C1
:10547000B4240020AC2400209424002000292DE92D
:10548000F34114BF0121FF21254A00F1FF30135CD5
:105490000B4413543AD0234E3278012A36D9FFF701
:1054A00023FF0128044634D81F4FFEF731FC3B7818
:1054B0001BB31E4D2B781BB901222A701C4A137096
:1054C000DFF8708098F8003033B1019000F0E6FA10
:1054D0000023019888F80030FEF71EFC012000F040
:1054E00001FBFEF715FC2B782BB1019000F004FBBB
:1054F000002301982B7000233B70FEF70DFC3078E1
:10550000A04203D02146FFF7F9FE347002B0BDE897
:10551000F081032AF3D10228F1D100F03BFBEEE742
:10552000A4240020902400209E2400209824002001
:105530009D2400209924002010B50446FEF7E8FBC6
:10554000002C14BF0121FF21064A13780B44DBB263
:105550001370B3FA83F3BDE81040034A5B0913707C
:10556000FEF7DABBA7240020A624002068B5FEF7CA
:10557000CFFB094B06461B78012B04D8FEF7CCFB6A
:105580000025284668BD054B1D6800F0EDFA05446E
:105590003046FEF7C1FBF4E790240020B42400203D
:1055A00007B5FEF7B5FB0190FFF7D4FE019803B0F5
:1055B0005DF804EBFEF7B0BB38B541600446FEF77A
:1055C000A7FB054621460448FBF777FD2846BDE8C2
:1055D0003840FEF7A1BB00BFA0240020054B1B688C
:1055E0005843054B00F5742000F23F20B0FBF3F068
:1055F000704700BFAC24002040420F002DE9FF4758
:10560000FEF786FB044600E000BFFAF79FFE002885
:1056100000F09C806D4E6E4F337823B10020FFF771
:10562000D7FE00233370FFF75FFE0546002800F029
:105630009580851EEDB2012D40F29880FFF754FE53
:105640000128804604D9634B1B780BB900F0E4F9BC
:10565000614DDFF8A4912878DFF8A0A140450AD079
:10566000002389F800309AF8003013B94146FFF75B
:1056700045FE85F8008099F800303BB12B78022B6D
:1056800004D1002389F800304AF070FAB8F1010F14
:105690000FD9DFF8408198F8003053B94F4B1B7891
:1056A00023B900F0F5F901224D4B1A70012388F857
:1056B0000030287800F03EFA9AF8003013B1494BD8
:1056C0001B782B7000E000BF2046FEF725FBFEF79D
:1056D0001FFB454B04461A7852B100221A70414B09
:1056E00028781B78984203D101212970FFF706FE24
:1056F000384600F055FBFAF734FE804600288BD17F
:10570000344F89F800003B789BB1DFF8D4908AF8D9
:10571000000099F800301BB100F0C0F989F8008052
:10572000002000F0DFF9002846D000F0E5F9002362
:105730003B70337823B10020FFF74AFE002333701B
:1057400000212878FFF7DAFD00232B7000E000BF6E
:10575000204604B0BDE8F047FEF7DEBA3378002BF0
:105760003FF46CAFFFF734FE357067E7002003A904
:1057700000F098FB054600287FF460AF1B4B039AAE
:105780001B689A4205D80120FFF722FE01233370DF
:1057900054E7174BD3F8008000F0E6F90399404432
:1057A0008842F0D20223091ACDE9005338462B462D
:1057B000104A00F01DFB41E7012000F0BBF9204634
:1057C000FEF7AAFAFEF7A4FA0446A9E7A8240020E7
:1057D000742400209E24002090240020A724002070
:1057E00099240020B02400209C2400209424002030
:1057F000B4240020AD530008A62400209D240020DE
:1058000010B5FEF785FA0022044B1C781A70FEF7DB
:1058100083FA00F0D1FC2043C0B210BD9B240020CD
:1058200010B5094B1B786BB1084C237853B100F0CD
:1058300063F90023064A237013700123054A13708D
:10584000054A137010BD00BF902400209D24002045
:105850009E2400209B2400209C24002070B500245E
:10586000054D064E294630460134FBF726FC0A2C2E
:1058700005F10805F6D170BDB824002008250020E8
:1058800070B5154660B1134B013803EB800671B15A
:105890001148FBF716FC014618B901220F4B1A708C
:1058A00070BD45603046BDE87040FBF706BC53F85C
:1058B0002040002CF4D02946606851F0CAFD08B1A0
:1058C0002468F6E721463046FBF703FC21460248F0
:1058D000E9E700BF10250020082500200C25002046
:1058E00073B5114E04463378834212D000238DF8ED
:1058F000043080B102238DF8053001A8FEF760FA6C
:105900000A4D402054B1FFF769FE2B68181A286031
:10591000347002B070BD8DF80500EEE7FFF75EFE53
:105920002B681844F3E700BFA413002020250020B3
:1059300073B5002401A88DF80440FEF7E1FA204673
:10594000FFF7CEFF4FF480102C4B2D491A6F02F059
:1059500007020A602B49D3F8203148664FF4003023
:10596000486601F598318969032A01F002013DD0AA
:1059700003F00703981E434243412348234D03701D
:1059800061B31E4A3BB9D2F8003103F00303591E3C
:105990004B424B410370D2F8003103F00303022B5A
:1059A00026D0032B27D0012B18D1FBF719FBA8B168
:1059B000174B411EDC680023024608461946C4F313
:1059C0000B04144E013404EB8404E4FB060150F094
:1059D000B7FEFFF703FE2B68184428606420FFF72A
:1059E000FDFD2B681844286002B070BD0123C4E798
:1059F000FBF75AFBDBE7FBF709FBD8E70080005019
:105A000018250020009000501E2500202025002091
:105A100000C0015040420F00FEF70CBA074B1A7845
:105A200052B100221A70064A136F23F0070343F0A5
:105A300001031367FBF7BEBA704700BF1C250020A7
:105A40000080005008B50E4B1B788BB1022000F08F
:105A500067FC68B100F058FA50B10A4B9A6DD20356
:105A600007D5DB6D9B0704D54FF48032064B9A6255
:105A700008BD0122054B1A70FFF7DAFAF4E700BF00
:105A80001E2500200040005A0050005A1D2500200D
:105A90000122014B1A7070471C25002038B50D4BB0
:105AA0001B7873B10C4C23788BB90C4B0C4D9A6D51
:105AB00012F4803F06D0DB6D9B0703D54FF4803393
:105AC000AB6238BDFFF7B4FA4FF48033AB6200230A
:105AD0002370F6E71E2500201D2500200040005AF7
