S00A00006970722E7333379F
S3150800000000120020C1100008BD100008BD1000082D
S3150800001011600008BD100008BD100008BD100008DA
S31508000020BD100008BD100008BD100008BD1000086E
S31508000030BD100008BD100008BD100008BD1000085E
S31508000040BD100008BD100008BD100008BD1000084E
S31508000050992D0008BD100008BD100008BD10000845
S31508000060BD100008BD100008BD100008BD1000082E
S31508000070BD100008BD100008BD100008BD1000081E
S31508000080BD10000825040008BD100008BD100008B2
S31508000090BD10000829180008BD100008BD1000088A
S315080000A0BD1000084D19000829190008BD100008E0
S315080000B0BD10000851560508496005080160050885
S315080000C0FD5F05081D580508456005080560050813
S315080000D01D60050809600508A96005088960050806
S315080000E0BD100008BD100008BD100008BD100008AE
S315080000F0895E0008BD100008BD100008BD10000884
S31508000100BD100008DD030008BD100008BD1000087A
S31508000110BD100008BD100008BD100008BD1000087D
S31508000120BD100008BD100008BD100008BD1000086D
S31508000130BD100008BD100008BD100008BD1000085D
S31508000140BD100008BD100008BD1000087370000837
S31508000150C53E0508BD1000084120050847200508CA
S31508000160BD100008BD100008BD100008BD1000082D
S3150800017010B5054C237833B9044B13B1044800E095
S3150800018000BF0123237010BD9C170020000000004B
S31508000190687B060808B5034B1BB10349034800E012
S315080001A000BF08BD00000000A0170020687B0608F5
S315080001B0A3F5803A704700BF174B002B08BF134BB7
S315080001C09D46FFF7F5FF00218B460F461348144A54
S315080001D0121A56F0A0FC0E4B002B00D098470D4B78
S315080001E0002B00D098470020002104000D000D4880
S315080001F0002802D00C4800E000BF56F005FC20009D
S31508000200290000F0A1FB56F0D9FB00BF000008004A
S315080002100000000000000000001200209C170020CB
S31508000220D4890020000000000000000008B5032162
S31508000230802003F09DFC03214FF4806003F098FCB6
S3150800024009214FF4C06003F093FC09214FF4F060D4
S3150800025003F08EFC09213E2003F08AFC09212D209B
S3150800026003F086FC0921512003F082FC002008BD1A
S3150800027007B501A805F09CF99DF80530012B14D1A6
S315080002809DF804308BB94FF48012124B1249586E00
S3150800029003F580535A664B6B23F0E05343F04063F3
S315080002A04B63C3025CBF0D4B5A6605F00DFD05F0A6
S315080002B0A6FC05F027FD05F0B9FC05F0EDFCFFF7F7
S315080002C0B5FF05F0A1FC01F053FB03B05DF804EBA4
S315080002D005F03ABF008000500040005A00A00050C8
S315080002E008B501F0F7FA00F0D3FE00F0DDFEBDE830
S315080002F0084000F05FB808B506F0B0FB05F004FD4D
S315080003001CF021FA05F0D6FD11F08CFBBDE808407B
S315080003101CF086BA08B505F055FC05F059FC05F041
S3150800032069FCBDE8084009F087B900F004B87047D1
S3150800033070477047704708B500F05EFD09F018F978
S31508000340BDE8084000F06EBD0120704701207047E7
S3150800035010B509F023F90446FFF7F6FF002814BF85
S315080003602046002010BD38B506F0E2F8044602F033
S31508000370F7FC042810D002284FF0000508BF012416
S31508000380FFF7E4FF042809D0022808BF0124002D3E
S3150800039018BF0024204638BD0125F1E70024F9E7F7
S315080003A018B1034B1860002070472520704700BF1E
S315080003B01418002010B5054C0549206802F0F6FA15
S315080003C02068BDE81040FFF7EBBF00BF24120020ED
S315080003D0001200200CB402B07047000073B56E46D8
S315080003E00D4C3046214604F0CFFC96E803004FF446
S315080003F096620A4D04F5005485E803002B685343BA
S315080004004FF47A72B3FBF2F3054A13604FF40073A4
S31508000410636202B070BD00BF004000594818002052
S3150800042050190020022238B5514B524C5A61524A93
S31508000430237A1278002A54D00A2B1ED1D4ED057AD5
S315080004409FED4E7A77EE877AB6EE007A67EE877A70
S31508000450C4ED057A02224A4B9A61A3F580535A697C
S3150800046003F500535A614FF40032464B1A600120D7
S3150800047002F0E2FC0123637438BD092B31D8072B3F
S315080004800AD9D4ED057AF5EEC07AF1EE10FAC1BFB5
S3150800049001223D4922740A700233237202F0FAFCE3
S315080004A0237A656894ED057AB5FBF3F507EE905A5D
S315080004B0F8EE677A77EE877AB6EE007A67EE877A8D
S315080004C0B5F5FA7F29464FF0000038BF4FF4FA71A8
S315080004D0C4ED057A02F0D2FC29462C4822F024F80D
S315080004E0B8E7012B31D9022B0CD1D4ED057AF5EEFC
S315080004F0C07AF1EE10FA05D5254A127812B1012113
S31508000500244A1170013B237202F0C4FC237A656801
S315080005100020B5FBF3F507EE905AB8EE677AD4EDEE
S31508000520057A77EEC77AB6EE007A67EE877AB5F57A
S31508000530FA7F294638BF4FF4FA71C4ED057A02F0FE
S315080005409DFC2946114821F0EFFF237A012B81D122
S31508000550D4ED057A9FED097A77EE877AB6EE007ABA
S31508000560002367EE877A2374C4ED057A72E700BF25
S3150800057000600650201800203818002000000000EF
S315080005800050065000E100E018180020409D0508BC
S315080005901A180020191800201FB50C214FF4F06016
S315080005A003F0E6FA01213D2002F0E0FE01213C209D
S315080005B002F0DCFE114A01AB07CA83E8070040F2E5
S315080005C001121846ADF80C2002F002FC02F062FC9B
S315080005D00B4B00201A7A5968B1FBF2F102F04EFC77
S315080005E00222084B9A614FF40032074B1A60012029
S315080005F002F022FC05B05DF804FB00BFF09D05087B
S31508000600201800200050065000E100E01FB547F012
S31508000610CFFA0146294821F087FF00F0B1FA45F0E4
S315080006205FFE10B9264821F07FFF45F015F90390C3
S3150800063020B9244821F078FF45F090FE0398B7EEDC
S31508000640000A019045F086FAB0EE000A019845F0D6
S315080006506BFA9FED1D0A019845F03AFA9FED1B0AC1
S31508000660019845F04BFA0021019845F09FFA0021C0
S31508000670019845F085FA0521019845F0ADFA0398E9
S3150800068045F066F9124C206038B9124821F04CFF43
S3150800069003A845F039F945F061FE03A845F034F999
S315080006A0206845F0BBF938B90B4821F03DFF0848EA
S315080006B045F08EF945F052FE04B010BD4D9D050873
S315080006C06B9D0508839D0508CDCC4C3ECDCCCC3F13
S315080006D01C180020A39D0508BE9D050813B5012119
S315080006E03A2002F043FE012304221846032104F0AF
S315080006F079F8002302221846052104F073F800242D
S315080007000123052220461146CDE9004304F012F8DC
S31508000710042220461146012304F064F823460422E5
S315080007200721022004F05EF823460422082102204D
S3150800073004F058F8234604220921022002B0BDE835
S31508000740104004F04FB80000F0B5354E93B008AD30
S315080007500FCE0FC50FCE0FC596E80300012600245D
S31508000760032785E8030031463B20CDE90344CDE95C
S31508000770054407948DF80E708DF808608DF80940C9
S315080007808DF80A408DF80B4002F0F0FD20464FF434
S315080007902C524FF4285104F0B1FE902221462046EF
S315080007A004F0B1FE31462A2002F0E0FD4FF49663CC
S315080007B01C4D0B939DF81930224600932846234674
S315080007C019498DF824408DF8214004F0B7FA102312
S315080007D00A9008AA284605A98DF809308DF81070E0
S315080007E08DF80E708DF813608DF8086004F0E4FA41
S315080007F002AA03A9284604F02EFA0C4A05F5005366
S315080008005A6270214FF40032AB6A43F40073AB624C
S31508000810074BC3F8842183F819135A6013B0F0BD47
S31508000820FC9D05080040005940420F008F330F8099
S3150800083000E100E070B52DED028B364D84B06B7C7F
S31508000840ABB14FF48076344B344CC3F8A060344BCC
S315080008502146186845F0FEF8324BC3F8A0602B7A9B
S31508000860009394E80F0000F055FB00236B742E4BA1
S315080008701B78002B49D02D4D2D4C2B7813B12D4BC1
S315080008801B7813B12378002B3FD000F0C9FB00F08A
S31508000890DBFBB0EE408AFE220021274856F03BF9E2
S315080008A0BCEEC88A254BDFED266A1A6823788DEDDB
S315080008B0028A0392194A83F0010392ED027A27EE1F
S315080008C0267ABCEEC77A8DED017AD2ED017A67EE0B
S315080008D0A67AFCEEE77A1B4ACDED007AFE21164889
S315080008E056F0D6FC2378134A5BB1002313702B709D
S315080008F02370114804B0BDEC028BBDE8704000F0CF
S3150800090009BA01212B701170F3E704B0BDEC028B14
S3150800091070BD00BF2018002000D0035038180020F2
S315080009201C18002000E00350741900201818002035
S31508000930191800201A1800205018002050190020F5
S3150800094000007A44DB9D050808B506F0AFFBFFF703
S31508000950C5FE00F04FFB0A23114C237040F6B8334E
S3150800096063600123237206F06DF9002323824FF09A
S315080009707E53E0606361FFF70FFE00F059FAFFF758
S3150800098045FE8022074BC3F8A020FFF7DDFE06F0E0
S315080009909AFB00F075FAFFF74DFF05F0C7FCF6E77E
S315080009A02018002000D0035010B500F01FFA4FF4AD
S315080009B0FA6125F0AAFF044638B900F017FA4FF095
S315080009C0000126F04AFB044648B1204625F09AFE67
S315080009D02146BDE810400246014821F0A5BD10BDDC
S315080009E0249E05080120704770B5A4B000F0FEF9F2
S315080009F0052108F0FBF87822002106A856F08BF8A6
S31508000A002C4B2D4A1C93BDF88C30106843F4C073E8
S31508000A1043F00103ADF88C306B465168082203C3D6
S31508000A2069460DF1590056F04FF802AA15469DF889
S31508000A308C3043F010038DF88C30204B03F11006F0
S31508000A40144618685968083303C4B3422246F7D1D6
S31508000A50102229460EA856F037F89DF88C3018480B
S31508000A6043F004038DF88C3056F085FC10280246B6
S31508000A7005D97321134B144A144855F079FF1049C8
S31508000A8012A856F021F89DF88C3043F008038DF82B
S31508000A908C3000F0ABF906A925F091FD044630B17B
S31508000AA025F030FE21460246094821F03DFD24B0D6
S31508000AB070BD00BFADDE0F00A59E0508AE9E0508F9
S31508000AC028130020499E0508BF9E05086C9E050848
S31508000AD07C9E0508704700009FED010A704700BF1D
S31508000AE0405DC64B08200A4B70B5186700BF0C4618
S31508000AF0084E8D18AC4203D10822074B1A6770BD01
S31508000B002178304603F06EFC04F8010BF2E700BFCB
S31508000B1000E003500000015B00D0035070B50D469D
S31508000B2006F090F806460B4C636C9B0604D406F058
S31508000B3089F8831BAB4203D3606CC0F3401070BDC9
S31508000B4072B6636C9A0600D430BF62B6BFF36F8F75
S31508000B50EAE700BF00C003501022034B05201A64C1
S31508000B6008221A6700F010B800E003501022034B61
S31508000B7005201A6408221A6700F006B800D0035048
S31508000B8000487047D89E050880B206F093B808B5A5
S31508000B9006F058F8BDE8084006F0C6B82DE9F34156
S31508000BA0174680223C4B07F11004C3F8A0200646DE
S31508000BB020460D4600F072F92346384C03F1100C16
S31508000BC01A4603CA624520606160134604F10804A8
S31508000BD0F6D1284625F011FC00218046304625F03E
S31508000BE0D2FB0446002836D044230222294625F0A3
S31508000BF0D9FB284625F012FC0190284625F007FC6B
S31508000C0001990246204625F0E4FB204625F0ECFB38
S31508000C10284625F0DEFF1F230146214A284625F0EF
S31508000C20DCFF1F491F4821F07FFCB8F1010F1CD1DA
S31508000C301D4B19680846019156F09DFB019982B231
S31508000C40204625F0C8FF034610BB3A4621463046E3
S31508000C5025F032FCE0B90122144B1A708022144B9D
S31508000C60C3F8A02002B0BDE8F081124B1968084607
S31508000C70019156F080FB019982B2204625F0ABFF20
S31508000C8005468521204625F0BDFB0DB92B46DCE738
S31508000C90204625F09AFFDEE700D0035054190020BD
S31508000CA075190020149F05083813002074190020B0
S31508000CB000E003503C130020F8B58026104C114D77
S31508000CC004F58053C3F8A0600F4F00F08FF841F287
S31508000CD0336125F0DBFB2F6000F088F80B4B0C2204
S31508000CE00B49A86038466B6004F5005456F04BFB78
S31508000CF000F07CF8294625F0D4FBC4F8A060F8BDBE
S31508000D0000C00350641900204F9F05089D0B00087A
S31508000D102C9F05088022F0B52F4B93B0C3F8A0206E
S31508000D2003AA054616462D4B03F110071446186804
S31508000D305968083303C4BB422246F7D100F056F877
S31508000D40002125F020FB04460322002125F028FB7C
S31508000D500221204625F03FFB2149204625F042FB8B
S31508000D60284656F008FB87B23FB1204625F03CFBE3
S31508000D703A462946204625F02EFF2C2200210BADA7
S31508000D8007A855F0C8FE96E80F0085E80F0041F25F
S31508000D903363ADF83E3000F029F800232146CDE94B
S31508000DA0003307AA25F052FB054690B114B1204638
S31508000DB025F00BFF084B4FF400722946C3F8A02014
S31508000DC0084821F0B1FB8022074BC3F8A02013B0D6
S31508000DD0F0BD054BEFE700BF00D0035054190020C3
S31508000DE075190020389F050800E00350014B186864
S31508000DF0704700BF9819002008B525F085FC054BFB
S31508000E00186028B95A21044B044A054855F0B0FD24
S31508000E1008BD00BF981900205B9F0508E39F0508D9
S31508000E20659F0508014B18681EF078BD98190020C3
S31508000E3010B50E4CFFF7B8FDFFF7D6FD0121206867
S31508000E4025F072FC28B16A21094B0A4A0A4855F06E
S31508000E508FFD0121206826F04AFA18B16B21074B4D
S31508000E60044AF3E7BDE81040FFF726BF98190020AB
S31508000E70739F0508DA9F0508659F0508A59F05085D
S31508000E8010B5054C206826F09AF8206808F0E0FBB3
S31508000E90BDE81040FFF71EBE9819002010B504469D
S31508000EA0C6B000282FD04FF48072002106A855F04E
S31508000EB032FE06A856F05FFAE189638849BA89B214
S31508000EC022880591A1895BBA49BA89B204916189D8
S31508000ED052BA49BA89B2039121899BB249BA89B2F1
S31508000EE00291E18892B249BA89B20191A18806AC09
S31508000EF049BA89B200912044044956F0FDF92146C1
S31508000F00034821F011FB46B010BD00BFF99F050844
S31508000F1056C305081FB50DF1100C0CE90F009DF816
S31508000F2000309DF81810D3B10E4821F0FDFADFED18
S31508000F300E6A9DED027ADDED017A27EE267A67EED6
S31508000F40A67ABDEEC77AFDEEE77A17EE102A17EEF7
S31508000F50901A064805B05DF804EB21F0E5BA044896
S31508000F60E3E700BF26A0050800007A4442A005086A
S31508000F7032A0050810B588B002AC02228DF8070029
S31508000F800021204655F0C7FD0B4B03A903930DF12D
S31508000F90070304930123ADF8143002234FF0B6403B
S31508000FA00694ADF81C3000F02FFABDF8080040BAD8
S31508000FB080B208B010BD00BF880004007FB50C4B96
S31508000FC08DF8000001930323ADF80C3000238DF84B
S31508000FD001104FF0B64001A98DF80220CDF808D0CF
S31508000FE00493ADF8143000F00FFA07B05DF804FB6F
S31508000FF08800010008B50022C6210120FFF7DEFFA0
S31508001000BDE808400022C0210220FFF7D7BF08B577
S315080010100120FFF7AFFF80F08000C0F3C01008BDC5
S3150800102010B50024FFF7F3FF01340128E4B206D116
S31508001030FF2CF7D10120BDE81040FFF79BBFFF2C1E
S31508001040F8D00020F7E70000F8B50446000B55F085
S3150800105035FA41EC100B57F047F8C4F30B0057EC80
S31508001060106B55F03BFA002204460D4630463946C9
S31508001070064B58F099FB02460B462046294658F07F
S3150800108093FB55F095FA00EE100AF8BD00002440CF
S3150800109008B53A20012102F069F9BDE8084001487F
S315080010A000F03CB940130020024B0349186800F0D1
S315080010B0C3BD00BF7413002054130020FEE70000D0
S315080010C008B500F02DF8124B12498B4212D30020B6
S315080010D0114B12498B4218D3FFF76EF8186850F86F
S315080010E02240586840F82240013298688242F5D377
S315080010F00C33EAE70022F8E71C6844F822000132BC
S315080011005C68A242F8D30833E4E70022F8E700BF98
S31508001110707B06087C7B06087C7B06087C7B0608B9
S315080011204FF480414FF0FF30114B124A10B59A60C8
S31508001130D3F8882042F47002C3F888200E4A9166D4
S315080011400E4901F5005210660D4850660220C3F894
S31508001150D000BFF34F8FBFF36F8F01244FF4403396
S315080011600848C0F88041D36004600B6110BD00BF19
S3150800117000ED00E0000000080090005000800044E8
S31508001180F7FF370000E100E0014B1868704700BF21
S315080011907C130020084B1B6F03F00703022B04D0B7
S315080011A0032B05D0012B05D0FEE7044B18687047C2
S315080011B0034BFBE703487047008000507C13002070
S315080011C080130020002D310108B5FFF7E3FF054B1A
S315080011D01B6FC3F303330133B0FBF3F0024B186004
S315080011E008BD00BF008000507813002000487047F3
S315080011F000B4C404014B1868704700BF8013002070
S31508001200054B1860054B1B6F03F00703032B01D131
S31508001210FFF7DABF704700BF801300200080005038
S315080012200020704700487047002D31014FF0B44345
S315080012309868C0F304400C2822D8DFE800F009219A
S3150800124021212121071719211B1D1F000F4870474F
S315080012509B6803F04073B3F1807F13D0B3F1007F2E
S3150800126012D00B4A002B08BF104670470948704732
S315080012700948704709487047094870470948704740
S31508001280002070470848704708487047405DC60008
S3150800129000093D000024F400C0EA210180BA8C014F
S315080012A00048E801005A620280841E0040420F008E
S315080012B04FF4004070474FF47A707047014B186836
S315080012C0704700BF8413002000230360704703683B
S315080012D00B60016070470346006818B102681A601F
S315080012E0002303607047036803B970478B4202D135
S315080012F00B68036070471846F5E7000005490A6859
S315080013001318054883428CBF4FF0FF320B60104616
S31508001310704700BF88130020000004202DE9FF4114
S3150800132003680446B3F1B64F04D0354A934251D107
S315080013302F2000E02E20012102F018F801230A22AE
S315080013406179207903F04EFA01230A22E179A0791E
S3150800135003F048FA092701262A4D4FF0300822796A
S31508001360637908FB025206FA03F302F50152136089
S31508001370642005F0B3FE2379627908FB035306FA65
S3150800138002F203F5825364201A6005F0A7FE013FB6
S31508001390E3D12068B0F1B64F1FD10323C5F8E8346E
S315080013A06279237943EA0243C5F8EC34E279A379F2
S315080013B043EA0243C5F8F03440F20113ADF80030B1
S315080013C0E36869460293A3680193237C8DF80C3081
S315080013D003F08EFA04B0BDE8F081094B9842EBD1D0
S315080013E00323C5F8F8346279237943EA0243C5F83A
S315080013F0FC34E279A37943EA0243C5F80035DBE712
S315080014000080065000C0035038B5054603F09EFB21
S31508001410044C012801D1013C00D138BD284603F00F
S3150800142089FAF6E7E19304002DE9F04F9A46564B00
S3150800143085B01B7806460F461546DDF83C909DF8A4
S3150800144044B0DDF85080002B00F08D80072A00F2AA
S315080014508C800E9B002B00F08880B9F1000F00F0FD
S315080014608480129BB3F5006F7FDC012802D1109BA4
S31508001470002B7AD0454B03EB05131B7B002B76D04C
S31508001480434C10220021684655F045FB04EB4514F1
S315080014901022002F59D13946204655F03CFB43F21D
S315080014A010036380BBF1000F03D1E37843F0030315
S315080014B0E370374A0E9B02EB451CCCE90193129B5D
S315080014C06901013BC3F30A009DF84C30012E03F075
S315080014D003034FEA836343EA001E53582D48CDF8A9
S315080014E000A000EA03004EEA0003535041D113233B
S315080014F00CF1100ECCF80C309CE80F008EE80F00AB
S315080015006FF00301DCF81C20109B61F39F02012F8A
S31508001510CCF81C20CCF8143003D1CCF81890CCF8B1
S3150800152004300027194A290102EB051342F8018005
S31508001530159A28465A60694622469F605E7303F0EC
S3150800154003FF384605B0BDE8F08F0021204655F068
S31508001550E2FA4FF444736380BBF1000FA9D1E37834
S3150800156043F03003A4E70C48ECE70C48EAE70C48DC
S31508001570E8E7B8F1000FD4D19CF8023068F30413F9
S315080015808CF80230CDE700BF9C1B00201C1A0020F7
S315080015909C1A00200F80FFF3028000F0018000F003
S315080015A0078000F038B5124B05461B78DBB1E0B171
S315080015B002F04DFD0F4A00231146147B54B92B60E7
S315080015C001251A0101EB03131D738C5002F045FD2A
S315080015D0204638BD0133082B02F11002EDD102F086
S315080015E03CFD0548F5E70548F3E70548F1E700BF80
S315080015F09C1B00201C1A0020048000F0028000F0CA
S31508001600018000F0154B13B51868002301908DF87A
S31508001610043002F01CFD124B1C7824B102F01DFDAB
S31508001620104802B010BD01221A7002F016FD0E4BCA
S3150800163001A81C731C7783F82C4083F83C4083F878
S315080016404C4083F85C4083F86C4083F87C40082360
S315080016508DF8073003F046FE2046E2E764A0050849
S315080016609C1B0020038000F01C1A002010B588B0CF
S315080016700E9C009207940D9C024606949DF83040F5
S3150800168005940B9C04949DF8284003940024CDE906
S31508001690013420460B462146FFF7C6FE08B010BDAA
S315080016A010B588B00E9C009207940D9C02460694CD
S315080016B09DF8304005940B9C04949DF828400394AB
S315080016C00024CDE9013420460B460121FFF7ACFE84
S315080016D008B010BD0A4A08B512785AB107280BD8BF
S315080016E0084A02EB00131B7B43B1002103F0ECFD13
S315080016F0002008BD0448FCE70448FAE70448F8E770
S315080017009C1B00201C1A0020028000F0018000F0BB
S31508001710078000F00A4A08B512785AB107280BD88C
S31508001720084A02EB00131B7B43B1012103F0CCFDF1
S31508001730002008BD0448FCE70448FAE70448F8E72F
S315080017409C1B00201C1A0020028000F0018000F07B
S31508001750078000F00A4A08B5127852B107280AD855
S31508001760084A02EB00131B7B3BB103F03BFE00204B
S3150800177008BD0548FCE70548FAE70548F8E700BF4D
S315080017809C1B00201C1A0020028000F0018000F03B
S31508001790078000F00D4B1B7893B1072812D889B142
S315080017A00B4B03EB00131B7B73B10A4BDA6A01235D
S315080017B003FA00F010401ABF00200B70087070473B
S315080017C00548704705487047054870479C1B002028
S315080017D01C1A002000000450028000F0018000F06E
S315080017E0078000F00B4A10B512780C4662B107283C
S315080017F00CD859B1084A02EB00131B7B43B103F01E
S3150800180003FE2060002010BD0448FCE70448FAE700
S315080018100448F8E79C1B00201C1A0020028000F0F0
S31508001820018000F0078000F02DE9F843174B1F6D83
S315080018305B6D1F4000D5FEE701260025144CDFF836
S315080018405480DFF85490374217D02368C8F85060A0
S315080018509BB1A168284601316268A1609847637BFD
S31508001860012B0AD148B909EB45131A7B60F34102EB
S315080018701A731A7F60F341021A770135082D4FEA69
S31508001880460604F11004DED1BDE8F88300000450D2
S315080018901C1A0020002004509C1A002070B504462B
S315080018A001250B4E04B970BD94FAA4F0B0FA80F085
S315080018B005FA00F306EB001224EA03045368002B2A
S315080018C0F0D0117B11B191689847EBE79847E9E7A3
S315080018D0A01B002008B5192002F0C2FB28B14FF062
S315080018E00072074BC3F880211A601A2002F0B8FB71
S315080018F028B14FF08062024BC3F880211A6008BDF8
S3150800190000E100E038B505460C4602F0A0FB0022CF
S31508001910044B03EB05135C601A73BDE8384002F00C
S315080019209CBB00BFA01B0020074BD3F82404D3F8A8
S31508001930202403F50053104000F0553020F05020C5
S31508001940C3F82004FFF7AABF00C00350074BD3F81B
S315080019502404D3F8202403F50053104000F0AA30DD
S3150800196020F0A020C3F82004FFF798BF00C003505A
S31508001970024B1968024B18684BF074BE901300208E
S315080019808C1300207047000037B5920004460D46B8
S31508001990019258F0CDF9431C0BD060B92946204670
S315080019A0019A55F081F80028044808BF002003B0C2
S315080019B030BD0348FBE70348F9E700BF10E000F035
S315080019C021E000F024E000F013B5044601A803F076
S315080019D0EFFD9DF80630012223804FF48073002026
S315080019E06380054B9B680A3303F01F0302FA03F36F
S315080019F0636002B010BD00BF0080E00F03F032BD87
S31508001A0008B503F01FFD002008BD10B5044644EADA
S31508001A10010313F00303084609D1934201D10020BC
S31508001A2010BD54F8231040F823100133F5E721467A
S31508001A30920055F049F8F2E710B5044658F070F9E7
S31508001A40431C15D0B0B90C4B20469B680A3303F0EB
S31508001A501F020123934023F003032344984201D134
S31508001A60002010BD50F8042B0132F7D00348F8E7E0
S31508001A700348F6E70348F4E70080E00F0EE000F0BD
S31508001A8021E000F024E000F008B502F0D1FA014B9D
S31508001A90186008BD30240020014B186802F0CCBA43
S31508001AA0302400200A460139014404F05FBA2DE9C2
S31508001AB0F34104460B46E27B94F80BC0007A677A3A
S31508001AC0A57A217B94F80D80A67B84F844C084F817
S31508001AD04520002B3DD0237F0BBB0422019302F047
S31508001AE081FE019B01224146384602F07BFEA27F19
S31508001AF03146012A8CBF0123019B0422284602F0A5
S31508001B0071FEE37F3BB90123042294F8451094F84B
S31508001B10440002F067FE002002B0BDE8F081002311
S31508001B20012202F05FFE002304224146384602F0F5
S31508001B3059FEA37F0222012B94BF002301233146BD
S31508001B40284602F04FFEE37F002BE4D10123022250
S31508001B50DBE70222019302F045FE019B0222414681
S31508001B60384602F03FFEA27F3146012A8CBF012388
S31508001B70019B0222284602F035FEE37F002BCAD1DC
S31508001B801A46C2E701292DE9F84326D8244B254EE3
S31508001B901C68254FDFF89C807C3C14F17C0F01D132
S31508001BA0BDE8F883D4F800900521484602F010FCF9
S31508001BB01E4B99450FD01E4B99450CBF3D464546D1
S31508001BC002F036FA2B6843F018032B6002F034FA59
S31508001BD0E46F7C3CE1E73546F2E702390129DFD8B4
S31508001BE00F4B104E1C68104FDFF848807C3C14F1F0
S31508001BF07C0FD5D023680D4A93420FD00C4A9342E6
S31508001C000CBF3D46454602F013FA2B6823F018032D
S31508001C102B6002F011FAE46F7C3CE8E73546F2E700
S31508001C20E424002094C40350B4C403500000015BAC
S31508001C3000000A5074C403502DE9F0410B68844A29
S31508001C408EB0934205460C460DF1180803D0814A1A
S31508001C50934240F0E58047467F4ECDF814800FCE7C
S31508001C600FC796E80F00103687E80F000FCE01AFB2
S31508001C700FC7002D00F0D2800027802200212846B9
S31508001C8054F049FF2268724BAF659A4240F08E8045
S31508001C9056232B654FF47023DFF8EC81C5E90B83D7
S31508001CA00123A44685F85C302E1D2A60BCE80F0087
S31508001CB00FC69CE80F0086E80F00637E012B08BF5D
S31508001CC08DF81D30A37E002B40F08E80227E8DF885
S31508001CD01230012AE36840F092806049059A8B42E7
S31508001CE08CBF04230523537700238DF811305C4BF2
S31508001CF001213A20039301F039FB0121286D01F0F7
S31508001D0035FB2369DA1F092A53D8063B8DF81030AC
S31508001D10237E2BB9E37EB3FA83F35B098DF81C3077
S31508001D2001212846FFF7C3FE0646002842D1227A3B
S31508001D30237943EA02437A0102F1A04202F570329E
S31508001D40C2F8AC34637A617941EA0341C2F8A41453
S31508001D50A07AA17941EA0041C2F8A814E37E002BD3
S31508001D6040F03F81E17AE37943EA0143C2F89834C7
S31508001D701D23C2F89434206801A902F0B1FB02F0D1
S31508001D8066F9384B1A78002A3DD101221A7002F0FA
S31508001D9064F904F063FEFFF735FC002105F1240021
S31508001DA0FFF700FC014688B32F4E03E0294B9A4201
S31508001DB010D02E4E2E4B1B681BB92E492E4804F008
S31508001DC093FA2B4805F17C01FFF781FA30460EB0ED
S31508001DD0BDE8F08157232B654FF48013DFF8ACC0BC
S31508001DE00127C5E90BC35BE7012B01D104236DE786
S31508001DF0022B3FF46BAF032BDBD1062366E70022E9
S31508001E008DF8342074E702F028F9C4E705F12800B4
S31508001E10FFF7C8FB06460028CCD0C5E7174EC9E72A
S31508001E204646174F0FCF0FC697E8070086E8070004
S31508001E30002D00F0D48080220021284654F06BFE45
S31508001E40002322680F49AB658A4221D0074EBDE7B9
S31508001E500000015B00000A508CA005083F4B4C00AF
S31508001E6040420F00F0240020092000F0022000F074
S31508001E70E4240020B0130020E8240020012000F00C
S31508001E80C0A0050800C0055001000F0001001000A1
S31508001E90292129654FF480212746534E85F85C3061
S31508001EA0C5E90B612E1D2A600FCF0FC697E80F00F4
S31508001EB086E80F00637E012B08BF8DF82630A37EC7
S31508001EC0002B66D1ADF82830237E0121012B03BFF4
S31508001ED000238DF825304FF47A73E3683A20089387
S31508001EE001F044FA0121286D01F040FA23691A1F0E
S31508001EF00C2AABD8033B414620688DF8243003F002
S31508001F008FFCA36923F47F0323F47F4323B92A684C
S31508001F10936843F480339360237A2079617940EAA1
S31508001F200340637AA27941EA0341E67EA37A42EA4C
S31508001F3003422E4B002E3CD11D26C3F82067C3F85A
S31508001F403807C3F83017C3F83427E17AE27942EA4A
S31508001F500142C3F8242701212846FFF7A8FD0646B3
S31508001F6000287FF433AF02F072F8214B1A7852BB7F
S31508001F7001221A7002F071F804F070FDFFF742FBB7
S31508001F80002105F12400FFF70DFB0146F0B1194EBB
S31508001F901CE7012B02D14FF4007393E7022B02D101
S31508001FA04FF480738EE7032B7FF450AF4FF44073E2
S31508001FB088E71C24C3F82047C3F83807C3F8301746
S31508001FC0C3F83427C7E702F048F8D7E705F1280031
S31508001FD0FFF7E8FA064600283FF4F8AED7E7064EBC
S31508001FE0F4E61C23C5E600BF0200040000C0035047
S31508001FF0F0240020092000F0012000F038B141B19A
S31508002000013AB2F5006F044838BF0020704703480C
S3150800201070470148704700BF037000F0027000F077
S3150800202038B504460D4602F012F8A3889BB223B9C8
S315080020302B6002F012F8064838BD142263889BB25A
S3150800204002FB034408342C6002F007F80020F3E78B
S315080020500B7000F01FB504460B46C07EE17F002BCF
S3150800206039D00123042202F0BDFB0123022294F891
S315080020702010207F02F0B6FB94F83530022B19D1D8
S315080020800023012294F82110607F02F0ABFB0023A5
S31508002090042294F82210A07F02F0A4FB012394F8EE
S315080020A0212001931146607F009302F043FB002034
S315080020B004B010BD032BFAD10023012294F8211095
S315080020C0607F02F08FFB0023042294F82210A07F81
S315080020D002F088FBEBE71A46039302F083FB039BA7
S315080020E094F820101A46207F02F07CFB94F83520DD
S315080020F0039B022A12D11A4694F82110607F02F037
S3150800210071FB039B94F822101A46A07F02F06AFB23
S31508002110039B94F8212001930123C3E7032AC6D120
S315080021201A4694F82110607F039302F05BFB039B29
S315080021301A46CAE7F7B504461646019101F087FF25
S31508002140A388E2889BB29A420546019906D80023DD
S31508002150336001F082FF124803B0F0BD14272088CF
S315080021603A4680B207FB0040083054F0ADFC23889D
S31508002170E2889BB207FB034308333360238828466B
S315080021809BB20133B3FBF2F102FB11339BB22380FE
S31508002190A38801339BB2A38001F05FFF0020DBE731
S315080021A00A7000F0034610B593F836300068022B23
S315080021B00CD102F04DFA044630B104F069FD24232F
S315080021C05843B0FBF4F40134204610BD03F076FA08
S315080021D0F1E7000090F83530022B0DD11422302398
S315080021E0417F90F8210013FB0123044A9B5823FAE8
S315080021F000F000F0010070470020704730C003501F
S31508002200002313B51D4A52F8044B94F82110814255
S315080022100ED00133042BF6D102B010BD0028FBD135
S315080022209DF80730002BF7D0A068FFF753FAF3E7BD
S3150800223094F83530022BEFD12046FFF7CBFF637EAB
S315080022402076022BE8D194F8323003F0FF02002BF7
S31508002250E2D1A0680DF107018DF80720FFF79AFA79
S31508002260237E1BB194F83330002BD7D00023A06807
S3150800227084F83330FFF74EFACEE700BFF424002087
S31508002280104930B50B78104A2BB9C2E90033C2E9B8
S31508002290023301230B700C4C0023214651F8045BD2
S315080022A0854208D00133042BF8D1002154F8043BA9
S315080022B01BB942F82100002003E001310429F5D1B9
S315080022C0024830BD04250020F4240020027000F0E6
S315080022D010B50446FFF796F9002104F10800FFF748
S315080022E061F9014620B904F10C00FFF75BF900B16A
S315080022F0004810BD0E7000F090F8363053B904212E
S3150800230003790A4A03F239135B01D15002220368A2
S315080023105A617047022B07D10068816C11F00201DF
S3150800232018BF062102F054B8704700BF00C003501A
S3150800233090F8363063B9012203685A619A69D20760
S31508002340FCD504210379084AB9335B01D15070479B
S31508002350022B07D10068836C9B074CBF0521092116
S3150800236002F036B8704700BF00C0035010B590F8A9
S315080023703630044663B9042203685A619A6992079B
S31508002380FCD523790C4AB9335B011021995010BD4D
S31508002390022BFCD10068836CDB074CBF05210621A4
S315080023A002F016F8237941F294425B0103F1A04347
S315080023B003F57033E9E700BF00C0035037B504469C
S315080023C0836B01F044FEA36B0546013BA363A16B37
S315080023D079B9019101F02CFE04460199012003F018
S315080023E0E5FE0120064A019904F0E2F8204601F0CC
S315080023F023FE284603B0BDE8304001F02EBE00BFDC
S31508002400DCA0050813B591F836200B68022A0CBF24
S315080024109B6C9B690C469B06084605D5FFF7CEFFC5
S315080024200223A36502B010BDFFF7BCFE00230146D8
S31508002430CDE90033034A234604F13C0004F0A6FB29
S31508002440F0E700BF0524000870B5044601F0FFFD5B
S31508002450A36B054673B901F0EBFD01210646084654
S3150800246003F0A4FE0121074A084604F0A1F8304605
S3150800247001F0E2FDA36B28460133A363BDE8704073
S3150800248001F0EBBDDCA005087FB5012380F83030EC
S3150800249090F8363083B9036824330D4A04900392C2
S315080024A0002202924A680192012200920A68416952
S315080024B0C068FFF7F5F807E0022B02D103683C3342
S315080024C0EBE7002380F8303007B05DF804FB00BF67
S315080024D0E92B000801232DE9F04180F8313090F806
S315080024E0363004460E4688B063BB05683C3501F0B5
S315080024F0AEFD04F13C0807460DF11F01404604F005
S3150800250029FB40B99DF81F302BB1404604F0E0FA8C
S315080025102046FFF753FF3846012701F09EFD204667
S31508002520A765FFF791FF0D4B2A46039300230293F5
S3150800253073682169CDE90073A06833680494FFF7CE
S3150800254095F807E0022B02D105684435CFE700234A
S3150800255080F8313008B0BDE8F08100BFA925000831
S3150800256038B504460D4601F072FDA3889BB223B91F
S315080025702B60BDE8384001F070BD142263889BB219
S3150800258002FB034308332B606388E2889BB201335E
S31508002590B3FBF2F102FB11339BB26380A388013BC4
S315080025A09BB2A380E5E70000F0B585B0D06A03A921
S315080025B01446FFF735FD06462046FFF7F3FD0025CE
S315080025C001462346CDE90055164A04F13C0004F0BD
S315080025D0DDFA154B9E421FD0039B1D619D6001F0DD
S315080025E036FD039A0646D76827B1D2E9002329465D
S315080025F02046B847E06A03A9FFF7B2FFE06A838876
S315080026009BB263B103A9FFF70BFD20460399FFF7B9
S3150800261061FF304601F021FD012005B0F0BD84F8C8
S315080026203130F6E7052400080B7000F090F83630D4
S3150800263013B9036898697047022B06BF0368986C3C
S31508002640002070472DE9F3410D46044600287FD047
S3150800265001F0FDFC012D064641D1E36A9B889BB239
S31508002660002B43D0A068FFF775F80023E06A84F8CA
S31508002670313083889BB273B101A9FFF7D1FC019968
S31508002680A0680831FFF7AEF8374F019B1F61E06A73
S3150800269083889BB283BB2046FFF7C8FF8304FAD51D
S315080026A0023D012D10D8E068FFF754F80023A06A10
S315080026B084F8303083889BB26BBB94F83530032B93
S315080026C002D02046FFF718FEA36B002B02DD20463A
S315080026D0FFF774FE304601F0C0FC002009E0022D29
S315080026E038D1A36A9B889BB2002BDCD101F0B5FCDC
S315080026F01E4802B0BDE8F08101A9FFF731FF019B32
S31508002700D3F80C80B8F1000FC1D000223946204614
S315080027109B68C047BBE76946FFF782FC0099E068FB
S315080027200831FFF75FF8104D009B1D61A06A83888A
S315080027309BB2002BC1D06946FFF712FF009BDF68EA
S31508002740002FF3D00022294620469B68B847EDE7BC
S315080027500748CEE7032DA3D1E36A9B889BB2002BDB
S3150800276080D1A36A7AE700BF097000F0087000F00C
S31508002770027000F02DE9F341984600230546806A69
S315080027800E4684881746A4B2CDE900333CB16946A3
S31508002790FFF746FC01A90446E868FFF723F8009B03
S315080027A073B16CB95A6801991B68521A3A60C8F82D
S315080027B0001028463360FFF739FF02B0BDE8F08104
S315080027C00023C8F800303B60F3E7C36A9888C0B2B4
S315080027D070470000F8B507460D461646FFF70EFC8B
S315080027E000286BD1152001F049FC0446FA6A938843
S315080027F09BB213B197F83230E3B197F83630F3B994
S315080028003B689C6904F002041CB93846FFF7AEFD24
S315080028100024012387F8343097F83630CBB92E4494
S31508002820B542386810D183699A06FCD51CB30024D2
S315080028302046F8BD002CDAD0FEF7F6FFD6E7022BC5
S31508002840E3D13B689C6CDDE715F8011B03F03EF805
S31508002850E6E7022BEAD12E44B542386806D142F2A1
S315080028602003826C33EA0202FBD1DFE715F8011B6D
S3150800287001F0B3FDF0E797F8363053B910213B79EC
S315080028800F4A03F239135B01D15008223B685A619B
S31508002890CEE7022BCCD13868836CDB074CBF092105
S315080028A0214601F095FD42F2944210213B795B01E5
S315080028B003F1A04303F570339950B9E70446B7E727
S315080028C000C0035010B5044680B190F832302BB9D9
S315080028D0FFF780FC10B9A068FEF7FCFE002094F80C
S315080028E032300133DBB284F8323010BD0048FCE7E1
S315080028F0027000F010B50446A0B190F832309BB1D2
S3150800290090F83230012B05D1FFF764FC10B9A068A6
S31508002910FEF700FF002094F83230013BDBB284F862
S31508002920323010BD0148FCE70148FAE7027000F0B2
S31508002930057000F037B590F835500446022D1DD1C4
S31508002940012290F82230457E817F9A403020164B2E
S3150800295025B900FB013303F5015305E0012D07D125
S3150800296000FB013303F582531A60002003B030BD23
S31508002970247E00FB0133002CF4D1ECE7012DF4D1C1
S31508002980037E73B911238DF80730FFF79BFF2A469C
S3150800299020460DF10701FFF71DFF2046FFF7AAFFA6
S315080029A0E3E71323EFE700BF00C003502DE9F04328
S315080029B00446704F89B001AE0D460FCF0FC697E893
S315080029C0070086E80700002C00F0D28025B96A4E79
S315080029D0304609B0BDE8F0835C220021204654F059
S315080029E09AF800232046A363FFF74AFC0646002808
S315080029F0EED14FF001092B7D84F835302B6884F829
S31508002A00360023602A7BC4F8589022715B4A9342A9
S31508002A10DDD1292363624FF4802359498046C4E9EE
S31508002A200413D5E90723A26210805080908084F8A9
S31508002A303000E3621880588098806B6884F831000B
S31508002A400393EB8984F83300ADF814302B8A494692
S31508002A50ADF81230AB7C3A208DF81030EB7C494F3C
S31508002A608DF8163005238DF8113000F07FFC4946A5
S31508002A70606A00F07BFC286801A98DF8046002F002
S31508002A806FFE14212B7B03F139025201B9502E7ABD
S31508002A90A87A07EB431346EA0042C3F83827697A4F
S31508002AA0EA7A41EA024CC3F830C7E676E07721773E
S31508002AB084F820206B7D49466377AB7D204684F8F1
S31508002AC02130EB7DA3772B7E84F82230FFF7C2FAFC
S31508002AD0064600287FF47CAF01F0B9FA2B7D8146C3
S31508002AE0032B33D102212A7B02F1B9035B01F9508A
S31508002AF0042107EB421741F22C722B6803F5805329
S31508002B00D965297EEB7D43EA0143BB50AA7D6B7DDF
S31508002B1043EA024341F22872BB504FF0FF3228685D
S31508002B2000F500539A642B7D032B0CBF0521042165
S31508002B3002F0E5FD4FF440622B6820465A61FFF724
S31508002B40C7FB0646484601F088FA41E7022BE4D15E
S31508002B5094F821000C49FEF7D5FEFEF7BBFE4FF4AC
S31508002B6000732046238384F81A80FFF7E3FED4E730
S31508002B70064E2DE7E4A00508037000F000C00550D6
S31508002B800200040000C0035001220008027000F091
S31508002B90F0B587B005461646FFF730FA0446F0B991
S31508002BA00493104BCDE901166A46A86A01A9039653
S31508002BB00593FFF7BFFA044688B995F8303073B91C
S31508002BC02846FFF7B5FB28460099FFF75DFC95F800
S31508002BD03530032B03D028462C76FFF7ABFE20466C
S31508002BE007B0F0BD017000F073B5906A01A91446EC
S31508002BF0FFF716FA384B984231D094F83600019B05
S31508002C0000283AD12268916C11F400712AD0334910
S31508002C10986019614FF4007302F50052936401F04D
S31508002C2016FA01990646CD6835B14A688B6820467A
S31508002C30D31A0A680969A847A06A01A9FFF790FC90
S31508002C40A06A8588ADB2002D37D001A9FFF7E8F94B
S31508002C5020460199FFF718FC304601F0FEF90120DD
S31508002C6002B070BD906CC50523D51D4899601861E2
S31508002C7002F500524FF48073D0E7022819D1226872
S31508002C80D16C11F4007109D0144902F5005219618A
S31508002C90002199604FF40073D364C0E7D06CC00577
S31508002CA007D50F489960186102F500524FF48073F2
S31508002CB0F2E700221A619A60B1E7012320462376DB
S31508002CC0FFF738FE94F8353084F83050032BC3D01C
S31508002CD02046FFF711FBBFE70B7000F00D7000F000
S31508002CE00C7000F0F0B587B004461646FFF786F973
S31508002CF0054658BB0493194BCDE90116059394F87C
S31508002D00363003962BBB23689B6903F0020313B97D
S31508002D102046FFF72BFB6A46E06A01A9FFF70AFA85
S31508002D20054698B994F8313083B901F090F9E36A09
S31508002D3006469B889BB233B120460099FFF7CAFB2B
S31508002D40012384F83430304601F087F9284607B065
S31508002D50F0BD022BDCD123689B6CD6E7017000F02E
S31508002D600B4B30B51B7883B1012000230546094972
S31508002D7051F8042B2AB192F85840022C04BF204679
S31508002D8095650133042BF3D130BD0120FCE700BF64
S31508002D9004250020F4240020054B5B69DB0605D5D5
S31508002DA01022044B5A610122034B1A70704700BF68
S31508002DB00080045000A0045005250020034B5A68E3
S31508002DC012B19A6A002AFAD1704700BF004006502D
S31508002DD0426810B5B2FA82F2144CC2F11F01636858
S31508002DE00BB1FFF7EBFF0122114B5A60636813F032
S31508002DF00203FBD1027A002A14BF02240024427877
S31508002E0042EA0112094922438A60427A0124002AC9
S31508002E1018BF0223827A13434B62064B5C60037821
S31508002E2013B1FFF7CBFFCC6010BD00BF00400650C2
S31508002E30006006500050065008B50D4B5A6802B996
S31508002E4038B15B680BB1FFF7B9FF18B10122094B1E
S31508002E505A6008BDFFF7B2FF02230549CB60FFF7AA
S31508002E60ADFF0122044B5A604B689B07FCD4F0E780
S31508002E70004006500050065000600650044B9A6AFF
S31508002E80D006FCD419639A6AD206FCD4704700BFF0
S31508002E900040065008B5FFF791FF02230449CB60AE
S31508002EA000230B62FFF78AFF0123CB6008BD00BF32
S31508002EB000400650044BD3F88420D206FBD4D3F83E
S31508002EC08400C0F3811070470040005038B5174B96
S31508002ED00546D3F820310C4603F00703013B052BC2
S31508002EE020D8DFE803F0030B130F171BFEF74CF986
S31508002EF0052305B1286004B1236038BDFEF77AF9C9
S31508002F000323F6E7FEF792F90723F2E7FEF78AF9B5
S31508002F100223EEE7FEF738F90623EAE7FEF76AF931
S31508002F200423E6E700231846E3E700BF00800050C5
S31508002F3038B5174B0546D3F828310C4603F0070376
S31508002F40013B052B20D8DFE803F003131B0F0B17F3
S31508002F50FEF71AF9052305B1286004B1236038BDC8
S31508002F60FEF712F90623F6E7FEF760F90723F2E7FC
S31508002F70FEF740F90323EEE7FEF73CF90423EAE7F8
S31508002F80FEF750F90223E6E700231846E3E700BFF9
S31508002F900080005073B50D460021114B0191D3F8FE
S31508002FA08041064604F00304022C13D0032C0CD0EF
S31508002FB0012C13D101A8FFF789FF10240EB1019B3C
S31508002FC0336005B12C6002B070BDFEF72FF90724F7
S31508002FD00190F3E7FEF726F90190EFE70C46EDE7D7
S31508002FE000800050002337B50193154B0546D3F8EA
S31508002FF020320C4603F00703013B032B1ED8DFE8FB
S3150800300003F0020E1318002101A8FFF791FF1223FF
S315080030100DB1019A2A6004B1236003B030BDFEF7F2
S3150800302005F907230190F3E7FEF742F90A23019011
S31508003030EEE7FEF743F909230190E9E70023E7E7FE
S315080030400080005038B5104B0546D3F840310C4681
S3150800305003F00303022B0BD0032B0DD0012B0FD14A
S31508003060FEF726F90A2305B1286004B1236038BDA6
S31508003070FEF724F90923F6E7FEF71DF90C23F2E714
S3150800308000231846EFE700BF00800050002337B53D
S315080030900193164B0546D3F860320C4603F0070336
S315080030A0013B032B1FD8DFE803F0020E1914002199
S315080030B001A8FFF70BFF10230DB1019A2A6004B18E
S315080030C0236003B030BD002101A8FFF7BBFF112321
S315080030D0F2E7FEF7ABF807230190EDE7FEF7A2F853
S315080030E002230190E8E70023E6E700BF00800050CE
S315080030F0002337B50193164B0546D3F894320C4690
S3150800310003F00703013B032B1FD8DFE803F0020E89
S315080031101914002101A8FFF7D9FE10230DB1019A51
S315080031202A6004B1236003B030BD002101A8FFF76F
S3150800313089FF1123F2E7FEF779F807230190EDE7F7
S31508003140FEF770F802230190E8E70023E6E700BFE0
S315080031500080005038B5134B0546D3F800320C46AC
S3150800316003F00703013B032B18D8DFE803F0020A34
S315080031700E12FEF79DF80A2305B1286004B12360F4
S3150800318038BDFEF79BF80923F6E7FEF794F80C23FB
S31508003190F2E7FEF719F80F23800AEDE70023184631
S315080031A0EAE700BF0080005038B5134B0546D3F850
S315080031B008320C4603F00703013B032B18D8DFE857
S315080031C003F0020A0E12FEF773F80A2305B1286007
S315080031D004B1236038BDFEF771F80923F6E7FEF758
S315080031E06AF80C23F2E7FDF7EFFF0F23800AEDE7F5
S315080031F000231846EAE700BF0080005038B5104B98
S315080032000546D3F840320C4603F00303022B0BD0D5
S31508003210032B0DD0012B0FD1FEF74AF80A2305B16F
S31508003220286004B1236038BDFEF748F80923F6E79D
S31508003230FEF741F80C23F2E700231846EFE700BF34
S315080032400080005038B5104B0546D3F860310C465F
S3150800325003F00303022B0BD0032B0DD0012B0FD148
S31508003260FEF726F80A2305B1286004B1236038BDA5
S31508003270FEF724F80923F6E7FEF71DF80C23F2E714
S3150800328000231846EFE700BF0080005070B50546DA
S3150800329014460E4600F0CCFE296881EA040202EACA
S315080032A006044C402C60BDE8704000F0C5BE000026
S315080032B0B0F5207F1FD009D8B0F5007F15D003D808
S315080032C068B1B0F5C07F0AD000200CE0B0F5607F89
S315080032D0FAD10B4BD3F88000C0F3011003E0084B7A
S315080032E0186FC0F3033001307047054BD3F89000D0
S315080032F0C0F30460F7E7024B186FC0F38020F2E7CB
S315080033000080005002464FF48030104B10B5986686
S315080033100020FFF7CDFF504341F671320C4BDC69B4
S31508003320DA635A6804F4803422F4401259B9094918
S3150800333088428CBF4FF480100020104358600CB1AF
S315080033400022DA6310BD0449F2E700BF009000507E
S3150800335000000350005A6202002D310108B5FDF73E
S3150800336045FFBDE808400021FFF7CCBF430905D05B
S31508003370012B0DD0022B094B18BF002300F01F00AC
S3150800338041B103F58053012202FA00F01860704734
S31508003390034BF3E703F50053F5E700BF68800050D9
S315080033A0648000501FB5002280280446019200F070
S315080033B0BA8048D8002800F0BA80A0F120043D2C35
S315080033C054D83D2C52D8DFE814F0B200BE00B20043
S315080033D0BE00D700D700D700D700D700BE00E1004F
S315080033E05B00F70081005B00BE00BE00BE00510016
S315080033F05100510051005100510051005100BE00CA
S31508003400BE00BE0089000101BE00510051005100F6
S315080034105100510051005100510051005100510016
S3150800342051005100D700B200B200B200FC005B00A8
S315080034305B00060198006C00DC0051005100510049
S3150800344051005100A900B0F5B06F00F09F802DD84B
S31508003450B0F5207F77D00CD8B0F5C07F67D0B0F52F
S31508003460007F67D0B0F5807F00F09580019804B0A2
S3150800347010BDB0F5607F6CD00DD8B0F5407FF5D1A2
S31508003480FDF7A2FE02464FF42070FFF711FFB2FBCC
S31508003490F0F0400849E0B0F5806F6DD0B0F5A06F48
S315080034A0E4D1002101A8FFF79DFDDFE7B0F5106F15
S315080034B000F0878017D8B0F5E06F00F087800AD84B
S315080034C0B0F5C06F78D0B0F5D06FCFD1002101A884
S315080034D0FFF740FECAE7B0F5F06FC7D1002101A893
S315080034E0FFF7B0FEC2E7B0F5406F4AD013D8B0F583
S315080034F0206F70D0B0F5286FB8D10021384B0391F2
S31508003500D3F8703203F00303012B02D103A8FFF7A7
S3150800351099FD039B49E0B0F5486FA7D1002101A8A2
S31508003520FFF7E6FDA2E7FDF735FE01909EE7FDF7FA
S315080035304BFEFAE7FDF72EFE02462046FFF7B8FED9
S31508003540B2FBF0F0F1E7FDF73FFE02464FF42070BC
S31508003550F4E7234BD3F8803003F00303012B04D0A0
S31508003560022B06D04FF46070E8E7FDF713FE02461B
S31508003570F8E7FDF75BFEFAE7002101A8FFF7A6FCCE
S3150800358074E7002101A8FFF7D3FC6FE7002101A823
S31508003590FFF700FD6AE74FF0E02302921B695B071D
S315080035A005D5FDF711FE0290029B01935EE703A97C
S315080035B002A8FFF747FDF7E7002101A8FFF742FD3C
S315080035C054E7002101A8FFF7EFFD4FE7002101A806
S315080035D0FFF714FE4AE7002101A8FFF757FD45E764
S315080035E00080005008B58020FFF7DCFE034B9842A8
S315080035F09EBF4FF48032024B1A6708BD005A62021A
S3150800360000A000501FB50023B0F5807F019300F09D
S31508003610C38064D85D2855D84C2807D82D2847D8A4
S3150800362023282BD8019805B05DF804FB4D381028DF
S31508003630F8D801A353F820F08F370008253600087C
S3150800364025360008253600084137000825360008C3
S31508003650253600082D3800085F37000805370008AA
S3150800366023380008253600082536000825360008C0
S315080036702536000825360008373800082438092872
S31508003680D0D801A353F820F08F3700088F370008E9
S315080036908F3700088F3700088F370008253600084F
S315080036A0853700082536000821370008C537000881
S315080036B03D2800F082803E28B4D1002001A9FFF7FA
S315080036C09DFDAFE78028ADD1604B1B6F03F0070364
S315080036D0013B032BA6D8DFE803F05350878FB0F5DC
S315080036E0F06F6AD021D8B0F5B06F4BD00FD8B0F5CF
S315080036F0607F00F0858095D3B0F5806F47D0B0F530
S31508003700A06F8FD1002001A9FFF76CFC8AE7B0F5FE
S31508003710D06F57D0B0F5E06FCFD0B0F5C06F81D17C
S31508003720002001A9FFF78EFC7CE7B0F5206F7DD05D
S315080037300BD8B0F5086F4AD0B0F5106F7FF472AFAA
S31508003740002001A9FFF730FD6CE7B0F5406F68D09F
S31508003750B0F5486F6FD0B0F5286F7FF463AF0021DE
S315080037603A4B0391D3F8703203F00303012B67D069
S31508003770022B14BF0B46152300E00523019351E7DE
S315080037800223FBE7002001A9FFF704FC4AE7002013
S3150800379001A9FFF79BFB45E702934FF0E0231B695E
S315080037A05B0705D5FDF710FD0D230393039BE5E79E
S315080037B003A902A8FFF746FCF8E7002001A9FFF7CE
S315080037C041FD2FE7002001A9FFF7C4FC2AE71F4B9C
S315080037D0D3F8003103F00303022B07D0032B09D0DB
S315080037E0012B0BD1FDF706FD0323C7E7FDF766FDA1
S315080037F00923C3E7FDF714FD0823BFE70123BDE747
S31508003800124AD2F8802002F00302012A05D0022AC1
S31508003810B4D1FDF70BFD0723B0E7FDF7BBFC0E237C
S31508003820ACE7002001A9FFF783FBFBE6002001A90E
S31508003830FFF72CFCF6E6002001A9FFF759FCF1E694
S3150800384003A8FFF7FFFB112398E700BF008000508D
S3150800385038B504468020FFF7D5FE032800F083809C
S315080038604FF48012504B4FF0A0615A6645F60E038E
S315080038704E4AC2F880304E4B99624FF4803103F5B8
S3150800388080539962916D11F48031FBD1D4E900031C
S315080038901B0543EA0063E07B0343207B43EA0043BE
S315080038A0607B43EA0033A07B43EA80131361906987
S315080038B0D4E904531B0643EA856300F0004003433A
S315080038C0A07EE57E0343207E43EA0043607E43EA0A
S315080038D000239361E069136A00280CBF00220822BE
S315080038E023F00F0343EA000343EA850343EA02038E
S315080038F02E4A304D136237D194F82430916A94F8E1
S315080039002000DB000D4043EA401394F821102B43B6
S3150800391043EA011343F480339362274B916D33EAEC
S315080039200101FBD14FF08071214881621369A568B6
S3150800393023F4700343EA055313614FF00043836190
S3150800394094F822300BB91D4B996294F823301BB9B1
S315080039504FF48032194B9A6294F825301BB1134BF9
S31508003960174AC3F8802038BD022808D111611548C6
S3150800397091614FF408524FF47F41FFF787FC0B49DA
S3150800398094F822308A6A94F820001B06154043EA08
S31508003990401394F824202B4343EAC20394F82320C7
S315080039A043EA02438B62D7E7009000500040005A72
S315080039B00050005AC7FFFEFE030001000060005ACF
S315080039C0F1A7FFFF3440005A014B93F900007047F6
S315080039D0B8130020F0B5D0E901434FF400061A4A9F
S315080039E04178057856664FF4D156022702F5B83263
S315080039F05662164E4F2977604FF0010728BF4F21B0
S31508003A0006F5805677601669F603FCD441EA052167
S31508003A1051611B01417B43EA04230B43017B43EAC3
S31508003A2041039360C37B817B1B0143EA4113417CBD
S31508003A300B43017C43EA41035360837C13B16FF463
S31508003A40D1535362F0BD00BF0090005000100250E1
S31508003A50014B1880704700BFBA1300200029CCBF5D
S31508003A6001210021FFF74EBCB0F5207F10B50C46AA
S31508003A7057D008D8B0F5007F48D003D830B3B0F592
S31508003A80C07F23D010BDB0F5607FFBD129492A48F5
S31508003A90D1F8FC2012F080721EBFD1F8FC3023F05A
S31508003AA08073C1F8FC30D0F88030611E23F03004F2
S31508003AB044EA0114C0F88040002AE3D01D4AD2F82F
S31508003AC0FC3043F08073C2F8FC30DBE7FFF746FCB6
S31508003AD000F036F84FF48031184B174A1967136F00
S31508003AE0611E23F4704444EA01341467FDF76CFB45
S31508003AF00446FFF7DFF9C0F102012046FFF7AEFFE3
S31508003B0000F024F8BDE81040FFF76CBD0A4A0139F9
S31508003B10D2F8903023F0F85444EA0164C2F8904091
S31508003B20B0E7054B013C196F21F4806141EA842412
S31508003B301C67A7E700ED00E00080005000900050E9
S31508003B4002214FF42070FFF78FBF000008B54FF42D
S31508003B50C070FFF727FCBDE80840044988428CBFBF
S31508003B60022101214FF42070FFF77EBF80F0FA0290
S31508003B70B0F5807FF8B50C4600F04E816BD85D280D
S31508003B805DD84C2804D82D2844D8232828D8F8BD31
S31508003B904D381028FBD801A353F820F0F93D00084A
S31508003BA08F3B00088F3B00088F3B0008F33C00085A
S31508003BB08F3B00088F3B0008AD3F00082B3D0008EF
S31508003BC0833C00088D3F00088F3B00088F3B0008A8
S31508003BD08F3B00088F3B00088F3B0008CD3F00084D
S31508003BE024380928D3D801A353F820F0F93D000852
S31508003BF0F93D0008F93D0008F93D0008F93D0008BF
S31508003C008F3B0008D93D00088F3B0008B93C0008E7
S31508003C10C73E00083D2800F046813E28B7D1093C3A
S31508003C20032C8CBF0021B04BB04A98BF195DD2F85F
S31508003C30403223F003030B43C2F84032A7E780283B
S31508003C40A5D18B1E062B00F2C480DFE803F0BFADBA
S31508003C50C27EC2C2BC00B0F5F06F00F024813BD82A
S31508003C60B0F5B06F00F0B8801BD8B0F5607F00F0F3
S31508003C7067818CD3B0F5806F00F0BE80B0F5A06F79
S31508003C8085D1073C0B2C8CBF0021994B974A98BFCE
S31508003C90195DD2F8203223F007030B43C2F820320D
S31508003CA075E7B0F5D06F00F00E81B0F5E06FB6D0CD
S31508003CB0B0F5C06F7FF46BAF093C032C8CBF0021B5
S31508003CC08C4B8A4A98BF195DD2F8403123F003031A
S31508003CD00B43C2F840315AE7B0F5206F00F0668111
S31508003CE017D8B0F5086F00F01B81B0F5106F7FF498
S31508003CF04EAF093C062C8CBF00217F4B7B4A98BFF0
S31508003D00195DD2F8083223F007030B43C2F80832CC
S31508003D103DE7B0F5406F00F03981B0F5486F00F027
S31508003D205581B0F5286F7FF432AF112C00F05E8113
S31508003D30152C14BF002102216C4AD2F8703223F0E8
S31508003D4003030B43C2F8703221E7002502264FF41D
S31508003D5080370121022000F00BFAFFF7FFFAFFF780
S31508003D60EFFE664B614A1F67136F23F00703334361
S31508003D701367FDF729FA0646FFF79CF8C0F102011A
S31508003D803046FFF76BFE0121002000F031FAFFF7FD
S31508003D90DDFEFFF727FC002D7FF4F9AE032C7FF438
S31508003DA0F6AE574B9F62F2E64FF48012534B0E461F
S31508003DB05A664FF48032534B9D6A03F58053C5F318
S31508003DC000659A62C3E700250426C0E70025012698
S31508003DD0BDE700252E46BAE7023C0E2C8CBF002113
S31508003DE0494B424A98BF195DD2F8803123F0030344
S31508003DF00B43C2F88031CAE6023C052C8CBF002171
S31508003E00424B3A4A98BF195DD2F8203123F007038E
S31508003E100B43C2F82031BAE6A1F10904082C3FF693
S31508003E20B6AE01A353F824F04D3E00084D3E0008F7
S31508003E308F3B00084D3E00087B3E00088F3B00087C
S31508003E408F3B00088F3B00084D3E00084FF4803238
S31508003E50264B2F49586E03F580535A664B6A43F032
S31508003E6001034B62C1035CBF2A4B5A664FF0E0223E
S31508003E70136923F00403136189E64FF480321B4B60
S31508003E802349586E03F580535A664B6A23F001039B
S31508003E904B62C3035CBF1F4B5A664FF0E02213699F
S31508003EA043F00403E7E7093C032C8CBF00211A4BB7
S31508003EB00E4A98BF195DD2F8603123F003030B430D
S31508003EC0C2F8603163E6093C062C8CBF0021134B0F
S31508003ED0064A98BF195DD2F8003223F007030B4350
S31508003EE0C2F8003253E600BF35A10508008000502D
S31508003EF050A1050835A1050839A10508009000500C
S31508003F000060005A0040005A20A105082FA10508A4
S31508003F1000C0075000A0005035A1050839A10508C2
S31508003F20CC1E062C8CBF0021314B324A98BF195D36
S31508003F30D2F8003123F003030B43C2F8003126E61A
S31508003F402D49063CD1F8FC2012F080721EBFD1F82C
S31508003F50FC3023F08073C1F8FC30082C8CBF00209D
S31508003F60264B244998BF185DD1F8803023F0030307
S31508003F700343C1F88030002A3FF409AE1E4AD2F83E
S31508003F80FC3043F08073C2F8FC3000E6023C052C96
S31508003F908CBF00211A4B174A98BF195DD2F82831F1
S31508003FA023F007030B43C2F82831F0E5023C0F2C37
S31508003FB08CBF0021134B0F4A98BF195DD2F86032A7
S31508003FC023F007030B43C2F86032E0E5023C0F2CEE
S31508003FD08CBF00210C4B074A98BF195DD2F8943262
S31508003FE023F007030B43C2F89432D0E50121A3E678
S31508003FF040A105080080005000ED00E047A1050833
S315080040002FA105085CA105085CA105080028ABBF1F
S3150800401000F16040054B00F5614000F00F00ACBFB1
S3150800402090F80003185C0009704700BF14ED00E023
S31508004030EFF3108072B6704700B962B67047302346
S3150800404083F311887047002383F311887047EFF3D1
S315080040501180302383F31188704780F311887047E5
S31508004060054B420953F8223000F01F0023FA00F0EE
S31508004070C04300F00100704700E100E0014608B5C2
S31508004080EFF31083DB0702D50122104608BDFFF7C0
S31508004090E7FF02460028F7D10846FFF7B7FF0146B3
S315080040A0EFF3118313B1B0EB131FEDD2074B5B6827
S315080040B0C3F30803002BE8D0103B58B2FFF7A6FF5E
S315080040C088428CBF00220122DFE700BF00ED00E036
S315080040D0024A536B0342FCD1704700BF00400950A7
S315080040E0044A4178536F23F4407343EA0123536724
S315080040F0704700BF00400050704770470A4A10B525
S315080041001369044643F00403136102F01FFBFFF72B
S31508004110F3FF30BFFFF7F1FF02F02CFB1CB9BDE837
S315080041201040FDF751B810BD00ED00E0084A10B583
S315080041301369044643F00403136102F007FB30BF1A
S3150800414002F018FB1CB9BDE81040FDF73DB810BDDC
S3150800415000ED00E070477047034A0179D36E23F0FB
S3150800416030030B43D3667047004000507047000089
S31508004170F8B504461C4BD3F88420D106FBD4D3F8F3
S315080041808430C3F381139C422CD0FDF703F8012C2D
S31508004190064602D12146FFF761FCFFF749FF4FF0BB
S315080041A00072124B07465A662046FFF7DFFF4FF4A8
S315080041B080630D4D621E93402B676B6E9A0103D484
S315080041C0D5F884309B060AD53846FFF735FF022C0A
S315080041D008D13046BDE8F8400021FFF73FBCD5F8C6
S315080041E08430EAE7F8BD00BF004000500060005088
S315080041F007B518B90191FCF7CDFF0199064B1B7855
S3150800420043B1064B984205D8012003B05DF804EB8C
S31508004210FFF7AEBF0220F8E706250020005A620223
S315080042200278034B012100201A70FFF7E1BF00BF97
S31508004230062500204FF00042154B10B55A664AF67F
S31508004240CD3314494C6C0B6404F0010488B9012081
S31508004250FFF73EFF4B68DB0704D50F4B58600B6B27
S31508004260D807FCD514B10B4B0C4A1A644AF09CFBD0
S3150800427010BD0B6B1A07FCD42022074B9A62012249
S31508004280A3F580535A60034A936A9B06FCD5E9E76F
S315080042900090005000400950006009503254FFFF5A
S315080042A008B50020FFF7C6FF012008BD4FF0004201
S315080042B0104B70B55D6E03F580535A664AF6CD33DA
S315080042C004460D4980204E6C0B64FFF701FF0B6A0C
S315080042D023F4F85343EA04230B62F30744BF074B5E
S315080042E00B64002DA2BF4FF00042054B5A664AF0F8
S315080042F05BFB70BD00800050004009503254FFFF40
S3150800430000A00050436D0B42FCD1704708B54368C6
S31508004310DA0714D58368DB0702D50369D90707D5F9
S315080043200A2350218363FFF7EDFF836C9A07FCD1BC
S31508004330012200F500535A6043689B07FCD408BD68
S3150800434038B50C460121024600F58053596004F041
S315080043500F0540F6FF71FFF7D5FF78218563FFF754
S31508004360D1FF04F00103610748BF43F00203916CD3
S3150800437001F003019942FAD138BD000010B5FFF7E4
S31508004380C5FF042300F5805100F500520B61136147
S315080043900B6113610B6113610B611361202341F2F9
S315080043A0020103610023C360836041614FF4A021C9
S315080043B08361836541620549C36103628362C3629F
S315080043C043630365D164036310BD00BFFF3F0D035C
S315080043D009B9FFF79BBFFFF7B3BF836C5B06FCD534
S315080043E041647047836C5A06FCD54164836C1B068E
S315080043F0FCD5C06B80B27047F8B50546144608462A
S3150800440041B9344B9D422FD0334B9D4208BF5720AC
S31508004410FEF7C8FFAB68DE072ED5B0FBF4F46E686E
S31508004420013C16F0010625D028212846FFF76AFF29
S31508004430AB6C99071AD1AB6CDA0719D4AB6C13F0CD
S31508004440020F0CBF002706272846FFF75FFF2869DB
S3150800445020F07F4040EA04642C61DEB139462846E4
S31508004460BDE8F840FFF7B4BF5620D1E70527EBE7CC
S315080044700927E9E73746EAE76B68AB6DAF68DB07FC
S3150800448007F0E00748BF6400402F1BD003D8DFB110
S31508004490202F1BD0F8BD602F1AD0802FFAD1012605
S315080044A004FB06F34101B1FBF3F30C4A203B02EA95
S315080044B0C30228460121FFF725FF2A63BDE8F84015
S315080044C0FFF720BF0626EBE71026E9E70826E7E709
S315080044D00426E5E70000015B00000A50F8FF7F00AC
S315080044E0436870B504460D460E691BB140F6FF7168
S315080044F0FFF708FF2046FFF741FF22696B7BA97B80
S3150800450022F087020B43134343F08003236116B35B
S315080045102A692369117823F0F8030B43117F43EACC
S31508004520C113117943EA4113517A43EA0113D17B46
S3150800453043EA81132361E168D2E9053021F0F041AD
S3150800454021F4702103430B43117B527B43EA8123F9
S3150800455043EAC233E360A368EA7B23F00303134309
S3150800456043F00103A3602EB32A69A168538803F4B4
S31508004570C0430B43A3605179A36843EA8123A36030
S315080045809379D079616A1B01000203F0700300F485
S31508004590E06021F4772121F4EE6103430B43117A9D
S315080045A0527F090301F4E04112040B4302F470221E
S315080045B01343636263692A7B23F00F031343636122
S315080045C0B6B12B695A89A2615A7B3AB11D4A9442FF
S315080045D024D19A7B1C4902F00F024A67DA7B3AB16A
S315080045E0184A944224D11B7C174A03F00F03136719
S315080045F0D5E901122046FFF7FFFE05212046FFF701
S315080046009FFE2821FFF77EFE2B78A363FFF77AFE2D
S31508004610A36CDB4313F4405FFAD170BD0B4A944296
S3150800462001BF9A7B084902F00F02C1F88020D5E73E
S31508004630064A944201BF1B7CA2F5CE2203F00F0363
S31508004640D367D5E70000015B0090035000000A50CD
S315080046502C4B2DE9F0419842064612D02A4886424C
S315080046600CBF57200020FEF79DFEB16811F001012E
S3150800467009D03169090E0131B0FBF1F10846BDE8F0
S31508004680F0815620EFE7326BB468204B04F0E00463
S31508004690402C03EA020310D007D854B3202C2CD0A0
S315080046A0B36DDB0748BF4908E8E7602C27D0802CA4
S315080046B0F6D14FF480750C461CE080250C464FF069
S315080046C0030803F5807308FB03F8002342461946DE
S315080046D051F0BEFF02FB04F100FB05F705FB0311D1
S315080046E0A2FB050500234246294451F0B1FF3918BB
S315080046F0D6E710254FF00108E3E72546DBE7402516
S31508004700D9E700BF0000015B00000A50F8FF7F00F0
S3150800471070B5054614460E46FFF78AFC296881EAF5
S31508004720040202EA06044C402C60BDE87040FFF71C
S3150800473083BC0000072AF7B501F0030614461F4696
S315080047404FF003012CD89500A94000FA05F21C4841
S315080047500191FFF7DDFF01991A4806FA05F2FFF7FE
S31508004760D7FF194B19499DF82000002F08BF194695
S31508004770012303FA04F40C60154B1649002808BFF8
S315080047800B461C60144B9DF82400C3F820441031D6
S31508004790A3F6DC33002808BF0B461C6003B0F0BD47
S315080047A0A2F10805AD00A94000FA05F20B480191EF
S315080047B0FFF7AEFF01990A4806FA05F2CFE700BFF0
S315080047C000C4035008C4035010E4035010D4035027
S315080047D014D4035014E4035000E0035004C40350F7
S315080047E00CC403502DE9F04105460F461E46904677
S315080047F04AB101233022194C8B4002FB00443EB3D8
S3150800480004F5825423600F21072F05EB450388BF63
S31508004810A7F108044FEA0313114895BFBC00A4008A
S3150800482004330C3308FA04F2A1401844FFF770FF6A
S31508004830B8F1000F0AD101213020084A01FA07F71A
S3150800484000FB05223EB102F582521760BDE8F081F1
S3150800485004F50154D6E702F50152F6E700C0035005
S3150800486030C00350F8B505460E4614465AB382685A
S3150800487003F0030722F440728260FFF7D9FBAA68A7
S3150800488082EA072303F440735340AB60FFF7D4FB77
S3150800489036B9B5F1B64F17D12E20FEF783FD064679
S315080048A0AB680C4BD85D60430DD06FEAC404044472
S315080048B0A319B3FBF0F3AA68013B920702D5002BB4
S315080048C008BF0123AB61F8BD034B9D42E8D12F20F9
S315080048D0E3E700BF6CA1050800800650043021B14B
S315080048E000F5805001230360704700F50050F9E792
S315080048F038B500230E4A036400F50053DA634A7894
S3150800490004460D4600F108037AB903F580530222DE
S315080049101A602046D5E901122B7BFFF7A3FF204634
S315080049202978BDE83840FFF7D9BF03F50053EEE70D
S31508004930FFFF1F00B0F1B64F2DE9F04322D0804BA0
S31508004940984240F0FA807F4B402505264FF0000834
S315080049504FF0030C996800F50054C26B12F4C06F4F
S3150800496016D0970510D5FD225A7009221A70002212
S31508004970026493F90110012900D15A7093F90100D4
S31508004980BDE8F083704BDFE75605EED5FE22EBE770
S315080049901F78082F00F2CD80DFE817F009001F0006
S315080049A041004C006900740096009E00C2004C88C5
S315080049B00A88E5060AD5120A02F0060242F0F00253
S315080049C0012119704263C1600120D9E702F0FE0295
S315080049D0A10748BF42F00102F2E7170607D5802172
S315080049E000F50052D1634FF608721A8062E052064B
S315080049F0EAD54A88E563D70604D502221A700B78E9
S31508004A004363E1E7920765D507221A701B7901EB24
S31508004A10C3010B89012BD7D10823C360D4E7170636
S31508004A20DDD45206D0D54A88E563970752D583F870
S31508004A3000C092E74C880A88E50643BF120A02F0CE
S31508004A40060242F0F00202F0FE02640709D51C795C
S31508004A5042F0010201EBC4010989012904BF0821BA
S31508004A60C160042119700123C3604263ACE71706CD
S31508004A70B5D45706A8D54A88E56352072AD507222A
S31508004A801A70A1E71A795F8801EBC20EBEF8089082
S31508004A90B94511D80132D2B21A714F88A3F80280EB
S31508004AA017F0040FC3D1FF0702D4012A7FF655AFCA
S31508004AB008221A700223B0E7DEF80420791C598010
S31508004AC0D25D42630622DBE7170688D457067FF5D0
S31508004AD07BAFE5631E7040E794067FF575AF202629
S31508004AE01A7900F5005401EBC2010A89456AE663A2
S31508004AF05C88A24281BF4968661C5E800D5559884C
S31508004B008A42D5D90424012AC46004D9013A9142BB
S31508004B1001D10822C2601A78092A3FF428AF53E760
S31508004B20D2057FF551AF4FF4807100F50052D1637D
S31508004B301BE74FF609321A8019E76FF003001FE7E3
S31508004B40008006501425002008250020B0F1B64F35
S31508004B5010B407D01A4B98422ED06FF003005DF8B8
S31508004B60044B7047174B0269D20744BF2022C26024
S31508004B704A88940702D50C89002CEED0520702D534
S31508004B800A8A002AE9D04FF480721A6000229960D6
S31508004B901A71C023C3604369DB050FD4202200F5D0
S31508004BA00053DA63084A5DF8044BDA63036C43F48E
S31508004BB0FC630364FFF7BEBE044BD4E7436AEAE727
S31508004BC00080065008250020FFFF1F00142500203E
S31508004BD04369DA01FCD4012300F50050024A436018
S31508004BE053689B07FCD4704700400059022A10B549
S31508004BF04FF0000405D9033A022A0CD90360047160
S31508004C0010BD11F4000218BF4FF07F4221F07F4318
S31508004C1013430C0EF2E721F0FF03CCB2EEE730B4F3
S31508004C20012500F5805344685D608B780D88C97846
S31508004C301B04002914BF4FF40031002103F480330C
S31508004C402B430B43C0F89830E30702D430BCFFF778
S31508004C50BFBF30BC704738B50C4605461146FFF74E
S31508004C60B7FF237803F007026378002BA37818BFF1
S31508004C7008204FEA031303F0700343EA0203E278BD
S31508004C8008BF0020002A14BF4FF480720022034395
S31508004C9013432B6723796079EA6A1B02000300F441
S31508004CA0805003F4E06322F48B32034322F48072CB
S31508004CB01343A2792846002A14BF4FF480320022F3
S31508004CC01343EB62FFF7ABFF012305F580525360F0
S31508004CD0E27902B1EB6038BD084608B529B92A2041
S31508004CE0FEF760FB012838BF0120064900F574204D
S31508004CF000F23F20B0FBF1F001387F2828BF7F2063
S31508004D00C0B208BD40420F0010B50B4C8C4228BFFC
S31508004D100C461AB92A20FEF745FB0246601E0244D5
S31508004D20B2FBF4F0A24228BF00F1FF30032828BFE7
S31508004D300320C0B210BD00BF005A620210B5104869
S31508004D40104C002B18BF2046884228BF0846044648
S31508004D501AB92A20FEF726FB02469DF808000130FC
S31508004D60B2FBF0F2601E0244B2FBF4F340F2FF30ED
S31508004D70A24228BF03F1FF33984228BF184610BD48
S31508004D8080969800404B4C0008B50A6F496F02F0B0
S31508004D900702FFF72BFF08BD13B5044601A800F06C
S31508004DA007FC042C8EBF0020024B33F8140002B017
S31508004DB010BD00BF88A105082DE9F04F2DED048B25
S31508004DC005468FB0DFF83CC308AF0C461646BCE86C
S31508004DD00F000FC79CE80300002287E80300BF49BD
S31508004DE02846FFF791FF6379984238BF18465FFA5D
S31508004DF080FB2846FFF7ECFE217919B92846FFF70C
S31508004E006BFF0146E3784FEA0B721B0102F0E042A2
S31508004E1003F0300313430804227800F4FE0003432A
S31508004E200AB143F0020362780AB143F00403A27898
S31508004E300AB143F008030027AB60E38822892B6197
S31508004E40638943EA02432B62A54B9D4201D1022F97
S31508004E5008D1012305F580556B600FB0BDEC048BB6
S31508004E60BDE8F08F002234789E489F49D6F808801E
S31508004E70944218BF014623462846CDF800B0FFF7EE
S31508004E805DFF1FFA88F88045434638BF034605EBA1
S31508004E9007120593936C04F0030123F0435323F49C
S31508004EA01D1323F4435323F03F03194373783079D2
S31508004EB09B0003F01C0C41EA0C03B1784FEA071972
S31508004EC04901C9B21943F3781B0303F4E0430B43C2
S31508004ED0010401F4E0210B43317C490501F460012A
S31508004EE00B437179090701F040510B439364936CA6
S31508004EF07E4AC3F30233013B042B1ED8DFE803F0D6
S31508004F001D1D03151A00D2F880214FEA124A012CFA
S31508004F1016D9022C00F01B81059B3A01C3F3090040
S31508004F20734B0137985014368EE7D2F884211FFA4E
S31508004F3082FAECE7D2F88421E7E7D2F88021F6E78F
S31508004F4005EB09039A6CC2F30232531E012B674B19
S31508004F5070D8DFED727AD3F880311FFA83F8012210
S31508004F6009F1B24909F58049D9F8481028F4C0432F
S31508004F70C1F3820101F1010C02FA0CFC07EE10CA1A
S31508004F804FEA834A18F4004FB8EEC79AF6EE008A3D
S31508004F90564A18BF4AF0004A00297BD1002C76D120
S31508004FA0D2F88C2113B208EE103AB8EEC88A37EE5A
S31508004FB0888A002840F0B48007A800F0F9FADFEDE7
S31508004FC04D7ADFED4D6A86EE897ADFED4C6A67EE3B
S31508004FD0887A27EE267AF1EE006ABAF1004F07EED4
S31508004FE0A67A0BD0DFED466A07EE908A37EE266A78
S31508004FF0FAEEE87AB0EE667A17EE867AB5EEC07AF9
S31508005000F1EE10FACABFB1EE477A38EEC77A37EE34
S31508005010687AFDEEC77A17EE902AB2F5003FC0F21D
S315080050208C806FEA5A436FEA43432D497A1D120171
S315080050308B5071E7032A0FD1D3F880214FEA124823
S315080050403CB9D3F88C311B1407EE903AF8EEE77AA0
S3150800505085E7D3F89431F6E7042AD3F884210AD1F0
S315080050601FFA82F824B9D3F88C311B145B00EBE7DE
S31508005070D3F89431F9E74FEA12482CB9D3F88C31B2
S315080050801B1403EB4303DFE7D3F89431F8E7D2F8B0
S31508005090942187E7ACB9D2F8902112B207EE102A0C
S315080050A0B8EEC77A77EE677A29EE287A0F4A87EE3E
S315080050B0878AD2F8882113B207EE903AF8EEE77A93
S315080050C075E7D2F8982113B207EE103AB8EEC77A08
S315080050D037EE677A77EE877AE6E700BF005A62020C
S315080050E000400059404B4C00809698000080E00F25
S315080050F0544000593D3B843F000080430000204453
S315080051000000004970A1050800007A440000B84272
S3150800511000000038E71B753F00000047000000004C
S31508005120D6ED037A5FED086AF8EE677A87EEA67A17
S31508005130F7EE046AC6EE877A43E712F5003FAABF80
S31508005140C2F311024AF4003342EA0A036DE7FFF795
S3150800515023FE07EE900A1FED147AF8EE677A09F136
S31508005160B24303F580439B6C0EAAC3F3421302EBCA
S315080051708303C7EE875A53ED066A5FED1C7AF4EE91
S31508005180676AB7EE006AF1EE10FA1CBF76EE867A09
S3150800519086EEA77A07EE90AA5FED238AF8EE677A7D
S315080051A008BF1FED247A67EEA87A67EE877A1FEDA7
S315080051B0267A67EE877AF5EEC07AB6EE008AF1EEC1
S315080051C010FA4CBF77EEC87A77EE887A09F1B244BE
S315080051D004F58044236DFDEEE77A0023236517EE78
S315080051E0903A17EE902A13F4004F236D5FED357A47
S315080051F018BF43F0004323652E4B216D03EA824313
S315080052000B4323652C4BD3F88811D3F888311BB28E
S3150800521007EE103AB8EEC77A37EE277ADFED277A27
S3150800522087EEA65A76EE866AB7EE046AC5EE267A41
S31508005230C6EE256A26EE877AF1EE006A47EE267AEA
S315080052409FED1F7A77EE877A17EE900A51F058F994
S3150800525007EE90AAB8EEE77A67EE287A804617EE48
S31508005260900A894651F04CF901F1004302900393E4
S31508005270DDE902234046494654F096FA0022114BCE
S3150800528050F0E0FF51F094F907EE900AF5EEC07A77
S31508005290F1EE10FA4CBF77EEC87A77EE887AFDEE13
S315080052A0E77A17EE903A226DC3F311031343236589
S315080052B032E600BF0000FC7F0080E00F0000804857
S315080052C00000004900002041044A054B002918BF88
S315080052D01346012202FA00F0186070474020045075
S315080052E04010045010B5012104462020FEF73EF870
S315080052F001212120FEF73AF80122114B5A60227843
S3150800530012069A606178A27842EA01429A61FF22FF
S315080053109A6200229A631A644FF000425A654FF067
S31508005320FF324FF4001103F500531A65054AC2F817
S315080053308011E3781B01DBB282F81533116010BDCA
S315080053400000045000E100E02DE9F0410125C3B258
S31508005350D1F8008091F80AC00F7B91F80DE09D40C6
S315080053600C46CB7A1C491D4E0D65810001F1A04102
S3150800537001F58821C1F80480302101FB00601B0576
S3150800538043EA0C4343EA475322F00302C0F860E0BD
S31508005390C3650267FEF75BFE736D2B437365237A5D
S315080053A013B1336C2B433364637A13B1B36B2B435A
S315080053B0B3632279A37943EA0243074A9361617981
S315080053C0E37943EA014306498B61044B55639D64BF
S315080053D0BDE8F041FEF741BE00200450000004502D
S315080053E00010045010B50124C0B28440FEF72FFE09
S315080053F0044B5A6D22EA04025A659C62BDE81040C5
S31508005400FEF72BBE00000450F8B50125C3B20446CA
S315080054109D40FEF71CFE3022094B1E6D5F6B02FB9A
S3150800542004335C6EFEF719FE3D4206D1C4F30A103A
S3150800543008B9354200D10130F8BD0020FCE700BFAD
S31508005440000004504FF48032054B9A6641F67132DB
S3150800545003F51C33DA63012203F50053DA6070475B
S315080054600090005041F671320121064BDA6303F5CC
S315080054700052D1600022DA634FF48032A3F5183364
S315080054809A66704700000350013831289ABF024BCC
S31508005490185C0020704700BF92A10508122801D0A9
S315080054A0142804D1022904D0032908BF012108467B
S315080054B070470021FBE7000010B5C2F30623044637
S315080054C002F0070241B942EA03220B4B42F440229A
S315080054D0063443F8242010BD18461146FFF7DEFFB0
S315080054E001461846FFF7D0FF034B41EA0020163461
S315080054F043F82400EFE700BF008003500A4392B246
S315080055000021FFF7D9BF3AB122F0030202F1A04207
